{
  "_format": "hh-sol-artifact-1",
  "contractName": "PaymentEscrow",
  "sourceName": "contracts/PaymentEscrow.sol",
  "abi": [
    {
      "inputs": [
        {
          "internalType": "address",
          "name": "_stablecoin",
          "type": "address"
        },
        {
          "internalType": "address",
          "name": "_platformWallet",
          "type": "address"
        }
      ],
      "stateMutability": "nonpayable",
      "type": "constructor"
    },
    {
      "inputs": [
        {
          "internalType": "address",
          "name": "owner",
          "type": "address"
        }
      ],
      "name": "OwnableInvalidOwner",
      "type": "error"
    },
    {
      "inputs": [
        {
          "internalType": "address",
          "name": "account",
          "type": "address"
        }
      ],
      "name": "OwnableUnauthorizedAccount",
      "type": "error"
    },
    {
      "anonymous": false,
      "inputs": [
        {
          "indexed": true,
          "internalType": "address",
          "name": "creator",
          "type": "address"
        },
        {
          "indexed": false,
          "internalType": "uint8",
          "name": "rating",
          "type": "uint8"
        }
      ],
      "name": "BuyerRated",
      "type": "event"
    },
    {
      "anonymous": false,
      "inputs": [
        {
          "indexed": false,
          "internalType": "uint256",
          "name": "purchaseId",
          "type": "uint256"
        },
        {
          "indexed": true,
          "internalType": "address",
          "name": "approver",
          "type": "address"
        }
      ],
      "name": "ContentApproved",
      "type": "event"
    },
    {
      "anonymous": false,
      "inputs": [
        {
          "indexed": true,
          "internalType": "address",
          "name": "creator",
          "type": "address"
        },
        {
          "indexed": false,
          "internalType": "uint256",
          "name": "amount",
          "type": "uint256"
        }
      ],
      "name": "CreatorWithdraw",
      "type": "event"
    },
    {
      "anonymous": false,
      "inputs": [
        {
          "indexed": false,
          "internalType": "uint256",
          "name": "purchaseId",
          "type": "uint256"
        },
        {
          "indexed": true,
          "internalType": "address",
          "name": "buyer",
          "type": "address"
        },
        {
          "indexed": false,
          "internalType": "uint256",
          "name": "amount",
          "type": "uint256"
        },
        {
          "indexed": false,
          "internalType": "string",
          "name": "paymentReference",
          "type": "string"
        }
      ],
      "name": "FiatPaymentVerified",
      "type": "event"
    },
    {
      "anonymous": false,
      "inputs": [
        {
          "indexed": true,
          "internalType": "address",
          "name": "previousOwner",
          "type": "address"
        },
        {
          "indexed": true,
          "internalType": "address",
          "name": "newOwner",
          "type": "address"
        }
      ],
      "name": "OwnershipTransferred",
      "type": "event"
    },
    {
      "anonymous": false,
      "inputs": [
        {
          "indexed": false,
          "internalType": "uint256",
          "name": "purchaseId",
          "type": "uint256"
        },
        {
          "indexed": true,
          "internalType": "address",
          "name": "buyer",
          "type": "address"
        },
        {
          "indexed": true,
          "internalType": "address",
          "name": "creator",
          "type": "address"
        },
        {
          "indexed": false,
          "internalType": "uint256",
          "name": "amount",
          "type": "uint256"
        },
        {
          "indexed": false,
          "internalType": "string",
          "name": "method",
          "type": "string"
        }
      ],
      "name": "PaymentReceived",
      "type": "event"
    },
    {
      "anonymous": false,
      "inputs": [
        {
          "indexed": false,
          "internalType": "uint256",
          "name": "purchaseId",
          "type": "uint256"
        },
        {
          "indexed": true,
          "internalType": "address",
          "name": "buyer",
          "type": "address"
        }
      ],
      "name": "RefundIssued",
      "type": "event"
    },
    {
      "inputs": [
        {
          "internalType": "uint256",
          "name": "purchaseId",
          "type": "uint256"
        }
      ],
      "name": "approveContent",
      "outputs": [],
      "stateMutability": "nonpayable",
      "type": "function"
    },
    {
      "inputs": [
        {
          "internalType": "address",
          "name": "",
          "type": "address"
        }
      ],
      "name": "buyerRewards",
      "outputs": [
        {
          "internalType": "uint256",
          "name": "",
          "type": "uint256"
        }
      ],
      "stateMutability": "view",
      "type": "function"
    },
    {
      "inputs": [
        {
          "internalType": "uint256",
          "name": "purchaseId",
          "type": "uint256"
        }
      ],
      "name": "confirmDelivery",
      "outputs": [],
      "stateMutability": "nonpayable",
      "type": "function"
    },
    {
      "inputs": [
        {
          "internalType": "address",
          "name": "",
          "type": "address"
        }
      ],
      "name": "creatorBalances",
      "outputs": [
        {
          "internalType": "uint256",
          "name": "",
          "type": "uint256"
        }
      ],
      "stateMutability": "view",
      "type": "function"
    },
    {
      "inputs": [],
      "name": "escrowTimeLimit",
      "outputs": [
        {
          "internalType": "uint256",
          "name": "",
          "type": "uint256"
        }
      ],
      "stateMutability": "view",
      "type": "function"
    },
    {
      "inputs": [
        {
          "internalType": "address",
          "name": "creator",
          "type": "address"
        }
      ],
      "name": "getAverageRating",
      "outputs": [
        {
          "internalType": "uint256",
          "name": "",
          "type": "uint256"
        }
      ],
      "stateMutability": "view",
      "type": "function"
    },
    {
      "inputs": [
        {
          "internalType": "address",
          "name": "buyer",
          "type": "address"
        }
      ],
      "name": "getBuyerRewards",
      "outputs": [
        {
          "internalType": "uint256",
          "name": "",
          "type": "uint256"
        }
      ],
      "stateMutability": "view",
      "type": "function"
    },
    {
      "inputs": [],
      "name": "owner",
      "outputs": [
        {
          "internalType": "address",
          "name": "",
          "type": "address"
        }
      ],
      "stateMutability": "view",
      "type": "function"
    },
    {
      "inputs": [
        {
          "internalType": "address",
          "name": "creator",
          "type": "address"
        }
      ],
      "name": "payWithETH",
      "outputs": [],
      "stateMutability": "payable",
      "type": "function"
    },
    {
      "inputs": [
        {
          "internalType": "address",
          "name": "creator",
          "type": "address"
        },
        {
          "internalType": "uint256",
          "name": "amount",
          "type": "uint256"
        }
      ],
      "name": "payWithStablecoin",
      "outputs": [],
      "stateMutability": "nonpayable",
      "type": "function"
    },
    {
      "inputs": [],
      "name": "platformFeePercentage",
      "outputs": [
        {
          "internalType": "uint256",
          "name": "",
          "type": "uint256"
        }
      ],
      "stateMutability": "view",
      "type": "function"
    },
    {
      "inputs": [],
      "name": "platformWallet",
      "outputs": [
        {
          "internalType": "address",
          "name": "",
          "type": "address"
        }
      ],
      "stateMutability": "view",
      "type": "function"
    },
    {
      "inputs": [
        {
          "internalType": "address",
          "name": "buyer",
          "type": "address"
        },
        {
          "internalType": "address",
          "name": "creator",
          "type": "address"
        },
        {
          "internalType": "uint256",
          "name": "amount",
          "type": "uint256"
        },
        {
          "internalType": "string",
          "name": "paymentReference",
          "type": "string"
        }
      ],
      "name": "processMPesaPayment",
      "outputs": [],
      "stateMutability": "nonpayable",
      "type": "function"
    },
    {
      "inputs": [],
      "name": "purchaseCounter",
      "outputs": [
        {
          "internalType": "uint256",
          "name": "",
          "type": "uint256"
        }
      ],
      "stateMutability": "view",
      "type": "function"
    },
    {
      "inputs": [
        {
          "internalType": "uint256",
          "name": "",
          "type": "uint256"
        }
      ],
      "name": "purchases",
      "outputs": [
        {
          "internalType": "address",
          "name": "buyer",
          "type": "address"
        },
        {
          "internalType": "address",
          "name": "creator",
          "type": "address"
        },
        {
          "internalType": "uint256",
          "name": "amount",
          "type": "uint256"
        },
        {
          "internalType": "bool",
          "name": "buyerApproval",
          "type": "bool"
        },
        {
          "internalType": "bool",
          "name": "creatorApproval",
          "type": "bool"
        },
        {
          "internalType": "uint256",
          "name": "deadline",
          "type": "uint256"
        },
        {
          "internalType": "bool",
          "name": "refunded",
          "type": "bool"
        }
      ],
      "stateMutability": "view",
      "type": "function"
    },
    {
      "inputs": [
        {
          "internalType": "address",
          "name": "creator",
          "type": "address"
        },
        {
          "internalType": "uint8",
          "name": "rating",
          "type": "uint8"
        }
      ],
      "name": "rateCreator",
      "outputs": [],
      "stateMutability": "nonpayable",
      "type": "function"
    },
    {
      "inputs": [
        {
          "internalType": "address",
          "name": "",
          "type": "address"
        }
      ],
      "name": "ratings",
      "outputs": [
        {
          "internalType": "uint256",
          "name": "",
          "type": "uint256"
        }
      ],
      "stateMutability": "view",
      "type": "function"
    },
    {
      "inputs": [],
      "name": "renounceOwnership",
      "outputs": [],
      "stateMutability": "nonpayable",
      "type": "function"
    },
    {
      "inputs": [
        {
          "internalType": "uint256",
          "name": "purchaseId",
          "type": "uint256"
        }
      ],
      "name": "requestRefund",
      "outputs": [],
      "stateMutability": "nonpayable",
      "type": "function"
    },
    {
      "inputs": [],
      "name": "stablecoin",
      "outputs": [
        {
          "internalType": "address",
          "name": "",
          "type": "address"
        }
      ],
      "stateMutability": "view",
      "type": "function"
    },
    {
      "inputs": [
        {
          "internalType": "address",
          "name": "",
          "type": "address"
        }
      ],
      "name": "totalRatings",
      "outputs": [
        {
          "internalType": "uint256",
          "name": "",
          "type": "uint256"
        }
      ],
      "stateMutability": "view",
      "type": "function"
    },
    {
      "inputs": [
        {
          "internalType": "address",
          "name": "newOwner",
          "type": "address"
        }
      ],
      "name": "transferOwnership",
      "outputs": [],
      "stateMutability": "nonpayable",
      "type": "function"
    },
    {
      "inputs": [],
      "name": "withdrawFunds",
      "outputs": [],
      "stateMutability": "nonpayable",
      "type": "function"
    }
  ],
  "bytecode": "0x60806040526203f480600855600560095534801561001c57600080fd5b50604051612f9e380380612f9e833981810160405281019061003e9190610271565b30600073ffffffffffffffffffffffffffffffffffffffff168173ffffffffffffffffffffffffffffffffffffffff16036100b15760006040517f1e4fbdf70000000000000000000000000000000000000000000000000000000081526004016100a891906102c0565b60405180910390fd5b6100c08161014a60201b60201c565b5081600760006101000a81548173ffffffffffffffffffffffffffffffffffffffff021916908373ffffffffffffffffffffffffffffffffffffffff16021790555080600a60006101000a81548173ffffffffffffffffffffffffffffffffffffffff021916908373ffffffffffffffffffffffffffffffffffffffff16021790555050506102db565b60008060009054906101000a900473ffffffffffffffffffffffffffffffffffffffff169050816000806101000a81548173ffffffffffffffffffffffffffffffffffffffff021916908373ffffffffffffffffffffffffffffffffffffffff1602179055508173ffffffffffffffffffffffffffffffffffffffff168173ffffffffffffffffffffffffffffffffffffffff167f8be0079c531659141344cd1fd0a4f28419497f9722a3daafe3b4186f6b6457e060405160405180910390a35050565b600080fd5b600073ffffffffffffffffffffffffffffffffffffffff82169050919050565b600061023e82610213565b9050919050565b61024e81610233565b811461025957600080fd5b50565b60008151905061026b81610245565b92915050565b600080604083850312156102885761028761020e565b5b60006102968582860161025c565b92505060206102a78582860161025c565b9150509250929050565b6102ba81610233565b82525050565b60006020820190506102d560008301846102b1565b92915050565b612cb4806102ea6000396000f3fe6080604052600436106101405760003560e01c80638392fe31116100b6578063c8b675221161006f578063c8b6752214610451578063cdd78cfc1461048e578063e9cbd822146104b9578063f2fde38b146104e4578063fa2af9da1461050d578063fd84cb971461053857610140565b80638392fe31146103035780638b609dab146103465780638da5cb5b146103835780639e01dfbb146103ae5780639f766246146103eb578063a4b2409e1461042857610140565b80633222365f116101085780633222365f1461020b578063454c17231461023457806357ac1d0714610271578063589c96481461029a578063604cbee4146102c3578063715018a6146102ec57610140565b8063055680f0146101455780631b41c1ff1461017057806324600fc31461019b578063279805c9146101b25780632a782802146101ce575b600080fd5b34801561015157600080fd5b5061015a610561565b6040516101679190611e45565b60405180910390f35b34801561017c57600080fd5b50610185610567565b6040516101929190611e45565b60405180910390f35b3480156101a757600080fd5b506101b061056d565b005b6101cc60048036038101906101c79190611ed2565b6106d1565b005b3480156101da57600080fd5b506101f560048036038101906101f09190611ed2565b6109c0565b6040516102029190611e45565b60405180910390f35b34801561021757600080fd5b50610232600480360381019061022d9190612071565b6109d8565b005b34801561024057600080fd5b5061025b60048036038101906102569190611ed2565b610cbd565b6040516102689190611e45565b60405180910390f35b34801561027d57600080fd5b506102986004803603810190610293919061212d565b610d06565b005b3480156102a657600080fd5b506102c160048036038101906102bc919061216d565b610eca565b005b3480156102cf57600080fd5b506102ea60048036038101906102e5919061219a565b61105a565b005b3480156102f857600080fd5b506103016114c5565b005b34801561030f57600080fd5b5061032a6004803603810190610325919061216d565b6114d9565b60405161033d9796959493929190612204565b60405180910390f35b34801561035257600080fd5b5061036d60048036038101906103689190611ed2565b611582565b60405161037a9190611e45565b60405180910390f35b34801561038f57600080fd5b5061039861159a565b6040516103a59190612273565b60405180910390f35b3480156103ba57600080fd5b506103d560048036038101906103d09190611ed2565b6115c3565b6040516103e29190611e45565b60405180910390f35b3480156103f757600080fd5b50610412600480360381019061040d9190611ed2565b6115db565b60405161041f9190611e45565b60405180910390f35b34801561043457600080fd5b5061044f600480360381019061044a919061216d565b6115f3565b005b34801561045d57600080fd5b5061047860048036038101906104739190611ed2565b611893565b6040516104859190611e45565b60405180910390f35b34801561049a57600080fd5b506104a3611976565b6040516104b09190611e45565b60405180910390f35b3480156104c557600080fd5b506104ce61197c565b6040516104db9190612273565b60405180910390f35b3480156104f057600080fd5b5061050b60048036038101906105069190611ed2565b6119a2565b005b34801561051957600080fd5b50610522611a28565b60405161052f9190612273565b60405180910390f35b34801561054457600080fd5b5061055f600480360381019061055a919061216d565b611a4e565b005b60065481565b60085481565b6000600260003373ffffffffffffffffffffffffffffffffffffffff1673ffffffffffffffffffffffffffffffffffffffff168152602001908152602001600020549050600081116105f4576040517f08c379a00000000000000000000000000000000000000000000000000000000081526004016105eb906122eb565b60405180910390fd5b6000600260003373ffffffffffffffffffffffffffffffffffffffff1673ffffffffffffffffffffffffffffffffffffffff168152602001908152602001600020819055503373ffffffffffffffffffffffffffffffffffffffff166108fc829081150290604051600060405180830381858888f1935050505015801561067f573d6000803e3d6000fd5b503373ffffffffffffffffffffffffffffffffffffffff167f957727802c31109adcff14fcfbd2dc576e9bfd4d6385ddd160fe42832a4555fe826040516106c69190611e45565b60405180910390a250565b60003411610714576040517f08c379a000000000000000000000000000000000000000000000000000000000815260040161070b90612357565b60405180910390fd5b600060646009543461072691906123a6565b6107309190612417565b9050600081346107409190612448565b9050600660008154809291906107559061247c565b91905055506040518060e001604052803373ffffffffffffffffffffffffffffffffffffffff1681526020018473ffffffffffffffffffffffffffffffffffffffff168152602001828152602001600015158152602001600015158152602001600854426107c391906124c4565b81526020016000151581525060016000600654815260200190815260200160002060008201518160000160006101000a81548173ffffffffffffffffffffffffffffffffffffffff021916908373ffffffffffffffffffffffffffffffffffffffff16021790555060208201518160010160006101000a81548173ffffffffffffffffffffffffffffffffffffffff021916908373ffffffffffffffffffffffffffffffffffffffff1602179055506040820151816002015560608201518160030160006101000a81548160ff02191690831515021790555060808201518160030160016101000a81548160ff02191690831515021790555060a0820151816004015560c08201518160050160006101000a81548160ff021916908315150217905550905050600a60009054906101000a900473ffffffffffffffffffffffffffffffffffffffff1673ffffffffffffffffffffffffffffffffffffffff166108fc839081150290604051600060405180830381858888f19350505050158015610951573d6000803e3d6000fd5b508273ffffffffffffffffffffffffffffffffffffffff163373ffffffffffffffffffffffffffffffffffffffff167f62b4265ef816f751a94c5c93fa40a90302c6924509b973ed4094dcf30c6c61ed600654346040516109b3929190612544565b60405180910390a3505050565b60026020528060005260406000206000915090505481565b6109e0611bde565b60008211610a23576040517f08c379a0000000000000000000000000000000000000000000000000000000008152600401610a1a906125cc565b60405180910390fd5b6000606460095484610a3591906123a6565b610a3f9190612417565b905060008184610a4f9190612448565b9050600a60009054906101000a900473ffffffffffffffffffffffffffffffffffffffff1673ffffffffffffffffffffffffffffffffffffffff166108fc839081150290604051600060405180830381858888f19350505050158015610ab9573d6000803e3d6000fd5b5060066000815480929190610acd9061247c565b91905055506040518060e001604052808773ffffffffffffffffffffffffffffffffffffffff1681526020018673ffffffffffffffffffffffffffffffffffffffff16815260200182815260200160001515815260200160001515815260200160085442610b3b91906124c4565b81526020016000151581525060016000600654815260200190815260200160002060008201518160000160006101000a81548173ffffffffffffffffffffffffffffffffffffffff021916908373ffffffffffffffffffffffffffffffffffffffff16021790555060208201518160010160006101000a81548173ffffffffffffffffffffffffffffffffffffffff021916908373ffffffffffffffffffffffffffffffffffffffff1602179055506040820151816002015560608201518160030160006101000a81548160ff02191690831515021790555060808201518160030160016101000a81548160ff02191690831515021790555060a0820151816004015560c08201518160050160006101000a81548160ff0219169083151502179055509050508573ffffffffffffffffffffffffffffffffffffffff167fcab36cec3e30686ba4bd5c4316f76e9e8e4ac8eb1668be5c825146cf112244796006548686604051610cad9392919061265a565b60405180910390a2505050505050565b6000600360008373ffffffffffffffffffffffffffffffffffffffff1673ffffffffffffffffffffffffffffffffffffffff168152602001908152602001600020549050919050565b60008160ff16118015610d1d575060058160ff1611155b610d5c576040517f08c379a0000000000000000000000000000000000000000000000000000000008152600401610d53906126e4565b60405180910390fd5b3373ffffffffffffffffffffffffffffffffffffffff168273ffffffffffffffffffffffffffffffffffffffff1603610dca576040517f08c379a0000000000000000000000000000000000000000000000000000000008152600401610dc190612750565b60405180910390fd5b8060ff16600460008473ffffffffffffffffffffffffffffffffffffffff1673ffffffffffffffffffffffffffffffffffffffff1681526020019081526020016000206000828254610e1c91906124c4565b92505081905550600560008373ffffffffffffffffffffffffffffffffffffffff1673ffffffffffffffffffffffffffffffffffffffff1681526020019081526020016000206000815480929190610e739061247c565b91905055508173ffffffffffffffffffffffffffffffffffffffff167fcff064d89477505103315f73f5e691bd8bcdcf9f4bfe2e4713bcdbac12810db482604051610ebe919061277f565b60405180910390a25050565b3373ffffffffffffffffffffffffffffffffffffffff166001600083815260200190815260200160002060000160009054906101000a900473ffffffffffffffffffffffffffffffffffffffff1673ffffffffffffffffffffffffffffffffffffffff1614610f6e576040517f08c379a0000000000000000000000000000000000000000000000000000000008152600401610f65906127e6565b60405180910390fd5b6001600082815260200190815260200160002060030160009054906101000a900460ff1615610fd2576040517f08c379a0000000000000000000000000000000000000000000000000000000008152600401610fc990612852565b60405180910390fd5b600180600083815260200190815260200160002060030160006101000a81548160ff0219169083151502179055503373ffffffffffffffffffffffffffffffffffffffff167fff0391c86d08750af277dd496813bf415c212a98090e0f6807c72d7f35eab113826040516110469190611e45565b60405180910390a261105781611c65565b50565b6000811161109d576040517f08c379a0000000000000000000000000000000000000000000000000000000008152600401611094906125cc565b60405180910390fd5b60006064600954836110af91906123a6565b6110b99190612417565b9050600081836110c99190612448565b9050600760009054906101000a900473ffffffffffffffffffffffffffffffffffffffff1673ffffffffffffffffffffffffffffffffffffffff166323b872dd33600a60009054906101000a900473ffffffffffffffffffffffffffffffffffffffff16856040518463ffffffff1660e01b815260040161114c93929190612872565b6020604051808303816000875af115801561116b573d6000803e3d6000fd5b505050506040513d601f19601f8201168201806040525081019061118f91906128d5565b6111ce576040517f08c379a00000000000000000000000000000000000000000000000000000000081526004016111c59061294e565b60405180910390fd5b600760009054906101000a900473ffffffffffffffffffffffffffffffffffffffff1673ffffffffffffffffffffffffffffffffffffffff166323b872dd3330846040518463ffffffff1660e01b815260040161122d93929190612872565b6020604051808303816000875af115801561124c573d6000803e3d6000fd5b505050506040513d601f19601f8201168201806040525081019061127091906128d5565b6112af576040517f08c379a00000000000000000000000000000000000000000000000000000000081526004016112a6906129ba565b60405180910390fd5b600660008154809291906112c29061247c565b91905055506040518060e001604052803373ffffffffffffffffffffffffffffffffffffffff1681526020018573ffffffffffffffffffffffffffffffffffffffff1681526020018281526020016000151581526020016000151581526020016008544261133091906124c4565b81526020016000151581525060016000600654815260200190815260200160002060008201518160000160006101000a81548173ffffffffffffffffffffffffffffffffffffffff021916908373ffffffffffffffffffffffffffffffffffffffff16021790555060208201518160010160006101000a81548173ffffffffffffffffffffffffffffffffffffffff021916908373ffffffffffffffffffffffffffffffffffffffff1602179055506040820151816002015560608201518160030160006101000a81548160ff02191690831515021790555060808201518160030160016101000a81548160ff02191690831515021790555060a0820151816004015560c08201518160050160006101000a81548160ff0219169083151502179055509050508373ffffffffffffffffffffffffffffffffffffffff163373ffffffffffffffffffffffffffffffffffffffff167f62b4265ef816f751a94c5c93fa40a90302c6924509b973ed4094dcf30c6c61ed600654866040516114b7929190612a26565b60405180910390a350505050565b6114cd611bde565b6114d76000611d60565b565b60016020528060005260406000206000915090508060000160009054906101000a900473ffffffffffffffffffffffffffffffffffffffff16908060010160009054906101000a900473ffffffffffffffffffffffffffffffffffffffff16908060020154908060030160009054906101000a900460ff16908060030160019054906101000a900460ff16908060040154908060050160009054906101000a900460ff16905087565b60056020528060005260406000206000915090505481565b60008060009054906101000a900473ffffffffffffffffffffffffffffffffffffffff16905090565b60046020528060005260406000206000915090505481565b60036020528060005260406000206000915090505481565b3373ffffffffffffffffffffffffffffffffffffffff166001600083815260200190815260200160002060000160009054906101000a900473ffffffffffffffffffffffffffffffffffffffff1673ffffffffffffffffffffffffffffffffffffffff1614611697576040517f08c379a000000000000000000000000000000000000000000000000000000000815260040161168e90612aae565b60405180910390fd5b600160008281526020019081526020016000206004015442116116ef576040517f08c379a00000000000000000000000000000000000000000000000000000000081526004016116e690612b1a565b60405180910390fd5b6001600082815260200190815260200160002060030160019054906101000a900460ff1615611753576040517f08c379a000000000000000000000000000000000000000000000000000000000815260040161174a90612b86565b60405180910390fd5b6001600082815260200190815260200160002060050160009054906101000a900460ff16156117b7576040517f08c379a00000000000000000000000000000000000000000000000000000000081526004016117ae90612bf2565b60405180910390fd5b600180600083815260200190815260200160002060050160006101000a81548160ff0219169083151502179055503373ffffffffffffffffffffffffffffffffffffffff166108fc60016000848152602001908152602001600020600201549081150290604051600060405180830381858888f19350505050158015611841573d6000803e3d6000fd5b503373ffffffffffffffffffffffffffffffffffffffff167f4f98299055c017596024bf5f17efb243bb559423f63a766e2effca248d0a9521826040516118889190611e45565b60405180910390a250565b600080600560008473ffffffffffffffffffffffffffffffffffffffff1673ffffffffffffffffffffffffffffffffffffffff16815260200190815260200160002054036118e45760009050611971565b600560008373ffffffffffffffffffffffffffffffffffffffff1673ffffffffffffffffffffffffffffffffffffffff16815260200190815260200160002054600460008473ffffffffffffffffffffffffffffffffffffffff1673ffffffffffffffffffffffffffffffffffffffff1681526020019081526020016000205461196e9190612417565b90505b919050565b60095481565b600760009054906101000a900473ffffffffffffffffffffffffffffffffffffffff1681565b6119aa611bde565b600073ffffffffffffffffffffffffffffffffffffffff168173ffffffffffffffffffffffffffffffffffffffff1603611a1c5760006040517f1e4fbdf7000000000000000000000000000000000000000000000000000000008152600401611a139190612273565b60405180910390fd5b611a2581611d60565b50565b600a60009054906101000a900473ffffffffffffffffffffffffffffffffffffffff1681565b3373ffffffffffffffffffffffffffffffffffffffff166001600083815260200190815260200160002060010160009054906101000a900473ffffffffffffffffffffffffffffffffffffffff1673ffffffffffffffffffffffffffffffffffffffff1614611af2576040517f08c379a0000000000000000000000000000000000000000000000000000000008152600401611ae990612c5e565b60405180910390fd5b6001600082815260200190815260200160002060030160019054906101000a900460ff1615611b56576040517f08c379a0000000000000000000000000000000000000000000000000000000008152600401611b4d90612852565b60405180910390fd5b600180600083815260200190815260200160002060030160016101000a81548160ff0219169083151502179055503373ffffffffffffffffffffffffffffffffffffffff167fff0391c86d08750af277dd496813bf415c212a98090e0f6807c72d7f35eab11382604051611bca9190611e45565b60405180910390a2611bdb81611c65565b50565b611be6611e24565b73ffffffffffffffffffffffffffffffffffffffff16611c0461159a565b73ffffffffffffffffffffffffffffffffffffffff1614611c6357611c27611e24565b6040517f118cdaa7000000000000000000000000000000000000000000000000000000008152600401611c5a9190612273565b60405180910390fd5b565b6001600082815260200190815260200160002060030160009054906101000a900460ff168015611cb557506001600082815260200190815260200160002060030160019054906101000a900460ff165b15611d5d576001600082815260200190815260200160002060020154600260006001600085815260200190815260200160002060010160009054906101000a900473ffffffffffffffffffffffffffffffffffffffff1673ffffffffffffffffffffffffffffffffffffffff1673ffffffffffffffffffffffffffffffffffffffff1681526020019081526020016000206000828254611d5591906124c4565b925050819055505b50565b60008060009054906101000a900473ffffffffffffffffffffffffffffffffffffffff169050816000806101000a81548173ffffffffffffffffffffffffffffffffffffffff021916908373ffffffffffffffffffffffffffffffffffffffff1602179055508173ffffffffffffffffffffffffffffffffffffffff168173ffffffffffffffffffffffffffffffffffffffff167f8be0079c531659141344cd1fd0a4f28419497f9722a3daafe3b4186f6b6457e060405160405180910390a35050565b600033905090565b6000819050919050565b611e3f81611e2c565b82525050565b6000602082019050611e5a6000830184611e36565b92915050565b6000604051905090565b600080fd5b600080fd5b600073ffffffffffffffffffffffffffffffffffffffff82169050919050565b6000611e9f82611e74565b9050919050565b611eaf81611e94565b8114611eba57600080fd5b50565b600081359050611ecc81611ea6565b92915050565b600060208284031215611ee857611ee7611e6a565b5b6000611ef684828501611ebd565b91505092915050565b611f0881611e2c565b8114611f1357600080fd5b50565b600081359050611f2581611eff565b92915050565b600080fd5b600080fd5b6000601f19601f8301169050919050565b7f4e487b7100000000000000000000000000000000000000000000000000000000600052604160045260246000fd5b611f7e82611f35565b810181811067ffffffffffffffff82111715611f9d57611f9c611f46565b5b80604052505050565b6000611fb0611e60565b9050611fbc8282611f75565b919050565b600067ffffffffffffffff821115611fdc57611fdb611f46565b5b611fe582611f35565b9050602081019050919050565b82818337600083830152505050565b600061201461200f84611fc1565b611fa6565b9050828152602081018484840111156120305761202f611f30565b5b61203b848285611ff2565b509392505050565b600082601f83011261205857612057611f2b565b5b8135612068848260208601612001565b91505092915050565b6000806000806080858703121561208b5761208a611e6a565b5b600061209987828801611ebd565b94505060206120aa87828801611ebd565b93505060406120bb87828801611f16565b925050606085013567ffffffffffffffff8111156120dc576120db611e6f565b5b6120e887828801612043565b91505092959194509250565b600060ff82169050919050565b61210a816120f4565b811461211557600080fd5b50565b60008135905061212781612101565b92915050565b6000806040838503121561214457612143611e6a565b5b600061215285828601611ebd565b925050602061216385828601612118565b9150509250929050565b60006020828403121561218357612182611e6a565b5b600061219184828501611f16565b91505092915050565b600080604083850312156121b1576121b0611e6a565b5b60006121bf85828601611ebd565b92505060206121d085828601611f16565b9150509250929050565b6121e381611e94565b82525050565b60008115159050919050565b6121fe816121e9565b82525050565b600060e082019050612219600083018a6121da565b61222660208301896121da565b6122336040830188611e36565b61224060608301876121f5565b61224d60808301866121f5565b61225a60a0830185611e36565b61226760c08301846121f5565b98975050505050505050565b600060208201905061228860008301846121da565b92915050565b600082825260208201905092915050565b7f4e6f2066756e647320617661696c61626c650000000000000000000000000000600082015250565b60006122d560128361228e565b91506122e08261229f565b602082019050919050565b60006020820190508181036000830152612304816122c8565b9050919050565b7f5061796d656e74206d7573742062652067726561746572207468616e20300000600082015250565b6000612341601e8361228e565b915061234c8261230b565b602082019050919050565b6000602082019050818103600083015261237081612334565b9050919050565b7f4e487b7100000000000000000000000000000000000000000000000000000000600052601160045260246000fd5b60006123b182611e2c565b91506123bc83611e2c565b92508282026123ca81611e2c565b915082820484148315176123e1576123e0612377565b5b5092915050565b7f4e487b7100000000000000000000000000000000000000000000000000000000600052601260045260246000fd5b600061242282611e2c565b915061242d83611e2c565b92508261243d5761243c6123e8565b5b828204905092915050565b600061245382611e2c565b915061245e83611e2c565b925082820390508181111561247657612475612377565b5b92915050565b600061248782611e2c565b91507fffffffffffffffffffffffffffffffffffffffffffffffffffffffffffffffff82036124b9576124b8612377565b5b600182019050919050565b60006124cf82611e2c565b91506124da83611e2c565b92508282019050808211156124f2576124f1612377565b5b92915050565b7f4554480000000000000000000000000000000000000000000000000000000000600082015250565b600061252e60038361228e565b9150612539826124f8565b602082019050919050565b60006060820190506125596000830185611e36565b6125666020830184611e36565b818103604083015261257781612521565b90509392505050565b7f416d6f756e74206d7573742062652067726561746572207468616e2030000000600082015250565b60006125b6601d8361228e565b91506125c182612580565b602082019050919050565b600060208201905081810360008301526125e5816125a9565b9050919050565b600081519050919050565b60005b838110156126155780820151818401526020810190506125fa565b60008484015250505050565b600061262c826125ec565b612636818561228e565b93506126468185602086016125f7565b61264f81611f35565b840191505092915050565b600060608201905061266f6000830186611e36565b61267c6020830185611e36565b818103604083015261268e8184612621565b9050949350505050565b7f526174696e67206d757374206265206265747765656e203120616e6420350000600082015250565b60006126ce601e8361228e565b91506126d982612698565b602082019050919050565b600060208201905081810360008301526126fd816126c1565b9050919050565b7f596f752063616e6e6f74207261746520796f757273656c660000000000000000600082015250565b600061273a60188361228e565b915061274582612704565b602082019050919050565b600060208201905081810360008301526127698161272d565b9050919050565b612779816120f4565b82525050565b60006020820190506127946000830184612770565b92915050565b7f4f6e6c792062757965722063616e20617070726f766500000000000000000000600082015250565b60006127d060168361228e565b91506127db8261279a565b602082019050919050565b600060208201905081810360008301526127ff816127c3565b9050919050565b7f416c726561647920617070726f76656400000000000000000000000000000000600082015250565b600061283c60108361228e565b915061284782612806565b602082019050919050565b6000602082019050818103600083015261286b8161282f565b9050919050565b600060608201905061288760008301866121da565b61289460208301856121da565b6128a16040830184611e36565b949350505050565b6128b2816121e9565b81146128bd57600080fd5b50565b6000815190506128cf816128a9565b92915050565b6000602082840312156128eb576128ea611e6a565b5b60006128f9848285016128c0565b91505092915050565b7f466565207472616e73666572206661696c656400000000000000000000000000600082015250565b600061293860138361228e565b915061294382612902565b602082019050919050565b600060208201905081810360008301526129678161292b565b9050919050565b7f537461626c65636f696e207472616e73666572206661696c6564000000000000600082015250565b60006129a4601a8361228e565b91506129af8261296e565b602082019050919050565b600060208201905081810360008301526129d381612997565b9050919050565b7f537461626c65636f696e00000000000000000000000000000000000000000000600082015250565b6000612a10600a8361228e565b9150612a1b826129da565b602082019050919050565b6000606082019050612a3b6000830185611e36565b612a486020830184611e36565b8181036040830152612a5981612a03565b90509392505050565b7f4f6e6c792062757965722063616e207265717565737420726566756e64000000600082015250565b6000612a98601d8361228e565b9150612aa382612a62565b602082019050919050565b60006020820190508181036000830152612ac781612a8b565b9050919050565b7f457363726f772074696d65206e6f742065787069726564000000000000000000600082015250565b6000612b0460178361228e565b9150612b0f82612ace565b602082019050919050565b60006020820190508181036000830152612b3381612af7565b9050919050565b7f43726561746f722068617320616c726561647920617070726f76656400000000600082015250565b6000612b70601c8361228e565b9150612b7b82612b3a565b602082019050919050565b60006020820190508181036000830152612b9f81612b63565b9050919050565b7f416c726561647920726566756e64656400000000000000000000000000000000600082015250565b6000612bdc60108361228e565b9150612be782612ba6565b602082019050919050565b60006020820190508181036000830152612c0b81612bcf565b9050919050565b7f4f6e6c792063726561746f722063616e20636f6e6669726d0000000000000000600082015250565b6000612c4860188361228e565b9150612c5382612c12565b602082019050919050565b60006020820190508181036000830152612c7781612c3b565b905091905056fea2646970667358221220142f393df37e8b498bee88b861ad1341c81c61a86764420a31ee97426f21a46064736f6c634300081c0033",
  "linkReferences": {},
  "deployedLinkReferences": {}
}