{
  "_format": "hh-sol-artifact-1",
  "contractName": "PaymentEscrow",
  "sourceName": "contracts/PaymentEscrow.sol",
  "abi": [
    {
      "inputs": [
        {
          "internalType": "address",
          "name": "_stablecoin",
          "type": "address"
        },
        {
          "internalType": "address",
          "name": "_platformWallet",
          "type": "address"
        }
      ],
      "stateMutability": "nonpayable",
      "type": "constructor"
    },
    {
      "inputs": [
        {
          "internalType": "address",
          "name": "owner",
          "type": "address"
        }
      ],
      "name": "OwnableInvalidOwner",
      "type": "error"
    },
    {
      "inputs": [
        {
          "internalType": "address",
          "name": "account",
          "type": "address"
        }
      ],
      "name": "OwnableUnauthorizedAccount",
      "type": "error"
    },
    {
      "anonymous": false,
      "inputs": [
        {
          "indexed": true,
          "internalType": "address",
          "name": "creator",
          "type": "address"
        },
        {
          "indexed": false,
          "internalType": "uint8",
          "name": "rating",
          "type": "uint8"
        }
      ],
      "name": "BuyerRated",
      "type": "event"
    },
    {
      "anonymous": false,
      "inputs": [
        {
          "indexed": false,
          "internalType": "uint256",
          "name": "purchaseId",
          "type": "uint256"
        },
        {
          "indexed": true,
          "internalType": "address",
          "name": "approver",
          "type": "address"
        }
      ],
      "name": "ContentApproved",
      "type": "event"
    },
    {
      "anonymous": false,
      "inputs": [
        {
          "indexed": true,
          "internalType": "address",
          "name": "creator",
          "type": "address"
        },
        {
          "indexed": false,
          "internalType": "uint256",
          "name": "amount",
          "type": "uint256"
        }
      ],
      "name": "CreatorWithdraw",
      "type": "event"
    },
    {
      "anonymous": false,
      "inputs": [
        {
          "indexed": false,
          "internalType": "uint256",
          "name": "purchaseId",
          "type": "uint256"
        },
        {
          "indexed": true,
          "internalType": "address",
          "name": "buyer",
          "type": "address"
        },
        {
          "indexed": false,
          "internalType": "uint256",
          "name": "amount",
          "type": "uint256"
        },
        {
          "indexed": false,
          "internalType": "string",
          "name": "paymentReference",
          "type": "string"
        }
      ],
      "name": "FiatPaymentVerified",
      "type": "event"
    },
    {
      "anonymous": false,
      "inputs": [
        {
          "indexed": true,
          "internalType": "address",
          "name": "previousOwner",
          "type": "address"
        },
        {
          "indexed": true,
          "internalType": "address",
          "name": "newOwner",
          "type": "address"
        }
      ],
      "name": "OwnershipTransferred",
      "type": "event"
    },
    {
      "anonymous": false,
      "inputs": [
        {
          "indexed": false,
          "internalType": "uint256",
          "name": "purchaseId",
          "type": "uint256"
        },
        {
          "indexed": true,
          "internalType": "address",
          "name": "buyer",
          "type": "address"
        },
        {
          "indexed": true,
          "internalType": "address",
          "name": "creator",
          "type": "address"
        },
        {
          "indexed": false,
          "internalType": "uint256",
          "name": "amount",
          "type": "uint256"
        },
        {
          "indexed": false,
          "internalType": "string",
          "name": "method",
          "type": "string"
        }
      ],
      "name": "PaymentReceived",
      "type": "event"
    },
    {
      "anonymous": false,
      "inputs": [
        {
          "indexed": false,
          "internalType": "uint256",
          "name": "purchaseId",
          "type": "uint256"
        },
        {
          "indexed": true,
          "internalType": "address",
          "name": "buyer",
          "type": "address"
        }
      ],
      "name": "RefundIssued",
      "type": "event"
    },
    {
      "inputs": [
        {
          "internalType": "uint256",
          "name": "purchaseId",
          "type": "uint256"
        }
      ],
      "name": "approveContent",
      "outputs": [],
      "stateMutability": "nonpayable",
      "type": "function"
    },
    {
      "inputs": [
        {
          "internalType": "uint256",
          "name": "purchaseId",
          "type": "uint256"
        }
      ],
      "name": "confirmDelivery",
      "outputs": [],
      "stateMutability": "nonpayable",
      "type": "function"
    },
    {
      "inputs": [
        {
          "internalType": "address",
          "name": "",
          "type": "address"
        }
      ],
      "name": "creatorBalances",
      "outputs": [
        {
          "internalType": "uint256",
          "name": "",
          "type": "uint256"
        }
      ],
      "stateMutability": "view",
      "type": "function"
    },
    {
      "inputs": [
        {
          "internalType": "address",
          "name": "",
          "type": "address"
        }
      ],
      "name": "creatorStablecoinBalances",
      "outputs": [
        {
          "internalType": "uint256",
          "name": "",
          "type": "uint256"
        }
      ],
      "stateMutability": "view",
      "type": "function"
    },
    {
      "inputs": [],
      "name": "escrowTimeLimit",
      "outputs": [
        {
          "internalType": "uint256",
          "name": "",
          "type": "uint256"
        }
      ],
      "stateMutability": "view",
      "type": "function"
    },
    {
      "inputs": [
        {
          "internalType": "address",
          "name": "creator",
          "type": "address"
        }
      ],
      "name": "getAverageRating",
      "outputs": [
        {
          "internalType": "uint256",
          "name": "",
          "type": "uint256"
        }
      ],
      "stateMutability": "view",
      "type": "function"
    },
    {
      "inputs": [],
      "name": "owner",
      "outputs": [
        {
          "internalType": "address",
          "name": "",
          "type": "address"
        }
      ],
      "stateMutability": "view",
      "type": "function"
    },
    {
      "inputs": [
        {
          "internalType": "address",
          "name": "creator",
          "type": "address"
        }
      ],
      "name": "payWithETH",
      "outputs": [],
      "stateMutability": "payable",
      "type": "function"
    },
    {
      "inputs": [
        {
          "internalType": "address",
          "name": "creator",
          "type": "address"
        },
        {
          "internalType": "uint256",
          "name": "amount",
          "type": "uint256"
        }
      ],
      "name": "payWithStablecoin",
      "outputs": [],
      "stateMutability": "nonpayable",
      "type": "function"
    },
    {
      "inputs": [],
      "name": "platformFeePercentage",
      "outputs": [
        {
          "internalType": "uint256",
          "name": "",
          "type": "uint256"
        }
      ],
      "stateMutability": "view",
      "type": "function"
    },
    {
      "inputs": [],
      "name": "platformWallet",
      "outputs": [
        {
          "internalType": "address",
          "name": "",
          "type": "address"
        }
      ],
      "stateMutability": "view",
      "type": "function"
    },
    {
      "inputs": [
        {
          "internalType": "address",
          "name": "buyer",
          "type": "address"
        },
        {
          "internalType": "address",
          "name": "creator",
          "type": "address"
        },
        {
          "internalType": "uint256",
          "name": "amount",
          "type": "uint256"
        },
        {
          "internalType": "string",
          "name": "paymentReference",
          "type": "string"
        }
      ],
      "name": "processMPesaPayment",
      "outputs": [],
      "stateMutability": "nonpayable",
      "type": "function"
    },
    {
      "inputs": [],
      "name": "purchaseCounter",
      "outputs": [
        {
          "internalType": "uint256",
          "name": "",
          "type": "uint256"
        }
      ],
      "stateMutability": "view",
      "type": "function"
    },
    {
      "inputs": [
        {
          "internalType": "uint256",
          "name": "",
          "type": "uint256"
        }
      ],
      "name": "purchases",
      "outputs": [
        {
          "internalType": "address",
          "name": "buyer",
          "type": "address"
        },
        {
          "internalType": "address",
          "name": "creator",
          "type": "address"
        },
        {
          "internalType": "uint256",
          "name": "amount",
          "type": "uint256"
        },
        {
          "internalType": "bool",
          "name": "buyerApproval",
          "type": "bool"
        },
        {
          "internalType": "bool",
          "name": "creatorApproval",
          "type": "bool"
        },
        {
          "internalType": "uint256",
          "name": "deadline",
          "type": "uint256"
        },
        {
          "internalType": "bool",
          "name": "refunded",
          "type": "bool"
        },
        {
          "internalType": "bool",
          "name": "isStablecoin",
          "type": "bool"
        }
      ],
      "stateMutability": "view",
      "type": "function"
    },
    {
      "inputs": [
        {
          "internalType": "address",
          "name": "creator",
          "type": "address"
        },
        {
          "internalType": "uint8",
          "name": "rating",
          "type": "uint8"
        }
      ],
      "name": "rateCreator",
      "outputs": [],
      "stateMutability": "nonpayable",
      "type": "function"
    },
    {
      "inputs": [],
      "name": "renounceOwnership",
      "outputs": [],
      "stateMutability": "nonpayable",
      "type": "function"
    },
    {
      "inputs": [
        {
          "internalType": "uint256",
          "name": "purchaseId",
          "type": "uint256"
        }
      ],
      "name": "requestRefund",
      "outputs": [],
      "stateMutability": "nonpayable",
      "type": "function"
    },
    {
      "inputs": [],
      "name": "stablecoin",
      "outputs": [
        {
          "internalType": "address",
          "name": "",
          "type": "address"
        }
      ],
      "stateMutability": "view",
      "type": "function"
    },
    {
      "inputs": [
        {
          "internalType": "address",
          "name": "newOwner",
          "type": "address"
        }
      ],
      "name": "transferOwnership",
      "outputs": [],
      "stateMutability": "nonpayable",
      "type": "function"
    },
    {
      "inputs": [],
      "name": "withdrawFunds",
      "outputs": [],
      "stateMutability": "nonpayable",
      "type": "function"
    }
  ],
  "bytecode": "0x60806040526203f480600755600560085534801561001c57600080fd5b5060405161331c38038061331c833981810160405281019061003e9190610271565b33600073ffffffffffffffffffffffffffffffffffffffff168173ffffffffffffffffffffffffffffffffffffffff16036100b15760006040517f1e4fbdf70000000000000000000000000000000000000000000000000000000081526004016100a891906102c0565b60405180910390fd5b6100c08161014a60201b60201c565b5081600660006101000a81548173ffffffffffffffffffffffffffffffffffffffff021916908373ffffffffffffffffffffffffffffffffffffffff16021790555080600960006101000a81548173ffffffffffffffffffffffffffffffffffffffff021916908373ffffffffffffffffffffffffffffffffffffffff16021790555050506102db565b60008060009054906101000a900473ffffffffffffffffffffffffffffffffffffffff169050816000806101000a81548173ffffffffffffffffffffffffffffffffffffffff021916908373ffffffffffffffffffffffffffffffffffffffff1602179055508173ffffffffffffffffffffffffffffffffffffffff168173ffffffffffffffffffffffffffffffffffffffff167f8be0079c531659141344cd1fd0a4f28419497f9722a3daafe3b4186f6b6457e060405160405180910390a35050565b600080fd5b600073ffffffffffffffffffffffffffffffffffffffff82169050919050565b600061023e82610213565b9050919050565b61024e81610233565b811461025957600080fd5b50565b60008151905061026b81610245565b92915050565b600080604083850312156102885761028761020e565b5b60006102968582860161025c565b92505060206102a78582860161025c565b9150509250929050565b6102ba81610233565b82525050565b60006020820190506102d560008301846102b1565b92915050565b613032806102ea6000396000f3fe60806040526004361061011f5760003560e01c8063715018a6116100a0578063cdd78cfc11610064578063cdd78cfc146103b7578063e9cbd822146103e2578063f2fde38b1461040d578063fa2af9da14610436578063fd84cb97146104615761011f565b8063715018a6146102cb5780638392fe31146102e25780638da5cb5b14610326578063a4b2409e14610351578063c8b675221461037a5761011f565b80632e307085116100e75780632e307085146101ea5780633222365f1461022757806357ac1d0714610250578063589c964814610279578063604cbee4146102a25761011f565b8063055680f0146101245780631b41c1ff1461014f57806324600fc31461017a578063279805c9146101915780632a782802146101ad575b600080fd5b34801561013057600080fd5b5061013961048a565b604051610146919061208d565b60405180910390f35b34801561015b57600080fd5b50610164610490565b604051610171919061208d565b60405180910390f35b34801561018657600080fd5b5061018f610496565b005b6101ab60048036038101906101a6919061211a565b6107d0565b005b3480156101b957600080fd5b506101d460048036038101906101cf919061211a565b610ae9565b6040516101e1919061208d565b60405180910390f35b3480156101f657600080fd5b50610211600480360381019061020c919061211a565b610b01565b60405161021e919061208d565b60405180910390f35b34801561023357600080fd5b5061024e600480360381019061024991906122b9565b610b19565b005b34801561025c57600080fd5b5061027760048036038101906102729190612375565b610dbf565b005b34801561028557600080fd5b506102a0600480360381019061029b91906123b5565b611071565b005b3480156102ae57600080fd5b506102c960048036038101906102c491906123e2565b611201565b005b3480156102d757600080fd5b506102e0611696565b005b3480156102ee57600080fd5b50610309600480360381019061030491906123b5565b6116aa565b60405161031d98979695949392919061244c565b60405180910390f35b34801561033257600080fd5b5061033b611766565b60405161034891906124ca565b60405180910390f35b34801561035d57600080fd5b50610378600480360381019061037391906123b5565b61178f565b005b34801561038657600080fd5b506103a1600480360381019061039c919061211a565b611adc565b6040516103ae919061208d565b60405180910390f35b3480156103c357600080fd5b506103cc611b53565b6040516103d9919061208d565b60405180910390f35b3480156103ee57600080fd5b506103f7611b59565b60405161040491906124ca565b60405180910390f35b34801561041957600080fd5b50610434600480360381019061042f919061211a565b611b7f565b005b34801561044257600080fd5b5061044b611c05565b60405161045891906124ca565b60405180910390f35b34801561046d57600080fd5b50610488600480360381019061048391906123b5565b611c2b565b005b60055481565b60075481565b6000600260003373ffffffffffffffffffffffffffffffffffffffff1673ffffffffffffffffffffffffffffffffffffffff1681526020019081526020016000205490506000600360003373ffffffffffffffffffffffffffffffffffffffff1673ffffffffffffffffffffffffffffffffffffffff1681526020019081526020016000205490506000821115610602576000600260003373ffffffffffffffffffffffffffffffffffffffff1673ffffffffffffffffffffffffffffffffffffffff168152602001908152602001600020819055503373ffffffffffffffffffffffffffffffffffffffff166108fc839081150290604051600060405180830381858888f193505050501580156105b2573d6000803e3d6000fd5b503373ffffffffffffffffffffffffffffffffffffffff167f957727802c31109adcff14fcfbd2dc576e9bfd4d6385ddd160fe42832a4555fe836040516105f9919061208d565b60405180910390a25b600081111561077e576000600360003373ffffffffffffffffffffffffffffffffffffffff1673ffffffffffffffffffffffffffffffffffffffff16815260200190815260200160002081905550600660009054906101000a900473ffffffffffffffffffffffffffffffffffffffff1673ffffffffffffffffffffffffffffffffffffffff1663a9059cbb33836040518363ffffffff1660e01b81526004016106ad9291906124e5565b6020604051808303816000875af11580156106cc573d6000803e3d6000fd5b505050506040513d601f19601f820116820180604052508101906106f0919061253a565b61072f576040517f08c379a0000000000000000000000000000000000000000000000000000000008152600401610726906125c4565b60405180910390fd5b3373ffffffffffffffffffffffffffffffffffffffff167f957727802c31109adcff14fcfbd2dc576e9bfd4d6385ddd160fe42832a4555fe82604051610775919061208d565b60405180910390a25b600082118061078d5750600081115b6107cc576040517f08c379a00000000000000000000000000000000000000000000000000000000081526004016107c390612630565b60405180910390fd5b5050565b60003411610813576040517f08c379a000000000000000000000000000000000000000000000000000000000815260040161080a9061269c565b60405180910390fd5b600060646008543461082591906126eb565b61082f919061275c565b90506000813461083f919061278d565b905060056000815480929190610854906127c1565b91905055506040518061010001604052803373ffffffffffffffffffffffffffffffffffffffff1681526020018473ffffffffffffffffffffffffffffffffffffffff168152602001828152602001600015158152602001600015158152602001600754426108c39190612809565b81526020016000151581526020016000151581525060016000600554815260200190815260200160002060008201518160000160006101000a81548173ffffffffffffffffffffffffffffffffffffffff021916908373ffffffffffffffffffffffffffffffffffffffff16021790555060208201518160010160006101000a81548173ffffffffffffffffffffffffffffffffffffffff021916908373ffffffffffffffffffffffffffffffffffffffff1602179055506040820151816002015560608201518160030160006101000a81548160ff02191690831515021790555060808201518160030160016101000a81548160ff02191690831515021790555060a0820151816004015560c08201518160050160006101000a81548160ff02191690831515021790555060e08201518160050160016101000a81548160ff021916908315150217905550905050600960009054906101000a900473ffffffffffffffffffffffffffffffffffffffff1673ffffffffffffffffffffffffffffffffffffffff166108fc839081150290604051600060405180830381858888f19350505050158015610a7a573d6000803e3d6000fd5b508273ffffffffffffffffffffffffffffffffffffffff163373ffffffffffffffffffffffffffffffffffffffff167f62b4265ef816f751a94c5c93fa40a90302c6924509b973ed4094dcf30c6c61ed60055434604051610adc929190612889565b60405180910390a3505050565b60026020528060005260406000206000915090505481565b60036020528060005260406000206000915090505481565b610b21611dbb565b60008211610b64576040517f08c379a0000000000000000000000000000000000000000000000000000000008152600401610b5b90612911565b60405180910390fd5b6000606460085484610b7691906126eb565b610b80919061275c565b905060008184610b90919061278d565b905060056000815480929190610ba5906127c1565b91905055506040518061010001604052808773ffffffffffffffffffffffffffffffffffffffff1681526020018673ffffffffffffffffffffffffffffffffffffffff16815260200182815260200160001515815260200160001515815260200160075442610c149190612809565b81526020016000151581526020016000151581525060016000600554815260200190815260200160002060008201518160000160006101000a81548173ffffffffffffffffffffffffffffffffffffffff021916908373ffffffffffffffffffffffffffffffffffffffff16021790555060208201518160010160006101000a81548173ffffffffffffffffffffffffffffffffffffffff021916908373ffffffffffffffffffffffffffffffffffffffff1602179055506040820151816002015560608201518160030160006101000a81548160ff02191690831515021790555060808201518160030160016101000a81548160ff02191690831515021790555060a0820151816004015560c08201518160050160006101000a81548160ff02191690831515021790555060e08201518160050160016101000a81548160ff0219169083151502179055509050508573ffffffffffffffffffffffffffffffffffffffff167fcab36cec3e30686ba4bd5c4316f76e9e8e4ac8eb1668be5c825146cf112244796005548686604051610daf9392919061299f565b60405180910390a2505050505050565b60018160ff1610158015610dd7575060058160ff1611155b610e16576040517f08c379a0000000000000000000000000000000000000000000000000000000008152600401610e0d90612a29565b60405180910390fd5b600080600190505b6005548111610f295760006001600083815260200190815260200160002090503373ffffffffffffffffffffffffffffffffffffffff168160000160009054906101000a900473ffffffffffffffffffffffffffffffffffffffff1673ffffffffffffffffffffffffffffffffffffffff16148015610eec57508473ffffffffffffffffffffffffffffffffffffffff168160010160009054906101000a900473ffffffffffffffffffffffffffffffffffffffff1673ffffffffffffffffffffffffffffffffffffffff16145b8015610f0657508060030160009054906101000a900460ff165b15610f15576001925050610f29565b508080610f21906127c1565b915050610e1e565b5080610f6a576040517f08c379a0000000000000000000000000000000000000000000000000000000008152600401610f6190612abb565b60405180910390fd5b8160ff16600460008573ffffffffffffffffffffffffffffffffffffffff1673ffffffffffffffffffffffffffffffffffffffff1681526020019081526020016000206000016000828254610fbf9190612809565b92505081905550600460008473ffffffffffffffffffffffffffffffffffffffff1673ffffffffffffffffffffffffffffffffffffffff1681526020019081526020016000206001016000815480929190611019906127c1565b91905055508273ffffffffffffffffffffffffffffffffffffffff167fcff064d89477505103315f73f5e691bd8bcdcf9f4bfe2e4713bcdbac12810db4836040516110649190612aea565b60405180910390a2505050565b3373ffffffffffffffffffffffffffffffffffffffff166001600083815260200190815260200160002060000160009054906101000a900473ffffffffffffffffffffffffffffffffffffffff1673ffffffffffffffffffffffffffffffffffffffff1614611115576040517f08c379a000000000000000000000000000000000000000000000000000000000815260040161110c90612b51565b60405180910390fd5b6001600082815260200190815260200160002060030160009054906101000a900460ff1615611179576040517f08c379a000000000000000000000000000000000000000000000000000000000815260040161117090612bbd565b60405180910390fd5b600180600083815260200190815260200160002060030160006101000a81548160ff0219169083151502179055503373ffffffffffffffffffffffffffffffffffffffff167fff0391c86d08750af277dd496813bf415c212a98090e0f6807c72d7f35eab113826040516111ed919061208d565b60405180910390a26111fe81611e42565b50565b60008111611244576040517f08c379a000000000000000000000000000000000000000000000000000000000815260040161123b90612911565b60405180910390fd5b600060646008548361125691906126eb565b611260919061275c565b905060008183611270919061278d565b9050600660009054906101000a900473ffffffffffffffffffffffffffffffffffffffff1673ffffffffffffffffffffffffffffffffffffffff166323b872dd33600960009054906101000a900473ffffffffffffffffffffffffffffffffffffffff16856040518463ffffffff1660e01b81526004016112f393929190612bdd565b6020604051808303816000875af1158015611312573d6000803e3d6000fd5b505050506040513d601f19601f82011682018060405250810190611336919061253a565b611375576040517f08c379a000000000000000000000000000000000000000000000000000000000815260040161136c90612c60565b60405180910390fd5b600660009054906101000a900473ffffffffffffffffffffffffffffffffffffffff1673ffffffffffffffffffffffffffffffffffffffff166323b872dd3330846040518463ffffffff1660e01b81526004016113d493929190612bdd565b6020604051808303816000875af11580156113f3573d6000803e3d6000fd5b505050506040513d601f19601f82011682018060405250810190611417919061253a565b611456576040517f08c379a000000000000000000000000000000000000000000000000000000000815260040161144d90612ccc565b60405180910390fd5b60056000815480929190611469906127c1565b91905055506040518061010001604052803373ffffffffffffffffffffffffffffffffffffffff1681526020018573ffffffffffffffffffffffffffffffffffffffff168152602001828152602001600015158152602001600015158152602001600754426114d89190612809565b81526020016000151581526020016001151581525060016000600554815260200190815260200160002060008201518160000160006101000a81548173ffffffffffffffffffffffffffffffffffffffff021916908373ffffffffffffffffffffffffffffffffffffffff16021790555060208201518160010160006101000a81548173ffffffffffffffffffffffffffffffffffffffff021916908373ffffffffffffffffffffffffffffffffffffffff1602179055506040820151816002015560608201518160030160006101000a81548160ff02191690831515021790555060808201518160030160016101000a81548160ff02191690831515021790555060a0820151816004015560c08201518160050160006101000a81548160ff02191690831515021790555060e08201518160050160016101000a81548160ff0219169083151502179055509050508373ffffffffffffffffffffffffffffffffffffffff163373ffffffffffffffffffffffffffffffffffffffff167f62b4265ef816f751a94c5c93fa40a90302c6924509b973ed4094dcf30c6c61ed60055486604051611688929190612d38565b60405180910390a350505050565b61169e611dbb565b6116a86000611fa8565b565b60016020528060005260406000206000915090508060000160009054906101000a900473ffffffffffffffffffffffffffffffffffffffff16908060010160009054906101000a900473ffffffffffffffffffffffffffffffffffffffff16908060020154908060030160009054906101000a900460ff16908060030160019054906101000a900460ff16908060040154908060050160009054906101000a900460ff16908060050160019054906101000a900460ff16905088565b60008060009054906101000a900473ffffffffffffffffffffffffffffffffffffffff16905090565b60006001600083815260200190815260200160002090503373ffffffffffffffffffffffffffffffffffffffff168160000160009054906101000a900473ffffffffffffffffffffffffffffffffffffffff1673ffffffffffffffffffffffffffffffffffffffff1614611838576040517f08c379a000000000000000000000000000000000000000000000000000000000815260040161182f90612dc0565b60405180910390fd5b8060040154421161187e576040517f08c379a000000000000000000000000000000000000000000000000000000000815260040161187590612e2c565b60405180910390fd5b8060030160019054906101000a900460ff16156118d0576040517f08c379a00000000000000000000000000000000000000000000000000000000081526004016118c790612e98565b60405180910390fd5b8060050160009054906101000a900460ff1615611922576040517f08c379a000000000000000000000000000000000000000000000000000000000815260040161191990612f04565b60405180910390fd5b60018160050160006101000a81548160ff0219169083151502179055508060050160019054906101000a900460ff1615611a3e57600660009054906101000a900473ffffffffffffffffffffffffffffffffffffffff1673ffffffffffffffffffffffffffffffffffffffff1663a9059cbb3383600201546040518363ffffffff1660e01b81526004016119b79291906124e5565b6020604051808303816000875af11580156119d6573d6000803e3d6000fd5b505050506040513d601f19601f820116820180604052508101906119fa919061253a565b611a39576040517f08c379a0000000000000000000000000000000000000000000000000000000008152600401611a3090612f70565b60405180910390fd5b611a8a565b3373ffffffffffffffffffffffffffffffffffffffff166108fc82600201549081150290604051600060405180830381858888f19350505050158015611a88573d6000803e3d6000fd5b505b3373ffffffffffffffffffffffffffffffffffffffff167f4f98299055c017596024bf5f17efb243bb559423f63a766e2effca248d0a952183604051611ad0919061208d565b60405180910390a25050565b600080600460008473ffffffffffffffffffffffffffffffffffffffff1673ffffffffffffffffffffffffffffffffffffffff16815260200190815260200160002090506000816001015403611b36576000915050611b4e565b80600101548160000154611b4a919061275c565b9150505b919050565b60085481565b600660009054906101000a900473ffffffffffffffffffffffffffffffffffffffff1681565b611b87611dbb565b600073ffffffffffffffffffffffffffffffffffffffff168173ffffffffffffffffffffffffffffffffffffffff1603611bf95760006040517f1e4fbdf7000000000000000000000000000000000000000000000000000000008152600401611bf091906124ca565b60405180910390fd5b611c0281611fa8565b50565b600960009054906101000a900473ffffffffffffffffffffffffffffffffffffffff1681565b3373ffffffffffffffffffffffffffffffffffffffff166001600083815260200190815260200160002060010160009054906101000a900473ffffffffffffffffffffffffffffffffffffffff1673ffffffffffffffffffffffffffffffffffffffff1614611ccf576040517f08c379a0000000000000000000000000000000000000000000000000000000008152600401611cc690612fdc565b60405180910390fd5b6001600082815260200190815260200160002060030160019054906101000a900460ff1615611d33576040517f08c379a0000000000000000000000000000000000000000000000000000000008152600401611d2a90612bbd565b60405180910390fd5b600180600083815260200190815260200160002060030160016101000a81548160ff0219169083151502179055503373ffffffffffffffffffffffffffffffffffffffff167fff0391c86d08750af277dd496813bf415c212a98090e0f6807c72d7f35eab11382604051611da7919061208d565b60405180910390a2611db881611e42565b50565b611dc361206c565b73ffffffffffffffffffffffffffffffffffffffff16611de1611766565b73ffffffffffffffffffffffffffffffffffffffff1614611e4057611e0461206c565b6040517f118cdaa7000000000000000000000000000000000000000000000000000000008152600401611e3791906124ca565b60405180910390fd5b565b60006001600083815260200190815260200160002090508060030160009054906101000a900460ff168015611e8557508060030160019054906101000a900460ff165b15611fa4578060050160019054906101000a900460ff1615611f24578060020154600360008360010160009054906101000a900473ffffffffffffffffffffffffffffffffffffffff1673ffffffffffffffffffffffffffffffffffffffff1673ffffffffffffffffffffffffffffffffffffffff1681526020019081526020016000206000828254611f189190612809565b92505081905550611fa3565b8060020154600260008360010160009054906101000a900473ffffffffffffffffffffffffffffffffffffffff1673ffffffffffffffffffffffffffffffffffffffff1673ffffffffffffffffffffffffffffffffffffffff1681526020019081526020016000206000828254611f9b9190612809565b925050819055505b5b5050565b60008060009054906101000a900473ffffffffffffffffffffffffffffffffffffffff169050816000806101000a81548173ffffffffffffffffffffffffffffffffffffffff021916908373ffffffffffffffffffffffffffffffffffffffff1602179055508173ffffffffffffffffffffffffffffffffffffffff168173ffffffffffffffffffffffffffffffffffffffff167f8be0079c531659141344cd1fd0a4f28419497f9722a3daafe3b4186f6b6457e060405160405180910390a35050565b600033905090565b6000819050919050565b61208781612074565b82525050565b60006020820190506120a2600083018461207e565b92915050565b6000604051905090565b600080fd5b600080fd5b600073ffffffffffffffffffffffffffffffffffffffff82169050919050565b60006120e7826120bc565b9050919050565b6120f7816120dc565b811461210257600080fd5b50565b600081359050612114816120ee565b92915050565b6000602082840312156121305761212f6120b2565b5b600061213e84828501612105565b91505092915050565b61215081612074565b811461215b57600080fd5b50565b60008135905061216d81612147565b92915050565b600080fd5b600080fd5b6000601f19601f8301169050919050565b7f4e487b7100000000000000000000000000000000000000000000000000000000600052604160045260246000fd5b6121c68261217d565b810181811067ffffffffffffffff821117156121e5576121e461218e565b5b80604052505050565b60006121f86120a8565b905061220482826121bd565b919050565b600067ffffffffffffffff8211156122245761222361218e565b5b61222d8261217d565b9050602081019050919050565b82818337600083830152505050565b600061225c61225784612209565b6121ee565b90508281526020810184848401111561227857612277612178565b5b61228384828561223a565b509392505050565b600082601f8301126122a05761229f612173565b5b81356122b0848260208601612249565b91505092915050565b600080600080608085870312156122d3576122d26120b2565b5b60006122e187828801612105565b94505060206122f287828801612105565b93505060406123038782880161215e565b925050606085013567ffffffffffffffff811115612324576123236120b7565b5b6123308782880161228b565b91505092959194509250565b600060ff82169050919050565b6123528161233c565b811461235d57600080fd5b50565b60008135905061236f81612349565b92915050565b6000806040838503121561238c5761238b6120b2565b5b600061239a85828601612105565b92505060206123ab85828601612360565b9150509250929050565b6000602082840312156123cb576123ca6120b2565b5b60006123d98482850161215e565b91505092915050565b600080604083850312156123f9576123f86120b2565b5b600061240785828601612105565b92505060206124188582860161215e565b9150509250929050565b61242b816120dc565b82525050565b60008115159050919050565b61244681612431565b82525050565b600061010082019050612462600083018b612422565b61246f602083018a612422565b61247c604083018961207e565b612489606083018861243d565b612496608083018761243d565b6124a360a083018661207e565b6124b060c083018561243d565b6124bd60e083018461243d565b9998505050505050505050565b60006020820190506124df6000830184612422565b92915050565b60006040820190506124fa6000830185612422565b612507602083018461207e565b9392505050565b61251781612431565b811461252257600080fd5b50565b6000815190506125348161250e565b92915050565b6000602082840312156125505761254f6120b2565b5b600061255e84828501612525565b91505092915050565b600082825260208201905092915050565b7f537461626c65636f696e207769746864726177206661696c6564000000000000600082015250565b60006125ae601a83612567565b91506125b982612578565b602082019050919050565b600060208201905081810360008301526125dd816125a1565b9050919050565b7f4e6f2066756e647320617661696c61626c650000000000000000000000000000600082015250565b600061261a601283612567565b9150612625826125e4565b602082019050919050565b600060208201905081810360008301526126498161260d565b9050919050565b7f5061796d656e74206d7573742062652067726561746572207468616e20300000600082015250565b6000612686601e83612567565b915061269182612650565b602082019050919050565b600060208201905081810360008301526126b581612679565b9050919050565b7f4e487b7100000000000000000000000000000000000000000000000000000000600052601160045260246000fd5b60006126f682612074565b915061270183612074565b925082820261270f81612074565b91508282048414831517612726576127256126bc565b5b5092915050565b7f4e487b7100000000000000000000000000000000000000000000000000000000600052601260045260246000fd5b600061276782612074565b915061277283612074565b9250826127825761278161272d565b5b828204905092915050565b600061279882612074565b91506127a383612074565b92508282039050818111156127bb576127ba6126bc565b5b92915050565b60006127cc82612074565b91507fffffffffffffffffffffffffffffffffffffffffffffffffffffffffffffffff82036127fe576127fd6126bc565b5b600182019050919050565b600061281482612074565b915061281f83612074565b9250828201905080821115612837576128366126bc565b5b92915050565b7f4554480000000000000000000000000000000000000000000000000000000000600082015250565b6000612873600383612567565b915061287e8261283d565b602082019050919050565b600060608201905061289e600083018561207e565b6128ab602083018461207e565b81810360408301526128bc81612866565b90509392505050565b7f416d6f756e74206d7573742062652067726561746572207468616e2030000000600082015250565b60006128fb601d83612567565b9150612906826128c5565b602082019050919050565b6000602082019050818103600083015261292a816128ee565b9050919050565b600081519050919050565b60005b8381101561295a57808201518184015260208101905061293f565b60008484015250505050565b600061297182612931565b61297b8185612567565b935061298b81856020860161293c565b6129948161217d565b840191505092915050565b60006060820190506129b4600083018661207e565b6129c1602083018561207e565b81810360408301526129d38184612966565b9050949350505050565b7f526174696e67206d757374206265206265747765656e203120616e6420350000600082015250565b6000612a13601e83612567565b9150612a1e826129dd565b602082019050919050565b60006020820190508181036000830152612a4281612a06565b9050919050565b7f4275796572206d757374206861766520636f6d706c657465642061207075726360008201527f686173652066726f6d20746869732063726561746f7200000000000000000000602082015250565b6000612aa5603683612567565b9150612ab082612a49565b604082019050919050565b60006020820190508181036000830152612ad481612a98565b9050919050565b612ae48161233c565b82525050565b6000602082019050612aff6000830184612adb565b92915050565b7f4f6e6c792062757965722063616e20617070726f766500000000000000000000600082015250565b6000612b3b601683612567565b9150612b4682612b05565b602082019050919050565b60006020820190508181036000830152612b6a81612b2e565b9050919050565b7f416c726561647920617070726f76656400000000000000000000000000000000600082015250565b6000612ba7601083612567565b9150612bb282612b71565b602082019050919050565b60006020820190508181036000830152612bd681612b9a565b9050919050565b6000606082019050612bf26000830186612422565b612bff6020830185612422565b612c0c604083018461207e565b949350505050565b7f466565207472616e73666572206661696c656400000000000000000000000000600082015250565b6000612c4a601383612567565b9150612c5582612c14565b602082019050919050565b60006020820190508181036000830152612c7981612c3d565b9050919050565b7f537461626c65636f696e207472616e73666572206661696c6564000000000000600082015250565b6000612cb6601a83612567565b9150612cc182612c80565b602082019050919050565b60006020820190508181036000830152612ce581612ca9565b9050919050565b7f537461626c65636f696e00000000000000000000000000000000000000000000600082015250565b6000612d22600a83612567565b9150612d2d82612cec565b602082019050919050565b6000606082019050612d4d600083018561207e565b612d5a602083018461207e565b8181036040830152612d6b81612d15565b90509392505050565b7f4f6e6c792062757965722063616e207265717565737420726566756e64000000600082015250565b6000612daa601d83612567565b9150612db582612d74565b602082019050919050565b60006020820190508181036000830152612dd981612d9d565b9050919050565b7f457363726f772074696d65206e6f742065787069726564000000000000000000600082015250565b6000612e16601783612567565b9150612e2182612de0565b602082019050919050565b60006020820190508181036000830152612e4581612e09565b9050919050565b7f43726561746f722068617320616c726561647920617070726f76656400000000600082015250565b6000612e82601c83612567565b9150612e8d82612e4c565b602082019050919050565b60006020820190508181036000830152612eb181612e75565b9050919050565b7f416c726561647920726566756e64656400000000000000000000000000000000600082015250565b6000612eee601083612567565b9150612ef982612eb8565b602082019050919050565b60006020820190508181036000830152612f1d81612ee1565b9050919050565b7f537461626c65636f696e20726566756e64206661696c65640000000000000000600082015250565b6000612f5a601883612567565b9150612f6582612f24565b602082019050919050565b60006020820190508181036000830152612f8981612f4d565b9050919050565b7f4f6e6c792063726561746f722063616e20636f6e6669726d0000000000000000600082015250565b6000612fc6601883612567565b9150612fd182612f90565b602082019050919050565b60006020820190508181036000830152612ff581612fb9565b905091905056fea2646970667358221220e6a88f5f21977901a7ba5650af725c2b9bf6ce535d864c1355f48c574fcfc9db64736f6c634300081c0033",
  "linkReferences": {},
  "deployedLinkReferences": {}
}