{
  "_format": "hh-sol-artifact-1",
  "contractName": "Game",
  "sourceName": "contracts/Game.sol",
  "abi": [
    {
      "inputs": [
        {
          "internalType": "address",
          "name": "_rewardToken",
          "type": "address"
        }
      ],
      "stateMutability": "nonpayable",
      "type": "constructor"
    },
    {
      "anonymous": false,
      "inputs": [
        {
          "indexed": true,
          "internalType": "address",
          "name": "player",
          "type": "address"
        },
        {
          "indexed": false,
          "internalType": "uint256",
          "name": "rewardAmount",
          "type": "uint256"
        },
        {
          "indexed": false,
          "internalType": "uint256",
          "name": "randomValue",
          "type": "uint256"
        }
      ],
      "name": "SpinResult",
      "type": "event"
    },
    {
      "inputs": [],
      "name": "owner",
      "outputs": [
        {
          "internalType": "address",
          "name": "",
          "type": "address"
        }
      ],
      "stateMutability": "view",
      "type": "function"
    },
    {
      "inputs": [],
      "name": "rewardToken",
      "outputs": [
        {
          "internalType": "contract IERC20",
          "name": "",
          "type": "address"
        }
      ],
      "stateMutability": "view",
      "type": "function"
    },
    {
      "inputs": [],
      "name": "spinWheel",
      "outputs": [],
      "stateMutability": "nonpayable",
      "type": "function"
    }
  ],
  "bytecode": "0x608060405234801561001057600080fd5b5060405161094038038061094083398181016040528101906100329190610124565b806000806101000a81548173ffffffffffffffffffffffffffffffffffffffff021916908373ffffffffffffffffffffffffffffffffffffffff16021790555033600160006101000a81548173ffffffffffffffffffffffffffffffffffffffff021916908373ffffffffffffffffffffffffffffffffffffffff160217905550600060028190555050610151565b600080fd5b600073ffffffffffffffffffffffffffffffffffffffff82169050919050565b60006100f1826100c6565b9050919050565b610101816100e6565b811461010c57600080fd5b50565b60008151905061011e816100f8565b92915050565b60006020828403121561013a576101396100c1565b5b60006101488482850161010f565b91505092915050565b6107e0806101606000396000f3fe608060405234801561001057600080fd5b50600436106100415760003560e01c806315ecef92146100465780638da5cb5b14610050578063f7c618c11461006e575b600080fd5b61004e61008c565b005b610058610303565b604051610065919061038e565b60405180910390f35b610076610329565b6040516100839190610408565b60405180910390f35b6002600081548092919061009f9061045c565b9190505550600060646001436100b591906104a4565b40336002546040516020016100cc9392919061056c565b6040516020818303038152906040528051906020012060001c6100ef91906105d8565b90506000603282101561010c57678ac7230489e800009050610134565b60508210156101265768015af1d78b58c400009050610133565b6802b5e3af16b188000090505b5b8060008054906101000a900473ffffffffffffffffffffffffffffffffffffffff1673ffffffffffffffffffffffffffffffffffffffff166370a08231306040518263ffffffff1660e01b815260040161018e919061038e565b602060405180830381865afa1580156101ab573d6000803e3d6000fd5b505050506040513d601f19601f820116820180604052508101906101cf919061063a565b1015610210576040517f08c379a0000000000000000000000000000000000000000000000000000000008152600401610207906106c4565b60405180910390fd5b60008054906101000a900473ffffffffffffffffffffffffffffffffffffffff1673ffffffffffffffffffffffffffffffffffffffff1663a9059cbb33836040518363ffffffff1660e01b815260040161026b9291906106f3565b6020604051808303816000875af115801561028a573d6000803e3d6000fd5b505050506040513d601f19601f820116820180604052508101906102ae9190610754565b503373ffffffffffffffffffffffffffffffffffffffff167fb4985cac9625ded2de92a1c21175b15605fd3322a34e94f936745e9e6401354382846040516102f7929190610781565b60405180910390a25050565b600160009054906101000a900473ffffffffffffffffffffffffffffffffffffffff1681565b60008054906101000a900473ffffffffffffffffffffffffffffffffffffffff1681565b600073ffffffffffffffffffffffffffffffffffffffff82169050919050565b60006103788261034d565b9050919050565b6103888161036d565b82525050565b60006020820190506103a3600083018461037f565b92915050565b6000819050919050565b60006103ce6103c96103c48461034d565b6103a9565b61034d565b9050919050565b60006103e0826103b3565b9050919050565b60006103f2826103d5565b9050919050565b610402816103e7565b82525050565b600060208201905061041d60008301846103f9565b92915050565b7f4e487b7100000000000000000000000000000000000000000000000000000000600052601160045260246000fd5b6000819050919050565b600061046782610452565b91507fffffffffffffffffffffffffffffffffffffffffffffffffffffffffffffffff820361049957610498610423565b5b600182019050919050565b60006104af82610452565b91506104ba83610452565b92508282039050818111156104d2576104d1610423565b5b92915050565b6000819050919050565b6000819050919050565b6104fd6104f8826104d8565b6104e2565b82525050565b60008160601b9050919050565b600061051b82610503565b9050919050565b600061052d82610510565b9050919050565b6105456105408261036d565b610522565b82525050565b6000819050919050565b61056661056182610452565b61054b565b82525050565b600061057882866104ec565b6020820191506105888285610534565b6014820191506105988284610555565b602082019150819050949350505050565b7f4e487b7100000000000000000000000000000000000000000000000000000000600052601260045260246000fd5b60006105e382610452565b91506105ee83610452565b9250826105fe576105fd6105a9565b5b828206905092915050565b600080fd5b61061781610452565b811461062257600080fd5b50565b6000815190506106348161060e565b92915050565b6000602082840312156106505761064f610609565b5b600061065e84828501610625565b91505092915050565b600082825260208201905092915050565b7f4e6f7420656e6f75676820746f6b656e7320696e20636f6e7472616374000000600082015250565b60006106ae601d83610667565b91506106b982610678565b602082019050919050565b600060208201905081810360008301526106dd816106a1565b9050919050565b6106ed81610452565b82525050565b6000604082019050610708600083018561037f565b61071560208301846106e4565b9392505050565b60008115159050919050565b6107318161071c565b811461073c57600080fd5b50565b60008151905061074e81610728565b92915050565b60006020828403121561076a57610769610609565b5b60006107788482850161073f565b91505092915050565b600060408201905061079660008301856106e4565b6107a360208301846106e4565b939250505056fea26469706673582212200f1090580d6a64ee325d36502c7a3eed227bafbc1ee3a94d75317bad97043fe964736f6c634300081c0033",
  "linkReferences": {},
  "deployedLinkReferences": {}
}