{
  "_format": "hh-sol-artifact-1",
  "contractName": "ContentAccess",
  "sourceName": "contracts/ContentAccess.sol",
  "abi": [
    {
      "inputs": [
        {
          "internalType": "address",
          "name": "tokenAddress",
          "type": "address"
        }
      ],
      "stateMutability": "nonpayable",
      "type": "constructor"
    },
    {
      "inputs": [
        {
          "internalType": "address",
          "name": "owner",
          "type": "address"
        }
      ],
      "name": "OwnableInvalidOwner",
      "type": "error"
    },
    {
      "inputs": [
        {
          "internalType": "address",
          "name": "account",
          "type": "address"
        }
      ],
      "name": "OwnableUnauthorizedAccount",
      "type": "error"
    },
    {
      "anonymous": false,
      "inputs": [
        {
          "indexed": true,
          "internalType": "address",
          "name": "user",
          "type": "address"
        },
        {
          "indexed": false,
          "internalType": "uint256",
          "name": "contentId",
          "type": "uint256"
        }
      ],
      "name": "ContentUnlocked",
      "type": "event"
    },
    {
      "anonymous": false,
      "inputs": [
        {
          "indexed": true,
          "internalType": "address",
          "name": "previousOwner",
          "type": "address"
        },
        {
          "indexed": true,
          "internalType": "address",
          "name": "newOwner",
          "type": "address"
        }
      ],
      "name": "OwnershipTransferred",
      "type": "event"
    },
    {
      "inputs": [
        {
          "internalType": "uint256",
          "name": "",
          "type": "uint256"
        }
      ],
      "name": "contentTiers",
      "outputs": [
        {
          "internalType": "enum ContentAccess.Tier",
          "name": "",
          "type": "uint8"
        }
      ],
      "stateMutability": "view",
      "type": "function"
    },
    {
      "inputs": [
        {
          "internalType": "address",
          "name": "user",
          "type": "address"
        },
        {
          "internalType": "uint256",
          "name": "contentId",
          "type": "uint256"
        }
      ],
      "name": "hasAccess",
      "outputs": [
        {
          "internalType": "bool",
          "name": "",
          "type": "bool"
        }
      ],
      "stateMutability": "view",
      "type": "function"
    },
    {
      "inputs": [],
      "name": "owner",
      "outputs": [
        {
          "internalType": "address",
          "name": "",
          "type": "address"
        }
      ],
      "stateMutability": "view",
      "type": "function"
    },
    {
      "inputs": [],
      "name": "renounceOwnership",
      "outputs": [],
      "stateMutability": "nonpayable",
      "type": "function"
    },
    {
      "inputs": [
        {
          "internalType": "uint256",
          "name": "contentId",
          "type": "uint256"
        },
        {
          "internalType": "enum ContentAccess.Tier",
          "name": "tier",
          "type": "uint8"
        }
      ],
      "name": "setContentTier",
      "outputs": [],
      "stateMutability": "nonpayable",
      "type": "function"
    },
    {
      "inputs": [
        {
          "internalType": "enum ContentAccess.Tier",
          "name": "tier",
          "type": "uint8"
        },
        {
          "internalType": "uint256",
          "name": "requirement",
          "type": "uint256"
        }
      ],
      "name": "setTierRequirement",
      "outputs": [],
      "stateMutability": "nonpayable",
      "type": "function"
    },
    {
      "inputs": [
        {
          "internalType": "enum ContentAccess.Tier",
          "name": "",
          "type": "uint8"
        }
      ],
      "name": "tiers",
      "outputs": [
        {
          "internalType": "uint256",
          "name": "tokenRequirement",
          "type": "uint256"
        }
      ],
      "stateMutability": "view",
      "type": "function"
    },
    {
      "inputs": [],
      "name": "token",
      "outputs": [
        {
          "internalType": "contract IERC20",
          "name": "",
          "type": "address"
        }
      ],
      "stateMutability": "view",
      "type": "function"
    },
    {
      "inputs": [
        {
          "internalType": "address",
          "name": "newOwner",
          "type": "address"
        }
      ],
      "name": "transferOwnership",
      "outputs": [],
      "stateMutability": "nonpayable",
      "type": "function"
    },
    {
      "inputs": [
        {
          "internalType": "uint256",
          "name": "contentId",
          "type": "uint256"
        }
      ],
      "name": "unlockContent",
      "outputs": [],
      "stateMutability": "nonpayable",
      "type": "function"
    },
    {
      "inputs": [
        {
          "internalType": "address",
          "name": "recipient",
          "type": "address"
        },
        {
          "internalType": "uint256",
          "name": "amount",
          "type": "uint256"
        }
      ],
      "name": "withdrawTokens",
      "outputs": [],
      "stateMutability": "nonpayable",
      "type": "function"
    }
  ],
  "bytecode": "0x608060405234801561001057600080fd5b5060405161105e38038061105e83398181016040528101906100329190610320565b33600073ffffffffffffffffffffffffffffffffffffffff168173ffffffffffffffffffffffffffffffffffffffff16036100a55760006040517f1e4fbdf700000000000000000000000000000000000000000000000000000000815260040161009c919061035c565b60405180910390fd5b6100b4816101f960201b60201c565b5080600160006101000a81548173ffffffffffffffffffffffffffffffffffffffff021916908373ffffffffffffffffffffffffffffffffffffffff1602179055506040518060200160405280600a8152506002600080600281111561011d5761011c610377565b5b600281111561012f5761012e610377565b5b81526020019081526020016000206000820151816000015590505060405180602001604052806032815250600260006001600281111561017257610171610377565b5b600281111561018457610183610377565b5b81526020019081526020016000206000820151816000015590505060405180602001604052806064815250600260006002808111156101c6576101c5610377565b5b60028111156101d8576101d7610377565b5b815260200190815260200160002060008201518160000155905050506103a6565b60008060009054906101000a900473ffffffffffffffffffffffffffffffffffffffff169050816000806101000a81548173ffffffffffffffffffffffffffffffffffffffff021916908373ffffffffffffffffffffffffffffffffffffffff1602179055508173ffffffffffffffffffffffffffffffffffffffff168173ffffffffffffffffffffffffffffffffffffffff167f8be0079c531659141344cd1fd0a4f28419497f9722a3daafe3b4186f6b6457e060405160405180910390a35050565b600080fd5b600073ffffffffffffffffffffffffffffffffffffffff82169050919050565b60006102ed826102c2565b9050919050565b6102fd816102e2565b811461030857600080fd5b50565b60008151905061031a816102f4565b92915050565b600060208284031215610336576103356102bd565b5b60006103448482850161030b565b91505092915050565b610356816102e2565b82525050565b6000602082019050610371600083018461034d565b92915050565b7f4e487b7100000000000000000000000000000000000000000000000000000000600052602160045260246000fd5b610ca9806103b56000396000f3fe608060405234801561001057600080fd5b50600436106100a95760003560e01c80638da5cb5b116100715780638da5cb5b14610128578063c6530e4114610146578063cb1637de14610176578063d1d79974146101a6578063f2fde38b146101d6578063fc0c546a146101f2576100a9565b806306b091f9146100ae57806312247e80146100ca57806328d82e30146100e65780636c2c5b5514610102578063715018a61461011e575b600080fd5b6100c860048036038101906100c3919061080a565b610210565b005b6100e460048036038101906100df919061086f565b6102bd565b005b61010060048036038101906100fb91906108af565b610308565b005b61011c600480360381019061011791906108dc565b6103a2565b005b6101266103e9565b005b6101306103fd565b60405161013d919061092b565b60405180910390f35b610160600480360381019061015b919061080a565b610426565b60405161016d9190610961565b60405180910390f35b610190600480360381019061018b91906108af565b610534565b60405161019d91906109f3565b60405180910390f35b6101c060048036038101906101bb9190610a0e565b610554565b6040516101cd9190610a4a565b60405180910390f35b6101f060048036038101906101eb9190610a65565b610572565b005b6101fa6105f8565b6040516102079190610af1565b60405180910390f35b61021861061e565b600160009054906101000a900473ffffffffffffffffffffffffffffffffffffffff1673ffffffffffffffffffffffffffffffffffffffff1663a9059cbb83836040518363ffffffff1660e01b8152600401610275929190610b0c565b6020604051808303816000875af1158015610294573d6000803e3d6000fd5b505050506040513d601f19601f820116820180604052508101906102b89190610b61565b505050565b6102c561061e565b80600260008460028111156102dd576102dc61097c565b5b60028111156102ef576102ee61097c565b5b8152602001908152602001600020600001819055505050565b6103123382610426565b610351576040517f08c379a000000000000000000000000000000000000000000000000000000000815260040161034890610c11565b60405180910390fd5b3373ffffffffffffffffffffffffffffffffffffffff167fecf62147db5136d5778c55e194d29ffae725bbae2f9f15f9f08b9a11bf55106f826040516103979190610a4a565b60405180910390a250565b6103aa61061e565b806003600084815260200190815260200160002060006101000a81548160ff021916908360028111156103e0576103df61097c565b5b02179055505050565b6103f161061e565b6103fb60006106a5565b565b60008060009054906101000a900473ffffffffffffffffffffffffffffffffffffffff16905090565b6000806003600084815260200190815260200160002060009054906101000a900460ff1690506000600160009054906101000a900473ffffffffffffffffffffffffffffffffffffffff1673ffffffffffffffffffffffffffffffffffffffff166370a08231866040518263ffffffff1660e01b81526004016104a9919061092b565b602060405180830381865afa1580156104c6573d6000803e3d6000fd5b505050506040513d601f19601f820116820180604052508101906104ea9190610c46565b9050600260008360028111156105035761050261097c565b5b60028111156105155761051461097c565b5b8152602001908152602001600020600001548110159250505092915050565b60036020528060005260406000206000915054906101000a900460ff1681565b60026020528060005260406000206000915090508060000154905081565b61057a61061e565b600073ffffffffffffffffffffffffffffffffffffffff168173ffffffffffffffffffffffffffffffffffffffff16036105ec5760006040517f1e4fbdf70000000000000000000000000000000000000000000000000000000081526004016105e3919061092b565b60405180910390fd5b6105f5816106a5565b50565b600160009054906101000a900473ffffffffffffffffffffffffffffffffffffffff1681565b610626610769565b73ffffffffffffffffffffffffffffffffffffffff166106446103fd565b73ffffffffffffffffffffffffffffffffffffffff16146106a357610667610769565b6040517f118cdaa700000000000000000000000000000000000000000000000000000000815260040161069a919061092b565b60405180910390fd5b565b60008060009054906101000a900473ffffffffffffffffffffffffffffffffffffffff169050816000806101000a81548173ffffffffffffffffffffffffffffffffffffffff021916908373ffffffffffffffffffffffffffffffffffffffff1602179055508173ffffffffffffffffffffffffffffffffffffffff168173ffffffffffffffffffffffffffffffffffffffff167f8be0079c531659141344cd1fd0a4f28419497f9722a3daafe3b4186f6b6457e060405160405180910390a35050565b600033905090565b600080fd5b600073ffffffffffffffffffffffffffffffffffffffff82169050919050565b60006107a182610776565b9050919050565b6107b181610796565b81146107bc57600080fd5b50565b6000813590506107ce816107a8565b92915050565b6000819050919050565b6107e7816107d4565b81146107f257600080fd5b50565b600081359050610804816107de565b92915050565b6000806040838503121561082157610820610771565b5b600061082f858286016107bf565b9250506020610840858286016107f5565b9150509250929050565b6003811061085757600080fd5b50565b6000813590506108698161084a565b92915050565b6000806040838503121561088657610885610771565b5b60006108948582860161085a565b92505060206108a5858286016107f5565b9150509250929050565b6000602082840312156108c5576108c4610771565b5b60006108d3848285016107f5565b91505092915050565b600080604083850312156108f3576108f2610771565b5b6000610901858286016107f5565b92505060206109128582860161085a565b9150509250929050565b61092581610796565b82525050565b6000602082019050610940600083018461091c565b92915050565b60008115159050919050565b61095b81610946565b82525050565b60006020820190506109766000830184610952565b92915050565b7f4e487b7100000000000000000000000000000000000000000000000000000000600052602160045260246000fd5b600381106109bc576109bb61097c565b5b50565b60008190506109cd826109ab565b919050565b60006109dd826109bf565b9050919050565b6109ed816109d2565b82525050565b6000602082019050610a0860008301846109e4565b92915050565b600060208284031215610a2457610a23610771565b5b6000610a328482850161085a565b91505092915050565b610a44816107d4565b82525050565b6000602082019050610a5f6000830184610a3b565b92915050565b600060208284031215610a7b57610a7a610771565b5b6000610a89848285016107bf565b91505092915050565b6000819050919050565b6000610ab7610ab2610aad84610776565b610a92565b610776565b9050919050565b6000610ac982610a9c565b9050919050565b6000610adb82610abe565b9050919050565b610aeb81610ad0565b82525050565b6000602082019050610b066000830184610ae2565b92915050565b6000604082019050610b21600083018561091c565b610b2e6020830184610a3b565b9392505050565b610b3e81610946565b8114610b4957600080fd5b50565b600081519050610b5b81610b35565b92915050565b600060208284031215610b7757610b76610771565b5b6000610b8584828501610b4c565b91505092915050565b600082825260208201905092915050565b7f496e73756666696369656e7420746f6b656e2062616c616e636520746f20756e60008201527f6c6f636b20636f6e74656e740000000000000000000000000000000000000000602082015250565b6000610bfb602c83610b8e565b9150610c0682610b9f565b604082019050919050565b60006020820190508181036000830152610c2a81610bee565b9050919050565b600081519050610c40816107de565b92915050565b600060208284031215610c5c57610c5b610771565b5b6000610c6a84828501610c31565b9150509291505056fea26469706673582212209b2df5ab7e38c964777408a67bf9e3be96e0fd1230f515fc9fcecebe9016638e64736f6c634300081c0033",
  "linkReferences": {},
  "deployedLinkReferences": {}
}