{
  "_format": "hh-sol-artifact-1",
  "contractName": "CreatorTokenManager",
  "sourceName": "contracts/CreatorTokenManager.sol",
  "abi": [
    {
      "inputs": [
        {
          "internalType": "address",
          "name": "owner",
          "type": "address"
        }
      ],
      "name": "OwnableInvalidOwner",
      "type": "error"
    },
    {
      "inputs": [
        {
          "internalType": "address",
          "name": "account",
          "type": "address"
        }
      ],
      "name": "OwnableUnauthorizedAccount",
      "type": "error"
    },
    {
      "anonymous": false,
      "inputs": [
        {
          "indexed": true,
          "internalType": "address",
          "name": "previousOwner",
          "type": "address"
        },
        {
          "indexed": true,
          "internalType": "address",
          "name": "newOwner",
          "type": "address"
        }
      ],
      "name": "OwnershipTransferred",
      "type": "event"
    },
    {
      "anonymous": false,
      "inputs": [
        {
          "indexed": true,
          "internalType": "address",
          "name": "token",
          "type": "address"
        },
        {
          "indexed": false,
          "internalType": "uint256",
          "name": "tierId",
          "type": "uint256"
        },
        {
          "indexed": false,
          "internalType": "string",
          "name": "name",
          "type": "string"
        },
        {
          "indexed": false,
          "internalType": "uint256",
          "name": "supply",
          "type": "uint256"
        },
        {
          "indexed": false,
          "internalType": "uint256",
          "name": "price",
          "type": "uint256"
        }
      ],
      "name": "TierAdded",
      "type": "event"
    },
    {
      "anonymous": false,
      "inputs": [
        {
          "indexed": true,
          "internalType": "address",
          "name": "creator",
          "type": "address"
        },
        {
          "indexed": false,
          "internalType": "address",
          "name": "tokenAddress",
          "type": "address"
        }
      ],
      "name": "TokenCreated",
      "type": "event"
    },
    {
      "anonymous": false,
      "inputs": [
        {
          "indexed": true,
          "internalType": "address",
          "name": "token",
          "type": "address"
        },
        {
          "indexed": true,
          "internalType": "address",
          "name": "creator",
          "type": "address"
        },
        {
          "indexed": false,
          "internalType": "uint256",
          "name": "amount",
          "type": "uint256"
        }
      ],
      "name": "TokensBurned",
      "type": "event"
    },
    {
      "anonymous": false,
      "inputs": [
        {
          "indexed": true,
          "internalType": "address",
          "name": "token",
          "type": "address"
        },
        {
          "indexed": true,
          "internalType": "address",
          "name": "recipient",
          "type": "address"
        },
        {
          "indexed": false,
          "internalType": "uint256",
          "name": "tierId",
          "type": "uint256"
        },
        {
          "indexed": false,
          "internalType": "uint256",
          "name": "amount",
          "type": "uint256"
        }
      ],
      "name": "TokensMinted",
      "type": "event"
    },
    {
      "inputs": [
        {
          "internalType": "address",
          "name": "token",
          "type": "address"
        },
        {
          "internalType": "uint256",
          "name": "tierId",
          "type": "uint256"
        },
        {
          "internalType": "string",
          "name": "name",
          "type": "string"
        },
        {
          "internalType": "uint256",
          "name": "supply",
          "type": "uint256"
        },
        {
          "internalType": "uint256",
          "name": "price",
          "type": "uint256"
        }
      ],
      "name": "addTier",
      "outputs": [],
      "stateMutability": "nonpayable",
      "type": "function"
    },
    {
      "inputs": [
        {
          "internalType": "address",
          "name": "token",
          "type": "address"
        },
        {
          "internalType": "uint256",
          "name": "amount",
          "type": "uint256"
        }
      ],
      "name": "burnTokens",
      "outputs": [],
      "stateMutability": "nonpayable",
      "type": "function"
    },
    {
      "inputs": [
        {
          "internalType": "string",
          "name": "name",
          "type": "string"
        },
        {
          "internalType": "string",
          "name": "symbol",
          "type": "string"
        }
      ],
      "name": "createToken",
      "outputs": [],
      "stateMutability": "nonpayable",
      "type": "function"
    },
    {
      "inputs": [
        {
          "internalType": "address",
          "name": "",
          "type": "address"
        }
      ],
      "name": "creatorTokens",
      "outputs": [
        {
          "internalType": "address",
          "name": "",
          "type": "address"
        }
      ],
      "stateMutability": "view",
      "type": "function"
    },
    {
      "inputs": [
        {
          "internalType": "address",
          "name": "token",
          "type": "address"
        },
        {
          "internalType": "uint256",
          "name": "tierId",
          "type": "uint256"
        },
        {
          "internalType": "uint256",
          "name": "amount",
          "type": "uint256"
        },
        {
          "internalType": "address",
          "name": "recipient",
          "type": "address"
        }
      ],
      "name": "mintTokens",
      "outputs": [],
      "stateMutability": "payable",
      "type": "function"
    },
    {
      "inputs": [],
      "name": "owner",
      "outputs": [
        {
          "internalType": "address",
          "name": "",
          "type": "address"
        }
      ],
      "stateMutability": "view",
      "type": "function"
    },
    {
      "inputs": [],
      "name": "renounceOwnership",
      "outputs": [],
      "stateMutability": "nonpayable",
      "type": "function"
    },
    {
      "inputs": [
        {
          "internalType": "address",
          "name": "",
          "type": "address"
        },
        {
          "internalType": "uint256",
          "name": "",
          "type": "uint256"
        }
      ],
      "name": "tokenTiers",
      "outputs": [
        {
          "internalType": "string",
          "name": "name",
          "type": "string"
        },
        {
          "internalType": "uint256",
          "name": "supply",
          "type": "uint256"
        },
        {
          "internalType": "uint256",
          "name": "minted",
          "type": "uint256"
        },
        {
          "internalType": "uint256",
          "name": "price",
          "type": "uint256"
        }
      ],
      "stateMutability": "view",
      "type": "function"
    },
    {
      "inputs": [
        {
          "internalType": "address",
          "name": "newOwner",
          "type": "address"
        }
      ],
      "name": "transferOwnership",
      "outputs": [],
      "stateMutability": "nonpayable",
      "type": "function"
    }
  ],
  "bytecode": "0x608060405234801561001057600080fd5b5033600073ffffffffffffffffffffffffffffffffffffffff168173ffffffffffffffffffffffffffffffffffffffff16036100845760006040517f1e4fbdf700000000000000000000000000000000000000000000000000000000815260040161007b919061019e565b60405180910390fd5b6100938161009960201b60201c565b506101b9565b60008060009054906101000a900473ffffffffffffffffffffffffffffffffffffffff169050816000806101000a81548173ffffffffffffffffffffffffffffffffffffffff021916908373ffffffffffffffffffffffffffffffffffffffff1602179055508173ffffffffffffffffffffffffffffffffffffffff168173ffffffffffffffffffffffffffffffffffffffff167f8be0079c531659141344cd1fd0a4f28419497f9722a3daafe3b4186f6b6457e060405160405180910390a35050565b600073ffffffffffffffffffffffffffffffffffffffff82169050919050565b60006101888261015d565b9050919050565b6101988161017d565b82525050565b60006020820190506101b3600083018461018f565b92915050565b6131c2806101c86000396000f3fe6080604052600436106100865760003560e01c8063715018a611610059578063715018a61461015a5780638da5cb5b14610171578063d6b174181461019c578063e1f04175146101b8578063f2fde38b146101e157610086565b80630d1118ce1461008b5780631ad18426146100b457806329c81b91146100f45780632f2f2d5614610131575b600080fd5b34801561009757600080fd5b506100b260048036038101906100ad9190610eb8565b61020a565b005b3480156100c057600080fd5b506100db60048036038101906100d69190610eb8565b6103ad565b6040516100eb9493929190610f97565b60405180910390f35b34801561010057600080fd5b5061011b60048036038101906101169190610fe3565b610472565b604051610128919061101f565b60405180910390f35b34801561013d57600080fd5b506101586004803603810190610153919061116f565b6104a5565b005b34801561016657600080fd5b5061016f610680565b005b34801561017d57600080fd5b50610186610694565b604051610193919061101f565b60405180910390f35b6101b660048036038101906101b191906111e7565b6106bd565b005b3480156101c457600080fd5b506101df60048036038101906101da919061124e565b6109c3565b005b3480156101ed57600080fd5b5061020860048036038101906102039190610fe3565b610c2a565b005b8173ffffffffffffffffffffffffffffffffffffffff16600160003373ffffffffffffffffffffffffffffffffffffffff1673ffffffffffffffffffffffffffffffffffffffff16815260200190815260200160002060009054906101000a900473ffffffffffffffffffffffffffffffffffffffff1673ffffffffffffffffffffffffffffffffffffffff16146102d7576040517f08c379a00000000000000000000000000000000000000000000000000000000081526004016102ce90611331565b60405180910390fd5b8173ffffffffffffffffffffffffffffffffffffffff16639dc29fac33836040518363ffffffff1660e01b8152600401610312929190611351565b600060405180830381600087803b15801561032c57600080fd5b505af1158015610340573d6000803e3d6000fd5b505050503373ffffffffffffffffffffffffffffffffffffffff168273ffffffffffffffffffffffffffffffffffffffff167f857ac1c9e97cc66ecae5f524c9c611463ae748b85af3ca454a5ec4d7d341924d836040516103a1919061137a565b60405180910390a35050565b6002602052816000526040600020602052806000526040600020600091509150508060000180546103dd906113c4565b80601f0160208091040260200160405190810160405280929190818152602001828054610409906113c4565b80156104565780601f1061042b57610100808354040283529160200191610456565b820191906000526020600020905b81548152906001019060200180831161043957829003601f168201915b5050505050908060010154908060020154908060030154905084565b60016020528060005260406000206000915054906101000a900473ffffffffffffffffffffffffffffffffffffffff1681565b600073ffffffffffffffffffffffffffffffffffffffff16600160003373ffffffffffffffffffffffffffffffffffffffff1673ffffffffffffffffffffffffffffffffffffffff16815260200190815260200160002060009054906101000a900473ffffffffffffffffffffffffffffffffffffffff1673ffffffffffffffffffffffffffffffffffffffff1614610573576040517f08c379a000000000000000000000000000000000000000000000000000000000815260040161056a90611441565b60405180910390fd5b600082823360405161058490610e03565b61059093929190611461565b604051809103906000f0801580156105ac573d6000803e3d6000fd5b50905080600160003373ffffffffffffffffffffffffffffffffffffffff1673ffffffffffffffffffffffffffffffffffffffff16815260200190815260200160002060006101000a81548173ffffffffffffffffffffffffffffffffffffffff021916908373ffffffffffffffffffffffffffffffffffffffff1602179055503373ffffffffffffffffffffffffffffffffffffffff167fd5f9bdf12adf29dab0248c349842c3822d53ae2bb4f36352f301630d018c813982604051610673919061101f565b60405180910390a2505050565b610688610cb0565b6106926000610d37565b565b60008060009054906101000a900473ffffffffffffffffffffffffffffffffffffffff16905090565b8373ffffffffffffffffffffffffffffffffffffffff16600160003373ffffffffffffffffffffffffffffffffffffffff1673ffffffffffffffffffffffffffffffffffffffff16815260200190815260200160002060009054906101000a900473ffffffffffffffffffffffffffffffffffffffff1673ffffffffffffffffffffffffffffffffffffffff161461078a576040517f08c379a000000000000000000000000000000000000000000000000000000000815260040161078190611331565b60405180910390fd5b6000600260008673ffffffffffffffffffffffffffffffffffffffff1673ffffffffffffffffffffffffffffffffffffffff168152602001908152602001600020600085815260200190815260200160002090506000816001015411610825576040517f08c379a000000000000000000000000000000000000000000000000000000000815260040161081c906114f2565b60405180910390fd5b806001015483826002015461083a9190611541565b111561087b576040517f08c379a0000000000000000000000000000000000000000000000000000000008152600401610872906115c1565b60405180910390fd5b82816003015461088b91906115e1565b3410156108cd576040517f08c379a00000000000000000000000000000000000000000000000000000000081526004016108c49061166f565b60405180910390fd5b828160020160008282546108e19190611541565b925050819055508473ffffffffffffffffffffffffffffffffffffffff166340c10f1983856040518363ffffffff1660e01b8152600401610923929190611351565b600060405180830381600087803b15801561093d57600080fd5b505af1158015610951573d6000803e3d6000fd5b505050508173ffffffffffffffffffffffffffffffffffffffff168573ffffffffffffffffffffffffffffffffffffffff167fe456f0d575ef17126ead0c00ffd703adb3aa7b837d5b32ae967c707f804fa86786866040516109b492919061168f565b60405180910390a35050505050565b8473ffffffffffffffffffffffffffffffffffffffff16600160003373ffffffffffffffffffffffffffffffffffffffff1673ffffffffffffffffffffffffffffffffffffffff16815260200190815260200160002060009054906101000a900473ffffffffffffffffffffffffffffffffffffffff1673ffffffffffffffffffffffffffffffffffffffff1614610a90576040517f08c379a0000000000000000000000000000000000000000000000000000000008152600401610a8790611331565b60405180910390fd5b6000600260008773ffffffffffffffffffffffffffffffffffffffff1673ffffffffffffffffffffffffffffffffffffffff16815260200190815260200160002060008681526020019081526020016000206001015414610b26576040517f08c379a0000000000000000000000000000000000000000000000000000000008152600401610b1d90611704565b60405180910390fd5b60405180608001604052808481526020018381526020016000815260200182815250600260008773ffffffffffffffffffffffffffffffffffffffff1673ffffffffffffffffffffffffffffffffffffffff16815260200190815260200160002060008681526020019081526020016000206000820151816000019081610bad91906118d0565b506020820151816001015560408201518160020155606082015181600301559050508473ffffffffffffffffffffffffffffffffffffffff167fa7973c2fc2736eea44b46b6f4216f2378ea4f7a84ba3268bee4436fa12a50b1e85858585604051610c1b94939291906119a2565b60405180910390a25050505050565b610c32610cb0565b600073ffffffffffffffffffffffffffffffffffffffff168173ffffffffffffffffffffffffffffffffffffffff1603610ca45760006040517f1e4fbdf7000000000000000000000000000000000000000000000000000000008152600401610c9b919061101f565b60405180910390fd5b610cad81610d37565b50565b610cb8610dfb565b73ffffffffffffffffffffffffffffffffffffffff16610cd6610694565b73ffffffffffffffffffffffffffffffffffffffff1614610d3557610cf9610dfb565b6040517f118cdaa7000000000000000000000000000000000000000000000000000000008152600401610d2c919061101f565b60405180910390fd5b565b60008060009054906101000a900473ffffffffffffffffffffffffffffffffffffffff169050816000806101000a81548173ffffffffffffffffffffffffffffffffffffffff021916908373ffffffffffffffffffffffffffffffffffffffff1602179055508173ffffffffffffffffffffffffffffffffffffffff168173ffffffffffffffffffffffffffffffffffffffff167f8be0079c531659141344cd1fd0a4f28419497f9722a3daafe3b4186f6b6457e060405160405180910390a35050565b600033905090565b61179e806119ef83390190565b6000604051905090565b600080fd5b600080fd5b600073ffffffffffffffffffffffffffffffffffffffff82169050919050565b6000610e4f82610e24565b9050919050565b610e5f81610e44565b8114610e6a57600080fd5b50565b600081359050610e7c81610e56565b92915050565b6000819050919050565b610e9581610e82565b8114610ea057600080fd5b50565b600081359050610eb281610e8c565b92915050565b60008060408385031215610ecf57610ece610e1a565b5b6000610edd85828601610e6d565b9250506020610eee85828601610ea3565b9150509250929050565b600081519050919050565b600082825260208201905092915050565b60005b83811015610f32578082015181840152602081019050610f17565b60008484015250505050565b6000601f19601f8301169050919050565b6000610f5a82610ef8565b610f648185610f03565b9350610f74818560208601610f14565b610f7d81610f3e565b840191505092915050565b610f9181610e82565b82525050565b60006080820190508181036000830152610fb18187610f4f565b9050610fc06020830186610f88565b610fcd6040830185610f88565b610fda6060830184610f88565b95945050505050565b600060208284031215610ff957610ff8610e1a565b5b600061100784828501610e6d565b91505092915050565b61101981610e44565b82525050565b60006020820190506110346000830184611010565b92915050565b600080fd5b600080fd5b7f4e487b7100000000000000000000000000000000000000000000000000000000600052604160045260246000fd5b61107c82610f3e565b810181811067ffffffffffffffff8211171561109b5761109a611044565b5b80604052505050565b60006110ae610e10565b90506110ba8282611073565b919050565b600067ffffffffffffffff8211156110da576110d9611044565b5b6110e382610f3e565b9050602081019050919050565b82818337600083830152505050565b600061111261110d846110bf565b6110a4565b90508281526020810184848401111561112e5761112d61103f565b5b6111398482856110f0565b509392505050565b600082601f8301126111565761115561103a565b5b81356111668482602086016110ff565b91505092915050565b6000806040838503121561118657611185610e1a565b5b600083013567ffffffffffffffff8111156111a4576111a3610e1f565b5b6111b085828601611141565b925050602083013567ffffffffffffffff8111156111d1576111d0610e1f565b5b6111dd85828601611141565b9150509250929050565b6000806000806080858703121561120157611200610e1a565b5b600061120f87828801610e6d565b945050602061122087828801610ea3565b935050604061123187828801610ea3565b925050606061124287828801610e6d565b91505092959194509250565b600080600080600060a0868803121561126a57611269610e1a565b5b600061127888828901610e6d565b955050602061128988828901610ea3565b945050604086013567ffffffffffffffff8111156112aa576112a9610e1f565b5b6112b688828901611141565b93505060606112c788828901610ea3565b92505060806112d888828901610ea3565b9150509295509295909350565b7f4e6f7420796f757220746f6b656e000000000000000000000000000000000000600082015250565b600061131b600e83610f03565b9150611326826112e5565b602082019050919050565b6000602082019050818103600083015261134a8161130e565b9050919050565b60006040820190506113666000830185611010565b6113736020830184610f88565b9392505050565b600060208201905061138f6000830184610f88565b92915050565b7f4e487b7100000000000000000000000000000000000000000000000000000000600052602260045260246000fd5b600060028204905060018216806113dc57607f821691505b6020821081036113ef576113ee611395565b5b50919050565b7f546f6b656e20616c726561647920637265617465640000000000000000000000600082015250565b600061142b601583610f03565b9150611436826113f5565b602082019050919050565b6000602082019050818103600083015261145a8161141e565b9050919050565b6000606082019050818103600083015261147b8186610f4f565b9050818103602083015261148f8185610f4f565b905061149e6040830184611010565b949350505050565b7f5469657220646f6573206e6f7420657869737400000000000000000000000000600082015250565b60006114dc601383610f03565b91506114e7826114a6565b602082019050919050565b6000602082019050818103600083015261150b816114cf565b9050919050565b7f4e487b7100000000000000000000000000000000000000000000000000000000600052601160045260246000fd5b600061154c82610e82565b915061155783610e82565b925082820190508082111561156f5761156e611512565b5b92915050565b7f45786365656473207469657220737570706c7900000000000000000000000000600082015250565b60006115ab601383610f03565b91506115b682611575565b602082019050919050565b600060208201905081810360008301526115da8161159e565b9050919050565b60006115ec82610e82565b91506115f783610e82565b925082820261160581610e82565b9150828204841483151761161c5761161b611512565b5b5092915050565b7f496e73756666696369656e74207061796d656e74000000000000000000000000600082015250565b6000611659601483610f03565b915061166482611623565b602082019050919050565b600060208201905081810360008301526116888161164c565b9050919050565b60006040820190506116a46000830185610f88565b6116b16020830184610f88565b9392505050565b7f5469657220616c72656164792065786973747300000000000000000000000000600082015250565b60006116ee601383610f03565b91506116f9826116b8565b602082019050919050565b6000602082019050818103600083015261171d816116e1565b9050919050565b60008190508160005260206000209050919050565b60006020601f8301049050919050565b600082821b905092915050565b6000600883026117867fffffffffffffffffffffffffffffffffffffffffffffffffffffffffffffffff82611749565b6117908683611749565b95508019841693508086168417925050509392505050565b6000819050919050565b60006117cd6117c86117c384610e82565b6117a8565b610e82565b9050919050565b6000819050919050565b6117e7836117b2565b6117fb6117f3826117d4565b848454611756565b825550505050565b600090565b611810611803565b61181b8184846117de565b505050565b5b8181101561183f57611834600082611808565b600181019050611821565b5050565b601f8211156118845761185581611724565b61185e84611739565b8101602085101561186d578190505b61188161187985611739565b830182611820565b50505b505050565b600082821c905092915050565b60006118a760001984600802611889565b1980831691505092915050565b60006118c08383611896565b9150826002028217905092915050565b6118d982610ef8565b67ffffffffffffffff8111156118f2576118f1611044565b5b6118fc82546113c4565b611907828285611843565b600060209050601f83116001811461193a5760008415611928578287015190505b61193285826118b4565b86555061199a565b601f19841661194886611724565b60005b828110156119705784890151825560018201915060208501945060208101905061194b565b8683101561198d5784890151611989601f891682611896565b8355505b6001600288020188555050505b505050505050565b60006080820190506119b76000830187610f88565b81810360208301526119c98186610f4f565b90506119d86040830185610f88565b6119e56060830184610f88565b9594505050505056fe608060405234801561001057600080fd5b5060405161179e38038061179e83398181016040528101906100329190610272565b82828160039081610043919061051e565b508060049081610053919061051e565b50505080600560006101000a81548173ffffffffffffffffffffffffffffffffffffffff021916908373ffffffffffffffffffffffffffffffffffffffff1602179055505050506105f0565b6000604051905090565b600080fd5b600080fd5b600080fd5b600080fd5b6000601f19601f8301169050919050565b7f4e487b7100000000000000000000000000000000000000000000000000000000600052604160045260246000fd5b610106826100bd565b810181811067ffffffffffffffff82111715610125576101246100ce565b5b80604052505050565b600061013861009f565b905061014482826100fd565b919050565b600067ffffffffffffffff821115610164576101636100ce565b5b61016d826100bd565b9050602081019050919050565b60005b8381101561019857808201518184015260208101905061017d565b60008484015250505050565b60006101b76101b284610149565b61012e565b9050828152602081018484840111156101d3576101d26100b8565b5b6101de84828561017a565b509392505050565b600082601f8301126101fb576101fa6100b3565b5b815161020b8482602086016101a4565b91505092915050565b600073ffffffffffffffffffffffffffffffffffffffff82169050919050565b600061023f82610214565b9050919050565b61024f81610234565b811461025a57600080fd5b50565b60008151905061026c81610246565b92915050565b60008060006060848603121561028b5761028a6100a9565b5b600084015167ffffffffffffffff8111156102a9576102a86100ae565b5b6102b5868287016101e6565b935050602084015167ffffffffffffffff8111156102d6576102d56100ae565b5b6102e2868287016101e6565b92505060406102f38682870161025d565b9150509250925092565b600081519050919050565b7f4e487b7100000000000000000000000000000000000000000000000000000000600052602260045260246000fd5b6000600282049050600182168061034f57607f821691505b60208210810361036257610361610308565b5b50919050565b60008190508160005260206000209050919050565b60006020601f8301049050919050565b600082821b905092915050565b6000600883026103ca7fffffffffffffffffffffffffffffffffffffffffffffffffffffffffffffffff8261038d565b6103d4868361038d565b95508019841693508086168417925050509392505050565b6000819050919050565b6000819050919050565b600061041b610416610411846103ec565b6103f6565b6103ec565b9050919050565b6000819050919050565b61043583610400565b61044961044182610422565b84845461039a565b825550505050565b600090565b61045e610451565b61046981848461042c565b505050565b5b8181101561048d57610482600082610456565b60018101905061046f565b5050565b601f8211156104d2576104a381610368565b6104ac8461037d565b810160208510156104bb578190505b6104cf6104c78561037d565b83018261046e565b50505b505050565b600082821c905092915050565b60006104f5600019846008026104d7565b1980831691505092915050565b600061050e83836104e4565b9150826002028217905092915050565b610527826102fd565b67ffffffffffffffff8111156105405761053f6100ce565b5b61054a8254610337565b610555828285610491565b600060209050601f8311600181146105885760008415610576578287015190505b6105808582610502565b8655506105e8565b601f19841661059686610368565b60005b828110156105be57848901518255600182019150602085019450602081019050610599565b868310156105db57848901516105d7601f8916826104e4565b8355505b6001600288020188555050505b505050505050565b61119f806105ff6000396000f3fe608060405234801561001057600080fd5b50600436106100b45760003560e01c806340c10f191161007157806340c10f191461019157806370a08231146101ad57806395d89b41146101dd5780639dc29fac146101fb578063a9059cbb14610217578063dd62ed3e14610247576100b4565b806302d05d3f146100b957806306fdde03146100d7578063095ea7b3146100f557806318160ddd1461012557806323b872dd14610143578063313ce56714610173575b600080fd5b6100c1610277565b6040516100ce9190610d38565b60405180910390f35b6100df61029d565b6040516100ec9190610de3565b60405180910390f35b61010f600480360381019061010a9190610e6c565b61032f565b60405161011c9190610ec7565b60405180910390f35b61012d610352565b60405161013a9190610ef1565b60405180910390f35b61015d60048036038101906101589190610f0c565b61035c565b60405161016a9190610ec7565b60405180910390f35b61017b61038b565b6040516101889190610f7b565b60405180910390f35b6101ab60048036038101906101a69190610e6c565b610394565b005b6101c760048036038101906101c29190610f96565b610432565b6040516101d49190610ef1565b60405180910390f35b6101e561047a565b6040516101f29190610de3565b60405180910390f35b61021560048036038101906102109190610e6c565b61050c565b005b610231600480360381019061022c9190610e6c565b6105aa565b60405161023e9190610ec7565b60405180910390f35b610261600480360381019061025c9190610fc3565b6105cd565b60405161026e9190610ef1565b60405180910390f35b600560009054906101000a900473ffffffffffffffffffffffffffffffffffffffff1681565b6060600380546102ac90611032565b80601f01602080910402602001604051908101604052809291908181526020018280546102d890611032565b80156103255780601f106102fa57610100808354040283529160200191610325565b820191906000526020600020905b81548152906001019060200180831161030857829003601f168201915b5050505050905090565b60008061033a610654565b905061034781858561065c565b600191505092915050565b6000600254905090565b600080610367610654565b905061037485828561066e565b61037f858585610703565b60019150509392505050565b60006012905090565b600560009054906101000a900473ffffffffffffffffffffffffffffffffffffffff1673ffffffffffffffffffffffffffffffffffffffff163373ffffffffffffffffffffffffffffffffffffffff1614610424576040517f08c379a000000000000000000000000000000000000000000000000000000000815260040161041b906110af565b60405180910390fd5b61042e82826107f7565b5050565b60008060008373ffffffffffffffffffffffffffffffffffffffff1673ffffffffffffffffffffffffffffffffffffffff168152602001908152602001600020549050919050565b60606004805461048990611032565b80601f01602080910402602001604051908101604052809291908181526020018280546104b590611032565b80156105025780601f106104d757610100808354040283529160200191610502565b820191906000526020600020905b8154815290600101906020018083116104e557829003601f168201915b5050505050905090565b600560009054906101000a900473ffffffffffffffffffffffffffffffffffffffff1673ffffffffffffffffffffffffffffffffffffffff163373ffffffffffffffffffffffffffffffffffffffff161461059c576040517f08c379a0000000000000000000000000000000000000000000000000000000008152600401610593906110af565b60405180910390fd5b6105a68282610879565b5050565b6000806105b5610654565b90506105c2818585610703565b600191505092915050565b6000600160008473ffffffffffffffffffffffffffffffffffffffff1673ffffffffffffffffffffffffffffffffffffffff16815260200190815260200160002060008373ffffffffffffffffffffffffffffffffffffffff1673ffffffffffffffffffffffffffffffffffffffff16815260200190815260200160002054905092915050565b600033905090565b61066983838360016108fb565b505050565b600061067a84846105cd565b90507fffffffffffffffffffffffffffffffffffffffffffffffffffffffffffffffff8110156106fd57818110156106ed578281836040517ffb8f41b20000000000000000000000000000000000000000000000000000000081526004016106e4939291906110cf565b60405180910390fd5b6106fc848484840360006108fb565b5b50505050565b600073ffffffffffffffffffffffffffffffffffffffff168373ffffffffffffffffffffffffffffffffffffffff16036107755760006040517f96c6fd1e00000000000000000000000000000000000000000000000000000000815260040161076c9190610d38565b60405180910390fd5b600073ffffffffffffffffffffffffffffffffffffffff168273ffffffffffffffffffffffffffffffffffffffff16036107e75760006040517fec442f050000000000000000000000000000000000000000000000000000000081526004016107de9190610d38565b60405180910390fd5b6107f2838383610ad2565b505050565b600073ffffffffffffffffffffffffffffffffffffffff168273ffffffffffffffffffffffffffffffffffffffff16036108695760006040517fec442f050000000000000000000000000000000000000000000000000000000081526004016108609190610d38565b60405180910390fd5b61087560008383610ad2565b5050565b600073ffffffffffffffffffffffffffffffffffffffff168273ffffffffffffffffffffffffffffffffffffffff16036108eb5760006040517f96c6fd1e0000000000000000000000000000000000000000000000000000000081526004016108e29190610d38565b60405180910390fd5b6108f782600083610ad2565b5050565b600073ffffffffffffffffffffffffffffffffffffffff168473ffffffffffffffffffffffffffffffffffffffff160361096d5760006040517fe602df050000000000000000000000000000000000000000000000000000000081526004016109649190610d38565b60405180910390fd5b600073ffffffffffffffffffffffffffffffffffffffff168373ffffffffffffffffffffffffffffffffffffffff16036109df5760006040517f94280d620000000000000000000000000000000000000000000000000000000081526004016109d69190610d38565b60405180910390fd5b81600160008673ffffffffffffffffffffffffffffffffffffffff1673ffffffffffffffffffffffffffffffffffffffff16815260200190815260200160002060008573ffffffffffffffffffffffffffffffffffffffff1673ffffffffffffffffffffffffffffffffffffffff168152602001908152602001600020819055508015610acc578273ffffffffffffffffffffffffffffffffffffffff168473ffffffffffffffffffffffffffffffffffffffff167f8c5be1e5ebec7d5bd14f71427d1e84f3dd0314c0f7b2291e5b200ac8c7c3b92584604051610ac39190610ef1565b60405180910390a35b50505050565b600073ffffffffffffffffffffffffffffffffffffffff168373ffffffffffffffffffffffffffffffffffffffff1603610b24578060026000828254610b189190611135565b92505081905550610bf7565b60008060008573ffffffffffffffffffffffffffffffffffffffff1673ffffffffffffffffffffffffffffffffffffffff16815260200190815260200160002054905081811015610bb0578381836040517fe450d38c000000000000000000000000000000000000000000000000000000008152600401610ba7939291906110cf565b60405180910390fd5b8181036000808673ffffffffffffffffffffffffffffffffffffffff1673ffffffffffffffffffffffffffffffffffffffff16815260200190815260200160002081905550505b600073ffffffffffffffffffffffffffffffffffffffff168273ffffffffffffffffffffffffffffffffffffffff1603610c405780600260008282540392505081905550610c8d565b806000808473ffffffffffffffffffffffffffffffffffffffff1673ffffffffffffffffffffffffffffffffffffffff168152602001908152602001600020600082825401925050819055505b8173ffffffffffffffffffffffffffffffffffffffff168373ffffffffffffffffffffffffffffffffffffffff167fddf252ad1be2c89b69c2b068fc378daa952ba7f163c4a11628f55a4df523b3ef83604051610cea9190610ef1565b60405180910390a3505050565b600073ffffffffffffffffffffffffffffffffffffffff82169050919050565b6000610d2282610cf7565b9050919050565b610d3281610d17565b82525050565b6000602082019050610d4d6000830184610d29565b92915050565b600081519050919050565b600082825260208201905092915050565b60005b83811015610d8d578082015181840152602081019050610d72565b60008484015250505050565b6000601f19601f8301169050919050565b6000610db582610d53565b610dbf8185610d5e565b9350610dcf818560208601610d6f565b610dd881610d99565b840191505092915050565b60006020820190508181036000830152610dfd8184610daa565b905092915050565b600080fd5b610e1381610d17565b8114610e1e57600080fd5b50565b600081359050610e3081610e0a565b92915050565b6000819050919050565b610e4981610e36565b8114610e5457600080fd5b50565b600081359050610e6681610e40565b92915050565b60008060408385031215610e8357610e82610e05565b5b6000610e9185828601610e21565b9250506020610ea285828601610e57565b9150509250929050565b60008115159050919050565b610ec181610eac565b82525050565b6000602082019050610edc6000830184610eb8565b92915050565b610eeb81610e36565b82525050565b6000602082019050610f066000830184610ee2565b92915050565b600080600060608486031215610f2557610f24610e05565b5b6000610f3386828701610e21565b9350506020610f4486828701610e21565b9250506040610f5586828701610e57565b9150509250925092565b600060ff82169050919050565b610f7581610f5f565b82525050565b6000602082019050610f906000830184610f6c565b92915050565b600060208284031215610fac57610fab610e05565b5b6000610fba84828501610e21565b91505092915050565b60008060408385031215610fda57610fd9610e05565b5b6000610fe885828601610e21565b9250506020610ff985828601610e21565b9150509250929050565b7f4e487b7100000000000000000000000000000000000000000000000000000000600052602260045260246000fd5b6000600282049050600182168061104a57607f821691505b60208210810361105d5761105c611003565b5b50919050565b7f4e6f74207468652063726561746f720000000000000000000000000000000000600082015250565b6000611099600f83610d5e565b91506110a482611063565b602082019050919050565b600060208201905081810360008301526110c88161108c565b9050919050565b60006060820190506110e46000830186610d29565b6110f16020830185610ee2565b6110fe6040830184610ee2565b949350505050565b7f4e487b7100000000000000000000000000000000000000000000000000000000600052601160045260246000fd5b600061114082610e36565b915061114b83610e36565b925082820190508082111561116357611162611106565b5b9291505056fea26469706673582212205bc978d52cce0c69bcbe5d0c9c50ee096321d78d949512ef99021694316fc11c64736f6c634300081c0033a26469706673582212208cf636a21ac76003d171b98970c35db1e6a0a7649bc186f9a6dea26fc41624a864736f6c634300081c0033",
  "linkReferences": {},
  "deployedLinkReferences": {}
}