{
  "_format": "hh-sol-artifact-1",
  "contractName": "CreatorTokenManager",
  "sourceName": "contracts/CreatorTokenManager.sol",
  "abi": [
    {
      "inputs": [],
      "stateMutability": "nonpayable",
      "type": "constructor"
    },
    {
      "inputs": [
        {
          "internalType": "address",
          "name": "owner",
          "type": "address"
        }
      ],
      "name": "OwnableInvalidOwner",
      "type": "error"
    },
    {
      "inputs": [
        {
          "internalType": "address",
          "name": "account",
          "type": "address"
        }
      ],
      "name": "OwnableUnauthorizedAccount",
      "type": "error"
    },
    {
      "anonymous": false,
      "inputs": [
        {
          "indexed": true,
          "internalType": "address",
          "name": "creator",
          "type": "address"
        },
        {
          "indexed": false,
          "internalType": "uint256",
          "name": "amount",
          "type": "uint256"
        }
      ],
      "name": "CreatorWithdrawal",
      "type": "event"
    },
    {
      "anonymous": false,
      "inputs": [
        {
          "indexed": true,
          "internalType": "address",
          "name": "previousOwner",
          "type": "address"
        },
        {
          "indexed": true,
          "internalType": "address",
          "name": "newOwner",
          "type": "address"
        }
      ],
      "name": "OwnershipTransferred",
      "type": "event"
    },
    {
      "anonymous": false,
      "inputs": [
        {
          "indexed": false,
          "internalType": "uint256",
          "name": "newFeePercent",
          "type": "uint256"
        }
      ],
      "name": "PlatformFeeUpdated",
      "type": "event"
    },
    {
      "anonymous": false,
      "inputs": [
        {
          "indexed": true,
          "internalType": "address",
          "name": "token",
          "type": "address"
        },
        {
          "indexed": false,
          "internalType": "uint256",
          "name": "tierId",
          "type": "uint256"
        },
        {
          "indexed": false,
          "internalType": "string",
          "name": "name",
          "type": "string"
        },
        {
          "indexed": false,
          "internalType": "uint256",
          "name": "supply",
          "type": "uint256"
        },
        {
          "indexed": false,
          "internalType": "uint256",
          "name": "price",
          "type": "uint256"
        }
      ],
      "name": "TierAdded",
      "type": "event"
    },
    {
      "anonymous": false,
      "inputs": [
        {
          "indexed": true,
          "internalType": "address",
          "name": "token",
          "type": "address"
        },
        {
          "indexed": false,
          "internalType": "uint256",
          "name": "tierId",
          "type": "uint256"
        },
        {
          "indexed": false,
          "internalType": "bool",
          "name": "isActive",
          "type": "bool"
        }
      ],
      "name": "TierStatusChanged",
      "type": "event"
    },
    {
      "anonymous": false,
      "inputs": [
        {
          "indexed": true,
          "internalType": "address",
          "name": "creator",
          "type": "address"
        },
        {
          "indexed": false,
          "internalType": "address",
          "name": "tokenAddress",
          "type": "address"
        }
      ],
      "name": "TokenCreated",
      "type": "event"
    },
    {
      "anonymous": false,
      "inputs": [
        {
          "indexed": true,
          "internalType": "address",
          "name": "token",
          "type": "address"
        },
        {
          "indexed": true,
          "internalType": "address",
          "name": "from",
          "type": "address"
        },
        {
          "indexed": false,
          "internalType": "uint256",
          "name": "amount",
          "type": "uint256"
        }
      ],
      "name": "TokensBurned",
      "type": "event"
    },
    {
      "anonymous": false,
      "inputs": [
        {
          "indexed": true,
          "internalType": "address",
          "name": "token",
          "type": "address"
        },
        {
          "indexed": true,
          "internalType": "address",
          "name": "recipient",
          "type": "address"
        },
        {
          "indexed": false,
          "internalType": "uint256",
          "name": "tierId",
          "type": "uint256"
        },
        {
          "indexed": false,
          "internalType": "uint256",
          "name": "amount",
          "type": "uint256"
        }
      ],
      "name": "TokensMinted",
      "type": "event"
    },
    {
      "anonymous": false,
      "inputs": [
        {
          "indexed": true,
          "internalType": "address",
          "name": "token",
          "type": "address"
        },
        {
          "indexed": true,
          "internalType": "address",
          "name": "buyer",
          "type": "address"
        },
        {
          "indexed": false,
          "internalType": "uint256",
          "name": "tierId",
          "type": "uint256"
        },
        {
          "indexed": false,
          "internalType": "uint256",
          "name": "amount",
          "type": "uint256"
        },
        {
          "indexed": false,
          "internalType": "uint256",
          "name": "paid",
          "type": "uint256"
        }
      ],
      "name": "TokensPurchased",
      "type": "event"
    },
    {
      "inputs": [
        {
          "internalType": "address",
          "name": "",
          "type": "address"
        }
      ],
      "name": "CreatorStats",
      "outputs": [
        {
          "internalType": "address",
          "name": "token",
          "type": "address"
        },
        {
          "internalType": "string",
          "name": "name",
          "type": "string"
        },
        {
          "internalType": "string",
          "name": "symbol",
          "type": "string"
        },
        {
          "internalType": "uint256",
          "name": "totalSales",
          "type": "uint256"
        },
        {
          "internalType": "uint256",
          "name": "totalTokens",
          "type": "uint256"
        },
        {
          "internalType": "uint256",
          "name": "totalHolders",
          "type": "uint256"
        }
      ],
      "stateMutability": "view",
      "type": "function"
    },
    {
      "inputs": [
        {
          "internalType": "string",
          "name": "",
          "type": "string"
        },
        {
          "internalType": "uint256",
          "name": "",
          "type": "uint256"
        }
      ],
      "name": "PlatformTokens",
      "outputs": [
        {
          "internalType": "string",
          "name": "name",
          "type": "string"
        },
        {
          "internalType": "string",
          "name": "symbol",
          "type": "string"
        },
        {
          "internalType": "address",
          "name": "token",
          "type": "address"
        }
      ],
      "stateMutability": "view",
      "type": "function"
    },
    {
      "inputs": [
        {
          "internalType": "address",
          "name": "",
          "type": "address"
        },
        {
          "internalType": "uint256",
          "name": "",
          "type": "uint256"
        }
      ],
      "name": "TokensOwned",
      "outputs": [
        {
          "internalType": "address",
          "name": "",
          "type": "address"
        }
      ],
      "stateMutability": "view",
      "type": "function"
    },
    {
      "inputs": [
        {
          "internalType": "address",
          "name": "token",
          "type": "address"
        },
        {
          "internalType": "uint256",
          "name": "tierId",
          "type": "uint256"
        },
        {
          "internalType": "string",
          "name": "name",
          "type": "string"
        },
        {
          "internalType": "uint256",
          "name": "supply",
          "type": "uint256"
        },
        {
          "internalType": "uint256",
          "name": "price",
          "type": "uint256"
        }
      ],
      "name": "addTier",
      "outputs": [],
      "stateMutability": "nonpayable",
      "type": "function"
    },
    {
      "inputs": [
        {
          "internalType": "address",
          "name": "token",
          "type": "address"
        },
        {
          "internalType": "address",
          "name": "from",
          "type": "address"
        },
        {
          "internalType": "uint256",
          "name": "amount",
          "type": "uint256"
        }
      ],
      "name": "burnTokens",
      "outputs": [],
      "stateMutability": "nonpayable",
      "type": "function"
    },
    {
      "inputs": [
        {
          "internalType": "string",
          "name": "name",
          "type": "string"
        },
        {
          "internalType": "string",
          "name": "symbol",
          "type": "string"
        }
      ],
      "name": "createToken",
      "outputs": [],
      "stateMutability": "nonpayable",
      "type": "function"
    },
    {
      "inputs": [
        {
          "internalType": "address",
          "name": "",
          "type": "address"
        }
      ],
      "name": "creatorBalances",
      "outputs": [
        {
          "internalType": "uint256",
          "name": "",
          "type": "uint256"
        }
      ],
      "stateMutability": "view",
      "type": "function"
    },
    {
      "inputs": [
        {
          "internalType": "address",
          "name": "",
          "type": "address"
        }
      ],
      "name": "creatorTokens",
      "outputs": [
        {
          "internalType": "address",
          "name": "",
          "type": "address"
        }
      ],
      "stateMutability": "view",
      "type": "function"
    },
    {
      "inputs": [],
      "name": "getCreatorStats",
      "outputs": [
        {
          "components": [
            {
              "internalType": "address",
              "name": "token",
              "type": "address"
            },
            {
              "internalType": "string",
              "name": "name",
              "type": "string"
            },
            {
              "internalType": "string",
              "name": "symbol",
              "type": "string"
            },
            {
              "internalType": "uint256",
              "name": "totalSales",
              "type": "uint256"
            },
            {
              "internalType": "uint256",
              "name": "totalTokens",
              "type": "uint256"
            },
            {
              "internalType": "uint256",
              "name": "totalHolders",
              "type": "uint256"
            }
          ],
          "internalType": "struct CreatorTokenManager.MyStats",
          "name": "stats",
          "type": "tuple"
        }
      ],
      "stateMutability": "view",
      "type": "function"
    },
    {
      "inputs": [],
      "name": "getMyToken",
      "outputs": [
        {
          "internalType": "address",
          "name": "",
          "type": "address"
        }
      ],
      "stateMutability": "view",
      "type": "function"
    },
    {
      "inputs": [],
      "name": "getPlatformTokens",
      "outputs": [
        {
          "components": [
            {
              "internalType": "string",
              "name": "name",
              "type": "string"
            },
            {
              "internalType": "string",
              "name": "symbol",
              "type": "string"
            },
            {
              "internalType": "address",
              "name": "token",
              "type": "address"
            }
          ],
          "internalType": "struct CreatorTokenManager.TokenDetails[]",
          "name": "",
          "type": "tuple[]"
        }
      ],
      "stateMutability": "view",
      "type": "function"
    },
    {
      "inputs": [
        {
          "internalType": "address",
          "name": "token",
          "type": "address"
        },
        {
          "internalType": "uint256",
          "name": "tierId",
          "type": "uint256"
        }
      ],
      "name": "getTierDetails",
      "outputs": [
        {
          "internalType": "string",
          "name": "name",
          "type": "string"
        },
        {
          "internalType": "uint256",
          "name": "supply",
          "type": "uint256"
        },
        {
          "internalType": "uint256",
          "name": "minted",
          "type": "uint256"
        },
        {
          "internalType": "uint256",
          "name": "price",
          "type": "uint256"
        },
        {
          "internalType": "bool",
          "name": "isActive",
          "type": "bool"
        }
      ],
      "stateMutability": "view",
      "type": "function"
    },
    {
      "inputs": [
        {
          "internalType": "address",
          "name": "creatorAddress",
          "type": "address"
        }
      ],
      "name": "getTokenAddress",
      "outputs": [
        {
          "internalType": "address",
          "name": "",
          "type": "address"
        }
      ],
      "stateMutability": "view",
      "type": "function"
    },
    {
      "inputs": [
        {
          "internalType": "address",
          "name": "",
          "type": "address"
        }
      ],
      "name": "getTokenCreator",
      "outputs": [
        {
          "internalType": "address",
          "name": "",
          "type": "address"
        }
      ],
      "stateMutability": "view",
      "type": "function"
    },
    {
      "inputs": [],
      "name": "getUserOwnedTokens",
      "outputs": [
        {
          "internalType": "address[]",
          "name": "",
          "type": "address[]"
        }
      ],
      "stateMutability": "view",
      "type": "function"
    },
    {
      "inputs": [
        {
          "internalType": "address",
          "name": "token",
          "type": "address"
        }
      ],
      "name": "getUserTokenBalance",
      "outputs": [
        {
          "internalType": "uint256",
          "name": "",
          "type": "uint256"
        }
      ],
      "stateMutability": "view",
      "type": "function"
    },
    {
      "inputs": [],
      "name": "owner",
      "outputs": [
        {
          "internalType": "address",
          "name": "",
          "type": "address"
        }
      ],
      "stateMutability": "view",
      "type": "function"
    },
    {
      "inputs": [],
      "name": "platformFeePercent",
      "outputs": [
        {
          "internalType": "uint256",
          "name": "",
          "type": "uint256"
        }
      ],
      "stateMutability": "view",
      "type": "function"
    },
    {
      "inputs": [],
      "name": "platformWallet",
      "outputs": [
        {
          "internalType": "address",
          "name": "",
          "type": "address"
        }
      ],
      "stateMutability": "view",
      "type": "function"
    },
    {
      "inputs": [
        {
          "internalType": "address",
          "name": "token",
          "type": "address"
        },
        {
          "internalType": "uint256",
          "name": "tierId",
          "type": "uint256"
        },
        {
          "internalType": "uint256",
          "name": "amount",
          "type": "uint256"
        }
      ],
      "name": "purchaseTokens",
      "outputs": [],
      "stateMutability": "payable",
      "type": "function"
    },
    {
      "inputs": [],
      "name": "renounceOwnership",
      "outputs": [],
      "stateMutability": "nonpayable",
      "type": "function"
    },
    {
      "inputs": [
        {
          "internalType": "address",
          "name": "token",
          "type": "address"
        },
        {
          "internalType": "uint256",
          "name": "tierId",
          "type": "uint256"
        },
        {
          "internalType": "bool",
          "name": "isActive",
          "type": "bool"
        }
      ],
      "name": "setTierActive",
      "outputs": [],
      "stateMutability": "nonpayable",
      "type": "function"
    },
    {
      "inputs": [
        {
          "internalType": "address",
          "name": "",
          "type": "address"
        },
        {
          "internalType": "uint256",
          "name": "",
          "type": "uint256"
        }
      ],
      "name": "tokenTiers",
      "outputs": [
        {
          "internalType": "string",
          "name": "name",
          "type": "string"
        },
        {
          "internalType": "uint256",
          "name": "supply",
          "type": "uint256"
        },
        {
          "internalType": "uint256",
          "name": "minted",
          "type": "uint256"
        },
        {
          "internalType": "uint256",
          "name": "price",
          "type": "uint256"
        },
        {
          "internalType": "bool",
          "name": "isActive",
          "type": "bool"
        }
      ],
      "stateMutability": "view",
      "type": "function"
    },
    {
      "inputs": [
        {
          "internalType": "address",
          "name": "newOwner",
          "type": "address"
        }
      ],
      "name": "transferOwnership",
      "outputs": [],
      "stateMutability": "nonpayable",
      "type": "function"
    },
    {
      "inputs": [
        {
          "internalType": "uint256",
          "name": "newFeePercent",
          "type": "uint256"
        }
      ],
      "name": "updatePlatformFee",
      "outputs": [],
      "stateMutability": "nonpayable",
      "type": "function"
    },
    {
      "inputs": [],
      "name": "withdrawCreatorBalance",
      "outputs": [],
      "stateMutability": "nonpayable",
      "type": "function"
    }
  ],
  "bytecode": "0x608060405260fa60085534801561001557600080fd5b5033600073ffffffffffffffffffffffffffffffffffffffff168173ffffffffffffffffffffffffffffffffffffffff16036100895760006040517f1e4fbdf700000000000000000000000000000000000000000000000000000000815260040161008091906101e4565b60405180910390fd5b610098816100df60201b60201c565b5033600960006101000a81548173ffffffffffffffffffffffffffffffffffffffff021916908373ffffffffffffffffffffffffffffffffffffffff1602179055506101ff565b60008060009054906101000a900473ffffffffffffffffffffffffffffffffffffffff169050816000806101000a81548173ffffffffffffffffffffffffffffffffffffffff021916908373ffffffffffffffffffffffffffffffffffffffff1602179055508173ffffffffffffffffffffffffffffffffffffffff168173ffffffffffffffffffffffffffffffffffffffff167f8be0079c531659141344cd1fd0a4f28419497f9722a3daafe3b4186f6b6457e060405160405180910390a35050565b600073ffffffffffffffffffffffffffffffffffffffff82169050919050565b60006101ce826101a3565b9050919050565b6101de816101c3565b82525050565b60006020820190506101f960008301846101d5565b92915050565b615eed8061020e6000396000f3fe6080604052600436106101815760003560e01c80638c639a85116100d1578063b8d7b6691161008a578063e1f0417511610064578063e1f04175146105aa578063f2fde38b146105d3578063f5aec88c146105fc578063fa2af9da1461063957610181565b8063b8d7b669146104ef578063c78418b91461052c578063d064626a1461056957610181565b80638c639a85146103cb5780638da5cb5b146103f65780639359cb271461042157806399a361361461045e578063a4cb1a7414610487578063aa0b5988146104c657610181565b80632f2f2d561161013e578063567e9c3211610118578063567e9c32146103425780636bb114281461035e578063715018a6146103895780637cdf7547146103a057610181565b80632f2f2d56146102c5578063423c3a48146102ee578063534d81ee1461031757610181565b80630ded59f91461018657806313f664f9146101b15780631ad18426146101f357806327935f981461023457806329c81b911461024b5780632a78280214610288575b600080fd5b34801561019257600080fd5b5061019b610664565b6040516101a89190612ced565b60405180910390f35b3480156101bd57600080fd5b506101d860048036038101906101d39190612d4f565b61072f565b6040516101ea96959493929190612e34565b60405180910390f35b3480156101ff57600080fd5b5061021a60048036038101906102159190612ecf565b61089b565b60405161022b959493929190612f2a565b60405180910390f35b34801561024057600080fd5b50610249610973565b005b34801561025757600080fd5b50610272600480360381019061026d9190612d4f565b610b3d565b60405161027f9190612f84565b60405180910390f35b34801561029457600080fd5b506102af60048036038101906102aa9190612d4f565b610b70565b6040516102bc9190612f9f565b60405180910390f35b3480156102d157600080fd5b506102ec60048036038101906102e791906130ef565b610b88565b005b3480156102fa57600080fd5b5061031560048036038101906103109190613167565b610fe3565b005b34801561032357600080fd5b5061032c611239565b60405161033991906132a3565b60405180910390f35b61035c600480360381019061035791906132c5565b611428565b005b34801561036a57600080fd5b50610373611cde565b6040516103809190613431565b60405180910390f35b34801561039557600080fd5b5061039e611ed1565b005b3480156103ac57600080fd5b506103b5611ee5565b6040516103c29190612f84565b60405180910390f35b3480156103d757600080fd5b506103e0611f4c565b6040516103ed9190612f9f565b60405180910390f35b34801561040257600080fd5b5061040b611f52565b6040516104189190612f84565b60405180910390f35b34801561042d57600080fd5b5061044860048036038101906104439190612ecf565b611f7b565b6040516104559190612f84565b60405180910390f35b34801561046a57600080fd5b506104856004803603810190610480919061347f565b611fc9565b005b34801561049357600080fd5b506104ae60048036038101906104a991906134d2565b6121ec565b6040516104bd9392919061352e565b60405180910390f35b3480156104d257600080fd5b506104ed60048036038101906104e89190613573565b612379565b005b3480156104fb57600080fd5b5061051660048036038101906105119190612d4f565b612407565b6040516105239190612f84565b60405180910390f35b34801561053857600080fd5b50610553600480360381019061054e9190612d4f565b612470565b6040516105609190612f84565b60405180910390f35b34801561057557600080fd5b50610590600480360381019061058b9190612ecf565b6124a3565b6040516105a1959493929190612f2a565b60405180910390f35b3480156105b657600080fd5b506105d160048036038101906105cc91906135a0565b61260c565b005b3480156105df57600080fd5b506105fa60048036038101906105f59190612d4f565b612922565b005b34801561060857600080fd5b50610623600480360381019061061e9190612d4f565b6129a8565b6040516106309190612f9f565b60405180910390f35b34801561064557600080fd5b5061064e612a2b565b60405161065b9190612f84565b60405180910390f35b6060600660003373ffffffffffffffffffffffffffffffffffffffff1673ffffffffffffffffffffffffffffffffffffffff16815260200190815260200160002080548060200260200160405190810160405280929190818152602001828054801561072557602002820191906000526020600020905b8160009054906101000a900473ffffffffffffffffffffffffffffffffffffffff1673ffffffffffffffffffffffffffffffffffffffff16815260200190600101908083116106db575b5050505050905090565b60076020528060005260406000206000915090508060000160009054906101000a900473ffffffffffffffffffffffffffffffffffffffff169080600101805461077890613666565b80601f01602080910402602001604051908101604052809291908181526020018280546107a490613666565b80156107f15780601f106107c6576101008083540402835291602001916107f1565b820191906000526020600020905b8154815290600101906020018083116107d457829003601f168201915b50505050509080600201805461080690613666565b80601f016020809104026020016040519081016040528092919081815260200182805461083290613666565b801561087f5780601f106108545761010080835404028352916020019161087f565b820191906000526020600020905b81548152906001019060200180831161086257829003601f168201915b5050505050908060030154908060040154908060050154905086565b6002602052816000526040600020602052806000526040600020600091509150508060000180546108cb90613666565b80601f01602080910402602001604051908101604052809291908181526020018280546108f790613666565b80156109445780601f1061091957610100808354040283529160200191610944565b820191906000526020600020905b81548152906001019060200180831161092757829003601f168201915b5050505050908060010154908060020154908060030154908060040160009054906101000a900460ff16905085565b6000600360003373ffffffffffffffffffffffffffffffffffffffff1673ffffffffffffffffffffffffffffffffffffffff168152602001908152602001600020549050600081116109fa576040517f08c379a00000000000000000000000000000000000000000000000000000000081526004016109f1906136e3565b60405180910390fd5b6000600360003373ffffffffffffffffffffffffffffffffffffffff1673ffffffffffffffffffffffffffffffffffffffff1681526020019081526020016000208190555060003373ffffffffffffffffffffffffffffffffffffffff1682604051610a6590613734565b60006040518083038185875af1925050503d8060008114610aa2576040519150601f19603f3d011682016040523d82523d6000602084013e610aa7565b606091505b5050905080610aeb576040517f08c379a0000000000000000000000000000000000000000000000000000000008152600401610ae290613795565b60405180910390fd5b3373ffffffffffffffffffffffffffffffffffffffff167f0d53b74a6cb6d1fbd9dc6dc1d7714036c7c6a3f48350103a7011041eb32a4c5e83604051610b319190612f9f565b60405180910390a25050565b60016020528060005260406000206000915054906101000a900473ffffffffffffffffffffffffffffffffffffffff1681565b60036020528060005260406000206000915090505481565b600073ffffffffffffffffffffffffffffffffffffffff16600160003373ffffffffffffffffffffffffffffffffffffffff1673ffffffffffffffffffffffffffffffffffffffff16815260200190815260200160002060009054906101000a900473ffffffffffffffffffffffffffffffffffffffff1673ffffffffffffffffffffffffffffffffffffffff1614610c56576040517f08c379a0000000000000000000000000000000000000000000000000000000008152600401610c4d90613801565b60405180910390fd5b60008282604051610c6690612ba4565b610c71929190613821565b604051809103906000f080158015610c8d573d6000803e3d6000fd5b50905080600160003373ffffffffffffffffffffffffffffffffffffffff1673ffffffffffffffffffffffffffffffffffffffff16815260200190815260200160002060006101000a81548173ffffffffffffffffffffffffffffffffffffffff021916908373ffffffffffffffffffffffffffffffffffffffff16021790555033600460008373ffffffffffffffffffffffffffffffffffffffff1673ffffffffffffffffffffffffffffffffffffffff16815260200190815260200160002060006101000a81548173ffffffffffffffffffffffffffffffffffffffff021916908373ffffffffffffffffffffffffffffffffffffffff1602179055506005604051610d9a906138af565b908152602001604051809103902060405180606001604052808581526020018481526020018373ffffffffffffffffffffffffffffffffffffffff1681525090806001815401808255809150506001900390600052602060002090600302016000909190919091506000820151816000019081610e179190613a70565b506020820151816001019081610e2d9190613a70565b5060408201518160020160006101000a81548173ffffffffffffffffffffffffffffffffffffffff021916908373ffffffffffffffffffffffffffffffffffffffff16021790555050506040518060c001604052808273ffffffffffffffffffffffffffffffffffffffff16815260200184815260200183815260200160008152602001600081526020016000815250600760003373ffffffffffffffffffffffffffffffffffffffff1673ffffffffffffffffffffffffffffffffffffffff16815260200190815260200160002060008201518160000160006101000a81548173ffffffffffffffffffffffffffffffffffffffff021916908373ffffffffffffffffffffffffffffffffffffffff1602179055506020820151816001019081610f589190613a70565b506040820151816002019081610f6e9190613a70565b50606082015181600301556080820151816004015560a082015181600501559050503373ffffffffffffffffffffffffffffffffffffffff167fd5f9bdf12adf29dab0248c349842c3822d53ae2bb4f36352f301630d018c813982604051610fd69190612f84565b60405180910390a2505050565b8273ffffffffffffffffffffffffffffffffffffffff16600160003373ffffffffffffffffffffffffffffffffffffffff1673ffffffffffffffffffffffffffffffffffffffff16815260200190815260200160002060009054906101000a900473ffffffffffffffffffffffffffffffffffffffff1673ffffffffffffffffffffffffffffffffffffffff16146110b0576040517f08c379a00000000000000000000000000000000000000000000000000000000081526004016110a790613b8e565b60405180910390fd5b600073ffffffffffffffffffffffffffffffffffffffff168273ffffffffffffffffffffffffffffffffffffffff160361111f576040517f08c379a000000000000000000000000000000000000000000000000000000000815260040161111690613bfa565b60405180910390fd5b60008111611162576040517f08c379a000000000000000000000000000000000000000000000000000000000815260040161115990613c66565b60405180910390fd5b8273ffffffffffffffffffffffffffffffffffffffff166379cc679083836040518363ffffffff1660e01b815260040161119d929190613c86565b600060405180830381600087803b1580156111b757600080fd5b505af11580156111cb573d6000803e3d6000fd5b505050508173ffffffffffffffffffffffffffffffffffffffff168373ffffffffffffffffffffffffffffffffffffffff167f857ac1c9e97cc66ecae5f524c9c611463ae748b85af3ca454a5ec4d7d341924d8360405161122c9190612f9f565b60405180910390a3505050565b611241612bb1565b600760003373ffffffffffffffffffffffffffffffffffffffff1673ffffffffffffffffffffffffffffffffffffffff1681526020019081526020016000206040518060c00160405290816000820160009054906101000a900473ffffffffffffffffffffffffffffffffffffffff1673ffffffffffffffffffffffffffffffffffffffff1673ffffffffffffffffffffffffffffffffffffffff1681526020016001820180546112f190613666565b80601f016020809104026020016040519081016040528092919081815260200182805461131d90613666565b801561136a5780601f1061133f5761010080835404028352916020019161136a565b820191906000526020600020905b81548152906001019060200180831161134d57829003601f168201915b5050505050815260200160028201805461138390613666565b80601f01602080910402602001604051908101604052809291908181526020018280546113af90613666565b80156113fc5780601f106113d1576101008083540402835291602001916113fc565b820191906000526020600020905b8154815290600101906020018083116113df57829003601f168201915b505050505081526020016003820154815260200160048201548152602001600582015481525050905090565b6000811161146b576040517f08c379a000000000000000000000000000000000000000000000000000000000815260040161146290613c66565b60405180910390fd5b6000600260008573ffffffffffffffffffffffffffffffffffffffff1673ffffffffffffffffffffffffffffffffffffffff168152602001908152602001600020600084815260200190815260200160002090506000816001015411611506576040517f08c379a00000000000000000000000000000000000000000000000000000000081526004016114fd90613cfb565b60405180910390fd5b8060040160009054906101000a900460ff16611557576040517f08c379a000000000000000000000000000000000000000000000000000000000815260040161154e90613d67565b60405180910390fd5b806001015482826002015461156c9190613db6565b11156115ad576040517f08c379a00000000000000000000000000000000000000000000000000000000081526004016115a490613e36565b60405180910390fd5b60008282600301546115bf9190613e56565b905080341015611604576040517f08c379a00000000000000000000000000000000000000000000000000000000081526004016115fb90613ee4565b60405180910390fd5b6000612710600854836116179190613e56565b6116219190613f33565b9050600081836116319190613f64565b90506000600460008973ffffffffffffffffffffffffffffffffffffffff1673ffffffffffffffffffffffffffffffffffffffff16815260200190815260200160002060009054906101000a900473ffffffffffffffffffffffffffffffffffffffff169050600073ffffffffffffffffffffffffffffffffffffffff168173ffffffffffffffffffffffffffffffffffffffff1603611706576040517f08c379a00000000000000000000000000000000000000000000000000000000081526004016116fd90613fe4565b60405180910390fd5b81600360008373ffffffffffffffffffffffffffffffffffffffff1673ffffffffffffffffffffffffffffffffffffffff16815260200190815260200160002060008282546117559190613db6565b92505081905550858560020160008282546117709190613db6565b925050819055508773ffffffffffffffffffffffffffffffffffffffff166340c10f1933886040518363ffffffff1660e01b81526004016117b2929190613c86565b600060405180830381600087803b1580156117cc57600080fd5b505af11580156117e0573d6000803e3d6000fd5b50505050600660003373ffffffffffffffffffffffffffffffffffffffff1673ffffffffffffffffffffffffffffffffffffffff168152602001908152602001600020889080600181540180825580915050600190039060005260206000200160009091909190916101000a81548173ffffffffffffffffffffffffffffffffffffffff021916908373ffffffffffffffffffffffffffffffffffffffff1602179055506000600960009054906101000a900473ffffffffffffffffffffffffffffffffffffffff1673ffffffffffffffffffffffffffffffffffffffff16846040516118cc90613734565b60006040518083038185875af1925050503d8060008114611909576040519150601f19603f3d011682016040523d82523d6000602084013e61190e565b606091505b5050905080611952576040517f08c379a000000000000000000000000000000000000000000000000000000000815260040161194990614050565b60405180910390fd5b60008273ffffffffffffffffffffffffffffffffffffffff168460405161197890613734565b60006040518083038185875af1925050503d80600081146119b5576040519150601f19603f3d011682016040523d82523d6000602084013e6119ba565b606091505b50509050806119fe576040517f08c379a00000000000000000000000000000000000000000000000000000000081526004016119f5906140bc565b60405180910390fd5b87600760008573ffffffffffffffffffffffffffffffffffffffff1673ffffffffffffffffffffffffffffffffffffffff1681526020019081526020016000206004016000828254611a509190613db6565b9250508190555083600760008573ffffffffffffffffffffffffffffffffffffffff1673ffffffffffffffffffffffffffffffffffffffff1681526020019081526020016000206003016000828254611aa99190613db6565b92505081905550600760008473ffffffffffffffffffffffffffffffffffffffff1673ffffffffffffffffffffffffffffffffffffffff1681526020019081526020016000206005016000815480929190611b03906140dc565b9190505550600660003373ffffffffffffffffffffffffffffffffffffffff1673ffffffffffffffffffffffffffffffffffffffff1681526020019081526020016000208a9080600181540180825580915050600190039060005260206000200160009091909190916101000a81548173ffffffffffffffffffffffffffffffffffffffff021916908373ffffffffffffffffffffffffffffffffffffffff16021790555085341115611c695760003373ffffffffffffffffffffffffffffffffffffffff168734611bd59190613f64565b604051611be190613734565b60006040518083038185875af1925050503d8060008114611c1e576040519150601f19603f3d011682016040523d82523d6000602084013e611c23565b606091505b5050905080611c67576040517f08c379a0000000000000000000000000000000000000000000000000000000008152600401611c5e90614170565b60405180910390fd5b505b3373ffffffffffffffffffffffffffffffffffffffff168a73ffffffffffffffffffffffffffffffffffffffff167f377aadedb6b2a771959584d10a6a36eccb5f56b4eb3a48525f76108d2660d8d48b8b8a604051611cca93929190614190565b60405180910390a350505050505050505050565b60606005604051611cee906138af565b9081526020016040518091039020805480602002602001604051908101604052809291908181526020016000905b82821015611ec85783829060005260206000209060030201604051806060016040529081600082018054611d4f90613666565b80601f0160208091040260200160405190810160405280929190818152602001828054611d7b90613666565b8015611dc85780601f10611d9d57610100808354040283529160200191611dc8565b820191906000526020600020905b815481529060010190602001808311611dab57829003601f168201915b50505050508152602001600182018054611de190613666565b80601f0160208091040260200160405190810160405280929190818152602001828054611e0d90613666565b8015611e5a5780601f10611e2f57610100808354040283529160200191611e5a565b820191906000526020600020905b815481529060010190602001808311611e3d57829003601f168201915b505050505081526020016002820160009054906101000a900473ffffffffffffffffffffffffffffffffffffffff1673ffffffffffffffffffffffffffffffffffffffff1673ffffffffffffffffffffffffffffffffffffffff168152505081526020019060010190611d1c565b50505050905090565b611ed9612a51565b611ee36000612ad8565b565b6000600160003373ffffffffffffffffffffffffffffffffffffffff1673ffffffffffffffffffffffffffffffffffffffff16815260200190815260200160002060009054906101000a900473ffffffffffffffffffffffffffffffffffffffff16905090565b60085481565b60008060009054906101000a900473ffffffffffffffffffffffffffffffffffffffff16905090565b60066020528160005260406000208181548110611f9757600080fd5b906000526020600020016000915091509054906101000a900473ffffffffffffffffffffffffffffffffffffffff1681565b8273ffffffffffffffffffffffffffffffffffffffff16600160003373ffffffffffffffffffffffffffffffffffffffff1673ffffffffffffffffffffffffffffffffffffffff16815260200190815260200160002060009054906101000a900473ffffffffffffffffffffffffffffffffffffffff1673ffffffffffffffffffffffffffffffffffffffff1614612096576040517f08c379a000000000000000000000000000000000000000000000000000000000815260040161208d90613b8e565b60405180910390fd5b6000600260008573ffffffffffffffffffffffffffffffffffffffff1673ffffffffffffffffffffffffffffffffffffffff1681526020019081526020016000206000848152602001908152602001600020600101541161212c576040517f08c379a000000000000000000000000000000000000000000000000000000000815260040161212390613cfb565b60405180910390fd5b80600260008573ffffffffffffffffffffffffffffffffffffffff1673ffffffffffffffffffffffffffffffffffffffff168152602001908152602001600020600084815260200190815260200160002060040160006101000a81548160ff0219169083151502179055508273ffffffffffffffffffffffffffffffffffffffff167f8e75d58611c5b02fd095024ef3669c8c6dfec79ba7b7ef32a252d21197cc99e183836040516121df9291906141c7565b60405180910390a2505050565b600582805160208101820180518482526020830160208501208183528095505050505050818154811061221e57600080fd5b90600052602060002090600302016000915091505080600001805461224290613666565b80601f016020809104026020016040519081016040528092919081815260200182805461226e90613666565b80156122bb5780601f10612290576101008083540402835291602001916122bb565b820191906000526020600020905b81548152906001019060200180831161229e57829003601f168201915b5050505050908060010180546122d090613666565b80601f01602080910402602001604051908101604052809291908181526020018280546122fc90613666565b80156123495780601f1061231e57610100808354040283529160200191612349565b820191906000526020600020905b81548152906001019060200180831161232c57829003601f168201915b5050505050908060020160009054906101000a900473ffffffffffffffffffffffffffffffffffffffff16905083565b612381612a51565b6103e88111156123c6576040517f08c379a00000000000000000000000000000000000000000000000000000000081526004016123bd9061423c565b60405180910390fd5b806008819055507f45610d581145924dd7090a5017e5f2b1d6f42213bb2e95707ff86846bbfcb1ca816040516123fc9190612f9f565b60405180910390a150565b6000600160008373ffffffffffffffffffffffffffffffffffffffff1673ffffffffffffffffffffffffffffffffffffffff16815260200190815260200160002060009054906101000a900473ffffffffffffffffffffffffffffffffffffffff169050919050565b60046020528060005260406000206000915054906101000a900473ffffffffffffffffffffffffffffffffffffffff1681565b60606000806000806000600260008973ffffffffffffffffffffffffffffffffffffffff1673ffffffffffffffffffffffffffffffffffffffff168152602001908152602001600020600088815260200190815260200160002090506000816001015411612546576040517f08c379a000000000000000000000000000000000000000000000000000000000815260040161253d90613cfb565b60405180910390fd5b806000018160010154826002015483600301548460040160009054906101000a900460ff1684805461257790613666565b80601f01602080910402602001604051908101604052809291908181526020018280546125a390613666565b80156125f05780601f106125c5576101008083540402835291602001916125f0565b820191906000526020600020905b8154815290600101906020018083116125d357829003601f168201915b5050505050945095509550955095509550509295509295909350565b8473ffffffffffffffffffffffffffffffffffffffff16600160003373ffffffffffffffffffffffffffffffffffffffff1673ffffffffffffffffffffffffffffffffffffffff16815260200190815260200160002060009054906101000a900473ffffffffffffffffffffffffffffffffffffffff1673ffffffffffffffffffffffffffffffffffffffff16146126d9576040517f08c379a00000000000000000000000000000000000000000000000000000000081526004016126d090613b8e565b60405180910390fd5b6000600260008773ffffffffffffffffffffffffffffffffffffffff1673ffffffffffffffffffffffffffffffffffffffff1681526020019081526020016000206000868152602001908152602001600020600101541461276f576040517f08c379a0000000000000000000000000000000000000000000000000000000008152600401612766906142a8565b60405180910390fd5b600082116127b2576040517f08c379a00000000000000000000000000000000000000000000000000000000081526004016127a990614314565b60405180910390fd5b600081116127f5576040517f08c379a00000000000000000000000000000000000000000000000000000000081526004016127ec90614380565b60405180910390fd5b6040518060a001604052808481526020018381526020016000815260200182815260200160011515815250600260008773ffffffffffffffffffffffffffffffffffffffff1673ffffffffffffffffffffffffffffffffffffffff168152602001908152602001600020600086815260200190815260200160002060008201518160000190816128859190613a70565b5060208201518160010155604082015181600201556060820151816003015560808201518160040160006101000a81548160ff0219169083151502179055509050508473ffffffffffffffffffffffffffffffffffffffff167fa7973c2fc2736eea44b46b6f4216f2378ea4f7a84ba3268bee4436fa12a50b1e8585858560405161291394939291906143a0565b60405180910390a25050505050565b61292a612a51565b600073ffffffffffffffffffffffffffffffffffffffff168173ffffffffffffffffffffffffffffffffffffffff160361299c5760006040517f1e4fbdf70000000000000000000000000000000000000000000000000000000081526004016129939190612f84565b60405180910390fd5b6129a581612ad8565b50565b60008173ffffffffffffffffffffffffffffffffffffffff166370a08231336040518263ffffffff1660e01b81526004016129e39190612f84565b602060405180830381865afa158015612a00573d6000803e3d6000fd5b505050506040513d601f19601f82011682018060405250810190612a249190614401565b9050919050565b600960009054906101000a900473ffffffffffffffffffffffffffffffffffffffff1681565b612a59612b9c565b73ffffffffffffffffffffffffffffffffffffffff16612a77611f52565b73ffffffffffffffffffffffffffffffffffffffff1614612ad657612a9a612b9c565b6040517f118cdaa7000000000000000000000000000000000000000000000000000000008152600401612acd9190612f84565b60405180910390fd5b565b60008060009054906101000a900473ffffffffffffffffffffffffffffffffffffffff169050816000806101000a81548173ffffffffffffffffffffffffffffffffffffffff021916908373ffffffffffffffffffffffffffffffffffffffff1602179055508173ffffffffffffffffffffffffffffffffffffffff168173ffffffffffffffffffffffffffffffffffffffff167f8be0079c531659141344cd1fd0a4f28419497f9722a3daafe3b4186f6b6457e060405160405180910390a35050565b600033905090565b611a898061442f83390190565b6040518060c00160405280600073ffffffffffffffffffffffffffffffffffffffff16815260200160608152602001606081526020016000815260200160008152602001600081525090565b600081519050919050565b600082825260208201905092915050565b6000819050602082019050919050565b600073ffffffffffffffffffffffffffffffffffffffff82169050919050565b6000612c5482612c29565b9050919050565b612c6481612c49565b82525050565b6000612c768383612c5b565b60208301905092915050565b6000602082019050919050565b6000612c9a82612bfd565b612ca48185612c08565b9350612caf83612c19565b8060005b83811015612ce0578151612cc78882612c6a565b9750612cd283612c82565b925050600181019050612cb3565b5085935050505092915050565b60006020820190508181036000830152612d078184612c8f565b905092915050565b6000604051905090565b600080fd5b600080fd5b612d2c81612c49565b8114612d3757600080fd5b50565b600081359050612d4981612d23565b92915050565b600060208284031215612d6557612d64612d19565b5b6000612d7384828501612d3a565b91505092915050565b612d8581612c49565b82525050565b600081519050919050565b600082825260208201905092915050565b60005b83811015612dc5578082015181840152602081019050612daa565b60008484015250505050565b6000601f19601f8301169050919050565b6000612ded82612d8b565b612df78185612d96565b9350612e07818560208601612da7565b612e1081612dd1565b840191505092915050565b6000819050919050565b612e2e81612e1b565b82525050565b600060c082019050612e496000830189612d7c565b8181036020830152612e5b8188612de2565b90508181036040830152612e6f8187612de2565b9050612e7e6060830186612e25565b612e8b6080830185612e25565b612e9860a0830184612e25565b979650505050505050565b612eac81612e1b565b8114612eb757600080fd5b50565b600081359050612ec981612ea3565b92915050565b60008060408385031215612ee657612ee5612d19565b5b6000612ef485828601612d3a565b9250506020612f0585828601612eba565b9150509250929050565b60008115159050919050565b612f2481612f0f565b82525050565b600060a0820190508181036000830152612f448188612de2565b9050612f536020830187612e25565b612f606040830186612e25565b612f6d6060830185612e25565b612f7a6080830184612f1b565b9695505050505050565b6000602082019050612f996000830184612d7c565b92915050565b6000602082019050612fb46000830184612e25565b92915050565b600080fd5b600080fd5b7f4e487b7100000000000000000000000000000000000000000000000000000000600052604160045260246000fd5b612ffc82612dd1565b810181811067ffffffffffffffff8211171561301b5761301a612fc4565b5b80604052505050565b600061302e612d0f565b905061303a8282612ff3565b919050565b600067ffffffffffffffff82111561305a57613059612fc4565b5b61306382612dd1565b9050602081019050919050565b82818337600083830152505050565b600061309261308d8461303f565b613024565b9050828152602081018484840111156130ae576130ad612fbf565b5b6130b9848285613070565b509392505050565b600082601f8301126130d6576130d5612fba565b5b81356130e684826020860161307f565b91505092915050565b6000806040838503121561310657613105612d19565b5b600083013567ffffffffffffffff81111561312457613123612d1e565b5b613130858286016130c1565b925050602083013567ffffffffffffffff81111561315157613150612d1e565b5b61315d858286016130c1565b9150509250929050565b6000806000606084860312156131805761317f612d19565b5b600061318e86828701612d3a565b935050602061319f86828701612d3a565b92505060406131b086828701612eba565b9150509250925092565b600082825260208201905092915050565b60006131d682612d8b565b6131e081856131ba565b93506131f0818560208601612da7565b6131f981612dd1565b840191505092915050565b61320d81612e1b565b82525050565b600060c08301600083015161322b6000860182612c5b565b506020830151848203602086015261324382826131cb565b9150506040830151848203604086015261325d82826131cb565b91505060608301516132726060860182613204565b5060808301516132856080860182613204565b5060a083015161329860a0860182613204565b508091505092915050565b600060208201905081810360008301526132bd8184613213565b905092915050565b6000806000606084860312156132de576132dd612d19565b5b60006132ec86828701612d3a565b93505060206132fd86828701612eba565b925050604061330e86828701612eba565b9150509250925092565b600081519050919050565b600082825260208201905092915050565b6000819050602082019050919050565b6000606083016000830151848203600086015261336182826131cb565b9150506020830151848203602086015261337b82826131cb565b91505060408301516133906040860182612c5b565b508091505092915050565b60006133a78383613344565b905092915050565b6000602082019050919050565b60006133c782613318565b6133d18185613323565b9350836020820285016133e385613334565b8060005b8581101561341f5784840389528151613400858261339b565b945061340b836133af565b925060208a019950506001810190506133e7565b50829750879550505050505092915050565b6000602082019050818103600083015261344b81846133bc565b905092915050565b61345c81612f0f565b811461346757600080fd5b50565b60008135905061347981613453565b92915050565b60008060006060848603121561349857613497612d19565b5b60006134a686828701612d3a565b93505060206134b786828701612eba565b92505060406134c88682870161346a565b9150509250925092565b600080604083850312156134e9576134e8612d19565b5b600083013567ffffffffffffffff81111561350757613506612d1e565b5b613513858286016130c1565b925050602061352485828601612eba565b9150509250929050565b600060608201905081810360008301526135488186612de2565b9050818103602083015261355c8185612de2565b905061356b6040830184612d7c565b949350505050565b60006020828403121561358957613588612d19565b5b600061359784828501612eba565b91505092915050565b600080600080600060a086880312156135bc576135bb612d19565b5b60006135ca88828901612d3a565b95505060206135db88828901612eba565b945050604086013567ffffffffffffffff8111156135fc576135fb612d1e565b5b613608888289016130c1565b935050606061361988828901612eba565b925050608061362a88828901612eba565b9150509295509295909350565b7f4e487b7100000000000000000000000000000000000000000000000000000000600052602260045260246000fd5b6000600282049050600182168061367e57607f821691505b60208210810361369157613690613637565b5b50919050565b7f4e6f2062616c616e636520746f20776974686472617700000000000000000000600082015250565b60006136cd601683612d96565b91506136d882613697565b602082019050919050565b600060208201905081810360008301526136fc816136c0565b9050919050565b600081905092915050565b50565b600061371e600083613703565b91506137298261370e565b600082019050919050565b600061373f82613711565b9150819050919050565b7f5769746864726177616c206661696c6564000000000000000000000000000000600082015250565b600061377f601183612d96565b915061378a82613749565b602082019050919050565b600060208201905081810360008301526137ae81613772565b9050919050565b7f546f6b656e20616c726561647920637265617465640000000000000000000000600082015250565b60006137eb601583612d96565b91506137f6826137b5565b602082019050919050565b6000602082019050818103600083015261381a816137de565b9050919050565b6000604082019050818103600083015261383b8185612de2565b9050818103602083015261384f8184612de2565b90509392505050565b600081905092915050565b7f746f6b656e000000000000000000000000000000000000000000000000000000600082015250565b6000613899600583613858565b91506138a482613863565b600582019050919050565b60006138ba8261388c565b9150819050919050565b60008190508160005260206000209050919050565b60006020601f8301049050919050565b600082821b905092915050565b6000600883026139267fffffffffffffffffffffffffffffffffffffffffffffffffffffffffffffffff826138e9565b61393086836138e9565b95508019841693508086168417925050509392505050565b6000819050919050565b600061396d61396861396384612e1b565b613948565b612e1b565b9050919050565b6000819050919050565b61398783613952565b61399b61399382613974565b8484546138f6565b825550505050565b600090565b6139b06139a3565b6139bb81848461397e565b505050565b5b818110156139df576139d46000826139a8565b6001810190506139c1565b5050565b601f821115613a24576139f5816138c4565b6139fe846138d9565b81016020851015613a0d578190505b613a21613a19856138d9565b8301826139c0565b50505b505050565b600082821c905092915050565b6000613a4760001984600802613a29565b1980831691505092915050565b6000613a608383613a36565b9150826002028217905092915050565b613a7982612d8b565b67ffffffffffffffff811115613a9257613a91612fc4565b5b613a9c8254613666565b613aa78282856139e3565b600060209050601f831160018114613ada5760008415613ac8578287015190505b613ad28582613a54565b865550613b3a565b601f198416613ae8866138c4565b60005b82811015613b1057848901518255600182019150602085019450602081019050613aeb565b86831015613b2d5784890151613b29601f891682613a36565b8355505b6001600288020188555050505b505050505050565b7f4e6f7420796f757220746f6b656e000000000000000000000000000000000000600082015250565b6000613b78600e83612d96565b9150613b8382613b42565b602082019050919050565b60006020820190508181036000830152613ba781613b6b565b9050919050565b7f43616e6e6f74206275726e2066726f6d207a65726f2061646472657373000000600082015250565b6000613be4601d83612d96565b9150613bef82613bae565b602082019050919050565b60006020820190508181036000830152613c1381613bd7565b9050919050565b7f416d6f756e74206d7573742062652067726561746572207468616e207a65726f600082015250565b6000613c50602083612d96565b9150613c5b82613c1a565b602082019050919050565b60006020820190508181036000830152613c7f81613c43565b9050919050565b6000604082019050613c9b6000830185612d7c565b613ca86020830184612e25565b9392505050565b7f5469657220646f6573206e6f7420657869737400000000000000000000000000600082015250565b6000613ce5601383612d96565b9150613cf082613caf565b602082019050919050565b60006020820190508181036000830152613d1481613cd8565b9050919050565b7f54696572206973206e6f742061637469766520666f7220707572636861736500600082015250565b6000613d51601f83612d96565b9150613d5c82613d1b565b602082019050919050565b60006020820190508181036000830152613d8081613d44565b9050919050565b7f4e487b7100000000000000000000000000000000000000000000000000000000600052601160045260246000fd5b6000613dc182612e1b565b9150613dcc83612e1b565b9250828201905080821115613de457613de3613d87565b5b92915050565b7f45786365656473207469657220737570706c7900000000000000000000000000600082015250565b6000613e20601383612d96565b9150613e2b82613dea565b602082019050919050565b60006020820190508181036000830152613e4f81613e13565b9050919050565b6000613e6182612e1b565b9150613e6c83612e1b565b9250828202613e7a81612e1b565b91508282048414831517613e9157613e90613d87565b5b5092915050565b7f496e73756666696369656e74207061796d656e74000000000000000000000000600082015250565b6000613ece601483612d96565b9150613ed982613e98565b602082019050919050565b60006020820190508181036000830152613efd81613ec1565b9050919050565b7f4e487b7100000000000000000000000000000000000000000000000000000000600052601260045260246000fd5b6000613f3e82612e1b565b9150613f4983612e1b565b925082613f5957613f58613f04565b5b828204905092915050565b6000613f6f82612e1b565b9150613f7a83612e1b565b9250828203905081811115613f9257613f91613d87565b5b92915050565b7f43726561746f72206e6f7420666f756e64000000000000000000000000000000600082015250565b6000613fce601183612d96565b9150613fd982613f98565b602082019050919050565b60006020820190508181036000830152613ffd81613fc1565b9050919050565b7f506c6174666f726d20666565207472616e73666572206661696c656400000000600082015250565b600061403a601c83612d96565b915061404582614004565b602082019050919050565b600060208201905081810360008301526140698161402d565b9050919050565b7f43726561746f7220666565207472616e73666572206661696c65640000000000600082015250565b60006140a6601b83612d96565b91506140b182614070565b602082019050919050565b600060208201905081810360008301526140d581614099565b9050919050565b60006140e782612e1b565b91507fffffffffffffffffffffffffffffffffffffffffffffffffffffffffffffffff820361411957614118613d87565b5b600182019050919050565b7f526566756e64206661696c656400000000000000000000000000000000000000600082015250565b600061415a600d83612d96565b915061416582614124565b602082019050919050565b600060208201905081810360008301526141898161414d565b9050919050565b60006060820190506141a56000830186612e25565b6141b26020830185612e25565b6141bf6040830184612e25565b949350505050565b60006040820190506141dc6000830185612e25565b6141e96020830184612f1b565b9392505050565b7f46656520746f6f20686967680000000000000000000000000000000000000000600082015250565b6000614226600c83612d96565b9150614231826141f0565b602082019050919050565b6000602082019050818103600083015261425581614219565b9050919050565b7f5469657220616c72656164792065786973747300000000000000000000000000600082015250565b6000614292601383612d96565b915061429d8261425c565b602082019050919050565b600060208201905081810360008301526142c181614285565b9050919050565b7f537570706c79206d7573742062652067726561746572207468616e207a65726f600082015250565b60006142fe602083612d96565b9150614309826142c8565b602082019050919050565b6000602082019050818103600083015261432d816142f1565b9050919050565b7f5072696365206d7573742062652067726561746572207468616e207a65726f00600082015250565b600061436a601f83612d96565b915061437582614334565b602082019050919050565b600060208201905081810360008301526143998161435d565b9050919050565b60006080820190506143b56000830187612e25565b81810360208301526143c78186612de2565b90506143d66040830185612e25565b6143e36060830184612e25565b95945050505050565b6000815190506143fb81612ea3565b92915050565b60006020828403121561441757614416612d19565b5b6000614425848285016143ec565b9150509291505056fe608060405234801561001057600080fd5b50604051611a89380380611a898339818101604052810190610032919061031b565b338282816003908161004491906105b4565b50806004908161005491906105b4565b505050600073ffffffffffffffffffffffffffffffffffffffff168173ffffffffffffffffffffffffffffffffffffffff16036100c95760006040517f1e4fbdf70000000000000000000000000000000000000000000000000000000081526004016100c091906106c7565b60405180910390fd5b6100d8816100e060201b60201c565b5050506106e2565b6000600560009054906101000a900473ffffffffffffffffffffffffffffffffffffffff16905081600560006101000a81548173ffffffffffffffffffffffffffffffffffffffff021916908373ffffffffffffffffffffffffffffffffffffffff1602179055508173ffffffffffffffffffffffffffffffffffffffff168173ffffffffffffffffffffffffffffffffffffffff167f8be0079c531659141344cd1fd0a4f28419497f9722a3daafe3b4186f6b6457e060405160405180910390a35050565b6000604051905090565b600080fd5b600080fd5b600080fd5b600080fd5b6000601f19601f8301169050919050565b7f4e487b7100000000000000000000000000000000000000000000000000000000600052604160045260246000fd5b61020d826101c4565b810181811067ffffffffffffffff8211171561022c5761022b6101d5565b5b80604052505050565b600061023f6101a6565b905061024b8282610204565b919050565b600067ffffffffffffffff82111561026b5761026a6101d5565b5b610274826101c4565b9050602081019050919050565b60005b8381101561029f578082015181840152602081019050610284565b60008484015250505050565b60006102be6102b984610250565b610235565b9050828152602081018484840111156102da576102d96101bf565b5b6102e5848285610281565b509392505050565b600082601f830112610302576103016101ba565b5b81516103128482602086016102ab565b91505092915050565b60008060408385031215610332576103316101b0565b5b600083015167ffffffffffffffff8111156103505761034f6101b5565b5b61035c858286016102ed565b925050602083015167ffffffffffffffff81111561037d5761037c6101b5565b5b610389858286016102ed565b9150509250929050565b600081519050919050565b7f4e487b7100000000000000000000000000000000000000000000000000000000600052602260045260246000fd5b600060028204905060018216806103e557607f821691505b6020821081036103f8576103f761039e565b5b50919050565b60008190508160005260206000209050919050565b60006020601f8301049050919050565b600082821b905092915050565b6000600883026104607fffffffffffffffffffffffffffffffffffffffffffffffffffffffffffffffff82610423565b61046a8683610423565b95508019841693508086168417925050509392505050565b6000819050919050565b6000819050919050565b60006104b16104ac6104a784610482565b61048c565b610482565b9050919050565b6000819050919050565b6104cb83610496565b6104df6104d7826104b8565b848454610430565b825550505050565b600090565b6104f46104e7565b6104ff8184846104c2565b505050565b5b81811015610523576105186000826104ec565b600181019050610505565b5050565b601f82111561056857610539816103fe565b61054284610413565b81016020851015610551578190505b61056561055d85610413565b830182610504565b50505b505050565b600082821c905092915050565b600061058b6000198460080261056d565b1980831691505092915050565b60006105a4838361057a565b9150826002028217905092915050565b6105bd82610393565b67ffffffffffffffff8111156105d6576105d56101d5565b5b6105e082546103cd565b6105eb828285610527565b600060209050601f83116001811461061e576000841561060c578287015190505b6106168582610598565b86555061067e565b601f19841661062c866103fe565b60005b828110156106545784890151825560018201915060208501945060208101905061062f565b86831015610671578489015161066d601f89168261057a565b8355505b6001600288020188555050505b505050505050565b600073ffffffffffffffffffffffffffffffffffffffff82169050919050565b60006106b182610686565b9050919050565b6106c1816106a6565b82525050565b60006020820190506106dc60008301846106b8565b92915050565b611398806106f16000396000f3fe608060405234801561001057600080fd5b50600436106100ea5760003560e01c8063715018a61161008c57806395d89b411161006657806395d89b4114610239578063a9059cbb14610257578063dd62ed3e14610287578063f2fde38b146102b7576100ea565b8063715018a6146101f557806379cc6790146101ff5780638da5cb5b1461021b576100ea565b806323b872dd116100c857806323b872dd1461015b578063313ce5671461018b57806340c10f19146101a957806370a08231146101c5576100ea565b806306fdde03146100ef578063095ea7b31461010d57806318160ddd1461013d575b600080fd5b6100f76102d3565b6040516101049190610f26565b60405180910390f35b61012760048036038101906101229190610fe1565b610365565b604051610134919061103c565b60405180910390f35b610145610388565b6040516101529190611066565b60405180910390f35b61017560048036038101906101709190611081565b610392565b604051610182919061103c565b60405180910390f35b6101936103c1565b6040516101a091906110f0565b60405180910390f35b6101c360048036038101906101be9190610fe1565b6103ca565b005b6101df60048036038101906101da919061110b565b6103e0565b6040516101ec9190611066565b60405180910390f35b6101fd610428565b005b61021960048036038101906102149190610fe1565b61043c565b005b6102236104ba565b6040516102309190611147565b60405180910390f35b6102416104e4565b60405161024e9190610f26565b60405180910390f35b610271600480360381019061026c9190610fe1565b610576565b60405161027e919061103c565b60405180910390f35b6102a1600480360381019061029c9190611162565b610599565b6040516102ae9190611066565b60405180910390f35b6102d160048036038101906102cc919061110b565b610620565b005b6060600380546102e2906111d1565b80601f016020809104026020016040519081016040528092919081815260200182805461030e906111d1565b801561035b5780601f106103305761010080835404028352916020019161035b565b820191906000526020600020905b81548152906001019060200180831161033e57829003601f168201915b5050505050905090565b6000806103706106a6565b905061037d8185856106ae565b600191505092915050565b6000600254905090565b60008061039d6106a6565b90506103aa8582856106c0565b6103b5858585610755565b60019150509392505050565b60006012905090565b6103d2610849565b6103dc82826108d0565b5050565b60008060008373ffffffffffffffffffffffffffffffffffffffff1673ffffffffffffffffffffffffffffffffffffffff168152602001908152602001600020549050919050565b610430610849565b61043a6000610952565b565b610444610849565b60006104508330610599565b905081811015610495576040517f08c379a000000000000000000000000000000000000000000000000000000000815260040161048c90611274565b60405180910390fd5b6104ab833084846104a691906112c3565b6106ae565b6104b58383610a18565b505050565b6000600560009054906101000a900473ffffffffffffffffffffffffffffffffffffffff16905090565b6060600480546104f3906111d1565b80601f016020809104026020016040519081016040528092919081815260200182805461051f906111d1565b801561056c5780601f106105415761010080835404028352916020019161056c565b820191906000526020600020905b81548152906001019060200180831161054f57829003601f168201915b5050505050905090565b6000806105816106a6565b905061058e818585610755565b600191505092915050565b6000600160008473ffffffffffffffffffffffffffffffffffffffff1673ffffffffffffffffffffffffffffffffffffffff16815260200190815260200160002060008373ffffffffffffffffffffffffffffffffffffffff1673ffffffffffffffffffffffffffffffffffffffff16815260200190815260200160002054905092915050565b610628610849565b600073ffffffffffffffffffffffffffffffffffffffff168173ffffffffffffffffffffffffffffffffffffffff160361069a5760006040517f1e4fbdf70000000000000000000000000000000000000000000000000000000081526004016106919190611147565b60405180910390fd5b6106a381610952565b50565b600033905090565b6106bb8383836001610a9a565b505050565b60006106cc8484610599565b90507fffffffffffffffffffffffffffffffffffffffffffffffffffffffffffffffff81101561074f578181101561073f578281836040517ffb8f41b2000000000000000000000000000000000000000000000000000000008152600401610736939291906112f7565b60405180910390fd5b61074e84848484036000610a9a565b5b50505050565b600073ffffffffffffffffffffffffffffffffffffffff168373ffffffffffffffffffffffffffffffffffffffff16036107c75760006040517f96c6fd1e0000000000000000000000000000000000000000000000000000000081526004016107be9190611147565b60405180910390fd5b600073ffffffffffffffffffffffffffffffffffffffff168273ffffffffffffffffffffffffffffffffffffffff16036108395760006040517fec442f050000000000000000000000000000000000000000000000000000000081526004016108309190611147565b60405180910390fd5b610844838383610c71565b505050565b6108516106a6565b73ffffffffffffffffffffffffffffffffffffffff1661086f6104ba565b73ffffffffffffffffffffffffffffffffffffffff16146108ce576108926106a6565b6040517f118cdaa70000000000000000000000000000000000000000000000000000000081526004016108c59190611147565b60405180910390fd5b565b600073ffffffffffffffffffffffffffffffffffffffff168273ffffffffffffffffffffffffffffffffffffffff16036109425760006040517fec442f050000000000000000000000000000000000000000000000000000000081526004016109399190611147565b60405180910390fd5b61094e60008383610c71565b5050565b6000600560009054906101000a900473ffffffffffffffffffffffffffffffffffffffff16905081600560006101000a81548173ffffffffffffffffffffffffffffffffffffffff021916908373ffffffffffffffffffffffffffffffffffffffff1602179055508173ffffffffffffffffffffffffffffffffffffffff168173ffffffffffffffffffffffffffffffffffffffff167f8be0079c531659141344cd1fd0a4f28419497f9722a3daafe3b4186f6b6457e060405160405180910390a35050565b600073ffffffffffffffffffffffffffffffffffffffff168273ffffffffffffffffffffffffffffffffffffffff1603610a8a5760006040517f96c6fd1e000000000000000000000000000000000000000000000000000000008152600401610a819190611147565b60405180910390fd5b610a9682600083610c71565b5050565b600073ffffffffffffffffffffffffffffffffffffffff168473ffffffffffffffffffffffffffffffffffffffff1603610b0c5760006040517fe602df05000000000000000000000000000000000000000000000000000000008152600401610b039190611147565b60405180910390fd5b600073ffffffffffffffffffffffffffffffffffffffff168373ffffffffffffffffffffffffffffffffffffffff1603610b7e5760006040517f94280d62000000000000000000000000000000000000000000000000000000008152600401610b759190611147565b60405180910390fd5b81600160008673ffffffffffffffffffffffffffffffffffffffff1673ffffffffffffffffffffffffffffffffffffffff16815260200190815260200160002060008573ffffffffffffffffffffffffffffffffffffffff1673ffffffffffffffffffffffffffffffffffffffff168152602001908152602001600020819055508015610c6b578273ffffffffffffffffffffffffffffffffffffffff168473ffffffffffffffffffffffffffffffffffffffff167f8c5be1e5ebec7d5bd14f71427d1e84f3dd0314c0f7b2291e5b200ac8c7c3b92584604051610c629190611066565b60405180910390a35b50505050565b600073ffffffffffffffffffffffffffffffffffffffff168373ffffffffffffffffffffffffffffffffffffffff1603610cc3578060026000828254610cb7919061132e565b92505081905550610d96565b60008060008573ffffffffffffffffffffffffffffffffffffffff1673ffffffffffffffffffffffffffffffffffffffff16815260200190815260200160002054905081811015610d4f578381836040517fe450d38c000000000000000000000000000000000000000000000000000000008152600401610d46939291906112f7565b60405180910390fd5b8181036000808673ffffffffffffffffffffffffffffffffffffffff1673ffffffffffffffffffffffffffffffffffffffff16815260200190815260200160002081905550505b600073ffffffffffffffffffffffffffffffffffffffff168273ffffffffffffffffffffffffffffffffffffffff1603610ddf5780600260008282540392505081905550610e2c565b806000808473ffffffffffffffffffffffffffffffffffffffff1673ffffffffffffffffffffffffffffffffffffffff168152602001908152602001600020600082825401925050819055505b8173ffffffffffffffffffffffffffffffffffffffff168373ffffffffffffffffffffffffffffffffffffffff167fddf252ad1be2c89b69c2b068fc378daa952ba7f163c4a11628f55a4df523b3ef83604051610e899190611066565b60405180910390a3505050565b600081519050919050565b600082825260208201905092915050565b60005b83811015610ed0578082015181840152602081019050610eb5565b60008484015250505050565b6000601f19601f8301169050919050565b6000610ef882610e96565b610f028185610ea1565b9350610f12818560208601610eb2565b610f1b81610edc565b840191505092915050565b60006020820190508181036000830152610f408184610eed565b905092915050565b600080fd5b600073ffffffffffffffffffffffffffffffffffffffff82169050919050565b6000610f7882610f4d565b9050919050565b610f8881610f6d565b8114610f9357600080fd5b50565b600081359050610fa581610f7f565b92915050565b6000819050919050565b610fbe81610fab565b8114610fc957600080fd5b50565b600081359050610fdb81610fb5565b92915050565b60008060408385031215610ff857610ff7610f48565b5b600061100685828601610f96565b925050602061101785828601610fcc565b9150509250929050565b60008115159050919050565b61103681611021565b82525050565b6000602082019050611051600083018461102d565b92915050565b61106081610fab565b82525050565b600060208201905061107b6000830184611057565b92915050565b60008060006060848603121561109a57611099610f48565b5b60006110a886828701610f96565b93505060206110b986828701610f96565b92505060406110ca86828701610fcc565b9150509250925092565b600060ff82169050919050565b6110ea816110d4565b82525050565b600060208201905061110560008301846110e1565b92915050565b60006020828403121561112157611120610f48565b5b600061112f84828501610f96565b91505092915050565b61114181610f6d565b82525050565b600060208201905061115c6000830184611138565b92915050565b6000806040838503121561117957611178610f48565b5b600061118785828601610f96565b925050602061119885828601610f96565b9150509250929050565b7f4e487b7100000000000000000000000000000000000000000000000000000000600052602260045260246000fd5b600060028204905060018216806111e957607f821691505b6020821081036111fc576111fb6111a2565b5b50919050565b7f45524332303a206275726e20616d6f756e74206578636565647320616c6c6f7760008201527f616e636500000000000000000000000000000000000000000000000000000000602082015250565b600061125e602483610ea1565b915061126982611202565b604082019050919050565b6000602082019050818103600083015261128d81611251565b9050919050565b7f4e487b7100000000000000000000000000000000000000000000000000000000600052601160045260246000fd5b60006112ce82610fab565b91506112d983610fab565b92508282039050818111156112f1576112f0611294565b5b92915050565b600060608201905061130c6000830186611138565b6113196020830185611057565b6113266040830184611057565b949350505050565b600061133982610fab565b915061134483610fab565b925082820190508082111561135c5761135b611294565b5b9291505056fea2646970667358221220fb4093fe2c36c70675bb13715b09da6d2d4b1cb4b94062251e999216ebadb57764736f6c634300081c0033a26469706673582212206e1d95c0e154d7e20d7c76c540bb6261258733ebebb8a94accf20172375634b764736f6c634300081c0033",
  "linkReferences": {},
  "deployedLinkReferences": {}
}