{
  "_format": "hh-sol-artifact-1",
  "contractName": "CreatorTokenManager",
  "sourceName": "contracts/CreatorTokenManager.sol",
  "abi": [
    {
      "inputs": [],
      "stateMutability": "nonpayable",
      "type": "constructor"
    },
    {
      "inputs": [
        {
          "internalType": "address",
          "name": "owner",
          "type": "address"
        }
      ],
      "name": "OwnableInvalidOwner",
      "type": "error"
    },
    {
      "inputs": [
        {
          "internalType": "address",
          "name": "account",
          "type": "address"
        }
      ],
      "name": "OwnableUnauthorizedAccount",
      "type": "error"
    },
    {
      "anonymous": false,
      "inputs": [
        {
          "indexed": true,
          "internalType": "address",
          "name": "previousOwner",
          "type": "address"
        },
        {
          "indexed": true,
          "internalType": "address",
          "name": "newOwner",
          "type": "address"
        }
      ],
      "name": "OwnershipTransferred",
      "type": "event"
    },
    {
      "anonymous": false,
      "inputs": [
        {
          "indexed": true,
          "internalType": "address",
          "name": "token",
          "type": "address"
        },
        {
          "indexed": false,
          "internalType": "uint256",
          "name": "tierId",
          "type": "uint256"
        },
        {
          "indexed": false,
          "internalType": "string",
          "name": "name",
          "type": "string"
        },
        {
          "indexed": false,
          "internalType": "uint256",
          "name": "supply",
          "type": "uint256"
        },
        {
          "indexed": false,
          "internalType": "uint256",
          "name": "price",
          "type": "uint256"
        }
      ],
      "name": "TierAdded",
      "type": "event"
    },
    {
      "anonymous": false,
      "inputs": [
        {
          "indexed": true,
          "internalType": "address",
          "name": "creator",
          "type": "address"
        },
        {
          "indexed": false,
          "internalType": "address",
          "name": "tokenAddress",
          "type": "address"
        }
      ],
      "name": "TokenCreated",
      "type": "event"
    },
    {
      "anonymous": false,
      "inputs": [
        {
          "indexed": true,
          "internalType": "address",
          "name": "token",
          "type": "address"
        },
        {
          "indexed": true,
          "internalType": "address",
          "name": "from",
          "type": "address"
        },
        {
          "indexed": false,
          "internalType": "uint256",
          "name": "amount",
          "type": "uint256"
        }
      ],
      "name": "TokensBurned",
      "type": "event"
    },
    {
      "anonymous": false,
      "inputs": [
        {
          "indexed": true,
          "internalType": "address",
          "name": "token",
          "type": "address"
        },
        {
          "indexed": true,
          "internalType": "address",
          "name": "recipient",
          "type": "address"
        },
        {
          "indexed": false,
          "internalType": "uint256",
          "name": "tierId",
          "type": "uint256"
        },
        {
          "indexed": false,
          "internalType": "uint256",
          "name": "amount",
          "type": "uint256"
        }
      ],
      "name": "TokensMinted",
      "type": "event"
    },
    {
      "inputs": [
        {
          "internalType": "address",
          "name": "token",
          "type": "address"
        },
        {
          "internalType": "uint256",
          "name": "tierId",
          "type": "uint256"
        },
        {
          "internalType": "string",
          "name": "name",
          "type": "string"
        },
        {
          "internalType": "uint256",
          "name": "supply",
          "type": "uint256"
        },
        {
          "internalType": "uint256",
          "name": "price",
          "type": "uint256"
        }
      ],
      "name": "addTier",
      "outputs": [],
      "stateMutability": "nonpayable",
      "type": "function"
    },
    {
      "inputs": [
        {
          "internalType": "address",
          "name": "token",
          "type": "address"
        },
        {
          "internalType": "address",
          "name": "from",
          "type": "address"
        },
        {
          "internalType": "uint256",
          "name": "amount",
          "type": "uint256"
        }
      ],
      "name": "burnTokens",
      "outputs": [],
      "stateMutability": "nonpayable",
      "type": "function"
    },
    {
      "inputs": [
        {
          "internalType": "string",
          "name": "name",
          "type": "string"
        },
        {
          "internalType": "string",
          "name": "symbol",
          "type": "string"
        }
      ],
      "name": "createToken",
      "outputs": [],
      "stateMutability": "nonpayable",
      "type": "function"
    },
    {
      "inputs": [
        {
          "internalType": "address",
          "name": "",
          "type": "address"
        }
      ],
      "name": "creatorTokens",
      "outputs": [
        {
          "internalType": "address",
          "name": "",
          "type": "address"
        }
      ],
      "stateMutability": "view",
      "type": "function"
    },
    {
      "inputs": [],
      "name": "getMyToken",
      "outputs": [
        {
          "internalType": "address",
          "name": "",
          "type": "address"
        }
      ],
      "stateMutability": "view",
      "type": "function"
    },
    {
      "inputs": [
        {
          "internalType": "address",
          "name": "token",
          "type": "address"
        },
        {
          "internalType": "uint256",
          "name": "tierId",
          "type": "uint256"
        }
      ],
      "name": "getTierDetails",
      "outputs": [
        {
          "internalType": "string",
          "name": "name",
          "type": "string"
        },
        {
          "internalType": "uint256",
          "name": "supply",
          "type": "uint256"
        },
        {
          "internalType": "uint256",
          "name": "minted",
          "type": "uint256"
        },
        {
          "internalType": "uint256",
          "name": "price",
          "type": "uint256"
        }
      ],
      "stateMutability": "view",
      "type": "function"
    },
    {
      "inputs": [
        {
          "internalType": "address",
          "name": "creatorAddress",
          "type": "address"
        }
      ],
      "name": "getTokenAddress",
      "outputs": [
        {
          "internalType": "address",
          "name": "",
          "type": "address"
        }
      ],
      "stateMutability": "view",
      "type": "function"
    },
    {
      "inputs": [
        {
          "internalType": "address",
          "name": "token",
          "type": "address"
        },
        {
          "internalType": "uint256",
          "name": "tierId",
          "type": "uint256"
        },
        {
          "internalType": "uint256",
          "name": "amount",
          "type": "uint256"
        },
        {
          "internalType": "address",
          "name": "recipient",
          "type": "address"
        }
      ],
      "name": "mintTokens",
      "outputs": [],
      "stateMutability": "nonpayable",
      "type": "function"
    },
    {
      "inputs": [],
      "name": "owner",
      "outputs": [
        {
          "internalType": "address",
          "name": "",
          "type": "address"
        }
      ],
      "stateMutability": "view",
      "type": "function"
    },
    {
      "inputs": [],
      "name": "renounceOwnership",
      "outputs": [],
      "stateMutability": "nonpayable",
      "type": "function"
    },
    {
      "inputs": [
        {
          "internalType": "address",
          "name": "",
          "type": "address"
        },
        {
          "internalType": "uint256",
          "name": "",
          "type": "uint256"
        }
      ],
      "name": "tokenTiers",
      "outputs": [
        {
          "internalType": "string",
          "name": "name",
          "type": "string"
        },
        {
          "internalType": "uint256",
          "name": "supply",
          "type": "uint256"
        },
        {
          "internalType": "uint256",
          "name": "minted",
          "type": "uint256"
        },
        {
          "internalType": "uint256",
          "name": "price",
          "type": "uint256"
        }
      ],
      "stateMutability": "view",
      "type": "function"
    },
    {
      "inputs": [
        {
          "internalType": "address",
          "name": "newOwner",
          "type": "address"
        }
      ],
      "name": "transferOwnership",
      "outputs": [],
      "stateMutability": "nonpayable",
      "type": "function"
    }
  ],
  "bytecode": "0x608060405234801561001057600080fd5b5033600073ffffffffffffffffffffffffffffffffffffffff168173ffffffffffffffffffffffffffffffffffffffff16036100845760006040517f1e4fbdf700000000000000000000000000000000000000000000000000000000815260040161007b919061019e565b60405180910390fd5b6100938161009960201b60201c565b506101b9565b60008060009054906101000a900473ffffffffffffffffffffffffffffffffffffffff169050816000806101000a81548173ffffffffffffffffffffffffffffffffffffffff021916908373ffffffffffffffffffffffffffffffffffffffff1602179055508173ffffffffffffffffffffffffffffffffffffffff168173ffffffffffffffffffffffffffffffffffffffff167f8be0079c531659141344cd1fd0a4f28419497f9722a3daafe3b4186f6b6457e060405160405180910390a35050565b600073ffffffffffffffffffffffffffffffffffffffff82169050919050565b60006101888261015d565b9050919050565b6101988161017d565b82525050565b60006020820190506101b3600083018461018f565b92915050565b613ab6806101c86000396000f3fe608060405234801561001057600080fd5b50600436106100b45760003560e01c80638da5cb5b116100715780638da5cb5b1461017c578063b8d7b6691461019a578063d064626a146101ca578063d6b17418146101fd578063e1f0417514610219578063f2fde38b14610235576100b4565b80631ad18426146100b957806329c81b91146100ec5780632f2f2d561461011c578063423c3a4814610138578063715018a6146101545780637cdf75471461015e575b600080fd5b6100d360048036038101906100ce91906112c0565b610251565b6040516100e3949392919061139f565b60405180910390f35b610106600480360381019061010191906113eb565b610316565b6040516101139190611427565b60405180910390f35b61013660048036038101906101319190611577565b610349565b005b610152600480360381019061014d91906115ef565b61052a565b005b61015c610780565b005b610166610794565b6040516101739190611427565b60405180910390f35b6101846107fb565b6040516101919190611427565b60405180910390f35b6101b460048036038101906101af91906113eb565b610824565b6040516101c19190611427565b60405180910390f35b6101e460048036038101906101df91906112c0565b61088d565b6040516101f4949392919061139f565b60405180910390f35b61021760048036038101906102129190611642565b6109df565b005b610233600480360381019061022e91906116a9565b610d45565b005b61024f600480360381019061024a91906113eb565b611032565b005b6002602052816000526040600020602052806000526040600020600091509150508060000180546102819061176f565b80601f01602080910402602001604051908101604052809291908181526020018280546102ad9061176f565b80156102fa5780601f106102cf576101008083540402835291602001916102fa565b820191906000526020600020905b8154815290600101906020018083116102dd57829003601f168201915b5050505050908060010154908060020154908060030154905084565b60016020528060005260406000206000915054906101000a900473ffffffffffffffffffffffffffffffffffffffff1681565b600073ffffffffffffffffffffffffffffffffffffffff16600160003373ffffffffffffffffffffffffffffffffffffffff1673ffffffffffffffffffffffffffffffffffffffff16815260200190815260200160002060009054906101000a900473ffffffffffffffffffffffffffffffffffffffff1673ffffffffffffffffffffffffffffffffffffffff1614610417576040517f08c379a000000000000000000000000000000000000000000000000000000000815260040161040e906117ec565b60405180910390fd5b60008282306040516104289061120b565b6104349392919061180c565b604051809103906000f080158015610450573d6000803e3d6000fd5b509050600081905080600160003373ffffffffffffffffffffffffffffffffffffffff1673ffffffffffffffffffffffffffffffffffffffff16815260200190815260200160002060006101000a81548173ffffffffffffffffffffffffffffffffffffffff021916908373ffffffffffffffffffffffffffffffffffffffff1602179055503373ffffffffffffffffffffffffffffffffffffffff167fd5f9bdf12adf29dab0248c349842c3822d53ae2bb4f36352f301630d018c81398260405161051c9190611427565b60405180910390a250505050565b8273ffffffffffffffffffffffffffffffffffffffff16600160003373ffffffffffffffffffffffffffffffffffffffff1673ffffffffffffffffffffffffffffffffffffffff16815260200190815260200160002060009054906101000a900473ffffffffffffffffffffffffffffffffffffffff1673ffffffffffffffffffffffffffffffffffffffff16146105f7576040517f08c379a00000000000000000000000000000000000000000000000000000000081526004016105ee9061189d565b60405180910390fd5b600073ffffffffffffffffffffffffffffffffffffffff168273ffffffffffffffffffffffffffffffffffffffff1603610666576040517f08c379a000000000000000000000000000000000000000000000000000000000815260040161065d90611909565b60405180910390fd5b600081116106a9576040517f08c379a00000000000000000000000000000000000000000000000000000000081526004016106a090611975565b60405180910390fd5b8273ffffffffffffffffffffffffffffffffffffffff166379cc679083836040518363ffffffff1660e01b81526004016106e4929190611995565b600060405180830381600087803b1580156106fe57600080fd5b505af1158015610712573d6000803e3d6000fd5b505050508173ffffffffffffffffffffffffffffffffffffffff168373ffffffffffffffffffffffffffffffffffffffff167f857ac1c9e97cc66ecae5f524c9c611463ae748b85af3ca454a5ec4d7d341924d8360405161077391906119be565b60405180910390a3505050565b6107886110b8565b610792600061113f565b565b6000600160003373ffffffffffffffffffffffffffffffffffffffff1673ffffffffffffffffffffffffffffffffffffffff16815260200190815260200160002060009054906101000a900473ffffffffffffffffffffffffffffffffffffffff16905090565b60008060009054906101000a900473ffffffffffffffffffffffffffffffffffffffff16905090565b6000600160008373ffffffffffffffffffffffffffffffffffffffff1673ffffffffffffffffffffffffffffffffffffffff16815260200190815260200160002060009054906101000a900473ffffffffffffffffffffffffffffffffffffffff169050919050565b6060600080600080600260008873ffffffffffffffffffffffffffffffffffffffff1673ffffffffffffffffffffffffffffffffffffffff16815260200190815260200160002060008781526020019081526020016000209050600081600101541161092e576040517f08c379a000000000000000000000000000000000000000000000000000000000815260040161092590611a25565b60405180910390fd5b8060000181600101548260020154836003015483805461094d9061176f565b80601f01602080910402602001604051908101604052809291908181526020018280546109799061176f565b80156109c65780601f1061099b576101008083540402835291602001916109c6565b820191906000526020600020905b8154815290600101906020018083116109a957829003601f168201915b5050505050935094509450945094505092959194509250565b8373ffffffffffffffffffffffffffffffffffffffff16600160003373ffffffffffffffffffffffffffffffffffffffff1673ffffffffffffffffffffffffffffffffffffffff16815260200190815260200160002060009054906101000a900473ffffffffffffffffffffffffffffffffffffffff1673ffffffffffffffffffffffffffffffffffffffff1614610aac576040517f08c379a0000000000000000000000000000000000000000000000000000000008152600401610aa39061189d565b60405180910390fd5b600073ffffffffffffffffffffffffffffffffffffffff168173ffffffffffffffffffffffffffffffffffffffff1603610b1b576040517f08c379a0000000000000000000000000000000000000000000000000000000008152600401610b1290611a91565b60405180910390fd5b60008211610b5e576040517f08c379a0000000000000000000000000000000000000000000000000000000008152600401610b5590611975565b60405180910390fd5b6000600260008673ffffffffffffffffffffffffffffffffffffffff1673ffffffffffffffffffffffffffffffffffffffff168152602001908152602001600020600085815260200190815260200160002090506000816001015411610bf9576040517f08c379a0000000000000000000000000000000000000000000000000000000008152600401610bf090611a25565b60405180910390fd5b8060010154838260020154610c0e9190611ae0565b1115610c4f576040517f08c379a0000000000000000000000000000000000000000000000000000000008152600401610c4690611b60565b60405180910390fd5b82816002016000828254610c639190611ae0565b925050819055508473ffffffffffffffffffffffffffffffffffffffff166340c10f1983856040518363ffffffff1660e01b8152600401610ca5929190611995565b600060405180830381600087803b158015610cbf57600080fd5b505af1158015610cd3573d6000803e3d6000fd5b505050508173ffffffffffffffffffffffffffffffffffffffff168573ffffffffffffffffffffffffffffffffffffffff167fe456f0d575ef17126ead0c00ffd703adb3aa7b837d5b32ae967c707f804fa8678686604051610d36929190611b80565b60405180910390a35050505050565b8473ffffffffffffffffffffffffffffffffffffffff16600160003373ffffffffffffffffffffffffffffffffffffffff1673ffffffffffffffffffffffffffffffffffffffff16815260200190815260200160002060009054906101000a900473ffffffffffffffffffffffffffffffffffffffff1673ffffffffffffffffffffffffffffffffffffffff1614610e12576040517f08c379a0000000000000000000000000000000000000000000000000000000008152600401610e099061189d565b60405180910390fd5b6000600260008773ffffffffffffffffffffffffffffffffffffffff1673ffffffffffffffffffffffffffffffffffffffff16815260200190815260200160002060008681526020019081526020016000206001015414610ea8576040517f08c379a0000000000000000000000000000000000000000000000000000000008152600401610e9f90611bf5565b60405180910390fd5b60008211610eeb576040517f08c379a0000000000000000000000000000000000000000000000000000000008152600401610ee290611c61565b60405180910390fd5b60008111610f2e576040517f08c379a0000000000000000000000000000000000000000000000000000000008152600401610f2590611ccd565b60405180910390fd5b60405180608001604052808481526020018381526020016000815260200182815250600260008773ffffffffffffffffffffffffffffffffffffffff1673ffffffffffffffffffffffffffffffffffffffff16815260200190815260200160002060008681526020019081526020016000206000820151816000019081610fb59190611e99565b506020820151816001015560408201518160020155606082015181600301559050508473ffffffffffffffffffffffffffffffffffffffff167fa7973c2fc2736eea44b46b6f4216f2378ea4f7a84ba3268bee4436fa12a50b1e858585856040516110239493929190611f6b565b60405180910390a25050505050565b61103a6110b8565b600073ffffffffffffffffffffffffffffffffffffffff168173ffffffffffffffffffffffffffffffffffffffff16036110ac5760006040517f1e4fbdf70000000000000000000000000000000000000000000000000000000081526004016110a39190611427565b60405180910390fd5b6110b58161113f565b50565b6110c0611203565b73ffffffffffffffffffffffffffffffffffffffff166110de6107fb565b73ffffffffffffffffffffffffffffffffffffffff161461113d57611101611203565b6040517f118cdaa70000000000000000000000000000000000000000000000000000000081526004016111349190611427565b60405180910390fd5b565b60008060009054906101000a900473ffffffffffffffffffffffffffffffffffffffff169050816000806101000a81548173ffffffffffffffffffffffffffffffffffffffff021916908373ffffffffffffffffffffffffffffffffffffffff1602179055508173ffffffffffffffffffffffffffffffffffffffff168173ffffffffffffffffffffffffffffffffffffffff167f8be0079c531659141344cd1fd0a4f28419497f9722a3daafe3b4186f6b6457e060405160405180910390a35050565b600033905090565b611ac980611fb883390190565b6000604051905090565b600080fd5b600080fd5b600073ffffffffffffffffffffffffffffffffffffffff82169050919050565b60006112578261122c565b9050919050565b6112678161124c565b811461127257600080fd5b50565b6000813590506112848161125e565b92915050565b6000819050919050565b61129d8161128a565b81146112a857600080fd5b50565b6000813590506112ba81611294565b92915050565b600080604083850312156112d7576112d6611222565b5b60006112e585828601611275565b92505060206112f6858286016112ab565b9150509250929050565b600081519050919050565b600082825260208201905092915050565b60005b8381101561133a57808201518184015260208101905061131f565b60008484015250505050565b6000601f19601f8301169050919050565b600061136282611300565b61136c818561130b565b935061137c81856020860161131c565b61138581611346565b840191505092915050565b6113998161128a565b82525050565b600060808201905081810360008301526113b98187611357565b90506113c86020830186611390565b6113d56040830185611390565b6113e26060830184611390565b95945050505050565b60006020828403121561140157611400611222565b5b600061140f84828501611275565b91505092915050565b6114218161124c565b82525050565b600060208201905061143c6000830184611418565b92915050565b600080fd5b600080fd5b7f4e487b7100000000000000000000000000000000000000000000000000000000600052604160045260246000fd5b61148482611346565b810181811067ffffffffffffffff821117156114a3576114a261144c565b5b80604052505050565b60006114b6611218565b90506114c2828261147b565b919050565b600067ffffffffffffffff8211156114e2576114e161144c565b5b6114eb82611346565b9050602081019050919050565b82818337600083830152505050565b600061151a611515846114c7565b6114ac565b90508281526020810184848401111561153657611535611447565b5b6115418482856114f8565b509392505050565b600082601f83011261155e5761155d611442565b5b813561156e848260208601611507565b91505092915050565b6000806040838503121561158e5761158d611222565b5b600083013567ffffffffffffffff8111156115ac576115ab611227565b5b6115b885828601611549565b925050602083013567ffffffffffffffff8111156115d9576115d8611227565b5b6115e585828601611549565b9150509250929050565b60008060006060848603121561160857611607611222565b5b600061161686828701611275565b935050602061162786828701611275565b9250506040611638868287016112ab565b9150509250925092565b6000806000806080858703121561165c5761165b611222565b5b600061166a87828801611275565b945050602061167b878288016112ab565b935050604061168c878288016112ab565b925050606061169d87828801611275565b91505092959194509250565b600080600080600060a086880312156116c5576116c4611222565b5b60006116d388828901611275565b95505060206116e4888289016112ab565b945050604086013567ffffffffffffffff81111561170557611704611227565b5b61171188828901611549565b9350506060611722888289016112ab565b9250506080611733888289016112ab565b9150509295509295909350565b7f4e487b7100000000000000000000000000000000000000000000000000000000600052602260045260246000fd5b6000600282049050600182168061178757607f821691505b60208210810361179a57611799611740565b5b50919050565b7f546f6b656e20616c726561647920637265617465640000000000000000000000600082015250565b60006117d660158361130b565b91506117e1826117a0565b602082019050919050565b60006020820190508181036000830152611805816117c9565b9050919050565b600060608201905081810360008301526118268186611357565b9050818103602083015261183a8185611357565b90506118496040830184611418565b949350505050565b7f4e6f7420796f757220746f6b656e000000000000000000000000000000000000600082015250565b6000611887600e8361130b565b915061189282611851565b602082019050919050565b600060208201905081810360008301526118b68161187a565b9050919050565b7f43616e6e6f74206275726e2066726f6d207a65726f2061646472657373000000600082015250565b60006118f3601d8361130b565b91506118fe826118bd565b602082019050919050565b60006020820190508181036000830152611922816118e6565b9050919050565b7f416d6f756e74206d7573742062652067726561746572207468616e207a65726f600082015250565b600061195f60208361130b565b915061196a82611929565b602082019050919050565b6000602082019050818103600083015261198e81611952565b9050919050565b60006040820190506119aa6000830185611418565b6119b76020830184611390565b9392505050565b60006020820190506119d36000830184611390565b92915050565b7f5469657220646f6573206e6f7420657869737400000000000000000000000000600082015250565b6000611a0f60138361130b565b9150611a1a826119d9565b602082019050919050565b60006020820190508181036000830152611a3e81611a02565b9050919050565b7f43616e6e6f74206d696e7420746f207a65726f20616464726573730000000000600082015250565b6000611a7b601b8361130b565b9150611a8682611a45565b602082019050919050565b60006020820190508181036000830152611aaa81611a6e565b9050919050565b7f4e487b7100000000000000000000000000000000000000000000000000000000600052601160045260246000fd5b6000611aeb8261128a565b9150611af68361128a565b9250828201905080821115611b0e57611b0d611ab1565b5b92915050565b7f45786365656473207469657220737570706c7900000000000000000000000000600082015250565b6000611b4a60138361130b565b9150611b5582611b14565b602082019050919050565b60006020820190508181036000830152611b7981611b3d565b9050919050565b6000604082019050611b956000830185611390565b611ba26020830184611390565b9392505050565b7f5469657220616c72656164792065786973747300000000000000000000000000600082015250565b6000611bdf60138361130b565b9150611bea82611ba9565b602082019050919050565b60006020820190508181036000830152611c0e81611bd2565b9050919050565b7f537570706c79206d7573742062652067726561746572207468616e207a65726f600082015250565b6000611c4b60208361130b565b9150611c5682611c15565b602082019050919050565b60006020820190508181036000830152611c7a81611c3e565b9050919050565b7f5072696365206d7573742062652067726561746572207468616e207a65726f00600082015250565b6000611cb7601f8361130b565b9150611cc282611c81565b602082019050919050565b60006020820190508181036000830152611ce681611caa565b9050919050565b60008190508160005260206000209050919050565b60006020601f8301049050919050565b600082821b905092915050565b600060088302611d4f7fffffffffffffffffffffffffffffffffffffffffffffffffffffffffffffffff82611d12565b611d598683611d12565b95508019841693508086168417925050509392505050565b6000819050919050565b6000611d96611d91611d8c8461128a565b611d71565b61128a565b9050919050565b6000819050919050565b611db083611d7b565b611dc4611dbc82611d9d565b848454611d1f565b825550505050565b600090565b611dd9611dcc565b611de4818484611da7565b505050565b5b81811015611e0857611dfd600082611dd1565b600181019050611dea565b5050565b601f821115611e4d57611e1e81611ced565b611e2784611d02565b81016020851015611e36578190505b611e4a611e4285611d02565b830182611de9565b50505b505050565b600082821c905092915050565b6000611e7060001984600802611e52565b1980831691505092915050565b6000611e898383611e5f565b9150826002028217905092915050565b611ea282611300565b67ffffffffffffffff811115611ebb57611eba61144c565b5b611ec5825461176f565b611ed0828285611e0c565b600060209050601f831160018114611f035760008415611ef1578287015190505b611efb8582611e7d565b865550611f63565b601f198416611f1186611ced565b60005b82811015611f3957848901518255600182019150602085019450602081019050611f14565b86831015611f565784890151611f52601f891682611e5f565b8355505b6001600288020188555050505b505050505050565b6000608082019050611f806000830187611390565b8181036020830152611f928186611357565b9050611fa16040830185611390565b611fae6060830184611390565b9594505050505056fe608060405234801561001057600080fd5b50604051611ac9380380611ac98339818101604052810190610032919061037a565b80838381600390816100449190610626565b5080600490816100549190610626565b505050600073ffffffffffffffffffffffffffffffffffffffff168173ffffffffffffffffffffffffffffffffffffffff16036100c95760006040517f1e4fbdf70000000000000000000000000000000000000000000000000000000081526004016100c09190610707565b60405180910390fd5b6100d8816100e160201b60201c565b50505050610722565b6000600560009054906101000a900473ffffffffffffffffffffffffffffffffffffffff16905081600560006101000a81548173ffffffffffffffffffffffffffffffffffffffff021916908373ffffffffffffffffffffffffffffffffffffffff1602179055508173ffffffffffffffffffffffffffffffffffffffff168173ffffffffffffffffffffffffffffffffffffffff167f8be0079c531659141344cd1fd0a4f28419497f9722a3daafe3b4186f6b6457e060405160405180910390a35050565b6000604051905090565b600080fd5b600080fd5b600080fd5b600080fd5b6000601f19601f8301169050919050565b7f4e487b7100000000000000000000000000000000000000000000000000000000600052604160045260246000fd5b61020e826101c5565b810181811067ffffffffffffffff8211171561022d5761022c6101d6565b5b80604052505050565b60006102406101a7565b905061024c8282610205565b919050565b600067ffffffffffffffff82111561026c5761026b6101d6565b5b610275826101c5565b9050602081019050919050565b60005b838110156102a0578082015181840152602081019050610285565b60008484015250505050565b60006102bf6102ba84610251565b610236565b9050828152602081018484840111156102db576102da6101c0565b5b6102e6848285610282565b509392505050565b600082601f830112610303576103026101bb565b5b81516103138482602086016102ac565b91505092915050565b600073ffffffffffffffffffffffffffffffffffffffff82169050919050565b60006103478261031c565b9050919050565b6103578161033c565b811461036257600080fd5b50565b6000815190506103748161034e565b92915050565b600080600060608486031215610393576103926101b1565b5b600084015167ffffffffffffffff8111156103b1576103b06101b6565b5b6103bd868287016102ee565b935050602084015167ffffffffffffffff8111156103de576103dd6101b6565b5b6103ea868287016102ee565b92505060406103fb86828701610365565b9150509250925092565b600081519050919050565b7f4e487b7100000000000000000000000000000000000000000000000000000000600052602260045260246000fd5b6000600282049050600182168061045757607f821691505b60208210810361046a57610469610410565b5b50919050565b60008190508160005260206000209050919050565b60006020601f8301049050919050565b600082821b905092915050565b6000600883026104d27fffffffffffffffffffffffffffffffffffffffffffffffffffffffffffffffff82610495565b6104dc8683610495565b95508019841693508086168417925050509392505050565b6000819050919050565b6000819050919050565b600061052361051e610519846104f4565b6104fe565b6104f4565b9050919050565b6000819050919050565b61053d83610508565b6105516105498261052a565b8484546104a2565b825550505050565b600090565b610566610559565b610571818484610534565b505050565b5b818110156105955761058a60008261055e565b600181019050610577565b5050565b601f8211156105da576105ab81610470565b6105b484610485565b810160208510156105c3578190505b6105d76105cf85610485565b830182610576565b50505b505050565b600082821c905092915050565b60006105fd600019846008026105df565b1980831691505092915050565b600061061683836105ec565b9150826002028217905092915050565b61062f82610405565b67ffffffffffffffff811115610648576106476101d6565b5b610652825461043f565b61065d828285610599565b600060209050601f831160018114610690576000841561067e578287015190505b610688858261060a565b8655506106f0565b601f19841661069e86610470565b60005b828110156106c6578489015182556001820191506020850194506020810190506106a1565b868310156106e357848901516106df601f8916826105ec565b8355505b6001600288020188555050505b505050505050565b6107018161033c565b82525050565b600060208201905061071c60008301846106f8565b92915050565b611398806107316000396000f3fe608060405234801561001057600080fd5b50600436106100ea5760003560e01c8063715018a61161008c57806395d89b411161006657806395d89b4114610239578063a9059cbb14610257578063dd62ed3e14610287578063f2fde38b146102b7576100ea565b8063715018a6146101f557806379cc6790146101ff5780638da5cb5b1461021b576100ea565b806323b872dd116100c857806323b872dd1461015b578063313ce5671461018b57806340c10f19146101a957806370a08231146101c5576100ea565b806306fdde03146100ef578063095ea7b31461010d57806318160ddd1461013d575b600080fd5b6100f76102d3565b6040516101049190610f26565b60405180910390f35b61012760048036038101906101229190610fe1565b610365565b604051610134919061103c565b60405180910390f35b610145610388565b6040516101529190611066565b60405180910390f35b61017560048036038101906101709190611081565b610392565b604051610182919061103c565b60405180910390f35b6101936103c1565b6040516101a091906110f0565b60405180910390f35b6101c360048036038101906101be9190610fe1565b6103ca565b005b6101df60048036038101906101da919061110b565b6103e0565b6040516101ec9190611066565b60405180910390f35b6101fd610428565b005b61021960048036038101906102149190610fe1565b61043c565b005b6102236104ba565b6040516102309190611147565b60405180910390f35b6102416104e4565b60405161024e9190610f26565b60405180910390f35b610271600480360381019061026c9190610fe1565b610576565b60405161027e919061103c565b60405180910390f35b6102a1600480360381019061029c9190611162565b610599565b6040516102ae9190611066565b60405180910390f35b6102d160048036038101906102cc919061110b565b610620565b005b6060600380546102e2906111d1565b80601f016020809104026020016040519081016040528092919081815260200182805461030e906111d1565b801561035b5780601f106103305761010080835404028352916020019161035b565b820191906000526020600020905b81548152906001019060200180831161033e57829003601f168201915b5050505050905090565b6000806103706106a6565b905061037d8185856106ae565b600191505092915050565b6000600254905090565b60008061039d6106a6565b90506103aa8582856106c0565b6103b5858585610755565b60019150509392505050565b60006012905090565b6103d2610849565b6103dc82826108d0565b5050565b60008060008373ffffffffffffffffffffffffffffffffffffffff1673ffffffffffffffffffffffffffffffffffffffff168152602001908152602001600020549050919050565b610430610849565b61043a6000610952565b565b610444610849565b60006104508330610599565b905081811015610495576040517f08c379a000000000000000000000000000000000000000000000000000000000815260040161048c90611274565b60405180910390fd5b6104ab833084846104a691906112c3565b6106ae565b6104b58383610a18565b505050565b6000600560009054906101000a900473ffffffffffffffffffffffffffffffffffffffff16905090565b6060600480546104f3906111d1565b80601f016020809104026020016040519081016040528092919081815260200182805461051f906111d1565b801561056c5780601f106105415761010080835404028352916020019161056c565b820191906000526020600020905b81548152906001019060200180831161054f57829003601f168201915b5050505050905090565b6000806105816106a6565b905061058e818585610755565b600191505092915050565b6000600160008473ffffffffffffffffffffffffffffffffffffffff1673ffffffffffffffffffffffffffffffffffffffff16815260200190815260200160002060008373ffffffffffffffffffffffffffffffffffffffff1673ffffffffffffffffffffffffffffffffffffffff16815260200190815260200160002054905092915050565b610628610849565b600073ffffffffffffffffffffffffffffffffffffffff168173ffffffffffffffffffffffffffffffffffffffff160361069a5760006040517f1e4fbdf70000000000000000000000000000000000000000000000000000000081526004016106919190611147565b60405180910390fd5b6106a381610952565b50565b600033905090565b6106bb8383836001610a9a565b505050565b60006106cc8484610599565b90507fffffffffffffffffffffffffffffffffffffffffffffffffffffffffffffffff81101561074f578181101561073f578281836040517ffb8f41b2000000000000000000000000000000000000000000000000000000008152600401610736939291906112f7565b60405180910390fd5b61074e84848484036000610a9a565b5b50505050565b600073ffffffffffffffffffffffffffffffffffffffff168373ffffffffffffffffffffffffffffffffffffffff16036107c75760006040517f96c6fd1e0000000000000000000000000000000000000000000000000000000081526004016107be9190611147565b60405180910390fd5b600073ffffffffffffffffffffffffffffffffffffffff168273ffffffffffffffffffffffffffffffffffffffff16036108395760006040517fec442f050000000000000000000000000000000000000000000000000000000081526004016108309190611147565b60405180910390fd5b610844838383610c71565b505050565b6108516106a6565b73ffffffffffffffffffffffffffffffffffffffff1661086f6104ba565b73ffffffffffffffffffffffffffffffffffffffff16146108ce576108926106a6565b6040517f118cdaa70000000000000000000000000000000000000000000000000000000081526004016108c59190611147565b60405180910390fd5b565b600073ffffffffffffffffffffffffffffffffffffffff168273ffffffffffffffffffffffffffffffffffffffff16036109425760006040517fec442f050000000000000000000000000000000000000000000000000000000081526004016109399190611147565b60405180910390fd5b61094e60008383610c71565b5050565b6000600560009054906101000a900473ffffffffffffffffffffffffffffffffffffffff16905081600560006101000a81548173ffffffffffffffffffffffffffffffffffffffff021916908373ffffffffffffffffffffffffffffffffffffffff1602179055508173ffffffffffffffffffffffffffffffffffffffff168173ffffffffffffffffffffffffffffffffffffffff167f8be0079c531659141344cd1fd0a4f28419497f9722a3daafe3b4186f6b6457e060405160405180910390a35050565b600073ffffffffffffffffffffffffffffffffffffffff168273ffffffffffffffffffffffffffffffffffffffff1603610a8a5760006040517f96c6fd1e000000000000000000000000000000000000000000000000000000008152600401610a819190611147565b60405180910390fd5b610a9682600083610c71565b5050565b600073ffffffffffffffffffffffffffffffffffffffff168473ffffffffffffffffffffffffffffffffffffffff1603610b0c5760006040517fe602df05000000000000000000000000000000000000000000000000000000008152600401610b039190611147565b60405180910390fd5b600073ffffffffffffffffffffffffffffffffffffffff168373ffffffffffffffffffffffffffffffffffffffff1603610b7e5760006040517f94280d62000000000000000000000000000000000000000000000000000000008152600401610b759190611147565b60405180910390fd5b81600160008673ffffffffffffffffffffffffffffffffffffffff1673ffffffffffffffffffffffffffffffffffffffff16815260200190815260200160002060008573ffffffffffffffffffffffffffffffffffffffff1673ffffffffffffffffffffffffffffffffffffffff168152602001908152602001600020819055508015610c6b578273ffffffffffffffffffffffffffffffffffffffff168473ffffffffffffffffffffffffffffffffffffffff167f8c5be1e5ebec7d5bd14f71427d1e84f3dd0314c0f7b2291e5b200ac8c7c3b92584604051610c629190611066565b60405180910390a35b50505050565b600073ffffffffffffffffffffffffffffffffffffffff168373ffffffffffffffffffffffffffffffffffffffff1603610cc3578060026000828254610cb7919061132e565b92505081905550610d96565b60008060008573ffffffffffffffffffffffffffffffffffffffff1673ffffffffffffffffffffffffffffffffffffffff16815260200190815260200160002054905081811015610d4f578381836040517fe450d38c000000000000000000000000000000000000000000000000000000008152600401610d46939291906112f7565b60405180910390fd5b8181036000808673ffffffffffffffffffffffffffffffffffffffff1673ffffffffffffffffffffffffffffffffffffffff16815260200190815260200160002081905550505b600073ffffffffffffffffffffffffffffffffffffffff168273ffffffffffffffffffffffffffffffffffffffff1603610ddf5780600260008282540392505081905550610e2c565b806000808473ffffffffffffffffffffffffffffffffffffffff1673ffffffffffffffffffffffffffffffffffffffff168152602001908152602001600020600082825401925050819055505b8173ffffffffffffffffffffffffffffffffffffffff168373ffffffffffffffffffffffffffffffffffffffff167fddf252ad1be2c89b69c2b068fc378daa952ba7f163c4a11628f55a4df523b3ef83604051610e899190611066565b60405180910390a3505050565b600081519050919050565b600082825260208201905092915050565b60005b83811015610ed0578082015181840152602081019050610eb5565b60008484015250505050565b6000601f19601f8301169050919050565b6000610ef882610e96565b610f028185610ea1565b9350610f12818560208601610eb2565b610f1b81610edc565b840191505092915050565b60006020820190508181036000830152610f408184610eed565b905092915050565b600080fd5b600073ffffffffffffffffffffffffffffffffffffffff82169050919050565b6000610f7882610f4d565b9050919050565b610f8881610f6d565b8114610f9357600080fd5b50565b600081359050610fa581610f7f565b92915050565b6000819050919050565b610fbe81610fab565b8114610fc957600080fd5b50565b600081359050610fdb81610fb5565b92915050565b60008060408385031215610ff857610ff7610f48565b5b600061100685828601610f96565b925050602061101785828601610fcc565b9150509250929050565b60008115159050919050565b61103681611021565b82525050565b6000602082019050611051600083018461102d565b92915050565b61106081610fab565b82525050565b600060208201905061107b6000830184611057565b92915050565b60008060006060848603121561109a57611099610f48565b5b60006110a886828701610f96565b93505060206110b986828701610f96565b92505060406110ca86828701610fcc565b9150509250925092565b600060ff82169050919050565b6110ea816110d4565b82525050565b600060208201905061110560008301846110e1565b92915050565b60006020828403121561112157611120610f48565b5b600061112f84828501610f96565b91505092915050565b61114181610f6d565b82525050565b600060208201905061115c6000830184611138565b92915050565b6000806040838503121561117957611178610f48565b5b600061118785828601610f96565b925050602061119885828601610f96565b9150509250929050565b7f4e487b7100000000000000000000000000000000000000000000000000000000600052602260045260246000fd5b600060028204905060018216806111e957607f821691505b6020821081036111fc576111fb6111a2565b5b50919050565b7f45524332303a206275726e20616d6f756e74206578636565647320616c6c6f7760008201527f616e636500000000000000000000000000000000000000000000000000000000602082015250565b600061125e602483610ea1565b915061126982611202565b604082019050919050565b6000602082019050818103600083015261128d81611251565b9050919050565b7f4e487b7100000000000000000000000000000000000000000000000000000000600052601160045260246000fd5b60006112ce82610fab565b91506112d983610fab565b92508282039050818111156112f1576112f0611294565b5b92915050565b600060608201905061130c6000830186611138565b6113196020830185611057565b6113266040830184611057565b949350505050565b600061133982610fab565b915061134483610fab565b925082820190508082111561135c5761135b611294565b5b9291505056fea2646970667358221220f6546791e0eed2362e934e5d456b52a85976c57e8eb6547f29ab2485ac51e9fa64736f6c634300081c0033a2646970667358221220e792f5c57d2440ea8c6eb4708e334795b618f6b1f37b49e0614ea560c8d42c1264736f6c634300081c0033",
  "linkReferences": {},
  "deployedLinkReferences": {}
}