{
  "_format": "hh-sol-artifact-1",
  "contractName": "NFTMarketplace",
  "sourceName": "contracts/MarketPlace.sol",
  "abi": [
    {
      "inputs": [
        {
          "internalType": "address",
          "name": "_nftContract",
          "type": "address"
        },
        {
          "internalType": "address",
          "name": "_token",
          "type": "address"
        },
        {
          "internalType": "address",
          "name": "_feeRecipient",
          "type": "address"
        }
      ],
      "stateMutability": "nonpayable",
      "type": "constructor"
    },
    {
      "inputs": [
        {
          "internalType": "address",
          "name": "token",
          "type": "address"
        }
      ],
      "name": "SafeERC20FailedOperation",
      "type": "error"
    },
    {
      "anonymous": false,
      "inputs": [
        {
          "indexed": true,
          "internalType": "uint256",
          "name": "tokenId",
          "type": "uint256"
        },
        {
          "indexed": false,
          "internalType": "address",
          "name": "winner",
          "type": "address"
        },
        {
          "indexed": false,
          "internalType": "uint256",
          "name": "finalBid",
          "type": "uint256"
        }
      ],
      "name": "AuctionEnded",
      "type": "event"
    },
    {
      "anonymous": false,
      "inputs": [
        {
          "indexed": true,
          "internalType": "uint256",
          "name": "tokenId",
          "type": "uint256"
        },
        {
          "indexed": false,
          "internalType": "uint256",
          "name": "startingBid",
          "type": "uint256"
        },
        {
          "indexed": false,
          "internalType": "uint256",
          "name": "endTime",
          "type": "uint256"
        }
      ],
      "name": "AuctionStarted",
      "type": "event"
    },
    {
      "anonymous": false,
      "inputs": [
        {
          "indexed": true,
          "internalType": "uint256",
          "name": "tokenId",
          "type": "uint256"
        },
        {
          "indexed": false,
          "internalType": "address",
          "name": "bidder",
          "type": "address"
        },
        {
          "indexed": false,
          "internalType": "uint256",
          "name": "bidAmount",
          "type": "uint256"
        }
      ],
      "name": "BidPlaced",
      "type": "event"
    },
    {
      "anonymous": false,
      "inputs": [
        {
          "indexed": true,
          "internalType": "uint256",
          "name": "tokenId",
          "type": "uint256"
        },
        {
          "indexed": false,
          "internalType": "uint256",
          "name": "price",
          "type": "uint256"
        },
        {
          "indexed": false,
          "internalType": "address",
          "name": "seller",
          "type": "address"
        }
      ],
      "name": "NFTListed",
      "type": "event"
    },
    {
      "anonymous": false,
      "inputs": [
        {
          "indexed": true,
          "internalType": "uint256",
          "name": "tokenId",
          "type": "uint256"
        },
        {
          "indexed": false,
          "internalType": "address",
          "name": "buyer",
          "type": "address"
        },
        {
          "indexed": false,
          "internalType": "uint256",
          "name": "price",
          "type": "uint256"
        }
      ],
      "name": "NFTSold",
      "type": "event"
    },
    {
      "anonymous": false,
      "inputs": [
        {
          "indexed": true,
          "internalType": "uint256",
          "name": "tokenId",
          "type": "uint256"
        },
        {
          "indexed": false,
          "internalType": "string",
          "name": "newMetadata",
          "type": "string"
        }
      ],
      "name": "NFTUpgraded",
      "type": "event"
    },
    {
      "inputs": [
        {
          "internalType": "uint256",
          "name": "tokenId",
          "type": "uint256"
        }
      ],
      "name": "buyNFT",
      "outputs": [],
      "stateMutability": "nonpayable",
      "type": "function"
    },
    {
      "inputs": [
        {
          "internalType": "uint256",
          "name": "tokenId",
          "type": "uint256"
        },
        {
          "internalType": "uint256",
          "name": "amount",
          "type": "uint256"
        }
      ],
      "name": "buyNFTWithToken",
      "outputs": [],
      "stateMutability": "nonpayable",
      "type": "function"
    },
    {
      "inputs": [
        {
          "internalType": "uint256",
          "name": "tokenId",
          "type": "uint256"
        }
      ],
      "name": "endAuction",
      "outputs": [],
      "stateMutability": "nonpayable",
      "type": "function"
    },
    {
      "inputs": [],
      "name": "feeRecipient",
      "outputs": [
        {
          "internalType": "address",
          "name": "",
          "type": "address"
        }
      ],
      "stateMutability": "view",
      "type": "function"
    },
    {
      "inputs": [
        {
          "internalType": "uint256",
          "name": "tokenId",
          "type": "uint256"
        },
        {
          "internalType": "uint256",
          "name": "price",
          "type": "uint256"
        }
      ],
      "name": "listNFTForSale",
      "outputs": [],
      "stateMutability": "nonpayable",
      "type": "function"
    },
    {
      "inputs": [],
      "name": "marketplaceFee",
      "outputs": [
        {
          "internalType": "uint256",
          "name": "",
          "type": "uint256"
        }
      ],
      "stateMutability": "view",
      "type": "function"
    },
    {
      "inputs": [
        {
          "internalType": "string",
          "name": "metadataURI",
          "type": "string"
        },
        {
          "internalType": "uint256",
          "name": "price",
          "type": "uint256"
        }
      ],
      "name": "mintAndListNFT",
      "outputs": [
        {
          "internalType": "uint256",
          "name": "",
          "type": "uint256"
        }
      ],
      "stateMutability": "nonpayable",
      "type": "function"
    },
    {
      "inputs": [
        {
          "internalType": "uint256",
          "name": "",
          "type": "uint256"
        }
      ],
      "name": "nftAuctions",
      "outputs": [
        {
          "internalType": "uint256",
          "name": "tokenId",
          "type": "uint256"
        },
        {
          "internalType": "uint256",
          "name": "highestBid",
          "type": "uint256"
        },
        {
          "internalType": "address",
          "name": "highestBidder",
          "type": "address"
        },
        {
          "internalType": "uint256",
          "name": "endTime",
          "type": "uint256"
        }
      ],
      "stateMutability": "view",
      "type": "function"
    },
    {
      "inputs": [],
      "name": "nftContract",
      "outputs": [
        {
          "internalType": "contract IERC721Mintable",
          "name": "",
          "type": "address"
        }
      ],
      "stateMutability": "view",
      "type": "function"
    },
    {
      "inputs": [
        {
          "internalType": "uint256",
          "name": "",
          "type": "uint256"
        }
      ],
      "name": "nftPrice",
      "outputs": [
        {
          "internalType": "uint256",
          "name": "",
          "type": "uint256"
        }
      ],
      "stateMutability": "view",
      "type": "function"
    },
    {
      "inputs": [
        {
          "internalType": "uint256",
          "name": "",
          "type": "uint256"
        }
      ],
      "name": "nftSeller",
      "outputs": [
        {
          "internalType": "address",
          "name": "",
          "type": "address"
        }
      ],
      "stateMutability": "view",
      "type": "function"
    },
    {
      "inputs": [
        {
          "internalType": "uint256",
          "name": "",
          "type": "uint256"
        }
      ],
      "name": "nftUpgrades",
      "outputs": [
        {
          "internalType": "string",
          "name": "",
          "type": "string"
        }
      ],
      "stateMutability": "view",
      "type": "function"
    },
    {
      "inputs": [
        {
          "internalType": "uint256",
          "name": "tokenId",
          "type": "uint256"
        },
        {
          "internalType": "uint256",
          "name": "amount",
          "type": "uint256"
        }
      ],
      "name": "placeBid",
      "outputs": [],
      "stateMutability": "nonpayable",
      "type": "function"
    },
    {
      "inputs": [
        {
          "internalType": "address",
          "name": "newFeeRecipient",
          "type": "address"
        }
      ],
      "name": "setFeeRecipient",
      "outputs": [],
      "stateMutability": "nonpayable",
      "type": "function"
    },
    {
      "inputs": [
        {
          "internalType": "uint256",
          "name": "newFee",
          "type": "uint256"
        }
      ],
      "name": "setMarketplaceFee",
      "outputs": [],
      "stateMutability": "nonpayable",
      "type": "function"
    },
    {
      "inputs": [
        {
          "internalType": "uint256",
          "name": "tokenId",
          "type": "uint256"
        },
        {
          "internalType": "uint256",
          "name": "startingBid",
          "type": "uint256"
        },
        {
          "internalType": "uint256",
          "name": "duration",
          "type": "uint256"
        }
      ],
      "name": "startAuction",
      "outputs": [],
      "stateMutability": "nonpayable",
      "type": "function"
    },
    {
      "inputs": [],
      "name": "token",
      "outputs": [
        {
          "internalType": "contract IERC20",
          "name": "",
          "type": "address"
        }
      ],
      "stateMutability": "view",
      "type": "function"
    },
    {
      "inputs": [
        {
          "internalType": "uint256",
          "name": "tokenId",
          "type": "uint256"
        },
        {
          "internalType": "string",
          "name": "newMetadata",
          "type": "string"
        }
      ],
      "name": "upgradeNFT",
      "outputs": [],
      "stateMutability": "nonpayable",
      "type": "function"
    }
  ],
  "bytecode": "0x60806040526002805534801561001457600080fd5b50604051612aed380380612aed83398181016040528101906100369190610163565b82600160006101000a81548173ffffffffffffffffffffffffffffffffffffffff021916908373ffffffffffffffffffffffffffffffffffffffff160217905550816000806101000a81548173ffffffffffffffffffffffffffffffffffffffff021916908373ffffffffffffffffffffffffffffffffffffffff16021790555080600360006101000a81548173ffffffffffffffffffffffffffffffffffffffff021916908373ffffffffffffffffffffffffffffffffffffffff1602179055505050506101b6565b600080fd5b600073ffffffffffffffffffffffffffffffffffffffff82169050919050565b600061013082610105565b9050919050565b61014081610125565b811461014b57600080fd5b50565b60008151905061015d81610137565b92915050565b60008060006060848603121561017c5761017b610100565b5b600061018a8682870161014e565b935050602061019b8682870161014e565b92505060406101ac8682870161014e565b9150509250925092565b612928806101c56000396000f3fe608060405234801561001057600080fd5b50600436106101165760003560e01c806393cde51a116100a2578063b9a2de3a11610071578063b9a2de3a146102f2578063d56d229d1461030e578063e74b981b1461032c578063fc0c546a14610348578063fe3d042c1461036657610116565b806393cde51a146102575780639407ea981461028a578063b2733b39146102a6578063b87ce52b146102c257610116565b806357c90de5116100e957806357c90de5146101b55780636a166964146101d15780636de29914146101ef578063892ca6051461021f57806391e078bb1461023b57610116565b80631ed98b801461011b5780632c1f5b7b1461014b578063469048401461017b57806351ed828814610199575b600080fd5b61013560048036038101906101309190611a08565b610382565b6040516101429190611ac5565b60405180910390f35b61016560048036038101906101609190611c1c565b610422565b6040516101729190611c87565b60405180910390f35b6101836104db565b6040516101909190611ce3565b60405180910390f35b6101b360048036038101906101ae9190611a08565b610501565b005b6101cf60048036038101906101ca9190611cfe565b6107bc565b005b6101d9610a03565b6040516101e69190611c87565b60405180910390f35b61020960048036038101906102049190611a08565b610a09565b6040516102169190611c87565b60405180910390f35b61023960048036038101906102349190611d3e565b610a21565b005b61025560048036038101906102509190611d9a565b610b89565b005b610271600480360381019061026c9190611a08565b610df2565b6040516102819493929190611ded565b60405180910390f35b6102a4600480360381019061029f9190611a08565b610e42565b005b6102c060048036038101906102bb9190611cfe565b610edc565b005b6102dc60048036038101906102d79190611a08565b61108f565b6040516102e99190611ce3565b60405180910390f35b61030c60048036038101906103079190611a08565b6110c2565b005b610316611414565b6040516103239190611e91565b60405180910390f35b61034660048036038101906103419190611ed8565b61143a565b005b61035061150e565b60405161035d9190611f26565b60405180910390f35b610380600480360381019061037b9190611cfe565b611532565b005b600760205280600052604060002060009150905080546103a190611f70565b80601f01602080910402602001604051908101604052809291908181526020018280546103cd90611f70565b801561041a5780601f106103ef5761010080835404028352916020019161041a565b820191906000526020600020905b8154815290600101906020018083116103fd57829003601f168201915b505050505081565b600080600160009054906101000a900473ffffffffffffffffffffffffffffffffffffffff1673ffffffffffffffffffffffffffffffffffffffff1663d0def52133866040518363ffffffff1660e01b8152600401610482929190611fa1565b6020604051808303816000875af11580156104a1573d6000803e3d6000fd5b505050506040513d601f19601f820116820180604052508101906104c59190611fe6565b90506104d18184610edc565b8091505092915050565b600360009054906101000a900473ffffffffffffffffffffffffffffffffffffffff1681565b60006004600083815260200190815260200160002054905060006005600084815260200190815260200160002060009054906101000a900473ffffffffffffffffffffffffffffffffffffffff16905060008211610594576040517f08c379a000000000000000000000000000000000000000000000000000000000815260040161058b9061205f565b60405180910390fd5b60006064600254846105a691906120ae565b6105b0919061211f565b9050600081846105c09190612150565b905061063133600360009054906101000a900473ffffffffffffffffffffffffffffffffffffffff168460008054906101000a900473ffffffffffffffffffffffffffffffffffffffff1673ffffffffffffffffffffffffffffffffffffffff1661181b909392919063ffffffff16565b61067e33848360008054906101000a900473ffffffffffffffffffffffffffffffffffffffff1673ffffffffffffffffffffffffffffffffffffffff1661181b909392919063ffffffff16565b600160009054906101000a900473ffffffffffffffffffffffffffffffffffffffff1673ffffffffffffffffffffffffffffffffffffffff166323b872dd8433886040518463ffffffff1660e01b81526004016106dd93929190612184565b600060405180830381600087803b1580156106f757600080fd5b505af115801561070b573d6000803e3d6000fd5b505050506000600460008781526020019081526020016000208190555060006005600087815260200190815260200160002060006101000a81548173ffffffffffffffffffffffffffffffffffffffff021916908373ffffffffffffffffffffffffffffffffffffffff160217905550847f6329e40c0365262ebbff5ca819385c2b9713dcaa050ed07866d72c441395699a33866040516107ad9291906121bb565b60405180910390a25050505050565b600060066000848152602001908152602001600020905080600301544210610819576040517f08c379a000000000000000000000000000000000000000000000000000000000815260040161081090612230565b60405180910390fd5b8060010154821161085f576040517f08c379a0000000000000000000000000000000000000000000000000000000008152600401610856906122c2565b60405180910390fd5b600073ffffffffffffffffffffffffffffffffffffffff168160020160009054906101000a900473ffffffffffffffffffffffffffffffffffffffff1673ffffffffffffffffffffffffffffffffffffffff161461092b5761092a8160020160009054906101000a900473ffffffffffffffffffffffffffffffffffffffff16826001015460008054906101000a900473ffffffffffffffffffffffffffffffffffffffff1673ffffffffffffffffffffffffffffffffffffffff1661189d9092919063ffffffff16565b5b61097833308460008054906101000a900473ffffffffffffffffffffffffffffffffffffffff1673ffffffffffffffffffffffffffffffffffffffff1661181b909392919063ffffffff16565b818160010181905550338160020160006101000a81548173ffffffffffffffffffffffffffffffffffffffff021916908373ffffffffffffffffffffffffffffffffffffffff160217905550827f0e54eff26401bf69b81b26f60bd85ef47f5d85275c1d268d84f68d6897431c4733846040516109f69291906121bb565b60405180910390a2505050565b60025481565b60046020528060005260406000206000915090505481565b813373ffffffffffffffffffffffffffffffffffffffff16600160009054906101000a900473ffffffffffffffffffffffffffffffffffffffff1673ffffffffffffffffffffffffffffffffffffffff16636352211e836040518263ffffffff1660e01b8152600401610a949190611c87565b602060405180830381865afa158015610ab1573d6000803e3d6000fd5b505050506040513d601f19601f82011682018060405250810190610ad591906122f7565b73ffffffffffffffffffffffffffffffffffffffff1614610b2b576040517f08c379a0000000000000000000000000000000000000000000000000000000008152600401610b2290612396565b60405180910390fd5b81600760008581526020019081526020016000209081610b4b9190612558565b50827f9712707a2e403bc54946195ac5c49e7fc9ffeb5e23984f9441635e040f23dd7883604051610b7c9190611ac5565b60405180910390a2505050565b823373ffffffffffffffffffffffffffffffffffffffff16600160009054906101000a900473ffffffffffffffffffffffffffffffffffffffff1673ffffffffffffffffffffffffffffffffffffffff16636352211e836040518263ffffffff1660e01b8152600401610bfc9190611c87565b602060405180830381865afa158015610c19573d6000803e3d6000fd5b505050506040513d601f19601f82011682018060405250810190610c3d91906122f7565b73ffffffffffffffffffffffffffffffffffffffff1614610c93576040517f08c379a0000000000000000000000000000000000000000000000000000000008152600401610c8a90612396565b60405180910390fd5b6000600460008681526020019081526020016000205414610ce9576040517f08c379a0000000000000000000000000000000000000000000000000000000008152600401610ce090612676565b60405180910390fd5b6040518060800160405280858152602001848152602001600073ffffffffffffffffffffffffffffffffffffffff1681526020018342610d299190612696565b81525060066000868152602001908152602001600020600082015181600001556020820151816001015560408201518160020160006101000a81548173ffffffffffffffffffffffffffffffffffffffff021916908373ffffffffffffffffffffffffffffffffffffffff16021790555060608201518160030155905050837f44c53be110c6aa83aa83cd02e351ed172359268272ee1b5d31c0fe48db35c6c7848442610dd69190612696565b604051610de49291906126ca565b60405180910390a250505050565b60066020528060005260406000206000915090508060000154908060010154908060020160009054906101000a900473ffffffffffffffffffffffffffffffffffffffff16908060030154905084565b600360009054906101000a900473ffffffffffffffffffffffffffffffffffffffff1673ffffffffffffffffffffffffffffffffffffffff163373ffffffffffffffffffffffffffffffffffffffff1614610ed2576040517f08c379a0000000000000000000000000000000000000000000000000000000008152600401610ec990612765565b60405180910390fd5b8060028190555050565b813373ffffffffffffffffffffffffffffffffffffffff16600160009054906101000a900473ffffffffffffffffffffffffffffffffffffffff1673ffffffffffffffffffffffffffffffffffffffff16636352211e836040518263ffffffff1660e01b8152600401610f4f9190611c87565b602060405180830381865afa158015610f6c573d6000803e3d6000fd5b505050506040513d601f19601f82011682018060405250810190610f9091906122f7565b73ffffffffffffffffffffffffffffffffffffffff1614610fe6576040517f08c379a0000000000000000000000000000000000000000000000000000000008152600401610fdd90612396565b60405180910390fd5b816004600085815260200190815260200160002081905550336005600085815260200190815260200160002060006101000a81548173ffffffffffffffffffffffffffffffffffffffff021916908373ffffffffffffffffffffffffffffffffffffffff160217905550827fd2ab19646d6f9fdd37206f962b4ebaab8a4a23ad87f7695e7e1736803cb8bf748333604051611082929190612785565b60405180910390a2505050565b60056020528060005260406000206000915054906101000a900473ffffffffffffffffffffffffffffffffffffffff1681565b80600660008281526020019081526020016000206003015442101561111c576040517f08c379a0000000000000000000000000000000000000000000000000000000008152600401611113906127fa565b60405180910390fd5b600060066000848152602001908152602001600020905060008160020160009054906101000a900473ffffffffffffffffffffffffffffffffffffffff169050600082600101549050600073ffffffffffffffffffffffffffffffffffffffff168273ffffffffffffffffffffffffffffffffffffffff161461137d5760006064600254836111ab91906120ae565b6111b5919061211f565b9050600081836111c59190612150565b9050611234600360009054906101000a900473ffffffffffffffffffffffffffffffffffffffff168360008054906101000a900473ffffffffffffffffffffffffffffffffffffffff1673ffffffffffffffffffffffffffffffffffffffff1661189d9092919063ffffffff16565b6112b26005600089815260200190815260200160002060009054906101000a900473ffffffffffffffffffffffffffffffffffffffff168260008054906101000a900473ffffffffffffffffffffffffffffffffffffffff1673ffffffffffffffffffffffffffffffffffffffff1661189d9092919063ffffffff16565b600160009054906101000a900473ffffffffffffffffffffffffffffffffffffffff1673ffffffffffffffffffffffffffffffffffffffff166323b872dd600560008a815260200190815260200160002060009054906101000a900473ffffffffffffffffffffffffffffffffffffffff16868a6040518463ffffffff1660e01b815260040161134493929190612184565b600060405180830381600087803b15801561135e57600080fd5b505af1158015611372573d6000803e3d6000fd5b5050505050506113d3565b6006600086815260200190815260200160002060008082016000905560018201600090556002820160006101000a81549073ffffffffffffffffffffffffffffffffffffffff0219169055600382016000905550505b847fd2aa34a4fdbbc6dff6a3e56f46e0f3ae2a31d7785ff3487aa5c95c642acea50183836040516114059291906121bb565b60405180910390a25050505050565b600160009054906101000a900473ffffffffffffffffffffffffffffffffffffffff1681565b600360009054906101000a900473ffffffffffffffffffffffffffffffffffffffff1673ffffffffffffffffffffffffffffffffffffffff163373ffffffffffffffffffffffffffffffffffffffff16146114ca576040517f08c379a00000000000000000000000000000000000000000000000000000000081526004016114c190612866565b60405180910390fd5b80600360006101000a81548173ffffffffffffffffffffffffffffffffffffffff021916908373ffffffffffffffffffffffffffffffffffffffff16021790555050565b60008054906101000a900473ffffffffffffffffffffffffffffffffffffffff1681565b6000600460008481526020019081526020016000205490508082101561158d576040517f08c379a0000000000000000000000000000000000000000000000000000000008152600401611584906128d2565b60405180910390fd5b600060646002548361159f91906120ae565b6115a9919061211f565b9050600081836115b99190612150565b905061162a33600360009054906101000a900473ffffffffffffffffffffffffffffffffffffffff168460008054906101000a900473ffffffffffffffffffffffffffffffffffffffff1673ffffffffffffffffffffffffffffffffffffffff1661181b909392919063ffffffff16565b6116aa336005600088815260200190815260200160002060009054906101000a900473ffffffffffffffffffffffffffffffffffffffff168360008054906101000a900473ffffffffffffffffffffffffffffffffffffffff1673ffffffffffffffffffffffffffffffffffffffff1661181b909392919063ffffffff16565b600160009054906101000a900473ffffffffffffffffffffffffffffffffffffffff1673ffffffffffffffffffffffffffffffffffffffff166323b872dd6005600088815260200190815260200160002060009054906101000a900473ffffffffffffffffffffffffffffffffffffffff1633886040518463ffffffff1660e01b815260040161173c93929190612184565b600060405180830381600087803b15801561175657600080fd5b505af115801561176a573d6000803e3d6000fd5b505050506000600460008781526020019081526020016000208190555060006005600087815260200190815260200160002060006101000a81548173ffffffffffffffffffffffffffffffffffffffff021916908373ffffffffffffffffffffffffffffffffffffffff160217905550847f6329e40c0365262ebbff5ca819385c2b9713dcaa050ed07866d72c441395699a338560405161180c9291906121bb565b60405180910390a25050505050565b611897848573ffffffffffffffffffffffffffffffffffffffff166323b872dd86868660405160240161185093929190612184565b604051602081830303815290604052915060e01b6020820180517bffffffffffffffffffffffffffffffffffffffffffffffffffffffff838183161783525050505061191c565b50505050565b611917838473ffffffffffffffffffffffffffffffffffffffff1663a9059cbb85856040516024016118d09291906121bb565b604051602081830303815290604052915060e01b6020820180517bffffffffffffffffffffffffffffffffffffffffffffffffffffffff838183161783525050505061191c565b505050565b600080602060008451602086016000885af18061193f576040513d6000823e3d81fd5b3d92506000519150506000821461195a576001811415611976565b60008473ffffffffffffffffffffffffffffffffffffffff163b145b156119b857836040517f5274afe70000000000000000000000000000000000000000000000000000000081526004016119af9190611ce3565b60405180910390fd5b50505050565b6000604051905090565b600080fd5b600080fd5b6000819050919050565b6119e5816119d2565b81146119f057600080fd5b50565b600081359050611a02816119dc565b92915050565b600060208284031215611a1e57611a1d6119c8565b5b6000611a2c848285016119f3565b91505092915050565b600081519050919050565b600082825260208201905092915050565b60005b83811015611a6f578082015181840152602081019050611a54565b60008484015250505050565b6000601f19601f8301169050919050565b6000611a9782611a35565b611aa18185611a40565b9350611ab1818560208601611a51565b611aba81611a7b565b840191505092915050565b60006020820190508181036000830152611adf8184611a8c565b905092915050565b600080fd5b600080fd5b7f4e487b7100000000000000000000000000000000000000000000000000000000600052604160045260246000fd5b611b2982611a7b565b810181811067ffffffffffffffff82111715611b4857611b47611af1565b5b80604052505050565b6000611b5b6119be565b9050611b678282611b20565b919050565b600067ffffffffffffffff821115611b8757611b86611af1565b5b611b9082611a7b565b9050602081019050919050565b82818337600083830152505050565b6000611bbf611bba84611b6c565b611b51565b905082815260208101848484011115611bdb57611bda611aec565b5b611be6848285611b9d565b509392505050565b600082601f830112611c0357611c02611ae7565b5b8135611c13848260208601611bac565b91505092915050565b60008060408385031215611c3357611c326119c8565b5b600083013567ffffffffffffffff811115611c5157611c506119cd565b5b611c5d85828601611bee565b9250506020611c6e858286016119f3565b9150509250929050565b611c81816119d2565b82525050565b6000602082019050611c9c6000830184611c78565b92915050565b600073ffffffffffffffffffffffffffffffffffffffff82169050919050565b6000611ccd82611ca2565b9050919050565b611cdd81611cc2565b82525050565b6000602082019050611cf86000830184611cd4565b92915050565b60008060408385031215611d1557611d146119c8565b5b6000611d23858286016119f3565b9250506020611d34858286016119f3565b9150509250929050565b60008060408385031215611d5557611d546119c8565b5b6000611d63858286016119f3565b925050602083013567ffffffffffffffff811115611d8457611d836119cd565b5b611d9085828601611bee565b9150509250929050565b600080600060608486031215611db357611db26119c8565b5b6000611dc1868287016119f3565b9350506020611dd2868287016119f3565b9250506040611de3868287016119f3565b9150509250925092565b6000608082019050611e026000830187611c78565b611e0f6020830186611c78565b611e1c6040830185611cd4565b611e296060830184611c78565b95945050505050565b6000819050919050565b6000611e57611e52611e4d84611ca2565b611e32565b611ca2565b9050919050565b6000611e6982611e3c565b9050919050565b6000611e7b82611e5e565b9050919050565b611e8b81611e70565b82525050565b6000602082019050611ea66000830184611e82565b92915050565b611eb581611cc2565b8114611ec057600080fd5b50565b600081359050611ed281611eac565b92915050565b600060208284031215611eee57611eed6119c8565b5b6000611efc84828501611ec3565b91505092915050565b6000611f1082611e5e565b9050919050565b611f2081611f05565b82525050565b6000602082019050611f3b6000830184611f17565b92915050565b7f4e487b7100000000000000000000000000000000000000000000000000000000600052602260045260246000fd5b60006002820490506001821680611f8857607f821691505b602082108103611f9b57611f9a611f41565b5b50919050565b6000604082019050611fb66000830185611cd4565b8181036020830152611fc88184611a8c565b90509392505050565b600081519050611fe0816119dc565b92915050565b600060208284031215611ffc57611ffb6119c8565b5b600061200a84828501611fd1565b91505092915050565b7f4e4654206e6f7420666f722073616c6500000000000000000000000000000000600082015250565b6000612049601083611a40565b915061205482612013565b602082019050919050565b600060208201905081810360008301526120788161203c565b9050919050565b7f4e487b7100000000000000000000000000000000000000000000000000000000600052601160045260246000fd5b60006120b9826119d2565b91506120c4836119d2565b92508282026120d2816119d2565b915082820484148315176120e9576120e861207f565b5b5092915050565b7f4e487b7100000000000000000000000000000000000000000000000000000000600052601260045260246000fd5b600061212a826119d2565b9150612135836119d2565b925082612145576121446120f0565b5b828204905092915050565b600061215b826119d2565b9150612166836119d2565b925082820390508181111561217e5761217d61207f565b5b92915050565b60006060820190506121996000830186611cd4565b6121a66020830185611cd4565b6121b36040830184611c78565b949350505050565b60006040820190506121d06000830185611cd4565b6121dd6020830184611c78565b9392505050565b7f41756374696f6e20656e64656400000000000000000000000000000000000000600082015250565b600061221a600d83611a40565b9150612225826121e4565b602082019050919050565b600060208201905081810360008301526122498161220d565b9050919050565b7f426964206d75737420626520686967686572207468616e20746865206375727260008201527f656e742062696400000000000000000000000000000000000000000000000000602082015250565b60006122ac602783611a40565b91506122b782612250565b604082019050919050565b600060208201905081810360008301526122db8161229f565b9050919050565b6000815190506122f181611eac565b92915050565b60006020828403121561230d5761230c6119c8565b5b600061231b848285016122e2565b91505092915050565b7f4f6e6c79206f776e65722063616e20706572666f726d2074686973206163746960008201527f6f6e000000000000000000000000000000000000000000000000000000000000602082015250565b6000612380602283611a40565b915061238b82612324565b604082019050919050565b600060208201905081810360008301526123af81612373565b9050919050565b60008190508160005260206000209050919050565b60006020601f8301049050919050565b600082821b905092915050565b6000600883026124187fffffffffffffffffffffffffffffffffffffffffffffffffffffffffffffffff826123db565b61242286836123db565b95508019841693508086168417925050509392505050565b600061245561245061244b846119d2565b611e32565b6119d2565b9050919050565b6000819050919050565b61246f8361243a565b61248361247b8261245c565b8484546123e8565b825550505050565b600090565b61249861248b565b6124a3818484612466565b505050565b5b818110156124c7576124bc600082612490565b6001810190506124a9565b5050565b601f82111561250c576124dd816123b6565b6124e6846123cb565b810160208510156124f5578190505b612509612501856123cb565b8301826124a8565b50505b505050565b600082821c905092915050565b600061252f60001984600802612511565b1980831691505092915050565b6000612548838361251e565b9150826002028217905092915050565b61256182611a35565b67ffffffffffffffff81111561257a57612579611af1565b5b6125848254611f70565b61258f8282856124cb565b600060209050601f8311600181146125c257600084156125b0578287015190505b6125ba858261253c565b865550612622565b601f1984166125d0866123b6565b60005b828110156125f8578489015182556001820191506020850194506020810190506125d3565b868310156126155784890151612611601f89168261251e565b8355505b6001600288020188555050505b505050505050565b7f4e465420616c7265616479206c697374656420666f722073616c650000000000600082015250565b6000612660601b83611a40565b915061266b8261262a565b602082019050919050565b6000602082019050818103600083015261268f81612653565b9050919050565b60006126a1826119d2565b91506126ac836119d2565b92508282019050808211156126c4576126c361207f565b5b92915050565b60006040820190506126df6000830185611c78565b6126ec6020830184611c78565b9392505050565b7f4f6e6c792066656520726563697069656e742063616e206368616e676520666560008201527f6500000000000000000000000000000000000000000000000000000000000000602082015250565b600061274f602183611a40565b915061275a826126f3565b604082019050919050565b6000602082019050818103600083015261277e81612742565b9050919050565b600060408201905061279a6000830185611c78565b6127a76020830184611cd4565b9392505050565b7f41756374696f6e206e6f742079657420656e6465640000000000000000000000600082015250565b60006127e4601583611a40565b91506127ef826127ae565b602082019050919050565b60006020820190508181036000830152612813816127d7565b9050919050565b7f4f6e6c792066656520726563697069656e742063616e206368616e6765000000600082015250565b6000612850601d83611a40565b915061285b8261281a565b602082019050919050565b6000602082019050818103600083015261287f81612843565b9050919050565b7f496e73756666696369656e7420746f6b656e2062616c616e6365000000000000600082015250565b60006128bc601a83611a40565b91506128c782612886565b602082019050919050565b600060208201905081810360008301526128eb816128af565b905091905056fea2646970667358221220915063ae8efa68181adda33b1bcb158730eddc37ff37dd78e89fe20a55b28a5b64736f6c634300081c0033",
  "linkReferences": {},
  "deployedLinkReferences": {}
}