{
  "_format": "hh-sol-artifact-1",
  "contractName": "NFTMarketplace",
  "sourceName": "contracts/MarketPlace.sol",
  "abi": [
    {
      "inputs": [
        {
          "internalType": "address",
          "name": "_nftContract",
          "type": "address"
        },
        {
          "internalType": "address",
          "name": "_token",
          "type": "address"
        },
        {
          "internalType": "address",
          "name": "_feeRecipient",
          "type": "address"
        }
      ],
      "stateMutability": "nonpayable",
      "type": "constructor"
    },
    {
      "anonymous": false,
      "inputs": [
        {
          "indexed": true,
          "internalType": "uint256",
          "name": "tokenId",
          "type": "uint256"
        },
        {
          "indexed": false,
          "internalType": "address",
          "name": "winner",
          "type": "address"
        },
        {
          "indexed": false,
          "internalType": "uint256",
          "name": "finalBid",
          "type": "uint256"
        }
      ],
      "name": "AuctionEnded",
      "type": "event"
    },
    {
      "anonymous": false,
      "inputs": [
        {
          "indexed": true,
          "internalType": "uint256",
          "name": "tokenId",
          "type": "uint256"
        },
        {
          "indexed": false,
          "internalType": "uint256",
          "name": "startingBid",
          "type": "uint256"
        },
        {
          "indexed": false,
          "internalType": "uint256",
          "name": "endTime",
          "type": "uint256"
        }
      ],
      "name": "AuctionStarted",
      "type": "event"
    },
    {
      "anonymous": false,
      "inputs": [
        {
          "indexed": true,
          "internalType": "uint256",
          "name": "tokenId",
          "type": "uint256"
        },
        {
          "indexed": false,
          "internalType": "address",
          "name": "bidder",
          "type": "address"
        },
        {
          "indexed": false,
          "internalType": "uint256",
          "name": "bidAmount",
          "type": "uint256"
        }
      ],
      "name": "BidPlaced",
      "type": "event"
    },
    {
      "anonymous": false,
      "inputs": [
        {
          "indexed": true,
          "internalType": "uint256",
          "name": "tokenId",
          "type": "uint256"
        },
        {
          "indexed": false,
          "internalType": "uint256",
          "name": "price",
          "type": "uint256"
        },
        {
          "indexed": false,
          "internalType": "address",
          "name": "seller",
          "type": "address"
        }
      ],
      "name": "NFTListed",
      "type": "event"
    },
    {
      "anonymous": false,
      "inputs": [
        {
          "indexed": true,
          "internalType": "uint256",
          "name": "tokenId",
          "type": "uint256"
        },
        {
          "indexed": false,
          "internalType": "address",
          "name": "buyer",
          "type": "address"
        },
        {
          "indexed": false,
          "internalType": "uint256",
          "name": "price",
          "type": "uint256"
        }
      ],
      "name": "NFTSold",
      "type": "event"
    },
    {
      "anonymous": false,
      "inputs": [
        {
          "indexed": true,
          "internalType": "uint256",
          "name": "tokenId",
          "type": "uint256"
        },
        {
          "indexed": false,
          "internalType": "string",
          "name": "newMetadata",
          "type": "string"
        }
      ],
      "name": "NFTUpgraded",
      "type": "event"
    },
    {
      "inputs": [
        {
          "internalType": "uint256",
          "name": "tokenId",
          "type": "uint256"
        }
      ],
      "name": "buyNFT",
      "outputs": [],
      "stateMutability": "nonpayable",
      "type": "function"
    },
    {
      "inputs": [
        {
          "internalType": "uint256",
          "name": "tokenId",
          "type": "uint256"
        },
        {
          "internalType": "uint256",
          "name": "amount",
          "type": "uint256"
        }
      ],
      "name": "buyNFTWithToken",
      "outputs": [],
      "stateMutability": "nonpayable",
      "type": "function"
    },
    {
      "inputs": [
        {
          "internalType": "uint256",
          "name": "tokenId",
          "type": "uint256"
        }
      ],
      "name": "endAuction",
      "outputs": [],
      "stateMutability": "nonpayable",
      "type": "function"
    },
    {
      "inputs": [],
      "name": "feeRecipient",
      "outputs": [
        {
          "internalType": "address",
          "name": "",
          "type": "address"
        }
      ],
      "stateMutability": "view",
      "type": "function"
    },
    {
      "inputs": [
        {
          "internalType": "uint256",
          "name": "tokenId",
          "type": "uint256"
        },
        {
          "internalType": "uint256",
          "name": "price",
          "type": "uint256"
        }
      ],
      "name": "listNFTForSale",
      "outputs": [],
      "stateMutability": "nonpayable",
      "type": "function"
    },
    {
      "inputs": [],
      "name": "marketplaceFee",
      "outputs": [
        {
          "internalType": "uint256",
          "name": "",
          "type": "uint256"
        }
      ],
      "stateMutability": "view",
      "type": "function"
    },
    {
      "inputs": [
        {
          "internalType": "string",
          "name": "metadataURI",
          "type": "string"
        },
        {
          "internalType": "uint256",
          "name": "price",
          "type": "uint256"
        }
      ],
      "name": "mintAndListNFT",
      "outputs": [
        {
          "internalType": "uint256",
          "name": "",
          "type": "uint256"
        }
      ],
      "stateMutability": "nonpayable",
      "type": "function"
    },
    {
      "inputs": [
        {
          "internalType": "uint256",
          "name": "",
          "type": "uint256"
        }
      ],
      "name": "nftAuctions",
      "outputs": [
        {
          "internalType": "uint256",
          "name": "tokenId",
          "type": "uint256"
        },
        {
          "internalType": "uint256",
          "name": "highestBid",
          "type": "uint256"
        },
        {
          "internalType": "address",
          "name": "highestBidder",
          "type": "address"
        },
        {
          "internalType": "uint256",
          "name": "endTime",
          "type": "uint256"
        }
      ],
      "stateMutability": "view",
      "type": "function"
    },
    {
      "inputs": [],
      "name": "nftContract",
      "outputs": [
        {
          "internalType": "contract IERC721",
          "name": "",
          "type": "address"
        }
      ],
      "stateMutability": "view",
      "type": "function"
    },
    {
      "inputs": [
        {
          "internalType": "uint256",
          "name": "",
          "type": "uint256"
        }
      ],
      "name": "nftPrice",
      "outputs": [
        {
          "internalType": "uint256",
          "name": "",
          "type": "uint256"
        }
      ],
      "stateMutability": "view",
      "type": "function"
    },
    {
      "inputs": [
        {
          "internalType": "uint256",
          "name": "",
          "type": "uint256"
        }
      ],
      "name": "nftSeller",
      "outputs": [
        {
          "internalType": "address",
          "name": "",
          "type": "address"
        }
      ],
      "stateMutability": "view",
      "type": "function"
    },
    {
      "inputs": [
        {
          "internalType": "uint256",
          "name": "",
          "type": "uint256"
        }
      ],
      "name": "nftUpgrades",
      "outputs": [
        {
          "internalType": "string",
          "name": "",
          "type": "string"
        }
      ],
      "stateMutability": "view",
      "type": "function"
    },
    {
      "inputs": [
        {
          "internalType": "uint256",
          "name": "tokenId",
          "type": "uint256"
        }
      ],
      "name": "placeBid",
      "outputs": [],
      "stateMutability": "payable",
      "type": "function"
    },
    {
      "inputs": [
        {
          "internalType": "address",
          "name": "newFeeRecipient",
          "type": "address"
        }
      ],
      "name": "setFeeRecipient",
      "outputs": [],
      "stateMutability": "nonpayable",
      "type": "function"
    },
    {
      "inputs": [
        {
          "internalType": "uint256",
          "name": "newFee",
          "type": "uint256"
        }
      ],
      "name": "setMarketplaceFee",
      "outputs": [],
      "stateMutability": "nonpayable",
      "type": "function"
    },
    {
      "inputs": [
        {
          "internalType": "uint256",
          "name": "tokenId",
          "type": "uint256"
        },
        {
          "internalType": "uint256",
          "name": "startingBid",
          "type": "uint256"
        },
        {
          "internalType": "uint256",
          "name": "duration",
          "type": "uint256"
        }
      ],
      "name": "startAuction",
      "outputs": [],
      "stateMutability": "nonpayable",
      "type": "function"
    },
    {
      "inputs": [],
      "name": "token",
      "outputs": [
        {
          "internalType": "contract IERC20",
          "name": "",
          "type": "address"
        }
      ],
      "stateMutability": "view",
      "type": "function"
    },
    {
      "inputs": [
        {
          "internalType": "uint256",
          "name": "tokenId",
          "type": "uint256"
        },
        {
          "internalType": "string",
          "name": "newMetadata",
          "type": "string"
        }
      ],
      "name": "upgradeNFT",
      "outputs": [],
      "stateMutability": "nonpayable",
      "type": "function"
    }
  ],
  "bytecode": "0x60806040526002805534801561001457600080fd5b50604051612aa2380380612aa283398181016040528101906100369190610163565b82600160006101000a81548173ffffffffffffffffffffffffffffffffffffffff021916908373ffffffffffffffffffffffffffffffffffffffff160217905550816000806101000a81548173ffffffffffffffffffffffffffffffffffffffff021916908373ffffffffffffffffffffffffffffffffffffffff16021790555080600360006101000a81548173ffffffffffffffffffffffffffffffffffffffff021916908373ffffffffffffffffffffffffffffffffffffffff1602179055505050506101b6565b600080fd5b600073ffffffffffffffffffffffffffffffffffffffff82169050919050565b600061013082610105565b9050919050565b61014081610125565b811461014b57600080fd5b50565b60008151905061015d81610137565b92915050565b60008060006060848603121561017c5761017b610100565b5b600061018a8682870161014e565b935050602061019b8682870161014e565b92505060406101ac8682870161014e565b9150509250925092565b6128dd806101c56000396000f3fe6080604052600436106101095760003560e01c80639407ea9811610095578063b9a2de3a11610064578063b9a2de3a14610381578063d56d229d146103aa578063e74b981b146103d5578063fc0c546a146103fe578063fe3d042c1461042957610109565b80639407ea98146102d65780639979ef45146102ff578063b2733b391461031b578063b87ce52b1461034457610109565b80636a166964116100dc5780636a166964146101dc5780636de2991414610207578063892ca6051461024457806391e078bb1461026d57806393cde51a1461029657610109565b80631ed98b801461010e5780632c1f5b7b1461014b578063469048401461018857806351ed8288146101b3575b600080fd5b34801561011a57600080fd5b5061013560048036038101906101309190611958565b610452565b6040516101429190611a15565b60405180910390f35b34801561015757600080fd5b50610172600480360381019061016d9190611b6c565b6104f2565b60405161017f9190611bd7565b60405180910390f35b34801561019457600080fd5b5061019d6105ab565b6040516101aa9190611c33565b60405180910390f35b3480156101bf57600080fd5b506101da60048036038101906101d59190611958565b6105d1565b005b3480156101e857600080fd5b506101f1610934565b6040516101fe9190611bd7565b60405180910390f35b34801561021357600080fd5b5061022e60048036038101906102299190611958565b61093a565b60405161023b9190611bd7565b60405180910390f35b34801561025057600080fd5b5061026b60048036038101906102669190611c4e565b610952565b005b34801561027957600080fd5b50610294600480360381019061028f9190611caa565b610aba565b005b3480156102a257600080fd5b506102bd60048036038101906102b89190611958565b610d23565b6040516102cd9493929190611cfd565b60405180910390f35b3480156102e257600080fd5b506102fd60048036038101906102f89190611958565b610d73565b005b61031960048036038101906103149190611958565b610e0d565b005b34801561032757600080fd5b50610342600480360381019061033d9190611d42565b611002565b005b34801561035057600080fd5b5061036b60048036038101906103669190611958565b6111b5565b6040516103789190611c33565b60405180910390f35b34801561038d57600080fd5b506103a860048036038101906103a39190611958565b6111e8565b005b3480156103b657600080fd5b506103bf61145f565b6040516103cc9190611de1565b60405180910390f35b3480156103e157600080fd5b506103fc60048036038101906103f79190611e28565b611485565b005b34801561040a57600080fd5b50610413611559565b6040516104209190611e76565b60405180910390f35b34801561043557600080fd5b50610450600480360381019061044b9190611d42565b61157d565b005b6007602052806000526040600020600091509050805461047190611ec0565b80601f016020809104026020016040519081016040528092919081815260200182805461049d90611ec0565b80156104ea5780601f106104bf576101008083540402835291602001916104ea565b820191906000526020600020905b8154815290600101906020018083116104cd57829003601f168201915b505050505081565b600080600160009054906101000a900473ffffffffffffffffffffffffffffffffffffffff1673ffffffffffffffffffffffffffffffffffffffff1663d0def52133866040518363ffffffff1660e01b8152600401610552929190611ef1565b6020604051808303816000875af1158015610571573d6000803e3d6000fd5b505050506040513d601f19601f820116820180604052508101906105959190611f36565b90506105a18184611002565b8091505092915050565b600360009054906101000a900473ffffffffffffffffffffffffffffffffffffffff1681565b60006004600083815260200190815260200160002054905060006005600084815260200190815260200160002060009054906101000a900473ffffffffffffffffffffffffffffffffffffffff16905060008211610664576040517f08c379a000000000000000000000000000000000000000000000000000000000815260040161065b90611faf565b60405180910390fd5b60006064600254846106769190611ffe565b610680919061206f565b90506000818461069091906120a0565b905060008054906101000a900473ffffffffffffffffffffffffffffffffffffffff1673ffffffffffffffffffffffffffffffffffffffff166323b872dd33600360009054906101000a900473ffffffffffffffffffffffffffffffffffffffff16856040518463ffffffff1660e01b8152600401610711939291906120d4565b6020604051808303816000875af1158015610730573d6000803e3d6000fd5b505050506040513d601f19601f820116820180604052508101906107549190612143565b5060008054906101000a900473ffffffffffffffffffffffffffffffffffffffff1673ffffffffffffffffffffffffffffffffffffffff166323b872dd3385846040518463ffffffff1660e01b81526004016107b2939291906120d4565b6020604051808303816000875af11580156107d1573d6000803e3d6000fd5b505050506040513d601f19601f820116820180604052508101906107f59190612143565b50600160009054906101000a900473ffffffffffffffffffffffffffffffffffffffff1673ffffffffffffffffffffffffffffffffffffffff166323b872dd8433886040518463ffffffff1660e01b8152600401610855939291906120d4565b600060405180830381600087803b15801561086f57600080fd5b505af1158015610883573d6000803e3d6000fd5b505050506000600460008781526020019081526020016000208190555060006005600087815260200190815260200160002060006101000a81548173ffffffffffffffffffffffffffffffffffffffff021916908373ffffffffffffffffffffffffffffffffffffffff160217905550847f6329e40c0365262ebbff5ca819385c2b9713dcaa050ed07866d72c441395699a3386604051610925929190612170565b60405180910390a25050505050565b60025481565b60046020528060005260406000206000915090505481565b813373ffffffffffffffffffffffffffffffffffffffff16600160009054906101000a900473ffffffffffffffffffffffffffffffffffffffff1673ffffffffffffffffffffffffffffffffffffffff16636352211e836040518263ffffffff1660e01b81526004016109c59190611bd7565b602060405180830381865afa1580156109e2573d6000803e3d6000fd5b505050506040513d601f19601f82011682018060405250810190610a0691906121ae565b73ffffffffffffffffffffffffffffffffffffffff1614610a5c576040517f08c379a0000000000000000000000000000000000000000000000000000000008152600401610a539061224d565b60405180910390fd5b81600760008581526020019081526020016000209081610a7c919061240f565b50827f9712707a2e403bc54946195ac5c49e7fc9ffeb5e23984f9441635e040f23dd7883604051610aad9190611a15565b60405180910390a2505050565b823373ffffffffffffffffffffffffffffffffffffffff16600160009054906101000a900473ffffffffffffffffffffffffffffffffffffffff1673ffffffffffffffffffffffffffffffffffffffff16636352211e836040518263ffffffff1660e01b8152600401610b2d9190611bd7565b602060405180830381865afa158015610b4a573d6000803e3d6000fd5b505050506040513d601f19601f82011682018060405250810190610b6e91906121ae565b73ffffffffffffffffffffffffffffffffffffffff1614610bc4576040517f08c379a0000000000000000000000000000000000000000000000000000000008152600401610bbb9061224d565b60405180910390fd5b6000600460008681526020019081526020016000205414610c1a576040517f08c379a0000000000000000000000000000000000000000000000000000000008152600401610c119061252d565b60405180910390fd5b6040518060800160405280858152602001848152602001600073ffffffffffffffffffffffffffffffffffffffff1681526020018342610c5a919061254d565b81525060066000868152602001908152602001600020600082015181600001556020820151816001015560408201518160020160006101000a81548173ffffffffffffffffffffffffffffffffffffffff021916908373ffffffffffffffffffffffffffffffffffffffff16021790555060608201518160030155905050837f44c53be110c6aa83aa83cd02e351ed172359268272ee1b5d31c0fe48db35c6c7848442610d07919061254d565b604051610d15929190612581565b60405180910390a250505050565b60066020528060005260406000206000915090508060000154908060010154908060020160009054906101000a900473ffffffffffffffffffffffffffffffffffffffff16908060030154905084565b600360009054906101000a900473ffffffffffffffffffffffffffffffffffffffff1673ffffffffffffffffffffffffffffffffffffffff163373ffffffffffffffffffffffffffffffffffffffff1614610e03576040517f08c379a0000000000000000000000000000000000000000000000000000000008152600401610dfa9061261c565b60405180910390fd5b8060028190555050565b600060066000838152602001908152602001600020905080600301544210610e6a576040517f08c379a0000000000000000000000000000000000000000000000000000000008152600401610e6190612688565b60405180910390fd5b80600101543411610eb0576040517f08c379a0000000000000000000000000000000000000000000000000000000008152600401610ea79061271a565b60405180910390fd5b600073ffffffffffffffffffffffffffffffffffffffff168160020160009054906101000a900473ffffffffffffffffffffffffffffffffffffffff1673ffffffffffffffffffffffffffffffffffffffff1614610f78578060020160009054906101000a900473ffffffffffffffffffffffffffffffffffffffff1673ffffffffffffffffffffffffffffffffffffffff166108fc82600101549081150290604051600060405180830381858888f19350505050158015610f76573d6000803e3d6000fd5b505b348160010181905550338160020160006101000a81548173ffffffffffffffffffffffffffffffffffffffff021916908373ffffffffffffffffffffffffffffffffffffffff160217905550817f0e54eff26401bf69b81b26f60bd85ef47f5d85275c1d268d84f68d6897431c473334604051610ff6929190612170565b60405180910390a25050565b813373ffffffffffffffffffffffffffffffffffffffff16600160009054906101000a900473ffffffffffffffffffffffffffffffffffffffff1673ffffffffffffffffffffffffffffffffffffffff16636352211e836040518263ffffffff1660e01b81526004016110759190611bd7565b602060405180830381865afa158015611092573d6000803e3d6000fd5b505050506040513d601f19601f820116820180604052508101906110b691906121ae565b73ffffffffffffffffffffffffffffffffffffffff161461110c576040517f08c379a00000000000000000000000000000000000000000000000000000000081526004016111039061224d565b60405180910390fd5b816004600085815260200190815260200160002081905550336005600085815260200190815260200160002060006101000a81548173ffffffffffffffffffffffffffffffffffffffff021916908373ffffffffffffffffffffffffffffffffffffffff160217905550827fd2ab19646d6f9fdd37206f962b4ebaab8a4a23ad87f7695e7e1736803cb8bf7483336040516111a892919061273a565b60405180910390a2505050565b60056020528060005260406000206000915054906101000a900473ffffffffffffffffffffffffffffffffffffffff1681565b806006600082815260200190815260200160002060030154421015611242576040517f08c379a0000000000000000000000000000000000000000000000000000000008152600401611239906127af565b60405180910390fd5b600060066000848152602001908152602001600020905060008160020160009054906101000a900473ffffffffffffffffffffffffffffffffffffffff169050600082600101549050600160009054906101000a900473ffffffffffffffffffffffffffffffffffffffff1673ffffffffffffffffffffffffffffffffffffffff166323b872dd6005600088815260200190815260200160002060009054906101000a900473ffffffffffffffffffffffffffffffffffffffff1684886040518463ffffffff1660e01b815260040161131d939291906120d4565b600060405180830381600087803b15801561133757600080fd5b505af115801561134b573d6000803e3d6000fd5b505050506005600086815260200190815260200160002060009054906101000a900473ffffffffffffffffffffffffffffffffffffffff1673ffffffffffffffffffffffffffffffffffffffff166108fc829081150290604051600060405180830381858888f193505050501580156113c8573d6000803e3d6000fd5b506006600086815260200190815260200160002060008082016000905560018201600090556002820160006101000a81549073ffffffffffffffffffffffffffffffffffffffff021916905560038201600090555050847fd2aa34a4fdbbc6dff6a3e56f46e0f3ae2a31d7785ff3487aa5c95c642acea5018383604051611450929190612170565b60405180910390a25050505050565b600160009054906101000a900473ffffffffffffffffffffffffffffffffffffffff1681565b600360009054906101000a900473ffffffffffffffffffffffffffffffffffffffff1673ffffffffffffffffffffffffffffffffffffffff163373ffffffffffffffffffffffffffffffffffffffff1614611515576040517f08c379a000000000000000000000000000000000000000000000000000000000815260040161150c9061281b565b60405180910390fd5b80600360006101000a81548173ffffffffffffffffffffffffffffffffffffffff021916908373ffffffffffffffffffffffffffffffffffffffff16021790555050565b60008054906101000a900473ffffffffffffffffffffffffffffffffffffffff1681565b600060046000848152602001908152602001600020549050808210156115d8576040517f08c379a00000000000000000000000000000000000000000000000000000000081526004016115cf90612887565b60405180910390fd5b60006064600254836115ea9190611ffe565b6115f4919061206f565b90506000818361160491906120a0565b905060008054906101000a900473ffffffffffffffffffffffffffffffffffffffff1673ffffffffffffffffffffffffffffffffffffffff166323b872dd33600360009054906101000a900473ffffffffffffffffffffffffffffffffffffffff16856040518463ffffffff1660e01b8152600401611685939291906120d4565b6020604051808303816000875af11580156116a4573d6000803e3d6000fd5b505050506040513d601f19601f820116820180604052508101906116c89190612143565b5060008054906101000a900473ffffffffffffffffffffffffffffffffffffffff1673ffffffffffffffffffffffffffffffffffffffff166323b872dd336005600089815260200190815260200160002060009054906101000a900473ffffffffffffffffffffffffffffffffffffffff16846040518463ffffffff1660e01b8152600401611759939291906120d4565b6020604051808303816000875af1158015611778573d6000803e3d6000fd5b505050506040513d601f19601f8201168201806040525081019061179c9190612143565b50600160009054906101000a900473ffffffffffffffffffffffffffffffffffffffff1673ffffffffffffffffffffffffffffffffffffffff166323b872dd6005600088815260200190815260200160002060009054906101000a900473ffffffffffffffffffffffffffffffffffffffff1633886040518463ffffffff1660e01b815260040161182f939291906120d4565b600060405180830381600087803b15801561184957600080fd5b505af115801561185d573d6000803e3d6000fd5b505050506000600460008781526020019081526020016000208190555060006005600087815260200190815260200160002060006101000a81548173ffffffffffffffffffffffffffffffffffffffff021916908373ffffffffffffffffffffffffffffffffffffffff160217905550847f6329e40c0365262ebbff5ca819385c2b9713dcaa050ed07866d72c441395699a33856040516118ff929190612170565b60405180910390a25050505050565b6000604051905090565b600080fd5b600080fd5b6000819050919050565b61193581611922565b811461194057600080fd5b50565b6000813590506119528161192c565b92915050565b60006020828403121561196e5761196d611918565b5b600061197c84828501611943565b91505092915050565b600081519050919050565b600082825260208201905092915050565b60005b838110156119bf5780820151818401526020810190506119a4565b60008484015250505050565b6000601f19601f8301169050919050565b60006119e782611985565b6119f18185611990565b9350611a018185602086016119a1565b611a0a816119cb565b840191505092915050565b60006020820190508181036000830152611a2f81846119dc565b905092915050565b600080fd5b600080fd5b7f4e487b7100000000000000000000000000000000000000000000000000000000600052604160045260246000fd5b611a79826119cb565b810181811067ffffffffffffffff82111715611a9857611a97611a41565b5b80604052505050565b6000611aab61190e565b9050611ab78282611a70565b919050565b600067ffffffffffffffff821115611ad757611ad6611a41565b5b611ae0826119cb565b9050602081019050919050565b82818337600083830152505050565b6000611b0f611b0a84611abc565b611aa1565b905082815260208101848484011115611b2b57611b2a611a3c565b5b611b36848285611aed565b509392505050565b600082601f830112611b5357611b52611a37565b5b8135611b63848260208601611afc565b91505092915050565b60008060408385031215611b8357611b82611918565b5b600083013567ffffffffffffffff811115611ba157611ba061191d565b5b611bad85828601611b3e565b9250506020611bbe85828601611943565b9150509250929050565b611bd181611922565b82525050565b6000602082019050611bec6000830184611bc8565b92915050565b600073ffffffffffffffffffffffffffffffffffffffff82169050919050565b6000611c1d82611bf2565b9050919050565b611c2d81611c12565b82525050565b6000602082019050611c486000830184611c24565b92915050565b60008060408385031215611c6557611c64611918565b5b6000611c7385828601611943565b925050602083013567ffffffffffffffff811115611c9457611c9361191d565b5b611ca085828601611b3e565b9150509250929050565b600080600060608486031215611cc357611cc2611918565b5b6000611cd186828701611943565b9350506020611ce286828701611943565b9250506040611cf386828701611943565b9150509250925092565b6000608082019050611d126000830187611bc8565b611d1f6020830186611bc8565b611d2c6040830185611c24565b611d396060830184611bc8565b95945050505050565b60008060408385031215611d5957611d58611918565b5b6000611d6785828601611943565b9250506020611d7885828601611943565b9150509250929050565b6000819050919050565b6000611da7611da2611d9d84611bf2565b611d82565b611bf2565b9050919050565b6000611db982611d8c565b9050919050565b6000611dcb82611dae565b9050919050565b611ddb81611dc0565b82525050565b6000602082019050611df66000830184611dd2565b92915050565b611e0581611c12565b8114611e1057600080fd5b50565b600081359050611e2281611dfc565b92915050565b600060208284031215611e3e57611e3d611918565b5b6000611e4c84828501611e13565b91505092915050565b6000611e6082611dae565b9050919050565b611e7081611e55565b82525050565b6000602082019050611e8b6000830184611e67565b92915050565b7f4e487b7100000000000000000000000000000000000000000000000000000000600052602260045260246000fd5b60006002820490506001821680611ed857607f821691505b602082108103611eeb57611eea611e91565b5b50919050565b6000604082019050611f066000830185611c24565b8181036020830152611f1881846119dc565b90509392505050565b600081519050611f308161192c565b92915050565b600060208284031215611f4c57611f4b611918565b5b6000611f5a84828501611f21565b91505092915050565b7f4e4654206e6f7420666f722073616c6500000000000000000000000000000000600082015250565b6000611f99601083611990565b9150611fa482611f63565b602082019050919050565b60006020820190508181036000830152611fc881611f8c565b9050919050565b7f4e487b7100000000000000000000000000000000000000000000000000000000600052601160045260246000fd5b600061200982611922565b915061201483611922565b925082820261202281611922565b9150828204841483151761203957612038611fcf565b5b5092915050565b7f4e487b7100000000000000000000000000000000000000000000000000000000600052601260045260246000fd5b600061207a82611922565b915061208583611922565b92508261209557612094612040565b5b828204905092915050565b60006120ab82611922565b91506120b683611922565b92508282039050818111156120ce576120cd611fcf565b5b92915050565b60006060820190506120e96000830186611c24565b6120f66020830185611c24565b6121036040830184611bc8565b949350505050565b60008115159050919050565b6121208161210b565b811461212b57600080fd5b50565b60008151905061213d81612117565b92915050565b60006020828403121561215957612158611918565b5b60006121678482850161212e565b91505092915050565b60006040820190506121856000830185611c24565b6121926020830184611bc8565b9392505050565b6000815190506121a881611dfc565b92915050565b6000602082840312156121c4576121c3611918565b5b60006121d284828501612199565b91505092915050565b7f4f6e6c79206f776e65722063616e20706572666f726d2074686973206163746960008201527f6f6e000000000000000000000000000000000000000000000000000000000000602082015250565b6000612237602283611990565b9150612242826121db565b604082019050919050565b600060208201905081810360008301526122668161222a565b9050919050565b60008190508160005260206000209050919050565b60006020601f8301049050919050565b600082821b905092915050565b6000600883026122cf7fffffffffffffffffffffffffffffffffffffffffffffffffffffffffffffffff82612292565b6122d98683612292565b95508019841693508086168417925050509392505050565b600061230c61230761230284611922565b611d82565b611922565b9050919050565b6000819050919050565b612326836122f1565b61233a61233282612313565b84845461229f565b825550505050565b600090565b61234f612342565b61235a81848461231d565b505050565b5b8181101561237e57612373600082612347565b600181019050612360565b5050565b601f8211156123c3576123948161226d565b61239d84612282565b810160208510156123ac578190505b6123c06123b885612282565b83018261235f565b50505b505050565b600082821c905092915050565b60006123e6600019846008026123c8565b1980831691505092915050565b60006123ff83836123d5565b9150826002028217905092915050565b61241882611985565b67ffffffffffffffff81111561243157612430611a41565b5b61243b8254611ec0565b612446828285612382565b600060209050601f8311600181146124795760008415612467578287015190505b61247185826123f3565b8655506124d9565b601f1984166124878661226d565b60005b828110156124af5784890151825560018201915060208501945060208101905061248a565b868310156124cc57848901516124c8601f8916826123d5565b8355505b6001600288020188555050505b505050505050565b7f4e465420616c7265616479206c697374656420666f722073616c650000000000600082015250565b6000612517601b83611990565b9150612522826124e1565b602082019050919050565b600060208201905081810360008301526125468161250a565b9050919050565b600061255882611922565b915061256383611922565b925082820190508082111561257b5761257a611fcf565b5b92915050565b60006040820190506125966000830185611bc8565b6125a36020830184611bc8565b9392505050565b7f4f6e6c792066656520726563697069656e742063616e206368616e676520666560008201527f6500000000000000000000000000000000000000000000000000000000000000602082015250565b6000612606602183611990565b9150612611826125aa565b604082019050919050565b60006020820190508181036000830152612635816125f9565b9050919050565b7f41756374696f6e20656e64656400000000000000000000000000000000000000600082015250565b6000612672600d83611990565b915061267d8261263c565b602082019050919050565b600060208201905081810360008301526126a181612665565b9050919050565b7f426964206d75737420626520686967686572207468616e20746865206375727260008201527f656e742062696400000000000000000000000000000000000000000000000000602082015250565b6000612704602783611990565b915061270f826126a8565b604082019050919050565b60006020820190508181036000830152612733816126f7565b9050919050565b600060408201905061274f6000830185611bc8565b61275c6020830184611c24565b9392505050565b7f41756374696f6e206e6f742079657420656e6465640000000000000000000000600082015250565b6000612799601583611990565b91506127a482612763565b602082019050919050565b600060208201905081810360008301526127c88161278c565b9050919050565b7f4f6e6c792066656520726563697069656e742063616e206368616e6765000000600082015250565b6000612805601d83611990565b9150612810826127cf565b602082019050919050565b60006020820190508181036000830152612834816127f8565b9050919050565b7f496e73756666696369656e7420746f6b656e2062616c616e6365000000000000600082015250565b6000612871601a83611990565b915061287c8261283b565b602082019050919050565b600060208201905081810360008301526128a081612864565b905091905056fea2646970667358221220a06506f2e8061f47d3fa92cbf17973859d66a5cc974e6ab68c68ff8973d6e31264736f6c634300081c0033",
  "linkReferences": {},
  "deployedLinkReferences": {}
}