{
  "_format": "hh-sol-artifact-1",
  "contractName": "NFTMarketplace",
  "sourceName": "contracts/NFTMarketplace.sol",
  "abi": [
    {
      "inputs": [
        {
          "internalType": "address",
          "name": "_nftContract",
          "type": "address"
        },
        {
          "internalType": "address",
          "name": "_token",
          "type": "address"
        },
        {
          "internalType": "address",
          "name": "_feeRecipient",
          "type": "address"
        },
        {
          "internalType": "address",
          "name": "_owner",
          "type": "address"
        }
      ],
      "stateMutability": "nonpayable",
      "type": "constructor"
    },
    {
      "inputs": [
        {
          "internalType": "address",
          "name": "owner",
          "type": "address"
        }
      ],
      "name": "OwnableInvalidOwner",
      "type": "error"
    },
    {
      "inputs": [
        {
          "internalType": "address",
          "name": "account",
          "type": "address"
        }
      ],
      "name": "OwnableUnauthorizedAccount",
      "type": "error"
    },
    {
      "inputs": [
        {
          "internalType": "address",
          "name": "token",
          "type": "address"
        }
      ],
      "name": "SafeERC20FailedOperation",
      "type": "error"
    },
    {
      "anonymous": false,
      "inputs": [
        {
          "indexed": true,
          "internalType": "uint256",
          "name": "tokenId",
          "type": "uint256"
        },
        {
          "indexed": false,
          "internalType": "address",
          "name": "winner",
          "type": "address"
        },
        {
          "indexed": false,
          "internalType": "uint256",
          "name": "finalBid",
          "type": "uint256"
        }
      ],
      "name": "AuctionEnded",
      "type": "event"
    },
    {
      "anonymous": false,
      "inputs": [
        {
          "indexed": true,
          "internalType": "uint256",
          "name": "tokenId",
          "type": "uint256"
        },
        {
          "indexed": false,
          "internalType": "uint256",
          "name": "startingBid",
          "type": "uint256"
        },
        {
          "indexed": false,
          "internalType": "uint256",
          "name": "endTime",
          "type": "uint256"
        }
      ],
      "name": "AuctionStarted",
      "type": "event"
    },
    {
      "anonymous": false,
      "inputs": [
        {
          "indexed": true,
          "internalType": "uint256",
          "name": "tokenId",
          "type": "uint256"
        },
        {
          "indexed": false,
          "internalType": "address",
          "name": "bidder",
          "type": "address"
        },
        {
          "indexed": false,
          "internalType": "uint256",
          "name": "bidAmount",
          "type": "uint256"
        }
      ],
      "name": "BidPlaced",
      "type": "event"
    },
    {
      "anonymous": false,
      "inputs": [
        {
          "indexed": true,
          "internalType": "uint256",
          "name": "tokenId",
          "type": "uint256"
        },
        {
          "indexed": false,
          "internalType": "uint256",
          "name": "price",
          "type": "uint256"
        },
        {
          "indexed": false,
          "internalType": "address",
          "name": "seller",
          "type": "address"
        }
      ],
      "name": "NFTListed",
      "type": "event"
    },
    {
      "anonymous": false,
      "inputs": [
        {
          "indexed": true,
          "internalType": "uint256",
          "name": "tokenId",
          "type": "uint256"
        },
        {
          "indexed": false,
          "internalType": "address",
          "name": "buyer",
          "type": "address"
        },
        {
          "indexed": false,
          "internalType": "uint256",
          "name": "price",
          "type": "uint256"
        }
      ],
      "name": "NFTSold",
      "type": "event"
    },
    {
      "anonymous": false,
      "inputs": [
        {
          "indexed": true,
          "internalType": "uint256",
          "name": "tokenId",
          "type": "uint256"
        },
        {
          "indexed": false,
          "internalType": "string",
          "name": "newMetadata",
          "type": "string"
        }
      ],
      "name": "NFTUpgraded",
      "type": "event"
    },
    {
      "anonymous": false,
      "inputs": [
        {
          "indexed": true,
          "internalType": "address",
          "name": "previousOwner",
          "type": "address"
        },
        {
          "indexed": true,
          "internalType": "address",
          "name": "newOwner",
          "type": "address"
        }
      ],
      "name": "OwnershipTransferred",
      "type": "event"
    },
    {
      "inputs": [
        {
          "internalType": "uint256",
          "name": "tokenId",
          "type": "uint256"
        }
      ],
      "name": "buyNFT",
      "outputs": [],
      "stateMutability": "nonpayable",
      "type": "function"
    },
    {
      "inputs": [],
      "name": "feeRecipient",
      "outputs": [
        {
          "internalType": "address",
          "name": "",
          "type": "address"
        }
      ],
      "stateMutability": "view",
      "type": "function"
    },
    {
      "inputs": [
        {
          "internalType": "uint256",
          "name": "tokenId",
          "type": "uint256"
        },
        {
          "internalType": "uint256",
          "name": "price",
          "type": "uint256"
        }
      ],
      "name": "listNFTForSale",
      "outputs": [],
      "stateMutability": "nonpayable",
      "type": "function"
    },
    {
      "inputs": [],
      "name": "marketplaceFee",
      "outputs": [
        {
          "internalType": "uint256",
          "name": "",
          "type": "uint256"
        }
      ],
      "stateMutability": "view",
      "type": "function"
    },
    {
      "inputs": [
        {
          "internalType": "string",
          "name": "metadataURI",
          "type": "string"
        },
        {
          "internalType": "uint256",
          "name": "price",
          "type": "uint256"
        }
      ],
      "name": "mintAndListNFT",
      "outputs": [
        {
          "internalType": "uint256",
          "name": "",
          "type": "uint256"
        }
      ],
      "stateMutability": "nonpayable",
      "type": "function"
    },
    {
      "inputs": [
        {
          "internalType": "uint256",
          "name": "",
          "type": "uint256"
        }
      ],
      "name": "nftAuctions",
      "outputs": [
        {
          "internalType": "uint256",
          "name": "tokenId",
          "type": "uint256"
        },
        {
          "internalType": "uint256",
          "name": "highestBid",
          "type": "uint256"
        },
        {
          "internalType": "address",
          "name": "highestBidder",
          "type": "address"
        },
        {
          "internalType": "uint256",
          "name": "endTime",
          "type": "uint256"
        }
      ],
      "stateMutability": "view",
      "type": "function"
    },
    {
      "inputs": [],
      "name": "nftContract",
      "outputs": [
        {
          "internalType": "contract IERC721Mintable",
          "name": "",
          "type": "address"
        }
      ],
      "stateMutability": "view",
      "type": "function"
    },
    {
      "inputs": [
        {
          "internalType": "uint256",
          "name": "",
          "type": "uint256"
        }
      ],
      "name": "nftPrice",
      "outputs": [
        {
          "internalType": "uint256",
          "name": "",
          "type": "uint256"
        }
      ],
      "stateMutability": "view",
      "type": "function"
    },
    {
      "inputs": [
        {
          "internalType": "uint256",
          "name": "",
          "type": "uint256"
        }
      ],
      "name": "nftSeller",
      "outputs": [
        {
          "internalType": "address",
          "name": "",
          "type": "address"
        }
      ],
      "stateMutability": "view",
      "type": "function"
    },
    {
      "inputs": [
        {
          "internalType": "uint256",
          "name": "",
          "type": "uint256"
        }
      ],
      "name": "nftUpgrades",
      "outputs": [
        {
          "internalType": "string",
          "name": "",
          "type": "string"
        }
      ],
      "stateMutability": "view",
      "type": "function"
    },
    {
      "inputs": [],
      "name": "owner",
      "outputs": [
        {
          "internalType": "address",
          "name": "",
          "type": "address"
        }
      ],
      "stateMutability": "view",
      "type": "function"
    },
    {
      "inputs": [],
      "name": "renounceOwnership",
      "outputs": [],
      "stateMutability": "nonpayable",
      "type": "function"
    },
    {
      "inputs": [
        {
          "internalType": "address",
          "name": "newRecipient",
          "type": "address"
        }
      ],
      "name": "setFeeRecipient",
      "outputs": [],
      "stateMutability": "nonpayable",
      "type": "function"
    },
    {
      "inputs": [
        {
          "internalType": "uint256",
          "name": "newFee",
          "type": "uint256"
        }
      ],
      "name": "setMarketplaceFee",
      "outputs": [],
      "stateMutability": "nonpayable",
      "type": "function"
    },
    {
      "inputs": [],
      "name": "token",
      "outputs": [
        {
          "internalType": "contract IERC20",
          "name": "",
          "type": "address"
        }
      ],
      "stateMutability": "view",
      "type": "function"
    },
    {
      "inputs": [
        {
          "internalType": "address",
          "name": "newOwner",
          "type": "address"
        }
      ],
      "name": "transferOwnership",
      "outputs": [],
      "stateMutability": "nonpayable",
      "type": "function"
    }
  ],
  "bytecode": "0x6080604052600260035534801561001557600080fd5b50604051611ce5380380611ce58339818101604052810190610037919061038f565b80600073ffffffffffffffffffffffffffffffffffffffff168173ffffffffffffffffffffffffffffffffffffffff16036100aa5760006040517f1e4fbdf70000000000000000000000000000000000000000000000000000000081526004016100a19190610405565b60405180910390fd5b6100b98161026860201b60201c565b50600073ffffffffffffffffffffffffffffffffffffffff168473ffffffffffffffffffffffffffffffffffffffff16141580156101245750600073ffffffffffffffffffffffffffffffffffffffff168373ffffffffffffffffffffffffffffffffffffffff1614155b801561015d5750600073ffffffffffffffffffffffffffffffffffffffff168273ffffffffffffffffffffffffffffffffffffffff1614155b61019c576040517f08c379a00000000000000000000000000000000000000000000000000000000081526004016101939061047d565b60405180910390fd5b83600260006101000a81548173ffffffffffffffffffffffffffffffffffffffff021916908373ffffffffffffffffffffffffffffffffffffffff16021790555082600160006101000a81548173ffffffffffffffffffffffffffffffffffffffff021916908373ffffffffffffffffffffffffffffffffffffffff16021790555081600460006101000a81548173ffffffffffffffffffffffffffffffffffffffff021916908373ffffffffffffffffffffffffffffffffffffffff1602179055505050505061049d565b60008060009054906101000a900473ffffffffffffffffffffffffffffffffffffffff169050816000806101000a81548173ffffffffffffffffffffffffffffffffffffffff021916908373ffffffffffffffffffffffffffffffffffffffff1602179055508173ffffffffffffffffffffffffffffffffffffffff168173ffffffffffffffffffffffffffffffffffffffff167f8be0079c531659141344cd1fd0a4f28419497f9722a3daafe3b4186f6b6457e060405160405180910390a35050565b600080fd5b600073ffffffffffffffffffffffffffffffffffffffff82169050919050565b600061035c82610331565b9050919050565b61036c81610351565b811461037757600080fd5b50565b60008151905061038981610363565b92915050565b600080600080608085870312156103a9576103a861032c565b5b60006103b78782880161037a565b94505060206103c88782880161037a565b93505060406103d98782880161037a565b92505060606103ea8782880161037a565b91505092959194509250565b6103ff81610351565b82525050565b600060208201905061041a60008301846103f6565b92915050565b600082825260208201905092915050565b7f496e76616c696420616464726573730000000000000000000000000000000000600082015250565b6000610467600f83610420565b915061047282610431565b602082019050919050565b600060208201905081810360008301526104968161045a565b9050919050565b611839806104ac6000396000f3fe608060405234801561001057600080fd5b50600436106101005760003560e01c806393cde51a11610097578063d56d229d11610066578063d56d229d146102b0578063e74b981b146102ce578063f2fde38b146102ea578063fc0c546a1461030657610100565b806393cde51a146102155780639407ea9814610248578063b2733b3914610264578063b87ce52b1461028057610100565b80636a166964116100d35780636a1669641461019f5780636de29914146101bd578063715018a6146101ed5780638da5cb5b146101f757610100565b80631ed98b80146101055780632c1f5b7b14610135578063469048401461016557806351ed828814610183575b600080fd5b61011f600480360381019061011a9190610ebb565b610324565b60405161012c9190610f78565b60405180910390f35b61014f600480360381019061014a91906110cf565b6103c4565b60405161015c919061113a565b60405180910390f35b61016d61047d565b60405161017a9190611196565b60405180910390f35b61019d60048036038101906101989190610ebb565b6104a3565b005b6101a7610743565b6040516101b4919061113a565b60405180910390f35b6101d760048036038101906101d29190610ebb565b610749565b6040516101e4919061113a565b60405180910390f35b6101f5610761565b005b6101ff610775565b60405161020c9190611196565b60405180910390f35b61022f600480360381019061022a9190610ebb565b61079e565b60405161023f94939291906111b1565b60405180910390f35b610262600480360381019061025d9190610ebb565b6107ee565b005b61027e600480360381019061027991906111f6565b610844565b005b61029a60048036038101906102959190610ebb565b610a3a565b6040516102a79190611196565b60405180910390f35b6102b8610a6d565b6040516102c59190611295565b60405180910390f35b6102e860048036038101906102e391906112dc565b610a93565b005b61030460048036038101906102ff91906112dc565b610b4e565b005b61030e610bd4565b60405161031b919061132a565b60405180910390f35b6008602052806000526040600020600091509050805461034390611374565b80601f016020809104026020016040519081016040528092919081815260200182805461036f90611374565b80156103bc5780601f10610391576101008083540402835291602001916103bc565b820191906000526020600020905b81548152906001019060200180831161039f57829003601f168201915b505050505081565b600080600260009054906101000a900473ffffffffffffffffffffffffffffffffffffffff1673ffffffffffffffffffffffffffffffffffffffff1663d0def52133866040518363ffffffff1660e01b81526004016104249291906113a5565b6020604051808303816000875af1158015610443573d6000803e3d6000fd5b505050506040513d601f19601f8201168201806040525081019061046791906113ea565b90506104738184610844565b8091505092915050565b600460009054906101000a900473ffffffffffffffffffffffffffffffffffffffff1681565b60006005600083815260200190815260200160002054905060006006600084815260200190815260200160002060009054906101000a900473ffffffffffffffffffffffffffffffffffffffff16905060008211610536576040517f08c379a000000000000000000000000000000000000000000000000000000000815260040161052d90611463565b60405180910390fd5b600060646003548461054891906114b2565b6105529190611523565b9050600081846105629190611554565b90506105d533600460009054906101000a900473ffffffffffffffffffffffffffffffffffffffff1684600160009054906101000a900473ffffffffffffffffffffffffffffffffffffffff1673ffffffffffffffffffffffffffffffffffffffff16610bfa909392919063ffffffff16565b610624338483600160009054906101000a900473ffffffffffffffffffffffffffffffffffffffff1673ffffffffffffffffffffffffffffffffffffffff16610bfa909392919063ffffffff16565b600260009054906101000a900473ffffffffffffffffffffffffffffffffffffffff1673ffffffffffffffffffffffffffffffffffffffff166323b872dd8433886040518463ffffffff1660e01b815260040161068393929190611588565b600060405180830381600087803b15801561069d57600080fd5b505af11580156106b1573d6000803e3d6000fd5b5050505060056000868152602001908152602001600020600090556006600086815260200190815260200160002060006101000a81549073ffffffffffffffffffffffffffffffffffffffff0219169055847f6329e40c0365262ebbff5ca819385c2b9713dcaa050ed07866d72c441395699a33866040516107349291906115bf565b60405180910390a25050505050565b60035481565b60056020528060005260406000206000915090505481565b610769610c7c565b6107736000610d03565b565b60008060009054906101000a900473ffffffffffffffffffffffffffffffffffffffff16905090565b60076020528060005260406000206000915090508060000154908060010154908060020160009054906101000a900473ffffffffffffffffffffffffffffffffffffffff16908060030154905084565b6107f6610c7c565b600a81111561083a576040517f08c379a000000000000000000000000000000000000000000000000000000000815260040161083190611634565b60405180910390fd5b8060038190555050565b813373ffffffffffffffffffffffffffffffffffffffff16600260009054906101000a900473ffffffffffffffffffffffffffffffffffffffff1673ffffffffffffffffffffffffffffffffffffffff16636352211e836040518263ffffffff1660e01b81526004016108b7919061113a565b602060405180830381865afa1580156108d4573d6000803e3d6000fd5b505050506040513d601f19601f820116820180604052508101906108f89190611669565b73ffffffffffffffffffffffffffffffffffffffff161461094e576040517f08c379a0000000000000000000000000000000000000000000000000000000008152600401610945906116e2565b60405180910390fd5b60008211610991576040517f08c379a00000000000000000000000000000000000000000000000000000000081526004016109889061174e565b60405180910390fd5b816005600085815260200190815260200160002081905550336006600085815260200190815260200160002060006101000a81548173ffffffffffffffffffffffffffffffffffffffff021916908373ffffffffffffffffffffffffffffffffffffffff160217905550827fd2ab19646d6f9fdd37206f962b4ebaab8a4a23ad87f7695e7e1736803cb8bf748333604051610a2d92919061176e565b60405180910390a2505050565b60066020528060005260406000206000915054906101000a900473ffffffffffffffffffffffffffffffffffffffff1681565b600260009054906101000a900473ffffffffffffffffffffffffffffffffffffffff1681565b610a9b610c7c565b600073ffffffffffffffffffffffffffffffffffffffff168173ffffffffffffffffffffffffffffffffffffffff1603610b0a576040517f08c379a0000000000000000000000000000000000000000000000000000000008152600401610b01906117e3565b60405180910390fd5b80600460006101000a81548173ffffffffffffffffffffffffffffffffffffffff021916908373ffffffffffffffffffffffffffffffffffffffff16021790555050565b610b56610c7c565b600073ffffffffffffffffffffffffffffffffffffffff168173ffffffffffffffffffffffffffffffffffffffff1603610bc85760006040517f1e4fbdf7000000000000000000000000000000000000000000000000000000008152600401610bbf9190611196565b60405180910390fd5b610bd181610d03565b50565b600160009054906101000a900473ffffffffffffffffffffffffffffffffffffffff1681565b610c76848573ffffffffffffffffffffffffffffffffffffffff166323b872dd868686604051602401610c2f93929190611588565b604051602081830303815290604052915060e01b6020820180517bffffffffffffffffffffffffffffffffffffffffffffffffffffffff8381831617835250505050610dc7565b50505050565b610c84610e69565b73ffffffffffffffffffffffffffffffffffffffff16610ca2610775565b73ffffffffffffffffffffffffffffffffffffffff1614610d0157610cc5610e69565b6040517f118cdaa7000000000000000000000000000000000000000000000000000000008152600401610cf89190611196565b60405180910390fd5b565b60008060009054906101000a900473ffffffffffffffffffffffffffffffffffffffff169050816000806101000a81548173ffffffffffffffffffffffffffffffffffffffff021916908373ffffffffffffffffffffffffffffffffffffffff1602179055508173ffffffffffffffffffffffffffffffffffffffff168173ffffffffffffffffffffffffffffffffffffffff167f8be0079c531659141344cd1fd0a4f28419497f9722a3daafe3b4186f6b6457e060405160405180910390a35050565b600080602060008451602086016000885af180610dea576040513d6000823e3d81fd5b3d925060005191505060008214610e05576001811415610e21565b60008473ffffffffffffffffffffffffffffffffffffffff163b145b15610e6357836040517f5274afe7000000000000000000000000000000000000000000000000000000008152600401610e5a9190611196565b60405180910390fd5b50505050565b600033905090565b6000604051905090565b600080fd5b600080fd5b6000819050919050565b610e9881610e85565b8114610ea357600080fd5b50565b600081359050610eb581610e8f565b92915050565b600060208284031215610ed157610ed0610e7b565b5b6000610edf84828501610ea6565b91505092915050565b600081519050919050565b600082825260208201905092915050565b60005b83811015610f22578082015181840152602081019050610f07565b60008484015250505050565b6000601f19601f8301169050919050565b6000610f4a82610ee8565b610f548185610ef3565b9350610f64818560208601610f04565b610f6d81610f2e565b840191505092915050565b60006020820190508181036000830152610f928184610f3f565b905092915050565b600080fd5b600080fd5b7f4e487b7100000000000000000000000000000000000000000000000000000000600052604160045260246000fd5b610fdc82610f2e565b810181811067ffffffffffffffff82111715610ffb57610ffa610fa4565b5b80604052505050565b600061100e610e71565b905061101a8282610fd3565b919050565b600067ffffffffffffffff82111561103a57611039610fa4565b5b61104382610f2e565b9050602081019050919050565b82818337600083830152505050565b600061107261106d8461101f565b611004565b90508281526020810184848401111561108e5761108d610f9f565b5b611099848285611050565b509392505050565b600082601f8301126110b6576110b5610f9a565b5b81356110c684826020860161105f565b91505092915050565b600080604083850312156110e6576110e5610e7b565b5b600083013567ffffffffffffffff81111561110457611103610e80565b5b611110858286016110a1565b925050602061112185828601610ea6565b9150509250929050565b61113481610e85565b82525050565b600060208201905061114f600083018461112b565b92915050565b600073ffffffffffffffffffffffffffffffffffffffff82169050919050565b600061118082611155565b9050919050565b61119081611175565b82525050565b60006020820190506111ab6000830184611187565b92915050565b60006080820190506111c6600083018761112b565b6111d3602083018661112b565b6111e06040830185611187565b6111ed606083018461112b565b95945050505050565b6000806040838503121561120d5761120c610e7b565b5b600061121b85828601610ea6565b925050602061122c85828601610ea6565b9150509250929050565b6000819050919050565b600061125b61125661125184611155565b611236565b611155565b9050919050565b600061126d82611240565b9050919050565b600061127f82611262565b9050919050565b61128f81611274565b82525050565b60006020820190506112aa6000830184611286565b92915050565b6112b981611175565b81146112c457600080fd5b50565b6000813590506112d6816112b0565b92915050565b6000602082840312156112f2576112f1610e7b565b5b6000611300848285016112c7565b91505092915050565b600061131482611262565b9050919050565b61132481611309565b82525050565b600060208201905061133f600083018461131b565b92915050565b7f4e487b7100000000000000000000000000000000000000000000000000000000600052602260045260246000fd5b6000600282049050600182168061138c57607f821691505b60208210810361139f5761139e611345565b5b50919050565b60006040820190506113ba6000830185611187565b81810360208301526113cc8184610f3f565b90509392505050565b6000815190506113e481610e8f565b92915050565b600060208284031215611400576113ff610e7b565b5b600061140e848285016113d5565b91505092915050565b7f4e4654206e6f7420666f722073616c6500000000000000000000000000000000600082015250565b600061144d601083610ef3565b915061145882611417565b602082019050919050565b6000602082019050818103600083015261147c81611440565b9050919050565b7f4e487b7100000000000000000000000000000000000000000000000000000000600052601160045260246000fd5b60006114bd82610e85565b91506114c883610e85565b92508282026114d681610e85565b915082820484148315176114ed576114ec611483565b5b5092915050565b7f4e487b7100000000000000000000000000000000000000000000000000000000600052601260045260246000fd5b600061152e82610e85565b915061153983610e85565b925082611549576115486114f4565b5b828204905092915050565b600061155f82610e85565b915061156a83610e85565b925082820390508181111561158257611581611483565b5b92915050565b600060608201905061159d6000830186611187565b6115aa6020830185611187565b6115b7604083018461112b565b949350505050565b60006040820190506115d46000830185611187565b6115e1602083018461112b565b9392505050565b7f46656520746f6f20686967680000000000000000000000000000000000000000600082015250565b600061161e600c83610ef3565b9150611629826115e8565b602082019050919050565b6000602082019050818103600083015261164d81611611565b9050919050565b600081519050611663816112b0565b92915050565b60006020828403121561167f5761167e610e7b565b5b600061168d84828501611654565b91505092915050565b7f4e6f74204e4654206f776e657200000000000000000000000000000000000000600082015250565b60006116cc600d83610ef3565b91506116d782611696565b602082019050919050565b600060208201905081810360008301526116fb816116bf565b9050919050565b7f5072696365206d7573742062652067726561746572207468616e203000000000600082015250565b6000611738601c83610ef3565b915061174382611702565b602082019050919050565b600060208201905081810360008301526117678161172b565b9050919050565b6000604082019050611783600083018561112b565b6117906020830184611187565b9392505050565b7f496e76616c696420616464726573730000000000000000000000000000000000600082015250565b60006117cd600f83610ef3565b91506117d882611797565b602082019050919050565b600060208201905081810360008301526117fc816117c0565b905091905056fea264697066735822122060fe9533994ba0019d1b6f47deb86cd38af56d081111ec9ebbfd14a2389b985964736f6c634300081c0033",
  "linkReferences": {},
  "deployedLinkReferences": {}
}