{
  "_format": "hh-sol-artifact-1",
  "contractName": "NFTMarketplace",
  "sourceName": "contracts/NFTMarketplace.sol",
  "abi": [
    {
      "inputs": [
        {
          "internalType": "address",
          "name": "_nftContract",
          "type": "address"
        },
        {
          "internalType": "address",
          "name": "_token",
          "type": "address"
        },
        {
          "internalType": "address",
          "name": "_feeRecipient",
          "type": "address"
        },
        {
          "internalType": "address",
          "name": "_owner",
          "type": "address"
        }
      ],
      "stateMutability": "nonpayable",
      "type": "constructor"
    },
    {
      "inputs": [
        {
          "internalType": "address",
          "name": "owner",
          "type": "address"
        }
      ],
      "name": "OwnableInvalidOwner",
      "type": "error"
    },
    {
      "inputs": [
        {
          "internalType": "address",
          "name": "account",
          "type": "address"
        }
      ],
      "name": "OwnableUnauthorizedAccount",
      "type": "error"
    },
    {
      "inputs": [
        {
          "internalType": "address",
          "name": "token",
          "type": "address"
        }
      ],
      "name": "SafeERC20FailedOperation",
      "type": "error"
    },
    {
      "anonymous": false,
      "inputs": [
        {
          "indexed": true,
          "internalType": "uint256",
          "name": "tokenId",
          "type": "uint256"
        },
        {
          "indexed": false,
          "internalType": "address",
          "name": "winner",
          "type": "address"
        },
        {
          "indexed": false,
          "internalType": "uint256",
          "name": "finalBid",
          "type": "uint256"
        }
      ],
      "name": "AuctionEnded",
      "type": "event"
    },
    {
      "anonymous": false,
      "inputs": [
        {
          "indexed": true,
          "internalType": "uint256",
          "name": "tokenId",
          "type": "uint256"
        },
        {
          "indexed": false,
          "internalType": "uint256",
          "name": "startingBid",
          "type": "uint256"
        },
        {
          "indexed": false,
          "internalType": "uint256",
          "name": "endTime",
          "type": "uint256"
        }
      ],
      "name": "AuctionStarted",
      "type": "event"
    },
    {
      "anonymous": false,
      "inputs": [
        {
          "indexed": true,
          "internalType": "uint256",
          "name": "tokenId",
          "type": "uint256"
        },
        {
          "indexed": false,
          "internalType": "address",
          "name": "bidder",
          "type": "address"
        },
        {
          "indexed": false,
          "internalType": "uint256",
          "name": "bidAmount",
          "type": "uint256"
        }
      ],
      "name": "BidPlaced",
      "type": "event"
    },
    {
      "anonymous": false,
      "inputs": [
        {
          "indexed": true,
          "internalType": "uint256",
          "name": "tokenId",
          "type": "uint256"
        },
        {
          "indexed": false,
          "internalType": "uint256",
          "name": "price",
          "type": "uint256"
        },
        {
          "indexed": false,
          "internalType": "address",
          "name": "seller",
          "type": "address"
        }
      ],
      "name": "NFTListed",
      "type": "event"
    },
    {
      "anonymous": false,
      "inputs": [
        {
          "indexed": true,
          "internalType": "uint256",
          "name": "tokenId",
          "type": "uint256"
        },
        {
          "indexed": false,
          "internalType": "address",
          "name": "buyer",
          "type": "address"
        },
        {
          "indexed": false,
          "internalType": "uint256",
          "name": "price",
          "type": "uint256"
        }
      ],
      "name": "NFTSold",
      "type": "event"
    },
    {
      "anonymous": false,
      "inputs": [
        {
          "indexed": true,
          "internalType": "uint256",
          "name": "tokenId",
          "type": "uint256"
        },
        {
          "indexed": false,
          "internalType": "string",
          "name": "newMetadata",
          "type": "string"
        }
      ],
      "name": "NFTUpgraded",
      "type": "event"
    },
    {
      "anonymous": false,
      "inputs": [
        {
          "indexed": true,
          "internalType": "address",
          "name": "previousOwner",
          "type": "address"
        },
        {
          "indexed": true,
          "internalType": "address",
          "name": "newOwner",
          "type": "address"
        }
      ],
      "name": "OwnershipTransferred",
      "type": "event"
    },
    {
      "inputs": [
        {
          "internalType": "uint256",
          "name": "tokenId",
          "type": "uint256"
        }
      ],
      "name": "buyNFT",
      "outputs": [],
      "stateMutability": "payable",
      "type": "function"
    },
    {
      "inputs": [],
      "name": "feeRecipient",
      "outputs": [
        {
          "internalType": "address",
          "name": "",
          "type": "address"
        }
      ],
      "stateMutability": "view",
      "type": "function"
    },
    {
      "inputs": [
        {
          "internalType": "uint256",
          "name": "tokenId",
          "type": "uint256"
        },
        {
          "internalType": "uint256",
          "name": "price",
          "type": "uint256"
        }
      ],
      "name": "listNFTForSale",
      "outputs": [],
      "stateMutability": "nonpayable",
      "type": "function"
    },
    {
      "inputs": [],
      "name": "marketplaceFee",
      "outputs": [
        {
          "internalType": "uint256",
          "name": "",
          "type": "uint256"
        }
      ],
      "stateMutability": "view",
      "type": "function"
    },
    {
      "inputs": [
        {
          "internalType": "string",
          "name": "metadataURI",
          "type": "string"
        },
        {
          "internalType": "uint256",
          "name": "price",
          "type": "uint256"
        }
      ],
      "name": "mintAndListNFT",
      "outputs": [
        {
          "internalType": "uint256",
          "name": "",
          "type": "uint256"
        }
      ],
      "stateMutability": "nonpayable",
      "type": "function"
    },
    {
      "inputs": [
        {
          "internalType": "uint256",
          "name": "",
          "type": "uint256"
        }
      ],
      "name": "nftAuctions",
      "outputs": [
        {
          "internalType": "uint256",
          "name": "tokenId",
          "type": "uint256"
        },
        {
          "internalType": "uint256",
          "name": "highestBid",
          "type": "uint256"
        },
        {
          "internalType": "address",
          "name": "highestBidder",
          "type": "address"
        },
        {
          "internalType": "uint256",
          "name": "endTime",
          "type": "uint256"
        }
      ],
      "stateMutability": "view",
      "type": "function"
    },
    {
      "inputs": [],
      "name": "nftContract",
      "outputs": [
        {
          "internalType": "contract IERC721Mintable",
          "name": "",
          "type": "address"
        }
      ],
      "stateMutability": "view",
      "type": "function"
    },
    {
      "inputs": [
        {
          "internalType": "uint256",
          "name": "",
          "type": "uint256"
        }
      ],
      "name": "nftPrice",
      "outputs": [
        {
          "internalType": "uint256",
          "name": "",
          "type": "uint256"
        }
      ],
      "stateMutability": "view",
      "type": "function"
    },
    {
      "inputs": [
        {
          "internalType": "uint256",
          "name": "",
          "type": "uint256"
        },
        {
          "internalType": "address",
          "name": "",
          "type": "address"
        }
      ],
      "name": "nftRoyalties",
      "outputs": [
        {
          "internalType": "uint256",
          "name": "",
          "type": "uint256"
        }
      ],
      "stateMutability": "view",
      "type": "function"
    },
    {
      "inputs": [
        {
          "internalType": "uint256",
          "name": "",
          "type": "uint256"
        }
      ],
      "name": "nftSeller",
      "outputs": [
        {
          "internalType": "address",
          "name": "",
          "type": "address"
        }
      ],
      "stateMutability": "view",
      "type": "function"
    },
    {
      "inputs": [
        {
          "internalType": "uint256",
          "name": "",
          "type": "uint256"
        }
      ],
      "name": "nftUpgrades",
      "outputs": [
        {
          "internalType": "string",
          "name": "",
          "type": "string"
        }
      ],
      "stateMutability": "view",
      "type": "function"
    },
    {
      "inputs": [],
      "name": "owner",
      "outputs": [
        {
          "internalType": "address",
          "name": "",
          "type": "address"
        }
      ],
      "stateMutability": "view",
      "type": "function"
    },
    {
      "inputs": [],
      "name": "renounceOwnership",
      "outputs": [],
      "stateMutability": "nonpayable",
      "type": "function"
    },
    {
      "inputs": [
        {
          "internalType": "address",
          "name": "newRecipient",
          "type": "address"
        }
      ],
      "name": "setFeeRecipient",
      "outputs": [],
      "stateMutability": "nonpayable",
      "type": "function"
    },
    {
      "inputs": [
        {
          "internalType": "uint256",
          "name": "newFee",
          "type": "uint256"
        }
      ],
      "name": "setMarketplaceFee",
      "outputs": [],
      "stateMutability": "nonpayable",
      "type": "function"
    },
    {
      "inputs": [
        {
          "internalType": "address",
          "name": "",
          "type": "address"
        }
      ],
      "name": "supportedCollections",
      "outputs": [
        {
          "internalType": "bool",
          "name": "",
          "type": "bool"
        }
      ],
      "stateMutability": "view",
      "type": "function"
    },
    {
      "inputs": [],
      "name": "token",
      "outputs": [
        {
          "internalType": "contract IERC20",
          "name": "",
          "type": "address"
        }
      ],
      "stateMutability": "view",
      "type": "function"
    },
    {
      "inputs": [
        {
          "internalType": "address",
          "name": "newOwner",
          "type": "address"
        }
      ],
      "name": "transferOwnership",
      "outputs": [],
      "stateMutability": "nonpayable",
      "type": "function"
    }
  ],
  "bytecode": "0x6080604052600260035534801561001557600080fd5b50604051611ee6380380611ee68339818101604052810190610037919061038f565b80600073ffffffffffffffffffffffffffffffffffffffff168173ffffffffffffffffffffffffffffffffffffffff16036100aa5760006040517f1e4fbdf70000000000000000000000000000000000000000000000000000000081526004016100a19190610405565b60405180910390fd5b6100b98161026860201b60201c565b50600073ffffffffffffffffffffffffffffffffffffffff168473ffffffffffffffffffffffffffffffffffffffff16141580156101245750600073ffffffffffffffffffffffffffffffffffffffff168373ffffffffffffffffffffffffffffffffffffffff1614155b801561015d5750600073ffffffffffffffffffffffffffffffffffffffff168273ffffffffffffffffffffffffffffffffffffffff1614155b61019c576040517f08c379a00000000000000000000000000000000000000000000000000000000081526004016101939061047d565b60405180910390fd5b83600260006101000a81548173ffffffffffffffffffffffffffffffffffffffff021916908373ffffffffffffffffffffffffffffffffffffffff16021790555082600160006101000a81548173ffffffffffffffffffffffffffffffffffffffff021916908373ffffffffffffffffffffffffffffffffffffffff16021790555081600460006101000a81548173ffffffffffffffffffffffffffffffffffffffff021916908373ffffffffffffffffffffffffffffffffffffffff1602179055505050505061049d565b60008060009054906101000a900473ffffffffffffffffffffffffffffffffffffffff169050816000806101000a81548173ffffffffffffffffffffffffffffffffffffffff021916908373ffffffffffffffffffffffffffffffffffffffff1602179055508173ffffffffffffffffffffffffffffffffffffffff168173ffffffffffffffffffffffffffffffffffffffff167f8be0079c531659141344cd1fd0a4f28419497f9722a3daafe3b4186f6b6457e060405160405180910390a35050565b600080fd5b600073ffffffffffffffffffffffffffffffffffffffff82169050919050565b600061035c82610331565b9050919050565b61036c81610351565b811461037757600080fd5b50565b60008151905061038981610363565b92915050565b600080600080608085870312156103a9576103a861032c565b5b60006103b78782880161037a565b94505060206103c88782880161037a565b93505060406103d98782880161037a565b92505060606103ea8782880161037a565b91505092959194509250565b6103ff81610351565b82525050565b600060208201905061041a60008301846103f6565b92915050565b600082825260208201905092915050565b7f496e76616c696420616464726573730000000000000000000000000000000000600082015250565b6000610467600f83610420565b915061047282610431565b602082019050919050565b600060208201905081810360008301526104968161045a565b9050919050565b611a3a806104ac6000396000f3fe6080604052600436106101095760003560e01c80638da5cb5b11610095578063b87ce52b11610064578063b87ce52b14610385578063d56d229d146103c2578063e74b981b146103ed578063f2fde38b14610416578063fc0c546a1461043f57610109565b80638da5cb5b146102c857806393cde51a146102f35780639407ea9814610333578063b2733b391461035c57610109565b806351ed8288116100dc57806351ed8288146101f05780636a1669641461020c5780636ddd9f21146102375780636de2991414610274578063715018a6146102b157610109565b8063134544a81461010e5780631ed98b801461014b5780632c1f5b7b1461018857806346904840146101c5575b600080fd5b34801561011a57600080fd5b50610135600480360381019061013091906110a4565b61046a565b60405161014291906110f3565b60405180910390f35b34801561015757600080fd5b50610172600480360381019061016d919061110e565b61048f565b60405161017f91906111cb565b60405180910390f35b34801561019457600080fd5b506101af60048036038101906101aa9190611322565b61052f565b6040516101bc91906110f3565b60405180910390f35b3480156101d157600080fd5b506101da6105e8565b6040516101e7919061138d565b60405180910390f35b61020a6004803603810190610205919061110e565b61060e565b005b34801561021857600080fd5b506102216108ae565b60405161022e91906110f3565b60405180910390f35b34801561024357600080fd5b5061025e600480360381019061025991906113a8565b6108b4565b60405161026b91906113f0565b60405180910390f35b34801561028057600080fd5b5061029b6004803603810190610296919061110e565b6108d4565b6040516102a891906110f3565b60405180910390f35b3480156102bd57600080fd5b506102c66108ec565b005b3480156102d457600080fd5b506102dd610900565b6040516102ea919061138d565b60405180910390f35b3480156102ff57600080fd5b5061031a6004803603810190610315919061110e565b610929565b60405161032a949392919061140b565b60405180910390f35b34801561033f57600080fd5b5061035a6004803603810190610355919061110e565b610979565b005b34801561036857600080fd5b50610383600480360381019061037e9190611450565b6109cf565b005b34801561039157600080fd5b506103ac60048036038101906103a7919061110e565b610bc5565b6040516103b9919061138d565b60405180910390f35b3480156103ce57600080fd5b506103d7610bf8565b6040516103e491906114ef565b60405180910390f35b3480156103f957600080fd5b50610414600480360381019061040f91906113a8565b610c1e565b005b34801561042257600080fd5b5061043d600480360381019061043891906113a8565b610cd9565b005b34801561044b57600080fd5b50610454610d5f565b604051610461919061152b565b60405180910390f35b600a602052816000526040600020602052806000526040600020600091509150505481565b600860205280600052604060002060009150905080546104ae90611575565b80601f01602080910402602001604051908101604052809291908181526020018280546104da90611575565b80156105275780601f106104fc57610100808354040283529160200191610527565b820191906000526020600020905b81548152906001019060200180831161050a57829003601f168201915b505050505081565b600080600260009054906101000a900473ffffffffffffffffffffffffffffffffffffffff1673ffffffffffffffffffffffffffffffffffffffff1663d0def52133866040518363ffffffff1660e01b815260040161058f9291906115a6565b6020604051808303816000875af11580156105ae573d6000803e3d6000fd5b505050506040513d601f19601f820116820180604052508101906105d291906115eb565b90506105de81846109cf565b8091505092915050565b600460009054906101000a900473ffffffffffffffffffffffffffffffffffffffff1681565b60006005600083815260200190815260200160002054905060006006600084815260200190815260200160002060009054906101000a900473ffffffffffffffffffffffffffffffffffffffff169050600082116106a1576040517f08c379a000000000000000000000000000000000000000000000000000000000815260040161069890611664565b60405180910390fd5b60006064600354846106b391906116b3565b6106bd9190611724565b9050600081846106cd9190611755565b905061074033600460009054906101000a900473ffffffffffffffffffffffffffffffffffffffff1684600160009054906101000a900473ffffffffffffffffffffffffffffffffffffffff1673ffffffffffffffffffffffffffffffffffffffff16610d85909392919063ffffffff16565b61078f338483600160009054906101000a900473ffffffffffffffffffffffffffffffffffffffff1673ffffffffffffffffffffffffffffffffffffffff16610d85909392919063ffffffff16565b600260009054906101000a900473ffffffffffffffffffffffffffffffffffffffff1673ffffffffffffffffffffffffffffffffffffffff166323b872dd8433886040518463ffffffff1660e01b81526004016107ee93929190611789565b600060405180830381600087803b15801561080857600080fd5b505af115801561081c573d6000803e3d6000fd5b5050505060056000868152602001908152602001600020600090556006600086815260200190815260200160002060006101000a81549073ffffffffffffffffffffffffffffffffffffffff0219169055847f6329e40c0365262ebbff5ca819385c2b9713dcaa050ed07866d72c441395699a338660405161089f9291906117c0565b60405180910390a25050505050565b60035481565b60096020528060005260406000206000915054906101000a900460ff1681565b60056020528060005260406000206000915090505481565b6108f4610e07565b6108fe6000610e8e565b565b60008060009054906101000a900473ffffffffffffffffffffffffffffffffffffffff16905090565b60076020528060005260406000206000915090508060000154908060010154908060020160009054906101000a900473ffffffffffffffffffffffffffffffffffffffff16908060030154905084565b610981610e07565b600a8111156109c5576040517f08c379a00000000000000000000000000000000000000000000000000000000081526004016109bc90611835565b60405180910390fd5b8060038190555050565b813373ffffffffffffffffffffffffffffffffffffffff16600260009054906101000a900473ffffffffffffffffffffffffffffffffffffffff1673ffffffffffffffffffffffffffffffffffffffff16636352211e836040518263ffffffff1660e01b8152600401610a4291906110f3565b602060405180830381865afa158015610a5f573d6000803e3d6000fd5b505050506040513d601f19601f82011682018060405250810190610a83919061186a565b73ffffffffffffffffffffffffffffffffffffffff1614610ad9576040517f08c379a0000000000000000000000000000000000000000000000000000000008152600401610ad0906118e3565b60405180910390fd5b60008211610b1c576040517f08c379a0000000000000000000000000000000000000000000000000000000008152600401610b139061194f565b60405180910390fd5b816005600085815260200190815260200160002081905550336006600085815260200190815260200160002060006101000a81548173ffffffffffffffffffffffffffffffffffffffff021916908373ffffffffffffffffffffffffffffffffffffffff160217905550827fd2ab19646d6f9fdd37206f962b4ebaab8a4a23ad87f7695e7e1736803cb8bf748333604051610bb892919061196f565b60405180910390a2505050565b60066020528060005260406000206000915054906101000a900473ffffffffffffffffffffffffffffffffffffffff1681565b600260009054906101000a900473ffffffffffffffffffffffffffffffffffffffff1681565b610c26610e07565b600073ffffffffffffffffffffffffffffffffffffffff168173ffffffffffffffffffffffffffffffffffffffff1603610c95576040517f08c379a0000000000000000000000000000000000000000000000000000000008152600401610c8c906119e4565b60405180910390fd5b80600460006101000a81548173ffffffffffffffffffffffffffffffffffffffff021916908373ffffffffffffffffffffffffffffffffffffffff16021790555050565b610ce1610e07565b600073ffffffffffffffffffffffffffffffffffffffff168173ffffffffffffffffffffffffffffffffffffffff1603610d535760006040517f1e4fbdf7000000000000000000000000000000000000000000000000000000008152600401610d4a919061138d565b60405180910390fd5b610d5c81610e8e565b50565b600160009054906101000a900473ffffffffffffffffffffffffffffffffffffffff1681565b610e01848573ffffffffffffffffffffffffffffffffffffffff166323b872dd868686604051602401610dba93929190611789565b604051602081830303815290604052915060e01b6020820180517bffffffffffffffffffffffffffffffffffffffffffffffffffffffff8381831617835250505050610f52565b50505050565b610e0f610ff4565b73ffffffffffffffffffffffffffffffffffffffff16610e2d610900565b73ffffffffffffffffffffffffffffffffffffffff1614610e8c57610e50610ff4565b6040517f118cdaa7000000000000000000000000000000000000000000000000000000008152600401610e83919061138d565b60405180910390fd5b565b60008060009054906101000a900473ffffffffffffffffffffffffffffffffffffffff169050816000806101000a81548173ffffffffffffffffffffffffffffffffffffffff021916908373ffffffffffffffffffffffffffffffffffffffff1602179055508173ffffffffffffffffffffffffffffffffffffffff168173ffffffffffffffffffffffffffffffffffffffff167f8be0079c531659141344cd1fd0a4f28419497f9722a3daafe3b4186f6b6457e060405160405180910390a35050565b600080602060008451602086016000885af180610f75576040513d6000823e3d81fd5b3d925060005191505060008214610f90576001811415610fac565b60008473ffffffffffffffffffffffffffffffffffffffff163b145b15610fee57836040517f5274afe7000000000000000000000000000000000000000000000000000000008152600401610fe5919061138d565b60405180910390fd5b50505050565b600033905090565b6000604051905090565b600080fd5b600080fd5b6000819050919050565b61102381611010565b811461102e57600080fd5b50565b6000813590506110408161101a565b92915050565b600073ffffffffffffffffffffffffffffffffffffffff82169050919050565b600061107182611046565b9050919050565b61108181611066565b811461108c57600080fd5b50565b60008135905061109e81611078565b92915050565b600080604083850312156110bb576110ba611006565b5b60006110c985828601611031565b92505060206110da8582860161108f565b9150509250929050565b6110ed81611010565b82525050565b600060208201905061110860008301846110e4565b92915050565b60006020828403121561112457611123611006565b5b600061113284828501611031565b91505092915050565b600081519050919050565b600082825260208201905092915050565b60005b8381101561117557808201518184015260208101905061115a565b60008484015250505050565b6000601f19601f8301169050919050565b600061119d8261113b565b6111a78185611146565b93506111b7818560208601611157565b6111c081611181565b840191505092915050565b600060208201905081810360008301526111e58184611192565b905092915050565b600080fd5b600080fd5b7f4e487b7100000000000000000000000000000000000000000000000000000000600052604160045260246000fd5b61122f82611181565b810181811067ffffffffffffffff8211171561124e5761124d6111f7565b5b80604052505050565b6000611261610ffc565b905061126d8282611226565b919050565b600067ffffffffffffffff82111561128d5761128c6111f7565b5b61129682611181565b9050602081019050919050565b82818337600083830152505050565b60006112c56112c084611272565b611257565b9050828152602081018484840111156112e1576112e06111f2565b5b6112ec8482856112a3565b509392505050565b600082601f830112611309576113086111ed565b5b81356113198482602086016112b2565b91505092915050565b6000806040838503121561133957611338611006565b5b600083013567ffffffffffffffff8111156113575761135661100b565b5b611363858286016112f4565b925050602061137485828601611031565b9150509250929050565b61138781611066565b82525050565b60006020820190506113a2600083018461137e565b92915050565b6000602082840312156113be576113bd611006565b5b60006113cc8482850161108f565b91505092915050565b60008115159050919050565b6113ea816113d5565b82525050565b600060208201905061140560008301846113e1565b92915050565b600060808201905061142060008301876110e4565b61142d60208301866110e4565b61143a604083018561137e565b61144760608301846110e4565b95945050505050565b6000806040838503121561146757611466611006565b5b600061147585828601611031565b925050602061148685828601611031565b9150509250929050565b6000819050919050565b60006114b56114b06114ab84611046565b611490565b611046565b9050919050565b60006114c78261149a565b9050919050565b60006114d9826114bc565b9050919050565b6114e9816114ce565b82525050565b600060208201905061150460008301846114e0565b92915050565b6000611515826114bc565b9050919050565b6115258161150a565b82525050565b6000602082019050611540600083018461151c565b92915050565b7f4e487b7100000000000000000000000000000000000000000000000000000000600052602260045260246000fd5b6000600282049050600182168061158d57607f821691505b6020821081036115a05761159f611546565b5b50919050565b60006040820190506115bb600083018561137e565b81810360208301526115cd8184611192565b90509392505050565b6000815190506115e58161101a565b92915050565b60006020828403121561160157611600611006565b5b600061160f848285016115d6565b91505092915050565b7f4e4654206e6f7420666f722073616c6500000000000000000000000000000000600082015250565b600061164e601083611146565b915061165982611618565b602082019050919050565b6000602082019050818103600083015261167d81611641565b9050919050565b7f4e487b7100000000000000000000000000000000000000000000000000000000600052601160045260246000fd5b60006116be82611010565b91506116c983611010565b92508282026116d781611010565b915082820484148315176116ee576116ed611684565b5b5092915050565b7f4e487b7100000000000000000000000000000000000000000000000000000000600052601260045260246000fd5b600061172f82611010565b915061173a83611010565b92508261174a576117496116f5565b5b828204905092915050565b600061176082611010565b915061176b83611010565b925082820390508181111561178357611782611684565b5b92915050565b600060608201905061179e600083018661137e565b6117ab602083018561137e565b6117b860408301846110e4565b949350505050565b60006040820190506117d5600083018561137e565b6117e260208301846110e4565b9392505050565b7f46656520746f6f20686967680000000000000000000000000000000000000000600082015250565b600061181f600c83611146565b915061182a826117e9565b602082019050919050565b6000602082019050818103600083015261184e81611812565b9050919050565b60008151905061186481611078565b92915050565b6000602082840312156118805761187f611006565b5b600061188e84828501611855565b91505092915050565b7f4e6f74204e4654206f776e657200000000000000000000000000000000000000600082015250565b60006118cd600d83611146565b91506118d882611897565b602082019050919050565b600060208201905081810360008301526118fc816118c0565b9050919050565b7f5072696365206d7573742062652067726561746572207468616e203000000000600082015250565b6000611939601c83611146565b915061194482611903565b602082019050919050565b600060208201905081810360008301526119688161192c565b9050919050565b600060408201905061198460008301856110e4565b611991602083018461137e565b9392505050565b7f496e76616c696420616464726573730000000000000000000000000000000000600082015250565b60006119ce600f83611146565b91506119d982611998565b602082019050919050565b600060208201905081810360008301526119fd816119c1565b905091905056fea2646970667358221220442a0c0e020d02a8eda0e7c892ac92d12272b87d9fb6e47a81b1a7a3b6a84dbb64736f6c634300081c0033",
  "linkReferences": {},
  "deployedLinkReferences": {}
}