{
  "_format": "hh-sol-artifact-1",
  "contractName": "NFTMarketplace",
  "sourceName": "contracts/NFTMarketplace.sol",
  "abi": [
    {
      "inputs": [
        {
          "internalType": "address",
          "name": "_nftContract",
          "type": "address"
        },
        {
          "internalType": "address",
          "name": "_token",
          "type": "address"
        },
        {
          "internalType": "address",
          "name": "_feeRecipient",
          "type": "address"
        },
        {
          "internalType": "address",
          "name": "_owner",
          "type": "address"
        }
      ],
      "stateMutability": "nonpayable",
      "type": "constructor"
    },
    {
      "inputs": [
        {
          "internalType": "address",
          "name": "owner",
          "type": "address"
        }
      ],
      "name": "OwnableInvalidOwner",
      "type": "error"
    },
    {
      "inputs": [
        {
          "internalType": "address",
          "name": "account",
          "type": "address"
        }
      ],
      "name": "OwnableUnauthorizedAccount",
      "type": "error"
    },
    {
      "inputs": [
        {
          "internalType": "address",
          "name": "token",
          "type": "address"
        }
      ],
      "name": "SafeERC20FailedOperation",
      "type": "error"
    },
    {
      "anonymous": false,
      "inputs": [
        {
          "indexed": true,
          "internalType": "uint256",
          "name": "tokenId",
          "type": "uint256"
        },
        {
          "indexed": false,
          "internalType": "address",
          "name": "winner",
          "type": "address"
        },
        {
          "indexed": false,
          "internalType": "uint256",
          "name": "finalBid",
          "type": "uint256"
        }
      ],
      "name": "AuctionEnded",
      "type": "event"
    },
    {
      "anonymous": false,
      "inputs": [
        {
          "indexed": true,
          "internalType": "uint256",
          "name": "tokenId",
          "type": "uint256"
        },
        {
          "indexed": false,
          "internalType": "uint256",
          "name": "startingBid",
          "type": "uint256"
        },
        {
          "indexed": false,
          "internalType": "uint256",
          "name": "endTime",
          "type": "uint256"
        }
      ],
      "name": "AuctionStarted",
      "type": "event"
    },
    {
      "anonymous": false,
      "inputs": [
        {
          "indexed": true,
          "internalType": "uint256",
          "name": "tokenId",
          "type": "uint256"
        },
        {
          "indexed": false,
          "internalType": "address",
          "name": "bidder",
          "type": "address"
        },
        {
          "indexed": false,
          "internalType": "uint256",
          "name": "bidAmount",
          "type": "uint256"
        }
      ],
      "name": "BidPlaced",
      "type": "event"
    },
    {
      "anonymous": false,
      "inputs": [
        {
          "indexed": true,
          "internalType": "uint256",
          "name": "tokenId",
          "type": "uint256"
        },
        {
          "indexed": false,
          "internalType": "uint256",
          "name": "price",
          "type": "uint256"
        },
        {
          "indexed": false,
          "internalType": "address",
          "name": "seller",
          "type": "address"
        }
      ],
      "name": "NFTListed",
      "type": "event"
    },
    {
      "anonymous": false,
      "inputs": [
        {
          "indexed": true,
          "internalType": "uint256",
          "name": "tokenId",
          "type": "uint256"
        },
        {
          "indexed": false,
          "internalType": "address",
          "name": "buyer",
          "type": "address"
        },
        {
          "indexed": false,
          "internalType": "uint256",
          "name": "price",
          "type": "uint256"
        }
      ],
      "name": "NFTSold",
      "type": "event"
    },
    {
      "anonymous": false,
      "inputs": [
        {
          "indexed": true,
          "internalType": "uint256",
          "name": "tokenId",
          "type": "uint256"
        },
        {
          "indexed": false,
          "internalType": "string",
          "name": "newMetadata",
          "type": "string"
        }
      ],
      "name": "NFTUpgraded",
      "type": "event"
    },
    {
      "anonymous": false,
      "inputs": [
        {
          "indexed": true,
          "internalType": "address",
          "name": "previousOwner",
          "type": "address"
        },
        {
          "indexed": true,
          "internalType": "address",
          "name": "newOwner",
          "type": "address"
        }
      ],
      "name": "OwnershipTransferred",
      "type": "event"
    },
    {
      "inputs": [
        {
          "internalType": "uint256",
          "name": "tokenId",
          "type": "uint256"
        }
      ],
      "name": "buyNFT",
      "outputs": [],
      "stateMutability": "payable",
      "type": "function"
    },
    {
      "inputs": [],
      "name": "feeRecipient",
      "outputs": [
        {
          "internalType": "address",
          "name": "",
          "type": "address"
        }
      ],
      "stateMutability": "view",
      "type": "function"
    },
    {
      "inputs": [
        {
          "internalType": "uint256",
          "name": "tokenId",
          "type": "uint256"
        },
        {
          "internalType": "uint256",
          "name": "price",
          "type": "uint256"
        }
      ],
      "name": "listNFTForSale",
      "outputs": [],
      "stateMutability": "nonpayable",
      "type": "function"
    },
    {
      "inputs": [],
      "name": "marketplaceFee",
      "outputs": [
        {
          "internalType": "uint256",
          "name": "",
          "type": "uint256"
        }
      ],
      "stateMutability": "view",
      "type": "function"
    },
    {
      "inputs": [
        {
          "internalType": "string",
          "name": "metadataURI",
          "type": "string"
        },
        {
          "internalType": "uint256",
          "name": "price",
          "type": "uint256"
        }
      ],
      "name": "mintAndListNFT",
      "outputs": [
        {
          "internalType": "uint256",
          "name": "",
          "type": "uint256"
        }
      ],
      "stateMutability": "nonpayable",
      "type": "function"
    },
    {
      "inputs": [
        {
          "internalType": "uint256",
          "name": "",
          "type": "uint256"
        }
      ],
      "name": "nftAuctions",
      "outputs": [
        {
          "internalType": "uint256",
          "name": "tokenId",
          "type": "uint256"
        },
        {
          "internalType": "uint256",
          "name": "highestBid",
          "type": "uint256"
        },
        {
          "internalType": "address",
          "name": "highestBidder",
          "type": "address"
        },
        {
          "internalType": "uint256",
          "name": "endTime",
          "type": "uint256"
        }
      ],
      "stateMutability": "view",
      "type": "function"
    },
    {
      "inputs": [],
      "name": "nftContract",
      "outputs": [
        {
          "internalType": "contract IERC721Mintable",
          "name": "",
          "type": "address"
        }
      ],
      "stateMutability": "view",
      "type": "function"
    },
    {
      "inputs": [
        {
          "internalType": "uint256",
          "name": "",
          "type": "uint256"
        }
      ],
      "name": "nftPrice",
      "outputs": [
        {
          "internalType": "uint256",
          "name": "",
          "type": "uint256"
        }
      ],
      "stateMutability": "view",
      "type": "function"
    },
    {
      "inputs": [
        {
          "internalType": "uint256",
          "name": "",
          "type": "uint256"
        }
      ],
      "name": "nftSeller",
      "outputs": [
        {
          "internalType": "address",
          "name": "",
          "type": "address"
        }
      ],
      "stateMutability": "view",
      "type": "function"
    },
    {
      "inputs": [
        {
          "internalType": "uint256",
          "name": "",
          "type": "uint256"
        }
      ],
      "name": "nftUpgrades",
      "outputs": [
        {
          "internalType": "string",
          "name": "",
          "type": "string"
        }
      ],
      "stateMutability": "view",
      "type": "function"
    },
    {
      "inputs": [],
      "name": "owner",
      "outputs": [
        {
          "internalType": "address",
          "name": "",
          "type": "address"
        }
      ],
      "stateMutability": "view",
      "type": "function"
    },
    {
      "inputs": [],
      "name": "renounceOwnership",
      "outputs": [],
      "stateMutability": "nonpayable",
      "type": "function"
    },
    {
      "inputs": [
        {
          "internalType": "address",
          "name": "newRecipient",
          "type": "address"
        }
      ],
      "name": "setFeeRecipient",
      "outputs": [],
      "stateMutability": "nonpayable",
      "type": "function"
    },
    {
      "inputs": [
        {
          "internalType": "uint256",
          "name": "newFee",
          "type": "uint256"
        }
      ],
      "name": "setMarketplaceFee",
      "outputs": [],
      "stateMutability": "nonpayable",
      "type": "function"
    },
    {
      "inputs": [],
      "name": "token",
      "outputs": [
        {
          "internalType": "contract IERC20",
          "name": "",
          "type": "address"
        }
      ],
      "stateMutability": "view",
      "type": "function"
    },
    {
      "inputs": [
        {
          "internalType": "address",
          "name": "newOwner",
          "type": "address"
        }
      ],
      "name": "transferOwnership",
      "outputs": [],
      "stateMutability": "nonpayable",
      "type": "function"
    }
  ],
  "bytecode": "0x6080604052600260035534801561001557600080fd5b50604051611d9b380380611d9b8339818101604052810190610037919061038f565b80600073ffffffffffffffffffffffffffffffffffffffff168173ffffffffffffffffffffffffffffffffffffffff16036100aa5760006040517f1e4fbdf70000000000000000000000000000000000000000000000000000000081526004016100a19190610405565b60405180910390fd5b6100b98161026860201b60201c565b50600073ffffffffffffffffffffffffffffffffffffffff168473ffffffffffffffffffffffffffffffffffffffff16141580156101245750600073ffffffffffffffffffffffffffffffffffffffff168373ffffffffffffffffffffffffffffffffffffffff1614155b801561015d5750600073ffffffffffffffffffffffffffffffffffffffff168273ffffffffffffffffffffffffffffffffffffffff1614155b61019c576040517f08c379a00000000000000000000000000000000000000000000000000000000081526004016101939061047d565b60405180910390fd5b83600260006101000a81548173ffffffffffffffffffffffffffffffffffffffff021916908373ffffffffffffffffffffffffffffffffffffffff16021790555082600160006101000a81548173ffffffffffffffffffffffffffffffffffffffff021916908373ffffffffffffffffffffffffffffffffffffffff16021790555081600460006101000a81548173ffffffffffffffffffffffffffffffffffffffff021916908373ffffffffffffffffffffffffffffffffffffffff1602179055505050505061049d565b60008060009054906101000a900473ffffffffffffffffffffffffffffffffffffffff169050816000806101000a81548173ffffffffffffffffffffffffffffffffffffffff021916908373ffffffffffffffffffffffffffffffffffffffff1602179055508173ffffffffffffffffffffffffffffffffffffffff168173ffffffffffffffffffffffffffffffffffffffff167f8be0079c531659141344cd1fd0a4f28419497f9722a3daafe3b4186f6b6457e060405160405180910390a35050565b600080fd5b600073ffffffffffffffffffffffffffffffffffffffff82169050919050565b600061035c82610331565b9050919050565b61036c81610351565b811461037757600080fd5b50565b60008151905061038981610363565b92915050565b600080600080608085870312156103a9576103a861032c565b5b60006103b78782880161037a565b94505060206103c88782880161037a565b93505060406103d98782880161037a565b92505060606103ea8782880161037a565b91505092959194509250565b6103ff81610351565b82525050565b600060208201905061041a60008301846103f6565b92915050565b600082825260208201905092915050565b7f496e76616c696420616464726573730000000000000000000000000000000000600082015250565b6000610467600f83610420565b915061047282610431565b602082019050919050565b600060208201905081810360008301526104968161045a565b9050919050565b6118ef806104ac6000396000f3fe6080604052600436106100f35760003560e01c806393cde51a1161008a578063d56d229d11610059578063d56d229d14610332578063e74b981b1461035d578063f2fde38b14610386578063fc0c546a146103af576100f3565b806393cde51a146102635780639407ea98146102a3578063b2733b39146102cc578063b87ce52b146102f5576100f3565b80636a166964116100c65780636a166964146101b95780636de29914146101e4578063715018a6146102215780638da5cb5b14610238576100f3565b80631ed98b80146100f85780632c1f5b7b14610135578063469048401461017257806351ed82881461019d575b600080fd5b34801561010457600080fd5b5061011f600480360381019061011a9190610f71565b6103da565b60405161012c919061102e565b60405180910390f35b34801561014157600080fd5b5061015c60048036038101906101579190611185565b61047a565b60405161016991906111f0565b60405180910390f35b34801561017e57600080fd5b50610187610533565b604051610194919061124c565b60405180910390f35b6101b760048036038101906101b29190610f71565b610559565b005b3480156101c557600080fd5b506101ce6107f9565b6040516101db91906111f0565b60405180910390f35b3480156101f057600080fd5b5061020b60048036038101906102069190610f71565b6107ff565b60405161021891906111f0565b60405180910390f35b34801561022d57600080fd5b50610236610817565b005b34801561024457600080fd5b5061024d61082b565b60405161025a919061124c565b60405180910390f35b34801561026f57600080fd5b5061028a60048036038101906102859190610f71565b610854565b60405161029a9493929190611267565b60405180910390f35b3480156102af57600080fd5b506102ca60048036038101906102c59190610f71565b6108a4565b005b3480156102d857600080fd5b506102f360048036038101906102ee91906112ac565b6108fa565b005b34801561030157600080fd5b5061031c60048036038101906103179190610f71565b610af0565b604051610329919061124c565b60405180910390f35b34801561033e57600080fd5b50610347610b23565b604051610354919061134b565b60405180910390f35b34801561036957600080fd5b50610384600480360381019061037f9190611392565b610b49565b005b34801561039257600080fd5b506103ad60048036038101906103a89190611392565b610c04565b005b3480156103bb57600080fd5b506103c4610c8a565b6040516103d191906113e0565b60405180910390f35b600860205280600052604060002060009150905080546103f99061142a565b80601f01602080910402602001604051908101604052809291908181526020018280546104259061142a565b80156104725780601f1061044757610100808354040283529160200191610472565b820191906000526020600020905b81548152906001019060200180831161045557829003601f168201915b505050505081565b600080600260009054906101000a900473ffffffffffffffffffffffffffffffffffffffff1673ffffffffffffffffffffffffffffffffffffffff1663d0def52133866040518363ffffffff1660e01b81526004016104da92919061145b565b6020604051808303816000875af11580156104f9573d6000803e3d6000fd5b505050506040513d601f19601f8201168201806040525081019061051d91906114a0565b905061052981846108fa565b8091505092915050565b600460009054906101000a900473ffffffffffffffffffffffffffffffffffffffff1681565b60006005600083815260200190815260200160002054905060006006600084815260200190815260200160002060009054906101000a900473ffffffffffffffffffffffffffffffffffffffff169050600082116105ec576040517f08c379a00000000000000000000000000000000000000000000000000000000081526004016105e390611519565b60405180910390fd5b60006064600354846105fe9190611568565b61060891906115d9565b905060008184610618919061160a565b905061068b33600460009054906101000a900473ffffffffffffffffffffffffffffffffffffffff1684600160009054906101000a900473ffffffffffffffffffffffffffffffffffffffff1673ffffffffffffffffffffffffffffffffffffffff16610cb0909392919063ffffffff16565b6106da338483600160009054906101000a900473ffffffffffffffffffffffffffffffffffffffff1673ffffffffffffffffffffffffffffffffffffffff16610cb0909392919063ffffffff16565b600260009054906101000a900473ffffffffffffffffffffffffffffffffffffffff1673ffffffffffffffffffffffffffffffffffffffff166323b872dd8433886040518463ffffffff1660e01b81526004016107399392919061163e565b600060405180830381600087803b15801561075357600080fd5b505af1158015610767573d6000803e3d6000fd5b5050505060056000868152602001908152602001600020600090556006600086815260200190815260200160002060006101000a81549073ffffffffffffffffffffffffffffffffffffffff0219169055847f6329e40c0365262ebbff5ca819385c2b9713dcaa050ed07866d72c441395699a33866040516107ea929190611675565b60405180910390a25050505050565b60035481565b60056020528060005260406000206000915090505481565b61081f610d32565b6108296000610db9565b565b60008060009054906101000a900473ffffffffffffffffffffffffffffffffffffffff16905090565b60076020528060005260406000206000915090508060000154908060010154908060020160009054906101000a900473ffffffffffffffffffffffffffffffffffffffff16908060030154905084565b6108ac610d32565b600a8111156108f0576040517f08c379a00000000000000000000000000000000000000000000000000000000081526004016108e7906116ea565b60405180910390fd5b8060038190555050565b813373ffffffffffffffffffffffffffffffffffffffff16600260009054906101000a900473ffffffffffffffffffffffffffffffffffffffff1673ffffffffffffffffffffffffffffffffffffffff16636352211e836040518263ffffffff1660e01b815260040161096d91906111f0565b602060405180830381865afa15801561098a573d6000803e3d6000fd5b505050506040513d601f19601f820116820180604052508101906109ae919061171f565b73ffffffffffffffffffffffffffffffffffffffff1614610a04576040517f08c379a00000000000000000000000000000000000000000000000000000000081526004016109fb90611798565b60405180910390fd5b60008211610a47576040517f08c379a0000000000000000000000000000000000000000000000000000000008152600401610a3e90611804565b60405180910390fd5b816005600085815260200190815260200160002081905550336006600085815260200190815260200160002060006101000a81548173ffffffffffffffffffffffffffffffffffffffff021916908373ffffffffffffffffffffffffffffffffffffffff160217905550827fd2ab19646d6f9fdd37206f962b4ebaab8a4a23ad87f7695e7e1736803cb8bf748333604051610ae3929190611824565b60405180910390a2505050565b60066020528060005260406000206000915054906101000a900473ffffffffffffffffffffffffffffffffffffffff1681565b600260009054906101000a900473ffffffffffffffffffffffffffffffffffffffff1681565b610b51610d32565b600073ffffffffffffffffffffffffffffffffffffffff168173ffffffffffffffffffffffffffffffffffffffff1603610bc0576040517f08c379a0000000000000000000000000000000000000000000000000000000008152600401610bb790611899565b60405180910390fd5b80600460006101000a81548173ffffffffffffffffffffffffffffffffffffffff021916908373ffffffffffffffffffffffffffffffffffffffff16021790555050565b610c0c610d32565b600073ffffffffffffffffffffffffffffffffffffffff168173ffffffffffffffffffffffffffffffffffffffff1603610c7e5760006040517f1e4fbdf7000000000000000000000000000000000000000000000000000000008152600401610c75919061124c565b60405180910390fd5b610c8781610db9565b50565b600160009054906101000a900473ffffffffffffffffffffffffffffffffffffffff1681565b610d2c848573ffffffffffffffffffffffffffffffffffffffff166323b872dd868686604051602401610ce59392919061163e565b604051602081830303815290604052915060e01b6020820180517bffffffffffffffffffffffffffffffffffffffffffffffffffffffff8381831617835250505050610e7d565b50505050565b610d3a610f1f565b73ffffffffffffffffffffffffffffffffffffffff16610d5861082b565b73ffffffffffffffffffffffffffffffffffffffff1614610db757610d7b610f1f565b6040517f118cdaa7000000000000000000000000000000000000000000000000000000008152600401610dae919061124c565b60405180910390fd5b565b60008060009054906101000a900473ffffffffffffffffffffffffffffffffffffffff169050816000806101000a81548173ffffffffffffffffffffffffffffffffffffffff021916908373ffffffffffffffffffffffffffffffffffffffff1602179055508173ffffffffffffffffffffffffffffffffffffffff168173ffffffffffffffffffffffffffffffffffffffff167f8be0079c531659141344cd1fd0a4f28419497f9722a3daafe3b4186f6b6457e060405160405180910390a35050565b600080602060008451602086016000885af180610ea0576040513d6000823e3d81fd5b3d925060005191505060008214610ebb576001811415610ed7565b60008473ffffffffffffffffffffffffffffffffffffffff163b145b15610f1957836040517f5274afe7000000000000000000000000000000000000000000000000000000008152600401610f10919061124c565b60405180910390fd5b50505050565b600033905090565b6000604051905090565b600080fd5b600080fd5b6000819050919050565b610f4e81610f3b565b8114610f5957600080fd5b50565b600081359050610f6b81610f45565b92915050565b600060208284031215610f8757610f86610f31565b5b6000610f9584828501610f5c565b91505092915050565b600081519050919050565b600082825260208201905092915050565b60005b83811015610fd8578082015181840152602081019050610fbd565b60008484015250505050565b6000601f19601f8301169050919050565b600061100082610f9e565b61100a8185610fa9565b935061101a818560208601610fba565b61102381610fe4565b840191505092915050565b600060208201905081810360008301526110488184610ff5565b905092915050565b600080fd5b600080fd5b7f4e487b7100000000000000000000000000000000000000000000000000000000600052604160045260246000fd5b61109282610fe4565b810181811067ffffffffffffffff821117156110b1576110b061105a565b5b80604052505050565b60006110c4610f27565b90506110d08282611089565b919050565b600067ffffffffffffffff8211156110f0576110ef61105a565b5b6110f982610fe4565b9050602081019050919050565b82818337600083830152505050565b6000611128611123846110d5565b6110ba565b90508281526020810184848401111561114457611143611055565b5b61114f848285611106565b509392505050565b600082601f83011261116c5761116b611050565b5b813561117c848260208601611115565b91505092915050565b6000806040838503121561119c5761119b610f31565b5b600083013567ffffffffffffffff8111156111ba576111b9610f36565b5b6111c685828601611157565b92505060206111d785828601610f5c565b9150509250929050565b6111ea81610f3b565b82525050565b600060208201905061120560008301846111e1565b92915050565b600073ffffffffffffffffffffffffffffffffffffffff82169050919050565b60006112368261120b565b9050919050565b6112468161122b565b82525050565b6000602082019050611261600083018461123d565b92915050565b600060808201905061127c60008301876111e1565b61128960208301866111e1565b611296604083018561123d565b6112a360608301846111e1565b95945050505050565b600080604083850312156112c3576112c2610f31565b5b60006112d185828601610f5c565b92505060206112e285828601610f5c565b9150509250929050565b6000819050919050565b600061131161130c6113078461120b565b6112ec565b61120b565b9050919050565b6000611323826112f6565b9050919050565b600061133582611318565b9050919050565b6113458161132a565b82525050565b6000602082019050611360600083018461133c565b92915050565b61136f8161122b565b811461137a57600080fd5b50565b60008135905061138c81611366565b92915050565b6000602082840312156113a8576113a7610f31565b5b60006113b68482850161137d565b91505092915050565b60006113ca82611318565b9050919050565b6113da816113bf565b82525050565b60006020820190506113f560008301846113d1565b92915050565b7f4e487b7100000000000000000000000000000000000000000000000000000000600052602260045260246000fd5b6000600282049050600182168061144257607f821691505b602082108103611455576114546113fb565b5b50919050565b6000604082019050611470600083018561123d565b81810360208301526114828184610ff5565b90509392505050565b60008151905061149a81610f45565b92915050565b6000602082840312156114b6576114b5610f31565b5b60006114c48482850161148b565b91505092915050565b7f4e4654206e6f7420666f722073616c6500000000000000000000000000000000600082015250565b6000611503601083610fa9565b915061150e826114cd565b602082019050919050565b60006020820190508181036000830152611532816114f6565b9050919050565b7f4e487b7100000000000000000000000000000000000000000000000000000000600052601160045260246000fd5b600061157382610f3b565b915061157e83610f3b565b925082820261158c81610f3b565b915082820484148315176115a3576115a2611539565b5b5092915050565b7f4e487b7100000000000000000000000000000000000000000000000000000000600052601260045260246000fd5b60006115e482610f3b565b91506115ef83610f3b565b9250826115ff576115fe6115aa565b5b828204905092915050565b600061161582610f3b565b915061162083610f3b565b925082820390508181111561163857611637611539565b5b92915050565b6000606082019050611653600083018661123d565b611660602083018561123d565b61166d60408301846111e1565b949350505050565b600060408201905061168a600083018561123d565b61169760208301846111e1565b9392505050565b7f46656520746f6f20686967680000000000000000000000000000000000000000600082015250565b60006116d4600c83610fa9565b91506116df8261169e565b602082019050919050565b60006020820190508181036000830152611703816116c7565b9050919050565b60008151905061171981611366565b92915050565b60006020828403121561173557611734610f31565b5b60006117438482850161170a565b91505092915050565b7f4e6f74204e4654206f776e657200000000000000000000000000000000000000600082015250565b6000611782600d83610fa9565b915061178d8261174c565b602082019050919050565b600060208201905081810360008301526117b181611775565b9050919050565b7f5072696365206d7573742062652067726561746572207468616e203000000000600082015250565b60006117ee601c83610fa9565b91506117f9826117b8565b602082019050919050565b6000602082019050818103600083015261181d816117e1565b9050919050565b600060408201905061183960008301856111e1565b611846602083018461123d565b9392505050565b7f496e76616c696420616464726573730000000000000000000000000000000000600082015250565b6000611883600f83610fa9565b915061188e8261184d565b602082019050919050565b600060208201905081810360008301526118b281611876565b905091905056fea2646970667358221220f040fdf8d16002973e69f870370675044ef1aa73ea941c600b3d7b92cd79d95164736f6c634300081c0033",
  "linkReferences": {},
  "deployedLinkReferences": {}
}