{
  "_format": "hh-sol-artifact-1",
  "contractName": "SHABzPlatform",
  "sourceName": "contracts/ShabzPlatform.sol",
  "abi": [
    {
      "inputs": [
        {
          "internalType": "address",
          "name": "_tokenManagerAddress",
          "type": "address"
        },
        {
          "internalType": "address",
          "name": "_nftMarketplaceAddress",
          "type": "address"
        },
        {
          "internalType": "address",
          "name": "_paymentEscrowAddress",
          "type": "address"
        }
      ],
      "stateMutability": "nonpayable",
      "type": "constructor"
    },
    {
      "inputs": [
        {
          "internalType": "address",
          "name": "owner",
          "type": "address"
        }
      ],
      "name": "OwnableInvalidOwner",
      "type": "error"
    },
    {
      "inputs": [
        {
          "internalType": "address",
          "name": "account",
          "type": "address"
        }
      ],
      "name": "OwnableUnauthorizedAccount",
      "type": "error"
    },
    {
      "anonymous": false,
      "inputs": [
        {
          "indexed": true,
          "internalType": "address",
          "name": "user",
          "type": "address"
        },
        {
          "indexed": false,
          "internalType": "uint256",
          "name": "amount",
          "type": "uint256"
        }
      ],
      "name": "AirdropDistributed",
      "type": "event"
    },
    {
      "anonymous": false,
      "inputs": [
        {
          "indexed": true,
          "internalType": "uint256",
          "name": "collaborationId",
          "type": "uint256"
        },
        {
          "indexed": false,
          "internalType": "address[]",
          "name": "creators",
          "type": "address[]"
        }
      ],
      "name": "CollaborationCreated",
      "type": "event"
    },
    {
      "anonymous": false,
      "inputs": [
        {
          "indexed": true,
          "internalType": "address",
          "name": "creator",
          "type": "address"
        }
      ],
      "name": "CreatorRegistered",
      "type": "event"
    },
    {
      "anonymous": false,
      "inputs": [
        {
          "indexed": true,
          "internalType": "address",
          "name": "user",
          "type": "address"
        },
        {
          "indexed": false,
          "internalType": "uint256",
          "name": "points",
          "type": "uint256"
        }
      ],
      "name": "GamificationPointsAwarded",
      "type": "event"
    },
    {
      "anonymous": false,
      "inputs": [
        {
          "indexed": true,
          "internalType": "address",
          "name": "previousOwner",
          "type": "address"
        },
        {
          "indexed": true,
          "internalType": "address",
          "name": "newOwner",
          "type": "address"
        }
      ],
      "name": "OwnershipTransferred",
      "type": "event"
    },
    {
      "anonymous": false,
      "inputs": [
        {
          "indexed": true,
          "internalType": "address",
          "name": "user",
          "type": "address"
        }
      ],
      "name": "UserRegistered",
      "type": "event"
    },
    {
      "inputs": [
        {
          "internalType": "address",
          "name": "user",
          "type": "address"
        },
        {
          "internalType": "uint256",
          "name": "points",
          "type": "uint256"
        }
      ],
      "name": "awardGamificationPoints",
      "outputs": [],
      "stateMutability": "nonpayable",
      "type": "function"
    },
    {
      "inputs": [
        {
          "internalType": "uint256",
          "name": "",
          "type": "uint256"
        }
      ],
      "name": "collaborations",
      "outputs": [
        {
          "internalType": "uint256",
          "name": "startDate",
          "type": "uint256"
        },
        {
          "internalType": "uint256",
          "name": "endDate",
          "type": "uint256"
        },
        {
          "internalType": "bool",
          "name": "isActive",
          "type": "bool"
        }
      ],
      "stateMutability": "view",
      "type": "function"
    },
    {
      "inputs": [
        {
          "internalType": "address[]",
          "name": "_creators",
          "type": "address[]"
        },
        {
          "internalType": "uint256",
          "name": "_startDate",
          "type": "uint256"
        },
        {
          "internalType": "uint256",
          "name": "_endDate",
          "type": "uint256"
        }
      ],
      "name": "createCollaboration",
      "outputs": [],
      "stateMutability": "nonpayable",
      "type": "function"
    },
    {
      "inputs": [],
      "name": "creatorTokenManagerInstance",
      "outputs": [
        {
          "internalType": "contract CreatorTokenManager",
          "name": "",
          "type": "address"
        }
      ],
      "stateMutability": "view",
      "type": "function"
    },
    {
      "inputs": [
        {
          "internalType": "address",
          "name": "user",
          "type": "address"
        },
        {
          "internalType": "uint256",
          "name": "amount",
          "type": "uint256"
        }
      ],
      "name": "distributeAirdrop",
      "outputs": [],
      "stateMutability": "nonpayable",
      "type": "function"
    },
    {
      "inputs": [
        {
          "internalType": "uint256",
          "name": "index",
          "type": "uint256"
        }
      ],
      "name": "getCollaboration",
      "outputs": [
        {
          "internalType": "address[]",
          "name": "",
          "type": "address[]"
        },
        {
          "internalType": "uint256",
          "name": "",
          "type": "uint256"
        },
        {
          "internalType": "uint256",
          "name": "",
          "type": "uint256"
        },
        {
          "internalType": "bool",
          "name": "",
          "type": "bool"
        }
      ],
      "stateMutability": "view",
      "type": "function"
    },
    {
      "inputs": [
        {
          "internalType": "address",
          "name": "user",
          "type": "address"
        }
      ],
      "name": "getUserPoints",
      "outputs": [
        {
          "internalType": "uint256",
          "name": "",
          "type": "uint256"
        }
      ],
      "stateMutability": "view",
      "type": "function"
    },
    {
      "inputs": [
        {
          "internalType": "address",
          "name": "",
          "type": "address"
        }
      ],
      "name": "isCreator",
      "outputs": [
        {
          "internalType": "bool",
          "name": "",
          "type": "bool"
        }
      ],
      "stateMutability": "view",
      "type": "function"
    },
    {
      "inputs": [],
      "name": "nftMarketplaceInstance",
      "outputs": [
        {
          "internalType": "contract NFTMarketplace",
          "name": "",
          "type": "address"
        }
      ],
      "stateMutability": "view",
      "type": "function"
    },
    {
      "inputs": [],
      "name": "owner",
      "outputs": [
        {
          "internalType": "address",
          "name": "",
          "type": "address"
        }
      ],
      "stateMutability": "view",
      "type": "function"
    },
    {
      "inputs": [],
      "name": "paymentEscrowInstance",
      "outputs": [
        {
          "internalType": "contract PaymentEscrow",
          "name": "",
          "type": "address"
        }
      ],
      "stateMutability": "view",
      "type": "function"
    },
    {
      "inputs": [],
      "name": "registerCreator",
      "outputs": [],
      "stateMutability": "nonpayable",
      "type": "function"
    },
    {
      "inputs": [],
      "name": "registerUser",
      "outputs": [],
      "stateMutability": "nonpayable",
      "type": "function"
    },
    {
      "inputs": [],
      "name": "renounceOwnership",
      "outputs": [],
      "stateMutability": "nonpayable",
      "type": "function"
    },
    {
      "inputs": [
        {
          "internalType": "address",
          "name": "newOwner",
          "type": "address"
        }
      ],
      "name": "transferOwnership",
      "outputs": [],
      "stateMutability": "nonpayable",
      "type": "function"
    },
    {
      "inputs": [
        {
          "internalType": "address",
          "name": "",
          "type": "address"
        }
      ],
      "name": "userPoints",
      "outputs": [
        {
          "internalType": "uint256",
          "name": "",
          "type": "uint256"
        }
      ],
      "stateMutability": "view",
      "type": "function"
    }
  ],
  "bytecode": "0x608060405234801561001057600080fd5b50604051611b44380380611b44833981810160405281019061003291906102a7565b33600073ffffffffffffffffffffffffffffffffffffffff168173ffffffffffffffffffffffffffffffffffffffff16036100a55760006040517f1e4fbdf700000000000000000000000000000000000000000000000000000000815260040161009c9190610309565b60405180910390fd5b6100b48161018060201b60201c565b5082600160006101000a81548173ffffffffffffffffffffffffffffffffffffffff021916908373ffffffffffffffffffffffffffffffffffffffff16021790555081600260006101000a81548173ffffffffffffffffffffffffffffffffffffffff021916908373ffffffffffffffffffffffffffffffffffffffff16021790555080600360006101000a81548173ffffffffffffffffffffffffffffffffffffffff021916908373ffffffffffffffffffffffffffffffffffffffff160217905550505050610324565b60008060009054906101000a900473ffffffffffffffffffffffffffffffffffffffff169050816000806101000a81548173ffffffffffffffffffffffffffffffffffffffff021916908373ffffffffffffffffffffffffffffffffffffffff1602179055508173ffffffffffffffffffffffffffffffffffffffff168173ffffffffffffffffffffffffffffffffffffffff167f8be0079c531659141344cd1fd0a4f28419497f9722a3daafe3b4186f6b6457e060405160405180910390a35050565b600080fd5b600073ffffffffffffffffffffffffffffffffffffffff82169050919050565b600061027482610249565b9050919050565b61028481610269565b811461028f57600080fd5b50565b6000815190506102a18161027b565b92915050565b6000806000606084860312156102c0576102bf610244565b5b60006102ce86828701610292565b93505060206102df86828701610292565b92505060406102f086828701610292565b9150509250925092565b61030381610269565b82525050565b600060208201905061031e60008301846102fa565b92915050565b611811806103336000396000f3fe608060405234801561001057600080fd5b50600436106101005760003560e01c80638470bd4311610097578063e569918911610066578063e569918914610268578063efd4606514610284578063f2fde38b146102b4578063f50ddbc7146102d057610100565b80638470bd43146101c95780638da5cb5b146101fc578063aeefe31f1461021a578063c188655f1461024a57610100565b80634b254f68116100d35780634b254f68146101675780634d3820eb14610199578063715018a6146101a35780637185c677146101ad57610100565b806303526b0a146101055780630c6c8fe81461012157806310b9e3b51461012b5780632bf7271414610149575b600080fd5b61011f600480360381019061011a9190611016565b610300565b005b6101296104c0565b005b6101336105ea565b60405161014091906110e4565b60405180910390f35b610151610610565b60405161015e9190611120565b60405180910390f35b610181600480360381019061017c919061113b565b610636565b60405161019093929190611192565b60405180910390f35b6101a161067d565b005b6101ab6106c2565b005b6101c760048036038101906101c291906111c9565b6106d6565b005b6101e360048036038101906101de919061113b565b6108fd565b6040516101f394939291906112c7565b60405180910390f35b610204610a15565b6040516102119190611322565b60405180910390f35b610234600480360381019061022f919061133d565b610a3e565b604051610241919061136a565b60405180910390f35b610252610a87565b60405161025f91906113a6565b60405180910390f35b610282600480360381019061027d91906111c9565b610aad565b005b61029e6004803603810190610299919061133d565b610b5d565b6040516102ab91906113c1565b60405180910390f35b6102ce60048036038101906102c9919061133d565b610b7d565b005b6102ea60048036038101906102e5919061133d565b610c03565b6040516102f7919061136a565b60405180910390f35b600560003373ffffffffffffffffffffffffffffffffffffffff1673ffffffffffffffffffffffffffffffffffffffff16815260200190815260200160002060009054906101000a900460ff1661038c576040517f08c379a000000000000000000000000000000000000000000000000000000000815260040161038390611439565b60405180910390fd5b60018351116103d0576040517f08c379a00000000000000000000000000000000000000000000000000000000081526004016103c7906114cb565b60405180910390fd5b60066040518060800160405280858152602001848152602001838152602001600115158152509080600181540180825580915050600190039060005260206000209060040201600090919091909150600082015181600001908051906020019061043b929190610d6e565b50602082015181600101556040820151816002015560608201518160030160006101000a81548160ff02191690831515021790555050506001600680549050610484919061151a565b7f6de623e7c244fefaa30fde79def61e897aaae99d59160db0c1e81a0683410107846040516104b3919061154e565b60405180910390a2505050565b600560003373ffffffffffffffffffffffffffffffffffffffff1673ffffffffffffffffffffffffffffffffffffffff16815260200190815260200160002060009054906101000a900460ff161561054d576040517f08c379a0000000000000000000000000000000000000000000000000000000008152600401610544906115bc565b60405180910390fd5b6001600560003373ffffffffffffffffffffffffffffffffffffffff1673ffffffffffffffffffffffffffffffffffffffff16815260200190815260200160002060006101000a81548160ff0219169083151502179055503373ffffffffffffffffffffffffffffffffffffffff167f177b4e655e9aaf45f5db25b396dfba96e0152f6adcf5d9a3e7d07276431d42e760405160405180910390a2565b600360009054906101000a900473ffffffffffffffffffffffffffffffffffffffff1681565b600160009054906101000a900473ffffffffffffffffffffffffffffffffffffffff1681565b6006818154811061064657600080fd5b90600052602060002090600402016000915090508060010154908060020154908060030160009054906101000a900460ff16905083565b3373ffffffffffffffffffffffffffffffffffffffff167f54db7a5cb4735e1aac1f53db512d3390390bb6637bd30ad4bf9fc98667d9b9b960405160405180910390a2565b6106ca610c1b565b6106d46000610ca2565b565b6106de610c1b565b6000600160009054906101000a900473ffffffffffffffffffffffffffffffffffffffff1673ffffffffffffffffffffffffffffffffffffffff1663b8d7b669846040518263ffffffff1660e01b815260040161073b9190611322565b602060405180830381865afa158015610758573d6000803e3d6000fd5b505050506040513d601f19601f8201168201806040525081019061077c91906115f1565b9050600073ffffffffffffffffffffffffffffffffffffffff168173ffffffffffffffffffffffffffffffffffffffff16036107ed576040517f08c379a00000000000000000000000000000000000000000000000000000000081526004016107e49061166a565b60405180910390fd5b8073ffffffffffffffffffffffffffffffffffffffff1663a9059cbb84846040518363ffffffff1660e01b815260040161082892919061168a565b6020604051808303816000875af1158015610847573d6000803e3d6000fd5b505050506040513d601f19601f8201168201806040525081019061086b91906116df565b6108aa576040517f08c379a00000000000000000000000000000000000000000000000000000000081526004016108a190611758565b60405180910390fd5b8273ffffffffffffffffffffffffffffffffffffffff167fef90046b8142ea9ef9fbd7a5569b220918264e0b4a07f0103e11e3c21f999da6836040516108f0919061136a565b60405180910390a2505050565b60606000806000806006868154811061091957610918611778565b5b9060005260206000209060040201604051806080016040529081600082018054806020026020016040519081016040528092919081815260200182805480156109b757602002820191906000526020600020905b8160009054906101000a900473ffffffffffffffffffffffffffffffffffffffff1673ffffffffffffffffffffffffffffffffffffffff168152602001906001019080831161096d575b5050505050815260200160018201548152602001600282015481526020016003820160009054906101000a900460ff161515151581525050905080600001518160200151826040015183606001519450945094509450509193509193565b60008060009054906101000a900473ffffffffffffffffffffffffffffffffffffffff16905090565b6000600460008373ffffffffffffffffffffffffffffffffffffffff1673ffffffffffffffffffffffffffffffffffffffff168152602001908152602001600020549050919050565b600260009054906101000a900473ffffffffffffffffffffffffffffffffffffffff1681565b610ab5610c1b565b80600460008473ffffffffffffffffffffffffffffffffffffffff1673ffffffffffffffffffffffffffffffffffffffff1681526020019081526020016000206000828254610b0491906117a7565b925050819055508173ffffffffffffffffffffffffffffffffffffffff167f02c9c3200fc922a9cdae6f82a03761e35775d4a4a75ef0b2e493e4a6e4d54e7682604051610b51919061136a565b60405180910390a25050565b60056020528060005260406000206000915054906101000a900460ff1681565b610b85610c1b565b600073ffffffffffffffffffffffffffffffffffffffff168173ffffffffffffffffffffffffffffffffffffffff1603610bf75760006040517f1e4fbdf7000000000000000000000000000000000000000000000000000000008152600401610bee9190611322565b60405180910390fd5b610c0081610ca2565b50565b60046020528060005260406000206000915090505481565b610c23610d66565b73ffffffffffffffffffffffffffffffffffffffff16610c41610a15565b73ffffffffffffffffffffffffffffffffffffffff1614610ca057610c64610d66565b6040517f118cdaa7000000000000000000000000000000000000000000000000000000008152600401610c979190611322565b60405180910390fd5b565b60008060009054906101000a900473ffffffffffffffffffffffffffffffffffffffff169050816000806101000a81548173ffffffffffffffffffffffffffffffffffffffff021916908373ffffffffffffffffffffffffffffffffffffffff1602179055508173ffffffffffffffffffffffffffffffffffffffff168173ffffffffffffffffffffffffffffffffffffffff167f8be0079c531659141344cd1fd0a4f28419497f9722a3daafe3b4186f6b6457e060405160405180910390a35050565b600033905090565b828054828255906000526020600020908101928215610de7579160200282015b82811115610de65782518260006101000a81548173ffffffffffffffffffffffffffffffffffffffff021916908373ffffffffffffffffffffffffffffffffffffffff16021790555091602001919060010190610d8e565b5b509050610df49190610df8565b5090565b5b80821115610e11576000816000905550600101610df9565b5090565b6000604051905090565b600080fd5b600080fd5b600080fd5b6000601f19601f8301169050919050565b7f4e487b7100000000000000000000000000000000000000000000000000000000600052604160045260246000fd5b610e7782610e2e565b810181811067ffffffffffffffff82111715610e9657610e95610e3f565b5b80604052505050565b6000610ea9610e15565b9050610eb58282610e6e565b919050565b600067ffffffffffffffff821115610ed557610ed4610e3f565b5b602082029050602081019050919050565b600080fd5b600073ffffffffffffffffffffffffffffffffffffffff82169050919050565b6000610f1682610eeb565b9050919050565b610f2681610f0b565b8114610f3157600080fd5b50565b600081359050610f4381610f1d565b92915050565b6000610f5c610f5784610eba565b610e9f565b90508083825260208201905060208402830185811115610f7f57610f7e610ee6565b5b835b81811015610fa85780610f948882610f34565b845260208401935050602081019050610f81565b5050509392505050565b600082601f830112610fc757610fc6610e29565b5b8135610fd7848260208601610f49565b91505092915050565b6000819050919050565b610ff381610fe0565b8114610ffe57600080fd5b50565b60008135905061101081610fea565b92915050565b60008060006060848603121561102f5761102e610e1f565b5b600084013567ffffffffffffffff81111561104d5761104c610e24565b5b61105986828701610fb2565b935050602061106a86828701611001565b925050604061107b86828701611001565b9150509250925092565b6000819050919050565b60006110aa6110a56110a084610eeb565b611085565b610eeb565b9050919050565b60006110bc8261108f565b9050919050565b60006110ce826110b1565b9050919050565b6110de816110c3565b82525050565b60006020820190506110f960008301846110d5565b92915050565b600061110a826110b1565b9050919050565b61111a816110ff565b82525050565b60006020820190506111356000830184611111565b92915050565b60006020828403121561115157611150610e1f565b5b600061115f84828501611001565b91505092915050565b61117181610fe0565b82525050565b60008115159050919050565b61118c81611177565b82525050565b60006060820190506111a76000830186611168565b6111b46020830185611168565b6111c16040830184611183565b949350505050565b600080604083850312156111e0576111df610e1f565b5b60006111ee85828601610f34565b92505060206111ff85828601611001565b9150509250929050565b600081519050919050565b600082825260208201905092915050565b6000819050602082019050919050565b61123e81610f0b565b82525050565b60006112508383611235565b60208301905092915050565b6000602082019050919050565b600061127482611209565b61127e8185611214565b935061128983611225565b8060005b838110156112ba5781516112a18882611244565b97506112ac8361125c565b92505060018101905061128d565b5085935050505092915050565b600060808201905081810360008301526112e18187611269565b90506112f06020830186611168565b6112fd6040830185611168565b61130a6060830184611183565b95945050505050565b61131c81610f0b565b82525050565b60006020820190506113376000830184611313565b92915050565b60006020828403121561135357611352610e1f565b5b600061136184828501610f34565b91505092915050565b600060208201905061137f6000830184611168565b92915050565b6000611390826110b1565b9050919050565b6113a081611385565b82525050565b60006020820190506113bb6000830184611397565b92915050565b60006020820190506113d66000830184611183565b92915050565b600082825260208201905092915050565b7f4e6f7420612063726561746f7200000000000000000000000000000000000000600082015250565b6000611423600d836113dc565b915061142e826113ed565b602082019050919050565b6000602082019050818103600083015261145281611416565b9050919050565b7f4174206c656173742074776f2063726561746f7273206172652072657175697260008201527f6564000000000000000000000000000000000000000000000000000000000000602082015250565b60006114b56022836113dc565b91506114c082611459565b604082019050919050565b600060208201905081810360008301526114e4816114a8565b9050919050565b7f4e487b7100000000000000000000000000000000000000000000000000000000600052601160045260246000fd5b600061152582610fe0565b915061153083610fe0565b9250828203905081811115611548576115476114eb565b5b92915050565b600060208201905081810360008301526115688184611269565b905092915050565b7f416c726561647920726567697374657265642061732063726561746f72000000600082015250565b60006115a6601d836113dc565b91506115b182611570565b602082019050919050565b600060208201905081810360008301526115d581611599565b9050919050565b6000815190506115eb81610f1d565b92915050565b60006020828403121561160757611606610e1f565b5b6000611615848285016115dc565b91505092915050565b7f546f6b656e206e6f7420666f756e6420666f7220757365720000000000000000600082015250565b60006116546018836113dc565b915061165f8261161e565b602082019050919050565b6000602082019050818103600083015261168381611647565b9050919050565b600060408201905061169f6000830185611313565b6116ac6020830184611168565b9392505050565b6116bc81611177565b81146116c757600080fd5b50565b6000815190506116d9816116b3565b92915050565b6000602082840312156116f5576116f4610e1f565b5b6000611703848285016116ca565b91505092915050565b7f41697264726f70207472616e73666572206661696c6564000000000000000000600082015250565b60006117426017836113dc565b915061174d8261170c565b602082019050919050565b6000602082019050818103600083015261177181611735565b9050919050565b7f4e487b7100000000000000000000000000000000000000000000000000000000600052603260045260246000fd5b60006117b282610fe0565b91506117bd83610fe0565b92508282019050808211156117d5576117d46114eb565b5b9291505056fea264697066735822122046da69e0229177450d5e8ea9eec249e632ae7c4fa7199ac6a5047550acfb8e1364736f6c634300081c0033",
  "linkReferences": {},
  "deployedLinkReferences": {}
}