{
  "_format": "hh-sol-artifact-1",
  "contractName": "SHABzPlatform",
  "sourceName": "contracts/ShabzPlatform.sol",
  "abi": [
    {
      "inputs": [
        {
          "internalType": "address",
          "name": "_tokenManagerAddress",
          "type": "address"
        },
        {
          "internalType": "address",
          "name": "_nftMarketplaceAddress",
          "type": "address"
        },
        {
          "internalType": "address",
          "name": "_paymentEscrowAddress",
          "type": "address"
        }
      ],
      "stateMutability": "nonpayable",
      "type": "constructor"
    },
    {
      "inputs": [
        {
          "internalType": "address",
          "name": "owner",
          "type": "address"
        }
      ],
      "name": "OwnableInvalidOwner",
      "type": "error"
    },
    {
      "inputs": [
        {
          "internalType": "address",
          "name": "account",
          "type": "address"
        }
      ],
      "name": "OwnableUnauthorizedAccount",
      "type": "error"
    },
    {
      "anonymous": false,
      "inputs": [
        {
          "indexed": true,
          "internalType": "address",
          "name": "user",
          "type": "address"
        },
        {
          "indexed": false,
          "internalType": "uint256",
          "name": "amount",
          "type": "uint256"
        }
      ],
      "name": "AirdropDistributed",
      "type": "event"
    },
    {
      "anonymous": false,
      "inputs": [
        {
          "indexed": true,
          "internalType": "uint256",
          "name": "collaborationId",
          "type": "uint256"
        },
        {
          "indexed": false,
          "internalType": "address[]",
          "name": "creators",
          "type": "address[]"
        }
      ],
      "name": "CollaborationCreated",
      "type": "event"
    },
    {
      "anonymous": false,
      "inputs": [
        {
          "indexed": true,
          "internalType": "address",
          "name": "creator",
          "type": "address"
        }
      ],
      "name": "CreatorRegistered",
      "type": "event"
    },
    {
      "anonymous": false,
      "inputs": [
        {
          "indexed": true,
          "internalType": "address",
          "name": "user",
          "type": "address"
        },
        {
          "indexed": false,
          "internalType": "uint256",
          "name": "points",
          "type": "uint256"
        }
      ],
      "name": "GamificationPointsAwarded",
      "type": "event"
    },
    {
      "anonymous": false,
      "inputs": [
        {
          "indexed": true,
          "internalType": "address",
          "name": "previousOwner",
          "type": "address"
        },
        {
          "indexed": true,
          "internalType": "address",
          "name": "newOwner",
          "type": "address"
        }
      ],
      "name": "OwnershipTransferred",
      "type": "event"
    },
    {
      "anonymous": false,
      "inputs": [
        {
          "indexed": true,
          "internalType": "address",
          "name": "user",
          "type": "address"
        }
      ],
      "name": "UserRegistered",
      "type": "event"
    },
    {
      "inputs": [
        {
          "internalType": "address",
          "name": "user",
          "type": "address"
        },
        {
          "internalType": "uint256",
          "name": "points",
          "type": "uint256"
        }
      ],
      "name": "awardGamificationPoints",
      "outputs": [],
      "stateMutability": "nonpayable",
      "type": "function"
    },
    {
      "inputs": [
        {
          "internalType": "uint256",
          "name": "",
          "type": "uint256"
        }
      ],
      "name": "collaborations",
      "outputs": [
        {
          "internalType": "uint256",
          "name": "startDate",
          "type": "uint256"
        },
        {
          "internalType": "uint256",
          "name": "endDate",
          "type": "uint256"
        },
        {
          "internalType": "bool",
          "name": "isActive",
          "type": "bool"
        }
      ],
      "stateMutability": "view",
      "type": "function"
    },
    {
      "inputs": [
        {
          "internalType": "address[]",
          "name": "_creators",
          "type": "address[]"
        },
        {
          "internalType": "uint256",
          "name": "_startDate",
          "type": "uint256"
        },
        {
          "internalType": "uint256",
          "name": "_endDate",
          "type": "uint256"
        }
      ],
      "name": "createCollaboration",
      "outputs": [],
      "stateMutability": "nonpayable",
      "type": "function"
    },
    {
      "inputs": [],
      "name": "creatorTokenManagerInstance",
      "outputs": [
        {
          "internalType": "contract CreatorTokenManager",
          "name": "",
          "type": "address"
        }
      ],
      "stateMutability": "view",
      "type": "function"
    },
    {
      "inputs": [
        {
          "internalType": "address",
          "name": "user",
          "type": "address"
        },
        {
          "internalType": "uint256",
          "name": "amount",
          "type": "uint256"
        }
      ],
      "name": "distributeAirdrop",
      "outputs": [],
      "stateMutability": "nonpayable",
      "type": "function"
    },
    {
      "inputs": [
        {
          "internalType": "uint256",
          "name": "index",
          "type": "uint256"
        }
      ],
      "name": "getCollaboration",
      "outputs": [
        {
          "internalType": "address[]",
          "name": "",
          "type": "address[]"
        },
        {
          "internalType": "uint256",
          "name": "",
          "type": "uint256"
        },
        {
          "internalType": "uint256",
          "name": "",
          "type": "uint256"
        },
        {
          "internalType": "bool",
          "name": "",
          "type": "bool"
        }
      ],
      "stateMutability": "view",
      "type": "function"
    },
    {
      "inputs": [
        {
          "internalType": "address",
          "name": "user",
          "type": "address"
        }
      ],
      "name": "getUserPoints",
      "outputs": [
        {
          "internalType": "uint256",
          "name": "",
          "type": "uint256"
        }
      ],
      "stateMutability": "view",
      "type": "function"
    },
    {
      "inputs": [
        {
          "internalType": "address",
          "name": "",
          "type": "address"
        }
      ],
      "name": "isCreator",
      "outputs": [
        {
          "internalType": "bool",
          "name": "",
          "type": "bool"
        }
      ],
      "stateMutability": "view",
      "type": "function"
    },
    {
      "inputs": [
        {
          "internalType": "address",
          "name": "",
          "type": "address"
        }
      ],
      "name": "isUser",
      "outputs": [
        {
          "internalType": "bool",
          "name": "",
          "type": "bool"
        }
      ],
      "stateMutability": "view",
      "type": "function"
    },
    {
      "inputs": [],
      "name": "nftMarketplaceInstance",
      "outputs": [
        {
          "internalType": "contract NFTMarketplace",
          "name": "",
          "type": "address"
        }
      ],
      "stateMutability": "view",
      "type": "function"
    },
    {
      "inputs": [],
      "name": "owner",
      "outputs": [
        {
          "internalType": "address",
          "name": "",
          "type": "address"
        }
      ],
      "stateMutability": "view",
      "type": "function"
    },
    {
      "inputs": [],
      "name": "paymentEscrowInstance",
      "outputs": [
        {
          "internalType": "contract PaymentEscrow",
          "name": "",
          "type": "address"
        }
      ],
      "stateMutability": "view",
      "type": "function"
    },
    {
      "inputs": [],
      "name": "registerCreator",
      "outputs": [],
      "stateMutability": "nonpayable",
      "type": "function"
    },
    {
      "inputs": [],
      "name": "registerUser",
      "outputs": [],
      "stateMutability": "nonpayable",
      "type": "function"
    },
    {
      "inputs": [],
      "name": "renounceOwnership",
      "outputs": [],
      "stateMutability": "nonpayable",
      "type": "function"
    },
    {
      "inputs": [
        {
          "internalType": "address",
          "name": "newOwner",
          "type": "address"
        }
      ],
      "name": "transferOwnership",
      "outputs": [],
      "stateMutability": "nonpayable",
      "type": "function"
    },
    {
      "inputs": [
        {
          "internalType": "address",
          "name": "",
          "type": "address"
        }
      ],
      "name": "userPoints",
      "outputs": [
        {
          "internalType": "uint256",
          "name": "",
          "type": "uint256"
        }
      ],
      "stateMutability": "view",
      "type": "function"
    }
  ],
  "bytecode": "0x608060405234801561001057600080fd5b50604051611cf0380380611cf0833981810160405281019061003291906102a7565b33600073ffffffffffffffffffffffffffffffffffffffff168173ffffffffffffffffffffffffffffffffffffffff16036100a55760006040517f1e4fbdf700000000000000000000000000000000000000000000000000000000815260040161009c9190610309565b60405180910390fd5b6100b48161018060201b60201c565b5082600160006101000a81548173ffffffffffffffffffffffffffffffffffffffff021916908373ffffffffffffffffffffffffffffffffffffffff16021790555081600260006101000a81548173ffffffffffffffffffffffffffffffffffffffff021916908373ffffffffffffffffffffffffffffffffffffffff16021790555080600360006101000a81548173ffffffffffffffffffffffffffffffffffffffff021916908373ffffffffffffffffffffffffffffffffffffffff160217905550505050610324565b60008060009054906101000a900473ffffffffffffffffffffffffffffffffffffffff169050816000806101000a81548173ffffffffffffffffffffffffffffffffffffffff021916908373ffffffffffffffffffffffffffffffffffffffff1602179055508173ffffffffffffffffffffffffffffffffffffffff168173ffffffffffffffffffffffffffffffffffffffff167f8be0079c531659141344cd1fd0a4f28419497f9722a3daafe3b4186f6b6457e060405160405180910390a35050565b600080fd5b600073ffffffffffffffffffffffffffffffffffffffff82169050919050565b600061027482610249565b9050919050565b61028481610269565b811461028f57600080fd5b50565b6000815190506102a18161027b565b92915050565b6000806000606084860312156102c0576102bf610244565b5b60006102ce86828701610292565b93505060206102df86828701610292565b92505060406102f086828701610292565b9150509250925092565b61030381610269565b82525050565b600060208201905061031e60008301846102fa565b92915050565b6119bd806103336000396000f3fe608060405234801561001057600080fd5b506004361061010b5760003560e01c80637185c677116100a2578063c188655f11610071578063c188655f14610285578063e5699189146102a3578063efd46065146102bf578063f2fde38b146102ef578063f50ddbc71461030b5761010b565b80637185c677146101e85780638470bd43146102045780638da5cb5b14610237578063aeefe31f146102555761010b565b80634209fff1116100de5780634209fff1146101725780634b254f68146101a25780634d3820eb146101d4578063715018a6146101de5761010b565b806303526b0a146101105780630c6c8fe81461012c57806310b9e3b5146101365780632bf7271414610154575b600080fd5b61012a60048036038101906101259190611156565b61033b565b005b6101346104fb565b005b61013e610625565b60405161014b9190611224565b60405180910390f35b61015c61064b565b6040516101699190611260565b60405180910390f35b61018c6004803603810190610187919061127b565b610671565b60405161019991906112c3565b60405180910390f35b6101bc60048036038101906101b791906112de565b610691565b6040516101cb9392919061131a565b60405180910390f35b6101dc6106d8565b005b6101e6610802565b005b61020260048036038101906101fd9190611351565b610816565b005b61021e600480360381019061021991906112de565b610a3d565b60405161022e949392919061144f565b60405180910390f35b61023f610b55565b60405161024c91906114aa565b60405180910390f35b61026f600480360381019061026a919061127b565b610b7e565b60405161027c91906114c5565b60405180910390f35b61028d610bc7565b60405161029a9190611501565b60405180910390f35b6102bd60048036038101906102b89190611351565b610bed565b005b6102d960048036038101906102d4919061127b565b610c9d565b6040516102e691906112c3565b60405180910390f35b6103096004803603810190610304919061127b565b610cbd565b005b6103256004803603810190610320919061127b565b610d43565b60405161033291906114c5565b60405180910390f35b600560003373ffffffffffffffffffffffffffffffffffffffff1673ffffffffffffffffffffffffffffffffffffffff16815260200190815260200160002060009054906101000a900460ff166103c7576040517f08c379a00000000000000000000000000000000000000000000000000000000081526004016103be90611579565b60405180910390fd5b600183511161040b576040517f08c379a00000000000000000000000000000000000000000000000000000000081526004016104029061160b565b60405180910390fd5b600760405180608001604052808581526020018481526020018381526020016001151581525090806001815401808255809150506001900390600052602060002090600402016000909190919091506000820151816000019080519060200190610476929190610eae565b50602082015181600101556040820151816002015560608201518160030160006101000a81548160ff021916908315150217905550505060016007805490506104bf919061165a565b7f6de623e7c244fefaa30fde79def61e897aaae99d59160db0c1e81a0683410107846040516104ee919061168e565b60405180910390a2505050565b600560003373ffffffffffffffffffffffffffffffffffffffff1673ffffffffffffffffffffffffffffffffffffffff16815260200190815260200160002060009054906101000a900460ff1615610588576040517f08c379a000000000000000000000000000000000000000000000000000000000815260040161057f906116fc565b60405180910390fd5b6001600560003373ffffffffffffffffffffffffffffffffffffffff1673ffffffffffffffffffffffffffffffffffffffff16815260200190815260200160002060006101000a81548160ff0219169083151502179055503373ffffffffffffffffffffffffffffffffffffffff167f177b4e655e9aaf45f5db25b396dfba96e0152f6adcf5d9a3e7d07276431d42e760405160405180910390a2565b600360009054906101000a900473ffffffffffffffffffffffffffffffffffffffff1681565b600160009054906101000a900473ffffffffffffffffffffffffffffffffffffffff1681565b60066020528060005260406000206000915054906101000a900460ff1681565b600781815481106106a157600080fd5b90600052602060002090600402016000915090508060010154908060020154908060030160009054906101000a900460ff16905083565b600660003373ffffffffffffffffffffffffffffffffffffffff1673ffffffffffffffffffffffffffffffffffffffff16815260200190815260200160002060009054906101000a900460ff1615610765576040517f08c379a000000000000000000000000000000000000000000000000000000000815260040161075c90611768565b60405180910390fd5b6001600660003373ffffffffffffffffffffffffffffffffffffffff1673ffffffffffffffffffffffffffffffffffffffff16815260200190815260200160002060006101000a81548160ff0219169083151502179055503373ffffffffffffffffffffffffffffffffffffffff167f54db7a5cb4735e1aac1f53db512d3390390bb6637bd30ad4bf9fc98667d9b9b960405160405180910390a2565b61080a610d5b565b6108146000610de2565b565b61081e610d5b565b6000600160009054906101000a900473ffffffffffffffffffffffffffffffffffffffff1673ffffffffffffffffffffffffffffffffffffffff1663b8d7b669846040518263ffffffff1660e01b815260040161087b91906114aa565b602060405180830381865afa158015610898573d6000803e3d6000fd5b505050506040513d601f19601f820116820180604052508101906108bc919061179d565b9050600073ffffffffffffffffffffffffffffffffffffffff168173ffffffffffffffffffffffffffffffffffffffff160361092d576040517f08c379a000000000000000000000000000000000000000000000000000000000815260040161092490611816565b60405180910390fd5b8073ffffffffffffffffffffffffffffffffffffffff1663a9059cbb84846040518363ffffffff1660e01b8152600401610968929190611836565b6020604051808303816000875af1158015610987573d6000803e3d6000fd5b505050506040513d601f19601f820116820180604052508101906109ab919061188b565b6109ea576040517f08c379a00000000000000000000000000000000000000000000000000000000081526004016109e190611904565b60405180910390fd5b8273ffffffffffffffffffffffffffffffffffffffff167fef90046b8142ea9ef9fbd7a5569b220918264e0b4a07f0103e11e3c21f999da683604051610a3091906114c5565b60405180910390a2505050565b606060008060008060078681548110610a5957610a58611924565b5b906000526020600020906004020160405180608001604052908160008201805480602002602001604051908101604052809291908181526020018280548015610af757602002820191906000526020600020905b8160009054906101000a900473ffffffffffffffffffffffffffffffffffffffff1673ffffffffffffffffffffffffffffffffffffffff1681526020019060010190808311610aad575b5050505050815260200160018201548152602001600282015481526020016003820160009054906101000a900460ff161515151581525050905080600001518160200151826040015183606001519450945094509450509193509193565b60008060009054906101000a900473ffffffffffffffffffffffffffffffffffffffff16905090565b6000600460008373ffffffffffffffffffffffffffffffffffffffff1673ffffffffffffffffffffffffffffffffffffffff168152602001908152602001600020549050919050565b600260009054906101000a900473ffffffffffffffffffffffffffffffffffffffff1681565b610bf5610d5b565b80600460008473ffffffffffffffffffffffffffffffffffffffff1673ffffffffffffffffffffffffffffffffffffffff1681526020019081526020016000206000828254610c449190611953565b925050819055508173ffffffffffffffffffffffffffffffffffffffff167f02c9c3200fc922a9cdae6f82a03761e35775d4a4a75ef0b2e493e4a6e4d54e7682604051610c9191906114c5565b60405180910390a25050565b60056020528060005260406000206000915054906101000a900460ff1681565b610cc5610d5b565b600073ffffffffffffffffffffffffffffffffffffffff168173ffffffffffffffffffffffffffffffffffffffff1603610d375760006040517f1e4fbdf7000000000000000000000000000000000000000000000000000000008152600401610d2e91906114aa565b60405180910390fd5b610d4081610de2565b50565b60046020528060005260406000206000915090505481565b610d63610ea6565b73ffffffffffffffffffffffffffffffffffffffff16610d81610b55565b73ffffffffffffffffffffffffffffffffffffffff1614610de057610da4610ea6565b6040517f118cdaa7000000000000000000000000000000000000000000000000000000008152600401610dd791906114aa565b60405180910390fd5b565b60008060009054906101000a900473ffffffffffffffffffffffffffffffffffffffff169050816000806101000a81548173ffffffffffffffffffffffffffffffffffffffff021916908373ffffffffffffffffffffffffffffffffffffffff1602179055508173ffffffffffffffffffffffffffffffffffffffff168173ffffffffffffffffffffffffffffffffffffffff167f8be0079c531659141344cd1fd0a4f28419497f9722a3daafe3b4186f6b6457e060405160405180910390a35050565b600033905090565b828054828255906000526020600020908101928215610f27579160200282015b82811115610f265782518260006101000a81548173ffffffffffffffffffffffffffffffffffffffff021916908373ffffffffffffffffffffffffffffffffffffffff16021790555091602001919060010190610ece565b5b509050610f349190610f38565b5090565b5b80821115610f51576000816000905550600101610f39565b5090565b6000604051905090565b600080fd5b600080fd5b600080fd5b6000601f19601f8301169050919050565b7f4e487b7100000000000000000000000000000000000000000000000000000000600052604160045260246000fd5b610fb782610f6e565b810181811067ffffffffffffffff82111715610fd657610fd5610f7f565b5b80604052505050565b6000610fe9610f55565b9050610ff58282610fae565b919050565b600067ffffffffffffffff82111561101557611014610f7f565b5b602082029050602081019050919050565b600080fd5b600073ffffffffffffffffffffffffffffffffffffffff82169050919050565b60006110568261102b565b9050919050565b6110668161104b565b811461107157600080fd5b50565b6000813590506110838161105d565b92915050565b600061109c61109784610ffa565b610fdf565b905080838252602082019050602084028301858111156110bf576110be611026565b5b835b818110156110e857806110d48882611074565b8452602084019350506020810190506110c1565b5050509392505050565b600082601f83011261110757611106610f69565b5b8135611117848260208601611089565b91505092915050565b6000819050919050565b61113381611120565b811461113e57600080fd5b50565b6000813590506111508161112a565b92915050565b60008060006060848603121561116f5761116e610f5f565b5b600084013567ffffffffffffffff81111561118d5761118c610f64565b5b611199868287016110f2565b93505060206111aa86828701611141565b92505060406111bb86828701611141565b9150509250925092565b6000819050919050565b60006111ea6111e56111e08461102b565b6111c5565b61102b565b9050919050565b60006111fc826111cf565b9050919050565b600061120e826111f1565b9050919050565b61121e81611203565b82525050565b60006020820190506112396000830184611215565b92915050565b600061124a826111f1565b9050919050565b61125a8161123f565b82525050565b60006020820190506112756000830184611251565b92915050565b60006020828403121561129157611290610f5f565b5b600061129f84828501611074565b91505092915050565b60008115159050919050565b6112bd816112a8565b82525050565b60006020820190506112d860008301846112b4565b92915050565b6000602082840312156112f4576112f3610f5f565b5b600061130284828501611141565b91505092915050565b61131481611120565b82525050565b600060608201905061132f600083018661130b565b61133c602083018561130b565b61134960408301846112b4565b949350505050565b6000806040838503121561136857611367610f5f565b5b600061137685828601611074565b925050602061138785828601611141565b9150509250929050565b600081519050919050565b600082825260208201905092915050565b6000819050602082019050919050565b6113c68161104b565b82525050565b60006113d883836113bd565b60208301905092915050565b6000602082019050919050565b60006113fc82611391565b611406818561139c565b9350611411836113ad565b8060005b8381101561144257815161142988826113cc565b9750611434836113e4565b925050600181019050611415565b5085935050505092915050565b6000608082019050818103600083015261146981876113f1565b9050611478602083018661130b565b611485604083018561130b565b61149260608301846112b4565b95945050505050565b6114a48161104b565b82525050565b60006020820190506114bf600083018461149b565b92915050565b60006020820190506114da600083018461130b565b92915050565b60006114eb826111f1565b9050919050565b6114fb816114e0565b82525050565b600060208201905061151660008301846114f2565b92915050565b600082825260208201905092915050565b7f4e6f7420612063726561746f7200000000000000000000000000000000000000600082015250565b6000611563600d8361151c565b915061156e8261152d565b602082019050919050565b6000602082019050818103600083015261159281611556565b9050919050565b7f4174206c656173742074776f2063726561746f7273206172652072657175697260008201527f6564000000000000000000000000000000000000000000000000000000000000602082015250565b60006115f560228361151c565b915061160082611599565b604082019050919050565b60006020820190508181036000830152611624816115e8565b9050919050565b7f4e487b7100000000000000000000000000000000000000000000000000000000600052601160045260246000fd5b600061166582611120565b915061167083611120565b92508282039050818111156116885761168761162b565b5b92915050565b600060208201905081810360008301526116a881846113f1565b905092915050565b7f416c726561647920726567697374657265642061732063726561746f72000000600082015250565b60006116e6601d8361151c565b91506116f1826116b0565b602082019050919050565b60006020820190508181036000830152611715816116d9565b9050919050565b7f416c726561647920726567697374657265642061732055736572000000000000600082015250565b6000611752601a8361151c565b915061175d8261171c565b602082019050919050565b6000602082019050818103600083015261178181611745565b9050919050565b6000815190506117978161105d565b92915050565b6000602082840312156117b3576117b2610f5f565b5b60006117c184828501611788565b91505092915050565b7f546f6b656e206e6f7420666f756e6420666f7220757365720000000000000000600082015250565b600061180060188361151c565b915061180b826117ca565b602082019050919050565b6000602082019050818103600083015261182f816117f3565b9050919050565b600060408201905061184b600083018561149b565b611858602083018461130b565b9392505050565b611868816112a8565b811461187357600080fd5b50565b6000815190506118858161185f565b92915050565b6000602082840312156118a1576118a0610f5f565b5b60006118af84828501611876565b91505092915050565b7f41697264726f70207472616e73666572206661696c6564000000000000000000600082015250565b60006118ee60178361151c565b91506118f9826118b8565b602082019050919050565b6000602082019050818103600083015261191d816118e1565b9050919050565b7f4e487b7100000000000000000000000000000000000000000000000000000000600052603260045260246000fd5b600061195e82611120565b915061196983611120565b92508282019050808211156119815761198061162b565b5b9291505056fea26469706673582212207f2280a28468846e563f3f2f67746f61415412f80b14bf7e8bdbaf11df2f917764736f6c634300081c0033",
  "linkReferences": {},
  "deployedLinkReferences": {}
}